:0400000007EF00F016
:0A0008004082A4ED06F032EF08F08C
:05080000006F6E000016
:1008060080C084F00001856B866B7F35843701E3F9
:1008160085818451896F83C084F0856B866B8235B0
:10082600843701E385818451886F8951D8B40BD010
:100836008851895DD8B00ED0895100088825846F0B
:10084600180E846507D081C07EF082C07FF083C019
:1008560080F012008851D8B40BD08951885DD8B089
:100866000ED0885100088925846F180E846507D03C
:100876007EC07EF07FC07FF080C080F01200060E42
:10088600876F80BF878F83BF878D7F8FFF0E7E1711
:10089600FF0E7F17000E8017828FFF0E8117FF0E47
:1008A6008217000E83178851895DD8B01BD0D89067
:1008B600813782378337880789518819D8B40DD094
:1008C600870787C084F0070E8417D8B406D0EFD701
:1008D600D89080337F337E33892B88518919D8B4D9
:1008E6001FD0F6D78951885DD8B01AD0D8907E37F8
:1008F6007F378037890789518819D8B40DD0870783
:1009060087C084F0070E8417D8B406D0EFD7D890E6
:10091600833382338133882B88518919D8A4F7D73A
:1009260087AF0CD0FF0E7E1BFF0E7F1BFF0E801BBA
:10093600010E7E27000E7F23000E802387AD0CD08C
:10094600FF0E811BFF0E821BFF0E831B010E8127EC
:10095600000E8223000E8323000E876F7E518127AF
:100966007F5182238051832383AF0ED0FF0E811BDC
:10097600FF0E821BFF0E831B010E8127000E8223B2
:10098600000E8323010E876F81C060F082C061F084
:1009960083C062F089C063F087C064F04CEC06F057
:1009A60060C07EF061C07FF062C080F01200000E71
:1009B6000C6E000E0B6E37D00B500124D96E0C5006
:1009C6000220DA6E000EDF6EAECF0DF0600E0D6403
:1009D60003D07A0E0D6404D0200E0D18D8A40BD0C7
:1009E6000B500124D96E0C500220DA6E0DC0DFFFC9
:1009F600000EAE6E14D0010E0B24046E000E0C20F9
:100A0600056E04500124D96E05500220DA6E000EE0
:100A1600DF6EFF0E03240B6E0C6AFF0E0C22000E17
:100A26000D6E0B4A0C2AFE0E046EFF0E056E035069
:100A3600066E076A04500626055007220B50065C10
:100A46000750800A086E0C50800A0858D8B0B4D7F0
:100A5600000E0A6E000E096E16D0010E0924046EF1
:100A6600000E0A20056E04500124D96E055002209E
:100A7600DA6E09500124E16E0A500220E26EDFCFE1
:100A8600E7FF094A0A2AFF0E046EFF0E056E0350A1
:100A9600066E076A04500626055007220650095CB2
:100AA6000A50800A086E0750800A0858D8B012000B
:100AB600D4D762C064F00001656B666B613564373C
:100AC60001E3658164516E6F6E51D8A409D0000EA2
:100AD600606F000E616F000E626F000E636F120092
:100AE600170E646F60C065F061C066F062C067F0A3
:100AF6006429686F04D0D890673366336533682FEE
:100B0600FAD700016551696F618FFF0E6017FF0EFE
:100B16006117000E621760516A6F61516B6F625107
:100B26006C6F6D6B8E0E6E5F6EAF16D06E51800A57
:100B36008F0FD8B009D0000E606F000E616F000EE7
:100B4600626F000E636F1200D8906D336C336B3397
:100B56006A336E3FF9D715D0170E6E650FD0000EAB
:100B6600606F000E616F000E626F000E636F120001
:100B7600D8906A376B376C376D376E076E51D8A4CD
:100B8600F7D76951D8B408D06D1F6C1F6B1F6A6DFB
:100B9600000E6B236C236D236AC060F06BC061F09E
:100BA6006CC062F06DC063F0120071C075F0000198
:100BB600766B776B7035753701E3768175517C6F8F
:100BC6007C51D8A407D0000E6F6F000E706F000E18
:100BD600716F120074C075F0766B776B733575376D
:100BE60001E3768175517D6F7D51D8A407D0000E43
:100BF6006F6F000E706F000E716F1200000E796F2E
:100C0600000E7A6F000E7B6F7D51890F7C5F71C07D
:100C16007DF074517D1B800E7D17708FFF0E6F1750
:100C2600FF0E7017000E7117738FFF0E7217FF0EEF
:100C36007317000E7417180E786FD89079377A37B5
:100C46007B3772516F5D7351705974517159D8A0C9
:100C560007D072516F5F7351705B7451715B79810C
:100C6600D8906F3770377137782FE7D779C060F033
:100C76007AC061F07BC062F07CC063F07DC064F036
:100C86004CEC06F060C06FF061C070F062C071F0AD
:100C9600120000016351D8B405D060516111621190
:100CA600D8A40CD0000E606F000E616F000E626F4C
:100CB6001200632BD890623361336033000E6015E7
:100CC600206E000E6115216EFE0E6215226E2050FA
:100CD60021102210D8B40CD0ECD7632B010E60275C
:100CE600000E6123000E6223D890623361336033B5
:100CF600000E6015206E000E6115216EFF0E621546
:100D0600226E205021102210D8B406D0E6D76307F1
:100D1600D89060376137623761BF03D0020E6361D6
:100D2600F6D763A1619FD890633363516213645110
:100D3600D8A4628F60C060F061C061F062C062F0EA
:100D460012000600FACF0EF0FBCF0FF0E9CF10F03D
:100D5600EACF11F0E1CF12F0E2CF13F0D9CF14F0C1
:100D6600DACF15F0F3CF16F0F4CF17F0F6CF18F070
:100D7600F7CF19F0F8CF1AF0F5CF1BF040C01CF0F2
:100D860041C01DF042C01EF043C01FF09EAA09D00C
:100D9600290E016E000E026E160E036EDAEC04F0DA
:100DA60082841FC043F01EC042F01DC041F01CC02B
:100DB60040F01BC0F5FF1AC0F8FF19C0F7FF18C0B6
:100DC600F6FF17C0F4FF16C0F3FF15C0DAFF14C014
:100DD600D9FF13C0E2FF12C0E1FF11C0EAFF10C045
:100DE600E9FF0FC0FBFF0EC0FAFF40921100949C72
:100DF600948E8AC065F08BC066F08CC067F08DC09B
:100E060068F079EC07F065C072F066C073F067C0F1
:100E160074F0240E00016F6FF40E706F470E716F41
:100E2600D8EC05F06FC07EF070C07FF071C080F026
:100E3600000E0001816F800E826FBF0E836F03EC80
:100E460004F07EC08EF07FC08FF080C090F08EC020
:100E560060F08FC061F090C062F05CEC05F00001BC
:100E66006051AF6E200EAC6E940EAB6E1200720E19
:100E7600D36E000E946EB6EC07F0800E00018A6FFA
:100E8600250E8B6F000E8C6F000E8D6FFAEC06F040
:100E9600000E216E320E206E16EC08F0290E216E21
:100EA600000E226E61EC08F0010E0001606F080E64
:100EB600616F290E626F000E636FEEEC07F00001A2
:100EC60060516111D8A402D0828401D08294290E87
:100ED600606F000E616F000E636F000E626F000E92
:100EE600656F160E646F4AEC08F0D8D7000E000145
:100EF6006E6F8E0E6D6F68AF11D0681F671F661F0D
:100F0600656D000E662367236823010E6E6F06D09B
:100F1600D89068336733663365336D2B000E6515DD
:100F2600696F000E66156A6F000E67156B6FFF0E10
:100F360068156C6F69516A116B116C11D8A4E8D7EA
:100F460065C060F066C061F067C062F06DC063F0B6
:100F56006EC064F04CEC06F060C065F061C066F0EF
:100F660062C067F01200F28EF28CD58ED58CD59ABF
:100F7600D596D550F80B0409D56EF294C180C1827E
:100F8600C184C186000E926E000E936E070EC26E6D
:100F9600C290C08EC050F80B0609C06EC050C70B79
:100FA6002809C06EC150F00B0D09C16E9282C05067
:100FB600F80B0609C06EC19AC198C08EC2909D8C6E
:100FC6009E9C9D8AC086C088C08AC282000E956E8D
:100FD600000E806E120005D00001604B612B624B43
:100FE600632B60C0F6FF61C0F7FF0800F5CF20F065
:100FF60062C0D9FF63C0DAFFDF5000082024216EEB
:101006002150D8A409D060C0F6FF61C0F7FF0800E0
:10101600F5500009D8A4E0D721500001606F616B3C
:1010260060BF61071200000E0001616F000E606F65
:101036000FD0000E636F000E626F635107E1510E11
:10104600625DD8B003D0624B632BF7D7604B612B40
:101056006051205C61512158D8A01200EAD7F20EE7
:10106600F66E100EF76E000EF86E0900F5CF3FF023
:1010760000EE23F01C0EEE6AE806FDE14090409279
:10108600000EF86E080EF76E00013AEF07F060C02A
:1010960020F061C021F008D020C0D9FF21C0DAFFBE
:1010A60062C0DFFF204A212A00016407D8A0650735
:1010B6006429F2E16529D8B41200EED709D021C01F
:1010C600D9FF22C0DAFFDF5073EC08F0214A222A4A
:1010D60021C0D9FF22C0DAFFDF50D8B41200EFD703
:0D10E600206E9EA8FED720C0ADFF120007AF
:020000040020DA
:08000000FFFFFFFFFFFFFFFF00
:020000040030CA
:0E000000010E1F1EFF8381FF0FC00FE00F4097
:00000001FF
