:0400000007EF00F016
:0A0008005F822AED17F0B9EF1CF03B
:100800000000803F72313FFE753E58633D951D3CB0
:10081000C5AE3A79213994803793A73556153400FF
:10082000000000803FF0FFBEE2A93E8376BEAE2B03
:0B0830003E3CC3BDD2133D78D3BB009B
:10083C0071C108F172C109F1D8EC1BF008C10FF1BC
:10084C0009C110F10AC111F1000E01012D6F800ECA
:10085C002E6F3F0E2F6FE9C12AF1EAC12BF1EBC1CC
:10086C002CF1B4EC0BF02AC10CF12BC10DF12CC105
:10087C000EF17AEC10F00CC193F10DC194F10EC194
:10088C0095F1000E01011E6FC80E1F6F420E206FF6
:10089C00000E0F6F800E106F400E116F93C10CF194
:1008AC0094C10DF195C10EF17AEC10F00CC11BF155
:1008BC000DC11CF10EC11DF1E9EC11F01BC136F19B
:1008CC001CC137F11DC138F1FEEC0FF036C196F1A9
:1008DC0037C197F121EEADF011EE75F01D0EDBCFA7
:1008EC00E3FFE806FCE296C1A8F197C1A9F1000E5E
:1008FC000101996F000E986F000E9B6F000E9A6F9E
:10090C00000EA76F000EA66F000EA56F000EA46F51
:10091C0024D0010EA815736F000EA915746FD89012
:10092C009835D96E9935DA6E750ED926010EDA2204
:10093C0073C1DEFF74C1DDFFA8C100F1A9C101F1D3
:10094C00000E036F020E026F35EC19F000C1A8F116
:10095C0001C1A9F10101984B992BA9BF05D0A9514F
:10096C00D8E1A805D8B0D5D7000EAB6F000EAA6F92
:10097C00ABBF06D0AB5159E1020EAA5DD8B055D031
:10098C00AAC108F1ABC109F1D8EC1BF008C19CF16C
:10099C0009C19DF10AC19EF19CC163F19DC164F135
:1009AC009EC165F1000E0101606F000E616F400E7B
:1009BC00626F21EC0EF060C19FF161C1A0F162C1C8
:1009CC00A1F19FC10FF1A0C110F1A1C111F1D890FB
:1009DC000101AA35D96EAB35DA6E750ED926010E2A
:1009EC00DA22DECF08F1DDCF09F1D8EC1BF008C11B
:1009FC000CF109C10DF10AC10EF17AEC10F00CC129
:100A0C0036F10DC137F10EC138F1FEEC0FF036C1E5
:100A1C00A2F137C1A3F10101A651A225A66FA751DE
:100A2C00A321A76FAA4BAB2BA3D7000EAB6F020E63
:100A3C00AA6FABBF06D0AB515BE10A0EAA5DD8B072
:100A4C0057D09AC108F19BC109F1D8EC1BF008C131
:100A5C009CF109C19DF10AC19EF19CC163F19DC13C
:100A6C0064F19EC165F1000E0101606F000E616FB3
:100A7C00400E626F21EC0EF060C19FF161C1A0F1DC
:100A8C0062C1A1F19FC10FF1A0C110F1A1C111F17F
:100A9C00D8900101AA35D96EAB35DA6E750ED92610
:100AAC00010EDA22DECF08F1DDCF09F1D8EC1BF014
:100ABC0008C10CF109C10DF10AC10EF17AEC10F06C
:100ACC000CC136F10DC137F10EC138F1FEEC0FF04F
:100ADC0036C1A2F137C1A3F10101A451A225A46F23
:100AEC00A551A321A56F9A4B9B2BAA4BAB2BA1D73E
:100AFC00A6C173F1733BBA507319CF0B7319BA6E4D
:100B0C00A4C1BBFF120071C108F172C109F1D8EC8C
:100B1C001BF008C10FF109C110F10AC111F1000E4F
:100B2C0001012D6F800E2E6F3F0E2F6FE9C12AF140
:100B3C00EAC12BF1EBC12CF1B4EC0BF02AC10CF196
:100B4C002BC10DF12CC10EF17AEC10F00CC193F10C
:100B5C000DC194F10EC195F1000E01011E6FC80E6E
:100B6C001F6F420E206F000E0F6F800E106F400E25
:100B7C00116F93C10CF194C10DF195C10EF17AEC8A
:100B8C0010F00CC11BF10DC11CF10EC11DF1E9ECF3
:100B9C0011F01BC136F11CC137F11DC138F1FEEC4F
:100BAC000FF036C196F137C197F121EECBF011EE73
:100BBC0075F01D0EDBCFE3FFE806FCE296C1A8F151
:100BCC0097C1A9F1000E0101996F000E986F000EEC
:100BDC009B6F000E9A6F000EA76F000EA66F000E93
:100BEC00A56F000EA46F24D0010EA815736F000E14
:100BFC00A915746FD8909835D96E9935DA6E750E33
:100C0C00D926010EDA2273C1DEFF74C1DDFFA8C143
:100C1C0000F1A9C101F1000E036F020E026F35EC59
:100C2C0019F000C1A8F101C1A9F10101984B992B50
:100C3C00A9BF05D0A951D8E1A805D8B0D5D7000EC9
:100C4C00AB6F000EAA6FABBF06D0AB5159E1020ED1
:100C5C00AA5DD8B055D0AAC108F1ABC109F1D8EC46
:100C6C001BF008C19CF109C19DF10AC19EF19CC108
:100C7C0063F19DC164F19EC165F1000E0101606FCD
:100C8C00000E616F400E626F21EC0EF060C19FF19F
:100C9C0061C1A0F162C1A1F19FC10FF1A0C110F11E
:100CAC00A1C111F1D8900101AA35D96EAB35DA6E1C
:100CBC00750ED926010EDA22DECF08F1DDCF09F14F
:100CCC00D8EC1BF008C10CF109C10DF10AC10EF1F1
:100CDC007AEC10F00CC136F10DC137F10EC138F1C0
:100CEC00FEEC0FF036C1A2F137C1A3F10101A65100
:100CFC00A225A66FA751A321A76FAA4BAB2BA3D7F5
:100D0C00000EAB6F020EAA6FABBF06D0AB515BE10E
:100D1C000A0EAA5DD8B057D09AC108F19BC109F14F
:100D2C00D8EC1BF008C19CF109C19DF10AC19EF1E0
:100D3C009CC163F19DC164F19EC165F1000E01017E
:100D4C00606F000E616F400E626F21EC0EF060C19F
:100D5C009FF161C1A0F162C1A1F19FC10FF1A0C1CE
:100D6C0010F1A1C111F1D8900101AA35D96EAB35A2
:100D7C00DA6E750ED926010EDA22DECF08F1DDCF40
:100D8C0009F1D8EC1BF008C10CF109C10DF10AC135
:100D9C000EF17AEC10F00CC136F10DC137F10EC129
:100DAC0038F1FEEC0FF036C1A2F137C1A3F101010D
:100DBC00A451A225A46FA551A321A56F9A4B9B2BDF
:100DCC00AA4BAB2BA1D7A6C173F1733BBD507319C2
:100DDC00CF0B7319BD6EA4C1BEFF12005BC009F02E
:100DEC005CC00AF0F5EC1BF009C01CF00AC01DF049
:100DFC000BC01EF0000E106E800E116E3F0E126EA8
:100E0C00E9C10DF0EAC10EF0EBC10FF08BEC0CF068
:100E1C000DC019F00EC01AF00FC01BF06FEC11F0E2
:100E2C0019C095F01AC096F01BC097F0000E2B6EEF
:100E3C00C80E2C6E420E2D6E000E1C6E800E1D6E9A
:100E4C00400E1E6E95C019F096C01AF097C01BF09C
:100E5C006FEC11F019C028F01AC029F01BC02AF051
:100E6C005DEC12F028C037F029C038F02AC039F0F8
:100E7C00F5EC10F037C098F038C099F021EEADF0D9
:100E8C0010EE77F01D0EDBCFE3FFE806FCE298C016
:100E9C00AAF099C0ABF0000E00019B6F000E9A6F88
:100EAC00000E9D6F000E9C6F000EA96F000EA86FB8
:100EBC00000EA76F000EA66F24D0010EAA155D6E52
:100ECC00000EAB155E6ED8909A35D96E9B35DA6EE6
:100EDC00770ED926000EDA225DC0DEFF5EC0DDFF84
:100EEC00AAC001F0ABC002F0000E046E020E036E3D
:100EFC0078EC19F001C0AAF002C0ABF000019A4BDB
:100F0C009B2BABBF05D0AB51D8E1AA05D8B0D5D738
:100F1C00000EAD6F000EAC6FADBF06D0AD5159E1F8
:100F2C00020EAC5DD8B055D0ACC009F0ADC00AF023
:100F3C00F5EC1BF009C09EF00AC09FF00BC0A0F0AE
:100F4C009EC069F09FC06AF0A0C06BF0000E00015B
:100F5C00666F000E676F400E686F61EC0DF066C037
:100F6C00A1F067C0A2F068C0A3F0A1C01CF0A2C0A1
:100F7C001DF0A3C01EF0D8900001AC35D96EAD3574
:100F8C00DA6E770ED926000EDA22DECF09F0DDCF2D
:100F9C000AF0F5EC1BF009C019F00AC01AF00BC0EE
:100FAC001BF06FEC11F019C037F01AC038F01BC0F1
:100FBC0039F0F5EC10F037C0A4F038C0A5F0000102
:100FCC00A851A425A86FA951A521A96FAC4BAD2B95
:100FDC00A3D7000EAD6F020EAC6FADBF06D0AD51F6
:100FEC005BE10A0EAC5DD8B057D09CC009F09DC037
:100FFC000AF0F5EC1BF009C09EF00AC09FF00BC084
:10100C00A0F09EC069F09FC06AF0A0C06BF0000E0B
:10101C000001666F000E676F400E686F61EC0DF09B
:10102C0066C0A1F067C0A2F068C0A3F0A1C01CF01C
:10103C00A2C01DF0A3C01EF0D8900001AC35D96E33
:10104C00AD35DA6E770ED926000EDA22DECF09F036
:10105C00DDCF0AF0F5EC1BF009C019F00AC01AF04C
:10106C000BC01BF06FEC11F019C037F01AC038F040
:10107C001BC039F0F5EC10F037C0A4F038C0A5F067
:10108C000001A651A425A66FA751A521A76F9C4BC3
:10109C009D2BAC4BAD2BA1D7A8C05DF05D3ABA50DF
:1010AC005D18CF0B5D18BA6EA6C0BBFF12005BC0FB
:1010BC0009F05CC00AF0F5EC1BF009C01CF00AC08A
:1010CC001DF00BC01EF0000E106E800E116E3F0E48
:1010DC00126EE9C10DF0EAC10EF0EBC10FF08BEC12
:1010EC000CF00DC019F00EC01AF00FC01BF06FEC15
:1010FC0011F019C095F01AC096F01BC097F0000EB5
:10110C002B6EC80E2C6E420E2D6E000E1C6E800EB9
:10111C001D6E400E1E6E95C019F096C01AF097C049
:10112C001BF06FEC11F019C028F01AC029F01BC08D
:10113C002AF05DEC12F028C037F029C038F02AC034
:10114C0039F0F5EC10F037C098F038C099F021EE7A
:10115C00CBF010EE77F01D0EDBCFE3FFE806FCE2E0
:10116C0098C0AAF099C0ABF0000E00019B6F000E66
:10117C009A6F000E9D6F000E9C6F000EA96F000EF3
:10118C00A86F000EA76F000EA66F24D0010EAA1533
:10119C005D6E000EAB155E6ED8909A35D96E9B3590
:1011AC00DA6E770ED926000EDA225DC0DEFF5EC045
:1011BC00DDFFAAC001F0ABC002F0000E046E020EFF
:1011CC00036E78EC19F001C0AAF002C0ABF000017C
:1011DC009A4B9B2BABBF05D0AB51D8E1AA05D8B02D
:1011EC00D5D7000EAD6F000EAC6FADBF06D0AD51B4
:1011FC0059E1020EAC5DD8B055D0ACC009F0ADC011
:10120C000AF0F5EC1BF009C09EF00AC09FF00BC071
:10121C00A0F09EC069F09FC06AF0A0C06BF0000EF9
:10122C000001666F000E676F400E686F61EC0DF089
:10123C0066C0A1F067C0A2F068C0A3F0A1C01CF00A
:10124C00A2C01DF0A3C01EF0D8900001AC35D96E21
:10125C00AD35DA6E770ED926000EDA22DECF09F024
:10126C00DDCF0AF0F5EC1BF009C019F00AC01AF03A
:10127C000BC01BF06FEC11F019C037F01AC038F02E
:10128C001BC039F0F5EC10F037C0A4F038C0A5F055
:10129C000001A851A425A86FA951A521A96FAC4B99
:1012AC00AD2BA3D7000EAD6F020EAC6FADBF06D049
:1012BC00AD515BE10A0EAC5DD8B057D09CC009F0C3
:1012CC009DC00AF0F5EC1BF009C09EF00AC09FF01F
:1012DC000BC0A0F09EC069F09FC06AF0A0C06BF07C
:1012EC00000E0001666F000E676F400E686F61ECB8
:1012FC000DF066C0A1F067C0A2F068C0A3F0A1C059
:10130C001CF0A2C01DF0A3C01EF0D8900001AC359B
:10131C00D96EAD35DA6E770ED926000EDA22DECF15
:10132C0009F0DDCF0AF0F5EC1BF009C019F00AC08A
:10133C001AF00BC01BF06FEC11F019C037F01AC08B
:10134C0038F01BC039F0F5EC10F037C0A4F038C001
:10135C00A5F00001A651A425A66FA751A521A76F42
:10136C009C4B9D2BAC4BAD2BA1D7A8C05DF05D3A2F
:10137C00BD505D18CF0B5D18BD6EA6C0BEFF120030
:10138C000101575158115911D8A407D0000E576FAD
:10139C00800E586F3F0E596F1200720E006F310E97
:1013AC00016F440E026F57C103F158C104F159C1CA
:1013BC0005F117EC18F00101D8B00BD0000EED6F51
:1013CC00220EEC6FFF0E576F7F0E586F7F0E596F0A
:1013DC00120057C100F158C101F159C102F1490E77
:1013EC00036F3A0E046FC40E056F17EC18F0010171
:1013FC00D8B00BD0000EED6F220EEC6F000E576FB5
:10140C00000E586F000E596F120059AF02D0010E2A
:10141C0001D0000E5F6F5F51D8B40ED057C100F1F0
:10142C0058C101F159C102F15FEC1CF000C157F138
:10143C0001C158F102C159F157C10CF158C10DF15C
:10144C0059C10EF1AA0E01010F6FB80E106F3F0EAD
:10145C00116F7AEC10F00CC157F10DC158F10EC19F
:10146C0059F157C14FF158C150F159C151F1D0EC5C
:10147C0012F04FC15AF150C15BF151C15CF15AC12C
:10148C0036F15BC137F15CC138F1FEEC0FF036C1BF
:10149C005DF137C15EF157C136F158C137F159C111
:1014AC0038F15DC108F15EC109F1D8EC1BF008C13F
:1014BC0039F109C13AF10AC13BF197EC1BF036C185
:1014CC0057F137C158F138C159F157C136F158C1EC
:1014DC0037F159C138F1010E0101396F080E3A6F1D
:1014EC00000E3C6F090E3B6FB1EC13F036C142F1AC
:1014FC0037C143F138C144F15DC145F15EC146F1DC
:10150C0057EC15F042C157F143C158F144C159F1A0
:10151C0001015F51D8B425D057290EE17F0E58191F
:10152C000BE17F0E5919D8A407D0000E576F000E8F
:10153C00586F000E596F1200000E1B6F800E1C6F3F
:10154C003F0E1D6F57C11EF158C11FF159C120F13B
:10155C00E9EC11F01BC157F11CC158F11DC159F137
:10156C00120057C157F158C158F159C159F1120025
:10157C00585059105A10D8A407D0000E586E800E2F
:10158C00596E3F0E5A6E1200720E016E310E026EC3
:10159C00440E036E58C004F059C005F05AC006F052
:1015AC00A8EC18F0D8B00CD0000E0101ED6F220E93
:1015BC00EC6FFF0E586E7F0E596E7F0E5A6E120036
:1015CC0058C001F059C002F05AC003F0490E046E25
:1015DC003A0E056EC40E066EA8EC18F0D8B00CD0FE
:1015EC00000E0101ED6F220EEC6F000E586E000E16
:1015FC00596E000E5A6E12005AAE02D0010E01D076
:10160C00000E0001656F6551D8B40ED058C001F0C2
:10161C0059C002F05AC003F085EC1CF001C058F020
:10162C0002C059F003C05AF058C019F059C01AF052
:10163C005AC01BF0AA0E1C6EB80E1D6E3F0E1E6E0D
:10164C006FEC11F019C058F01AC059F01BC05AF0C9
:10165C0058C050F059C051F05AC052F042EC13F03F
:10166C0050C060F051C061F052C062F060C037F001
:10167C0061C038F062C039F0F5EC10F037C063F09F
:10168C0038C064F058C019F059C01AF05AC01BF099
:10169C0063C009F064C00AF0F5EC1BF009C01CF043
:1016AC000AC01DF00BC01EF0B8EC1BF019C058F0AE
:1016BC001AC059F01BC05AF058C028F059C029F074
:1016CC005AC02AF0010E2B6E080E2C6E000E2E6ED8
:1016DC00090E2D6E88EC14F028C034F029C035F0BA
:1016EC002AC036F063C037F064C038F0BAEC15F09D
:1016FC0034C058F035C059F036C05AF0000165516D
:10170C00D8B425D058280EE17F0E59180BE17F0E66
:10171C005A18D8A407D0000E586E000E596E000E41
:10172C005A6E1200000E286E800E296E3F0E2A6E25
:10173C0058C02BF059C02CF05AC02DF05DEC12F0B3
:10174C0028C058F029C059F02AC05AF0120058C0CD
:10175C0058F059C059F05AC05AF012002CC130F14F
:10176C000101316B326B2B35303701E33181305154
:10177C00356F2FC130F1316B326B2E35303701E3C1
:10178C0031813051346F3551D8B40BD03451355D73
:10179C00D8B00ED0355100083425306F180E306596
:1017AC0007D02DC12AF12EC12BF12FC12CF1120023
:1017BC003451D8B40BD03551345DD8B00ED034512F
:1017CC0000083525306F180E306507D02AC12AF174
:1017DC002BC12BF12CC12CF11200060E336F2CBF38
:1017EC00338F2FBF338D2B8FFF0E2A17FF0E2B1726
:1017FC00000E2C172E8FFF0E2D17FF0E2E17000E1E
:10180C002F173451355DD8B01BD0D8902D372E37CB
:10181C002F37340735513419D8B40DD0330733C1B1
:10182C0030F1070E3017D8B406D0EFD7D8902C3340
:10183C002B332A33352B34513519D8B41FD0F6D766
:10184C003551345DD8B01AD0D8902A372B372C3775
:10185C00350735513419D8B40DD0330733C130F1B5
:10186C00070E3017D8B406D0EFD7D8902F332E33BD
:10187C002D33342B34513519D8A4F7D733AF0CD0C2
:10188C00FF0E2A1BFF0E2B1BFF0E2C1B010E2A27F3
:10189C00000E2B23000E2C2333AD0CD0FF0E2D1B72
:1018AC00FF0E2E1BFF0E2F1B010E2D27000E2E23BD
:1018BC00000E2F23000E336F2A512D272B512E2370
:1018CC002C512F232FAF0ED0FF0E2D1BFF0E2E1BD6
:1018DC00FF0E2F1B010E2D27000E2E23000E2F2383
:1018EC00010E336F2DC100F12EC101F12FC102F198
:1018FC0035C103F133C104F17BEC16F000C12AF1C0
:10190C0001C12BF102C12CF112000FC013F0146AAB
:10191C00156A0E34133601E314801350186E12C07E
:10192C0013F0146A156A1134133601E31480135042
:10193C00176E1850D8B40BD01750185CD8B00ED006
:10194C00185000081724136E180E136407D010C01B
:10195C000DF011C00EF012C00FF012001750D8B4D9
:10196C000BD01850175CD8B00ED0175000081824A4
:10197C00136E180E136407D00DC00DF00EC00EF0D0
:10198C000FC00FF01200060E166E0FBE168E12BE92
:10199C00168C0E8EFF0E0D16FF0E0E16000E0F1669
:1019AC00118EFF0E1016FF0E1116000E1216175088
:1019BC00185CD8B01BD0D8901036113612361706DA
:1019CC0018501718D8B40DD0160616C013F0070E01
:1019DC001316D8B406D0EFD7D8900F320E320D3282
:1019EC00182A17501818D8B41FD0F6D71850175CEF
:1019FC00D8B01AD0D8900D360E360F3618061850AF
:101A0C001718D8B40DD0160616C013F0070E1316FF
:101A1C00D8B406D0EFD7D890123211321032172A20
:101A2C0017501818D8A4F7D716AE0CD0FF0E0D1AF5
:101A3C00FF0E0E1AFF0E0F1A010E0D26000E0E22AF
:101A4C00000E0F2216AC0CD0FF0E101AFF0E111A3E
:101A5C00FF0E121A010E1026000E1122000E122279
:101A6C00000E166E0D5010260E5011220F50122221
:101A7C0012AE0ED0FF0E101AFF0E111AFF0E121A14
:101A8C00010E1026000E1122000E1222010E166EEF
:101A9C0010C001F011C002F012C003F018C004F025
:101AAC0016C005F0D3EC16F001C00DF002C00EF01C
:101ABC0003C00FF01200000E0001726F6651671127
:101ACC006811D8A41DD0000E016E000E026E000E1F
:101ADC00036E69C004F06AC005F06BC006F0A8EC98
:101AEC0018F0D8A005D0000E0101ED6F210EEC6F9F
:101AFC00000E0001666F000E676F000E686F12001B
:101B0C0069516A116B11D8A407D0000E666F800E54
:101B1C00676F3F0E686F120068AF43D069C037F033
:101B2C006AC038F06BC039F0F5EC10F037C073F0C8
:101B3C0038C074F039C075F03AC076F073C009F053
:101B4C0074C00AF075C00BF076C00CF069EC1BF099
:101B5C0000016951091807E16A510A1804E16B5137
:101B6C000B18D8B40DD0000E0101ED6F210EEC6FE7
:101B7C00000E0001666F000E676F000E686F12009A
:101B8C007351010B726F66C001F067C002F068C040
:101B9C0003F085EC1CF001C066F002C067F003C0D6
:101BAC0068F066C034F067C035F068C036F06FEC92
:101BBC000FF034C06CF035C06DF036C06EF06CC0F8
:101BCC0019F06DC01AF06EC01BF069C01CF06AC031
:101BDC001DF06BC01EF06FEC11F019C06FF01AC045
:101BEC0070F01BC071F06FC058F070C059F071C02C
:101BFC005AF0BEEC0AF058C066F059C067F05AC0F3
:101C0C0068F000017251D8B40FD066C001F067C003
:101C1C0002F068C003F085EC1CF001C066F002C055
:101C2C0067F003C068F0120066C066F067C067F02A
:101C3C0068C068F01200000E01016C6F60516111F8
:101C4C006211D8A41CD0000E006F000E016F000EA4
:101C5C00026F63C103F164C104F165C105F117ECB6
:101C6C0018F00101D8A004D0000EED6F210EEC6F1E
:101C7C00000E606F000E616F000E626F12006351F8
:101C8C0064116511D8A407D0000E606F800E616FCF
:101C9C003F0E626F120062AF41D063C136F164C176
:101CAC0037F165C138F1FEEC0FF036C16DF137C17B
:101CBC006EF138C16FF139C170F16DC108F16EC1AF
:101CCC0009F16FC10AF170C10BF10BEC1BF00101B2
:101CDC006351081907E16451091904E165510A19A6
:101CEC00D8B40BD0000EED6F210EEC6F000E606FB0
:101CFC00000E616F000E626F12006D51010B6C6F64
:101D0C0060C100F161C101F162C102F15FEC1CF034
:101D1C0000C160F101C161F102C162F160C142F127
:101D2C0061C143F162C144F1DEEC0EF042C166F1D7
:101D3C0043C167F144C168F166C10CF167C10DF193
:101D4C0068C10EF163C10FF164C110F165C111F1ED
:101D5C007AEC10F00CC169F10DC16AF10EC16BF196
:101D6C0069C157F16AC158F16BC159F1C6EC09F060
:101D7C0057C160F158C161F159C162F101016C5157
:101D8C00D8B40FD060C100F161C101F162C102F1A0
:101D9C005FEC1CF000C160F101C161F102C162F1A4
:101DAC00120060C160F161C161F162C162F11200A7
:101DBC00010144AF0BD0000EED6F210EEC6F000E45
:101DCC00426F000E436F000E446F120042514311DC
:101DDC004411D8A40BD0000EED6F220EEC6F000E48
:101DEC00426F000E436F000E446F1200000E0F6F17
:101DFC00000E106F400E116F450E036F010E046F35
:101E0C0042C100F143C101F144C102F1CDEC17F024
:101E1C0000C10CF101C10DF102C10EF17AEC10F010
:101E2C000CC12AF10DC12BF10EC12CF1000E0101D8
:101E3C002D6F800E2E6FBF0E2F6FB4EC0BF02AC1DE
:101E4C0042F12BC143F12CC144F101014507D8A04B
:101E5C00460742C136F143C137F144C138F11F0E78
:101E6C00396F080E3A6F000E3C6F080E3B6FB1ECE9
:101E7C0013F036C142F137C143F138C144F1720E4F
:101E8C0001010F6F310E106F3F0E116F45C108F13C
:101E9C0046C109F1D8EC1BF008C10CF109C10DF1D8
:101EAC000AC10EF17AEC10F00CC12AF10DC12BF124
:101EBC000EC12CF142C12DF143C12EF144C12FF1C1
:101ECC00B4EC0BF02AC142F12BC143F12CC144F10B
:101EDC00120036AE0CD0000E0101ED6F210EEC6F2E
:101EEC00000E346E000E356E000E366E120034503D
:101EFC0035103610D8A40CD0000E0101ED6F220E57
:101F0C00EC6F000E346E000E356E000E366E120045
:101F1C00000E1C6E000E1D6E400E1E6E370E046EF3
:101F2C00000E056E34C001F035C002F036C003F06F
:101F3C0060EC18F001C019F002C01AF003C01BF0DD
:101F4C006FEC11F019C00DF01AC00EF01BC00FF0A1
:101F5C00000E106E800E116EBF0E126E8BEC0CF01C
:101F6C000DC034F00EC035F00FC036F03706D8A0D7
:101F7C00380634C028F035C029F036C02AF01F0EC0
:101F8C002B6E080E2C6E000E2E6E080E2D6E88EC2D
:101F9C0014F028C034F029C035F02AC036F0720E87
:101FAC001C6E310E1D6E3F0E1E6E37C009F038C010
:101FBC000AF0F5EC1BF009C019F00AC01AF00BC0BE
:101FCC001BF06FEC11F019C00DF01AC00EF01BC015
:101FDC000FF034C010F035C011F036C012F08BEC9D
:101FEC000CF00DC034F00EC035F00FC036F01200FE
:101FFC0038C13AF101013B6B3C6B37353A3701E3A1
:10200C003B813A51446F4451D8A409D0000E366F2D
:10201C00000E376F000E386F000E396F1200170E5E
:10202C003A6F36C13BF137C13CF138C13DF13A2929
:10203C003E6F04D0D8903D333C333B333E2FFAD720
:10204C0001013B513F6F378FFF0E3617FF0E3717CD
:10205C00000E38173651406F3751416F3851426F6F
:10206C00436B8E0E445F44AF16D04451800A8F0FE1
:10207C00D8B009D0000E366F000E376F000E386FD7
:10208C00000E396F1200D890433342334133403342
:10209C00443FF9D715D0170E44650FD0000E366F9C
:1020AC00000E376F000E386F000E396F1200D8908B
:1020BC00403741374237433744074451D8A4F7D708
:1020CC003F51D8B408D0431F421F411F406D000E32
:1020DC0041234223432340C136F141C137F142C170
:1020EC0038F143C139F112000EC112F10101136B29
:1020FC00146B0D35123701E313811251156F155105
:10210C00D8A407D0000E0C6F000E0D6F000E0E6FD2
:10211C00120011C112F1136B146B1035123701E35D
:10212C00138112511A6F1A51D8A407D0000E0C6FDC
:10213C00000E0D6F000E0E6F12001A517B0F15273B
:10214C000EC11AF111511A1B800E1A170D8F108F18
:10215C00FF0E0F17FF0E1017000E1117000E166F43
:10216C00000E176F000E186F070E196F0CA106D01A
:10217C000F5116271051172311511823D8900E33D5
:10218C000D330C33D8900F3710371137192FEED77A
:10219C00090E196F0CA106D00F51162710511723D9
:1021AC0011511823D8900E330D330C33D8901833AB
:1021BC0017331633192FEED716C100F117C101F1E1
:1021CC0018C102F115C103F11AC104F17BEC16F030
:1021DC0000C10CF101C10DF102C10EF1120039C0A8
:1021EC003BF03C6A3D6A38343B3601E33C803B5063
:1021FC00456E4550D8A409D0000E376E000E386ECF
:10220C00000E396E000E3A6E1200170E3B6E37C080
:10221C003CF038C03DF039C03EF03B283F6E04D056
:10222C00D8903E323D323C323F2EFAD73C50406E75
:10223C00388EFF0E3716FF0E3816000E3916375033
:10224C00416E3850426E3950436E446A8E0E455E74
:10225C0045AE16D04550800A8F0FD8B009D0000E6D
:10226C00376E000E386E000E396E000E3A6E12008C
:10227C00D8904432433242324132453EF9D715D0E0
:10228C00170E45640FD0000E376E000E386E000E20
:10229C00396E000E3A6E1200D890413642364336F3
:1022AC00443645064550D8A4F7D74050D8B408D08A
:1022BC00441E431E421E416C000E42224322442205
:1022CC0041C037F042C038F043C039F044C03AF056
:1022DC0012001BC01FF0206A216A1A341F3601E35A
:1022EC0020801F50226E2250D8A407D0000E196EE9
:1022FC00000E1A6E000E1B6E12001EC01FF0206A1C
:10230C00216A1D341F3601E320801F50276E275091
:10231C00D8A407D0000E196E000E1A6E000E1B6E9C
:10232C00120027507B0F22261BC027F01E50271AA5
:10233C00800E27161A8E1D8EFF0E1C16FF0E1D16F4
:10234C00000E1E16000E236E000E246E000E256E5F
:10235C00070E266E19A006D01C5023261D502422D1
:10236C001E502522D8901B321A321932D8901C36A6
:10237C001D361E36262EEED7090E266E19A006D057
:10238C001C5023261D5024221E502522D8901B326F
:10239C001A321932D890253224322332262EEED717
:1023AC0023C001F024C002F025C003F022C004F0C9
:1023BC0027C005F0D3EC16F001C019F002C01AF0DA
:1023CC0003C01BF012001DC121F10101226B236B14
:1023DC001C35213701E322812151286F2851D8A4C3
:1023EC0007D0000E1B6F000E1C6F000E1D6F12002D
:1023FC0020C121F1226B236B1F35213701E3228190
:10240C002151296F2951D8A407D0000E1B6F000E43
:10241C001C6F000E1D6F1200000E256F000E266F34
:10242C00000E276F2951890F285F1DC129F12051FA
:10243C00291B800E29171C8FFF0E1B17FF0E1C1754
:10244C00000E1D171F8FFF0E1E17FF0E1F17000EFD
:10245C002017180E246FD8902537263727371E5192
:10246C001B5D1F511C5920511D59D8A007D01E515E
:10247C001B5F1F511C5B20511D5B2581D8901B37A6
:10248C001C371D37242FE7D725C100F126C101F1D8
:10249C0027C102F128C103F129C104F17BEC16F02C
:1024AC0000C11BF101C11CF102C11DF112002AC0B7
:1024BC002EF02F6A306A29342E3601E32F802E50ED
:1024CC00356E3550D8A407D0000E286E000E296E3C
:1024DC00000E2A6E12002DC02EF02F6A306A2C349A
:1024EC002E3601E32F802E50366E3650D8A407D0EE
:1024FC00000E286E000E296E000E2A6E1200000EC1
:10250C00326E000E336E000E346E3650890F355E0F
:10251C002AC036F02D50361A800E3616298EFF0E34
:10252C002816FF0E2916000E2A162C8EFF0E2B16BF
:10253C00FF0E2C16000E2D16180E316ED89032365A
:10254C00333634362B50285C2C5029582D502A58B1
:10255C00D8A007D02B50285E2C50295A2D502A5A1F
:10256C003280D890283629362A36312EE7D732C019
:10257C0001F033C002F034C003F035C004F036C0B3
:10258C0005F0D3EC16F001C028F002C029F003C00E
:10259C002AF012004FC100F150C101F151C102F1FA
:1025AC00550E0101036F010E046FCDEC17F0010104
:1025BC0056AF10D051AF07D0000E4F6F800E506F3A
:1025CC00BF0E516F1200000E4F6F000E506F000EB9
:1025DC00516F1200565104E1150E555DD8A007D06D
:1025EC004FC14FF150C150F151C151F112004FC1C7
:1025FC0036F150C137F151C138F1FEEC0FF036C154
:10260C0045F137C146F138C147F139C148F1F8EC11
:10261C0019F045C152F146C153F147C154F14FC1B4
:10262C0000F150C101F151C102F152C103F153C18A
:10263C0004F154C105F117EC18F00101D8B015D014
:10264C0052C12AF153C12BF154C12CF1000E2D6F44
:10265C00800E2E6FBF0E2F6FB4EC0BF02AC14FF112
:10266C002BC150F12CC151F1120052C14FF153C189
:10267C0050F154C151F1120050C001F051C002F0A0
:10268C0052C003F0530E046E000E056E60EC18F091
:10269C0054AE10D052AE07D0000E506E800E516E5C
:1026AC00BF0E526E1200000E506E000E516E000ED8
:1026BC00526E1200545004E1150E535CD8A007D092
:1026CC0050C050F051C051F052C052F0120050C0E6
:1026DC0037F051C038F052C039F0F5EC10F037C07B
:1026EC0046F038C047F039C048F03AC049F035ECF4
:1026FC001AF046C055F047C056F048C057F050C0CD
:10270C0001F051C002F052C003F055C004F056C0A5
:10271C0005F057C006F0A8EC18F0D8B015D055C08D
:10272C000DF056C00EF057C00FF0000E106E800E5C
:10273C00116EBF0E126E8BEC0CF00DC050F00EC073
:10274C0051F00FC052F0120055C050F056C051F06D
:10275C0057C052F012003BC100F13CC101F1000E18
:10276C000101036F030E026F25EC1CF039C13DF122
:10277C003AC13EF1010100513D2701513E233DC1BB
:10278C00F6FF3EC1F7FF0900F5CF3FF10900F5CF89
:10279C0040F10A00F5CF41F140D03FC10FF140C1EB
:1027AC0010F141C111F136C10CF137C10DF138C135
:1027BC000EF17AEC10F00CC12AF10DC12BF10EC107
:1027CC002CF1000E0101036F030E026F3B07D8A022
:1027DC003C073BC100F13CC101F125EC1CF039C1B7
:1027EC003DF13AC13EF1010100513D2701513E231B
:1027FC003DC1F6FF3EC1F7FF0900F5CF2DF10900F1
:10280C00F5CF2EF10A00F5CF2FF1B4EC0BF02AC165
:10281C003FF12BC140F12CC141F101013B513C1165
:10282C00D8A4BBD73FC136F140C137F141C138F113
:10283C001200000E01014C6F000E4B6F000E4E6F1C
:10284C00000E4D6F000E4A6F000E496F830ED66E50
:10285C00D650476F486B471F481F474B482B050EF8
:10286C00D89047374837E82EFBD7000E4725086F1E
:10287C00200E4821096FD8EC1BF008C11EF109C1CC
:10288C001FF10AC120F1000E01011B6FFA0E1C6F23
:10289C00450E1D6FE9EC11F01BC136F11CC137F16F
:1028AC001DC138F1FEEC0FF036C14DF137C14EF1C0
:1028BC00D58E20D0F2A41ED0F294830ED66E4B4B44
:1028CC004C2B4D514B1916E14E514C19D8A412D02A
:1028DC00494B4A2B4951451904E14A514619D8B480
:1028EC0005D0000E4C6F000E4B6F04D04DC14BF158
:1028FC004EC14CF101014D514B5D4E514C59D8B06C
:10290C001200D8D72DC001F02EC002F0000E046EBC
:10291C00030E036E72EC1CF02BC02FF02CC030F0A9
:10292C0001502F26025030222FC0F6FF30C0F7FF87
:10293C000900F5CF31F00900F5CF32F00A00F5CFE0
:10294C0033F03ED031C01CF032C01DF033C01EF04D
:10295C0028C019F029C01AF02AC01BF06FEC11F036
:10296C0019C00DF01AC00EF01BC00FF0000E046E53
:10297C00030E036E2D06D8A02E062DC001F02EC01E
:10298C0002F072EC1CF02BC02FF02CC030F0015078
:10299C002F26025030222FC0F6FF30C0F7FF09005F
:1029AC00F5CF10F00900F5CF11F00A00F5CF12F0B9
:1029BC008BEC0CF00DC031F00EC032F00FC033F0C8
:1029CC002D502E10D8A4BED731C028F032C029F01B
:1029DC0033C02AF01200000E4D6E000E4C6E000E2D
:1029EC004F6E000E4E6E000E4B6E000E4A6E830E36
:1029FC00D66ED650486E496A481E491E484A492A26
:102A0C00050ED89048364936E82EFBD7000E4824E0
:102A1C00096E200E49200A6EF5EC1BF009C02BF054
:102A2C000AC02CF00BC02DF0000E286EFA0E296E89
:102A3C00450E2A6E5DEC12F028C037F029C038F034
:102A4C002AC039F0F5EC10F037C04EF038C04FF01A
:102A5C00D58E20D0F2A41ED0F294830ED66E4C4AA2
:102A6C004D2A4E504C1816E14F504D18D8A412D088
:102A7C004A4A4B2A4A50461804E14B504718D8B4DE
:102A8C0005D0000E4D6E000E4C6E04D04EC04CF0B6
:102A9C004FC04DF04E504C5C4F504D58D8B01200BA
:102AAC00D9D70101425143114411D8A407D0000ECB
:102ABC00426F000E436F000E446F120044517F0BA7
:102ACC00476F486BD890473748374751452748518F
:102ADC00462343AF03D0476B472B02D00101476B12
:102AEC0047514527000E462346AF0BD0000EED6F25
:102AFC00220EEC6F000E426F000E436F000E446FFF
:102B0C00120046BF15D04605D8A012D0000EED6FAE
:102B1C00220EEC6F44AF06D0FF0E426F7F0E436F58
:102B2C00FF0EEDD7FF0E426F7F0E436F7F0EE7D780
:102B3C0046354631486F4531476F44514719800B34
:102B4C004719446F45C147F1010E471747334733C7
:102B5C00435147197F0B4719436F42C142F143C19F
:102B6C0043F144C144F11200345035103610D8A44E
:102B7C0007D0000E346E000E356E000E366E12004D
:102B8C0036507F0B396E3A6AD89039363A3639500E
:102B9C0037263A50382235AE03D0396A392A01D05B
:102BAC00396A39503726000E382238AE0CD0000E58
:102BBC000101ED6F220EEC6F000E346E000E356EBF
:102BCC00000E366E120038BE16D03804D8A013D0C2
:102BDC00000E0101ED6F220EEC6F36AE06D0FF0E2B
:102BEC00346E7F0E356EFF0EECD7FF0E346E7F0EFB
:102BFC00356E7F0EE6D7383438303A6E3730396E52
:102C0C0036503918800B3918366E37C039F0010E32
:102C1C00391639323932355039187F0B3918356E2F
:102C2C0034C034F035C035F036C036F01200EFC188
:102C3C000FF1F0C110F1F1C111F148C10CF149C112
:102C4C000DF14AC10EF17AEC10F00CC14BF10DC133
:102C5C004CF10EC14DF1000E01012D6F800E2E6F47
:102C6C00BF0E2F6F000E0F6F800E106F400E116F86
:102C7C004BC10CF14CC10DF14DC10EF17AEC10F0C1
:102C8C000CC11EF10DC11FF10EC120F145C11BF18C
:102C9C0046C11CF147C11DF1E9EC11F01BC12AF131
:102CAC001CC12BF11DC12CF1B4EC0BF02AC136F177
:102CBC002BC137F12CC138F1FEEC0FF0010136516C
:102CCC00CB6ECB5011EC1CF008C1E9F109C1EAF153
:102CDC000AC1EBF13F0EBD16BA50F00B0C09BA6EDF
:102CEC00BD50F00B0C09BD6E120001010351D8B49C
:102CFC0005D0005101110211D8A40CD0000E006FA8
:102D0C00000E016F000E026F1200032BD8900233DD
:102D1C0001330033000E0015056F000E0115066F10
:102D2C00FE0E0215076F055106110711D8B40CD011
:102D3C00ECD7032B010E0027000E0123000E0223FB
:102D4C00D890023301330033000E0015056F000ECE
:102D5C000115066FFF0E0215076F055106110711BD
:102D6C00D8B406D0E6D70307D8900037013702371E
:102D7C0001BF03D0020E0361F6D703A1019FD890C7
:102D8C000333035102130451D8A4028F00C100F184
:102D9C0001C101F102C102F112000450D8B405D0F6
:102DAC00015002100310D8A40CD0000E016E000EBE
:102DBC00026E000E036E1200042AD8900332023207
:102DCC000132000E0114066E000E0214076EFE0E88
:102DDC000314086E065007100810D8B40CD0ECD7AA
:102DEC00042A010E0126000E0222000E0322D890A6
:102DFC00033202320132000E0114066E000E021470
:102E0C00076EFF0E0314086E065007100810D8B496
:102E1C0006D0E6D70406D89001360236033602BE39
:102E2C0003D0020E0460F6D704A0029ED8900432A0
:102E3C00045003120550D8A4038E01C001F002C047
:102E4C0002F003C003F012000600FACFAFF0FBCF84
:102E5C00B0F0E9CFB1F0EACFB2F0E1CFB3F0E2CF0E
:102E6C00B4F0D9CFB5F0DACFB6F0F3CFB7F0F4CFEA
:102E7C00B8F0F6CFB9F0F7CFBAF0F8CFBBF0F5CF8A
:102E8C00BCF05FC0BDF060C0BEF061C0BFF062C0FE
:102E9C00C0F0F2A206D0F292010E0101EE6FBAEC74
:102EAC0019F0C0C062F0BFC061F0BEC060F0BDC020
:102EBC005FF0BCC0F5FFBBC0F8FFBAC0F7FFB9C0EC
:102ECC00F6FFB8C0F4FFB7C0F3FFB6C0DAFFB5C069
:102EDC00D9FFB4C0E2FFB3C0E1FFB2C0EAFFB1C09A
:102EEC00E9FFB0C0FBFFAFC0FAFF5F921100ABEC83
:102EFC001AF09298929296909692938A93889386CF
:102F0C0093849382928094949492000E01010D6F9D
:102F1C00000E0C6F000E0F6F100E0E6F71EC1AF08E
:102F2C001B0E0101456F370E466F4C0E476F600E3E
:102F3C00486F6A0E496F460E4A6F1DEC16F0CA8434
:102F4C00C180C182C184C1860B0E0101466FB80ECF
:102F5C00456F1FEC14F04CEC1CF0010E0101466F98
:102F6C002C0E456F1FEC14F009D04CEC1CF0030E2A
:102F7C000101466FE80E456F1FEC14F080A0F5D7E9
:102F8C00F0EC18F00101EE05D8A4DED7FBD7010157
:102F9C00005101110211D8A40FD003C1D9FF04C1F3
:102FAC00DAFF000EDE6E000EDD6E000E006F000EFE
:102FBC00016F000E026F120002517F0B056F066B42
:102FCC00D8900537063703C1D9FF04C1DAFF05C114
:102FDC00DEFF06C1DDFF01AF03D0056B052B02D070
:102FEC000101056B055103C1D9FF04C1DAFFDE12E3
:102FFC00000EDD1203C1D9FF04C1DAFF820EDE26FA
:10300C00FF0EDD2202810283028502870289028B78
:10301C00029D019F00C100F101C101F102C102F149
:10302C001200010102AF16D000C106F101C107F177
:10303C0002C108F1061F071F081F062B000E0723ED
:10304C000823000E0625006F000E0721016F800E6D
:10305C000821026F05AF16D003C106F104C107F1B8
:10306C0005C108F1061F071F081F062B000E0723BA
:10307C000823000E0625036F000E0721046F800E37
:10308C000821056F000E001B000E011B800E021B99
:10309C00000E031B000E041B800E051B0351005D6C
:1030AC000451015905510259D8B002D0D8901200E0
:1030BC00D8801200015002100310D8A40FD004C005
:1030CC00D9FF05C0DAFF000EDE6E000EDD6E000EBD
:1030DC00016E000E026E000E036E120003507F0B89
:1030EC00066E076AD8900636073604C0D9FF05C0AD
:1030FC00DAFF06C0DEFF07C0DDFF02AE03D0066AB2
:10310C00062A01D0066A065004C0D9FF05C0DAFFB2
:10311C00DE12000EDD1204C0D9FF05C0DAFF820EEC
:10312C00DE26FF0EDD2203800382038403860388E0
:10313C00038A039C029E01C001F002C002F003C08E
:10314C0003F0120003AE16D001C007F002C008F065
:10315C0003C009F0071E081E091E072A000E0822CC
:10316C000922000E0724016E000E0820026E800E4C
:10317C000920036E06AE16D004C007F005C008F097
:10318C0006C009F0071E081E091E072A000E082299
:10319C000922000E0724046E000E0820056E800E16
:1031AC000920066E000E011A000E021A800E031A78
:1031BC00000E041A000E051A800E061A0450015C4B
:1031CC000550025806500358D8B002D0D8901200BF
:1031DC00D880120039EC1CF0010E0101466FF40E80
:1031EC00456F1FEC14F04CEC1CF0050E0101466F02
:1031FC00DC0E456F1FEC14F0010EDBEC1AF0030E25
:10320C000101466F200E456F1FEC14F04CEC1CF0C6
:10321C00010E0101466F2C0E456F1FEC14F0030ECE
:10322C00DBEC1AF0030E0101466F840E456F1FECA8
:10323C0014F04CEC1CF0010E0101466F2C0E456F86
:10324C001FEC14F039EC1CF0030E0101466FE80E74
:10325C00456F1FEC14F0010E0101EE6F1200000E11
:10326C000101056F03AF06D0026D031FD8B0032B0D
:10327C00010E056F01AF06D0006D011FD8B0012BF8
:10328C00010E051B000E076F000E066F0251031195
:10329C00D8B41CD0010E046F04D0D8900237033779
:1032AC00042B03AFFAD7D890063707370251005DCD
:1032BC0003510159D8A005D00251005F0351015BA5
:1032CC000681D89003330233042FEDD70551D8B4BF
:1032DC0004D0066D071FD8B0072B06C100F107C13B
:1032EC0001F11200000E066E04AE06D0036C041E33
:1032FC00D8B0042A010E066E02AE06D0016C021E76
:10330C00D8B0022A010E061A000E086E000E076EC7
:10331C0003500410D8B41CD0010E056E04D0D89004
:10332C0003360436052A04AEFAD7D8900736083689
:10333C000350015C04500258D8A005D00350015E24
:10334C000450025A0780D89004320332052EEDD770
:10335C000650D8B404D0076C081ED8B0082A07C091
:10336C0001F008C002F0120097EC1CF0010E476E41
:10337C00F40E466EF1EC14F0A8EC1CF0050E476E42
:10338C00DC0E466EF1EC14F0010E3AEC1BF0030E61
:10339C00476E200E466EF1EC14F0A8EC1CF0010EFA
:1033AC00476E2C0E466EF1EC14F0030E3AEC1BF04B
:1033BC00030E476E840E466EF1EC14F0A8EC1CF074
:1033CC00010E476E2C0E466EF1EC14F097EC1CF0CF
:1033DC00030E476EE80E466EF1EC14F0010E01017F
:1033EC00EE6F1200000E01014E6F8E0E4D6F48AF46
:1033FC0011D0481F471F461F456D000E462347231B
:10340C004823010E4E6F06D0D890483347334633CD
:10341C0045334D2B000E4515496F000E46154A6F6E
:10342C00000E47154B6FFF0E48154C6F49514A1152
:10343C004B114C11D8A4E8D745C100F146C101F19C
:10344C0047C102F14DC103F14EC104F17BEC16F002
:10345C0000C145F101C146F102C147F11200000E55
:10346C004F6E8E0E4E6E49AE11D0491E481E471E31
:10347C00466C000E472248224922010E4F6E06D0A0
:10348C00D89049324832473246324E2A000E461402
:10349C004A6E000E47144B6E000E48144C6EFF0E15
:1034AC0049144D6E4A504B104C104D10D8A4E8D70F
:1034BC0046C001F047C002F048C003F04EC004F013
:1034CC004FC005F0D3EC16F001C046F002C047F037
:1034DC0003C048F01200CA96CA98CA9ACA9C0EC178
:1034EC0008F10FC109F1D8EC1BF008C1EFF109C1CB
:1034FC00F0F10AC1F1F10BD0FC0ECA161BD0CA5068
:10350C00FC0B0109CA6E16D0030ECA1213D00EC1E1
:10351C0010F10FC111F101011151000AD8A40AD008
:10352C001051010AD8B4E8D7050AD8B4E8D7140A60
:10353C00D8B4EAD7CA96CA98CA9ACA9C01010CB1E7
:10354C0002D0CA9401D0CA841200F29EF29CD58E8D
:10355C00D58CD59AD596D550F80B0409D56EF29426
:10356C00C180C182C184C186070EC26EC290C08E5A
:10357C00C050F80B0609C06EC050C70B2809C06EAE
:10358C009282C050F80B0609C06EC19AC198C08EC9
:10359C00C2909D9C9E9CC086C088C08AC2829E9A06
:1035AC00000E956E000E806E12000101AC6F0101D1
:1035BC00AC05D8A404D0898889928D9217D0020EBC
:1035CC00AC19D8A405D0898889928D928D800FD0A2
:1035DC00030EAC19D8A403D08998899206D0040E96
:1035EC00AC19D8A404D0899889828D828D90000E54
:1035FC00726F640E716F89EC05F0000E0101726F31
:10360C00640E716F1EEC04F012008E0E0101106F2F
:10361C0006D0D8900B330A3309330833102B000E25
:10362C0008150C6F000E09150D6F000E0A150E6FA4
:10363C00FF0E0B150F6F0C510D110E110F11D8A49D
:10364C00E8D708C100F109C101F10AC102F110C1AA
:10365C0003F1000E046F7BEC16F000C108F101C100
:10366C0009F102C10AF112000001AE6F0001AE05B2
:10367C00D8A404D0898889928D9217D0020EAE19E5
:10368C00D8A405D0898889928D928D800FD0030E95
:10369C00AE19D8A403D08998899206D0040EAE191D
:1036AC00D8A404D0899889828D828D90000E5C6E8E
:1036BC00640E5B6E5DEC08F0000E5C6E640E5B6E6F
:1036CC00F4EC06F012008E0E116E06D0D8900C326F
:1036DC000B320A320932112A000E09140D6E000E3B
:1036EC000A140E6E000E0B140F6EFF0E0C14106EDF
:1036FC000D500E100F101010D8A4E8D709C001F00F
:10370C000AC002F00BC003F011C004F0000E056EED
:10371C00D3EC16F001C009F002C00AF003C00BF0A4
:10372C001200010139513A113B11D8B406D0000EE8
:10373C00391B000E3A1B800E3B1B36C12AF137C1D8
:10374C002BF138C12CF139C12DF13AC12EF13BC10D
:10375C002FF1B4EC0BF02AC136F12BC137F12CC18F
:10376C0038F112001C501D101E10D8B406D0000EDB
:10377C001C1A000E1D1A800E1E1A19C00DF01AC04C
:10378C000EF01BC00FF01CC010F01DC011F01EC0BD
:10379C0012F08BEC0CF00DC019F00EC01AF00FC02B
:1037AC001BF01200000E01010B6F09AF06D0086D63
:1037BC00091FD8B0092B010E0B6F08C100F109C10C
:1037CC0001F1026B8E0E036F0BC104F17BEC16F052
:1037DC0000C108F101C109F102C10AF11200000E89
:1037EC000C6E0AAE06D0096C0A1ED8B00A2A010E5D
:1037FC000C6E09C001F00AC002F0036A8E0E046E52
:10380C000CC005F0D3EC16F001C009F002C00AF0B0
:10381C0003C00BF0120001010B6F01010B51006F83
:10382C00016B026B8E0E036F000E046F7BEC16F0B7
:10383C0000C108F101C109F102C10AF11200010134
:10384C0000510203F3CF04F1F4CF05F1005103034F
:10385C00F350052701510203F350052704C100F171
:10386C0005C101F11200899889928D928D90000EFC
:10387C000101726F000E716F89EC05F0000E0101F1
:10388C00726F000E716F1EEC04F012008D828D9021
:10389C0089888992000E0101726F500E716F89EC4C
:1038AC0005F0000E0101726F500E716F1EEC04F0EA
:1038BC0012000101005101110211D8B406D0000E02
:1038CC00001B000E011B800E021B00C100F101C188
:1038DC0001F102C102F1120001500302F3CF05F015
:1038EC00F4CF06F001500402F350062602500302F6
:1038FC00F350062605C001F006C002F0120001507C
:10390C0002100310D8B406D0000E011A000E021AD1
:10391C00800E031A01C001F002C002F003C003F0D4
:10392C001200899889928D928D90000E5C6E000E1B
:10393C005B6E5DEC08F0000E5C6E000E5B6EF4ECE2
:10394C0006F012008D828D9089888992000E5C6E33
:10395C00500E5B6E5DEC08F0000E5C6E500E5B6EF4
:10396C00F4EC06F0120001EEADF0420EEE6AE80641
:10397C00FDE15F905F92000EF86E00017DEF17F095
:020000040020DA
:08000000FFFFFFFFFFFFFFFF00
:020000040030CA
:0E000000010E1F1EFF8381FF0FC00FE00F4097
:00000001FF
