:0400000007EF00F016
:0A0008004982CAED05F0BBEF06F0D7
:100800000000803F72313FFE753E58633D951D3CB0
:10081000C5AE3A79213994803793A73556153400FF
:10082000000000803FF0FFBEE2A93E8376BEAE2B03
:0B0830003E3CC3BDD2133D78D3BB009B
:10083C0030C032F0336A346A2F34323601E33380FD
:10084C0032503C6E3C50D8A409D0000E2E6E000ED7
:10085C002F6E000E306E000E316E1200170E326EBF
:10086C002EC033F02FC034F030C035F03228366E45
:10087C0004D0D890353234323332362EFAD7335046
:10088C00376E2F8EFF0E2E16FF0E2F16000E301603
:10089C002E50386E2F50396E30503A6E3B6A8E0E99
:1008AC003C5E3CAE16D03C50800A8F0FD8B009D0BD
:1008BC00000E2E6E000E2F6E000E306E000E316E7E
:1008CC001200D8903B323A32393238323C3EF9D7AA
:1008DC0015D0170E3C640FD0000E2E6E000E2F6E2E
:1008EC00000E306E000E316E1200D890383639364C
:1008FC003A363B363C063C50D8A4F7D73750D8B4E0
:10090C0008D03B1E3A1E391E386C000E39223A2292
:10091C003B2238C02EF039C02FF03AC030F03BC02B
:10092C0031F0120021C025F0266A276A20342536C2
:10093C0001E3268025502C6E2C50D8A407D0000E35
:10094C001F6E000E206E000E216E120024C025F0CA
:10095C00266A276A2334253601E3268025502D6E1E
:10096C002D50D8A407D0000E1F6E000E206E000E66
:10097C00216E1200000E296E000E2A6E000E2B6ED8
:10098C002D50890F2C5E21C02DF024502D1A800E75
:10099C002D16208EFF0E1F16FF0E2016000E211690
:1009AC00238EFF0E2216FF0E2316000E2416180E91
:1009BC00286ED89029362A362B3622501F5C2350AD
:1009CC00205824502158D8A007D022501F5E235005
:1009DC00205A2450215A2980D8901F36203621368F
:1009EC00282EE7D729C013F02AC014F02BC015F01D
:1009FC002CC016F02DC017F073EC05F013C01FF0CF
:100A0C0014C020F015C021F01200000E00019F6FE1
:100A1C00000E9E6F000EA16F000EA06F000E9D6F5A
:100A2C00000E9C6F830ED66ED6503F6E406A3F1EF2
:100A3C00401E3F4A402A050ED8903F364036E82EDD
:100A4C00FBD7000E3F241B6E200E40201C6E6FEC5B
:100A5C0006F01BC022F01CC023F01DC024F0000EB9
:100A6C001F6EFA0E206E450E216E98EC04F01FC01E
:100A7C002EF020C02FF021C030F01EEC04F02EC060
:100A8C00A0F02FC0A1F0D58E20D0F2A41ED0F294ED
:100A9C00830ED66E9E4B9F2BA0519E1916E1A15131
:100AAC009F19D8A412D09C4B9D2B9C513D1804E14E
:100ABC009D513E18D8B405D0000E9F6F000E9E6F4E
:100ACC0004D0A0C09EF0A1C09FF00001A0519E5D7B
:100ADC00A1519F59D8B01200D8D71650D8B405D010
:100AEC00135014101510D8A40CD0000E136E000E59
:100AFC00146E000E156E1200162AD8901532143290
:100B0C001332000E1314186E000E1414196EFE0E10
:100B1C0015141A6E185019101A10D8B40CD0ECD732
:100B2C00162A010E1326000E1422000E1522D89040
:100B3C00153214321332000E1314186E000E1414E6
:100B4C00196EFF0E15141A6E185019101A10D8B40D
:100B5C0006D0E6D71606D89013361436153614BEC2
:100B6C0003D0020E1660F6D716A0149ED89016323B
:100B7C00165015121750D8A4158E13C013F014C0AC
:100B8C0014F015C015F012000600FACF01F0FBCFDF
:100B9C0002F0E9CF03F0EACF04F0E1CF05F0E2CFA9
:100BAC0006F0D9CF07F0DACF08F0F3CF09F0F4CF85
:100BBC000AF0F6CF0BF0F7CF0CF0F8CF0DF0F5CF25
:100BCC000EF049C00FF04AC010F04BC011F04CC0F1
:100BDC0012F09EBC9E9C12C04CF011C04BF010C089
:100BEC004AF00FC049F00EC0F5FF0DC0F8FF0CC065
:100BFC00F7FF0BC0F6FF0AC0F4FF09C0F3FF08C0F3
:100C0C00DAFF07C0D9FF06C0E2FF05C0E1FF04C050
:100C1C00EAFF03C0E9FF02C0FBFF01C0FAFF4992E3
:100C2C001100F29EF29CD58ED58CD59AD596D550C6
:100C3C00F80B0409D56EF294C180C182C184C186BF
:100C4C00070EC26EC290C08EC050F80B0609C06E63
:100C5C00C050C70B2809C06E9282C050F80B060911
:100C6C00C06EC19AC198C08EC2909D9C9E9CC0863D
:100C7C00C088C08AC2829E9A000E956E000E806E4D
:100C8C00120017EC06F08BEC06F09298929296906C
:100C9C0096929594938A9388938693849382C28038
:100CAC00000E3E6E020E3D6E0BEC05F0C282C2B21F
:100CBC00FED7000E146E000E136EA6EC06F05F0E3F
:100CCC00135C010E1458D8A002D08C84E8D78C94F5
:100CDC00E6D7000E1E6E1CAE06D01B6C1C1ED8B0C8
:100CEC001C2A010E1E6E1BC013F01CC014F0156ADA
:100CFC008E0E166E1EC017F073EC05F013C01BF0B1
:100D0C0014C01CF015C01DF012009280F29EF29CD3
:100D1C00C294C296C298C29ACF0EC116C150F00BA3
:100D2C000E09C16EC08EC050F80B0609C06EC050C3
:100D3C00C70B1009C06E9D8C9E9CC290C292120073
:100D4C0013501410D8A41200C294C296C298C29A1E
:100D5C00C282C2B2FED7C450166E156AC350152497
:100D6C00136E000E1620146E120000EE60F03C0E96
:100D7C00EE6AE806FDE100EE41F0080EEE6AE806C8
:100D8C00FDE149904992000EF86E000147EF06F024
:020000040020DA
:08000000FFFFFFFFFFFFFFFF00
:020000040030CA
:0E000000010E1F1EFF8381FF0FC00FE00F4097
:00000001FF
