:04000000A0EF19F064
:1008000000010000000A00000064000000E803008E
:100810000010270000A086010040420F008096983B
:100820000000E1F50500CA9A3B00803F002041002E
:10083000C842007A44401C4650C347247449971864
:100840004BBCBE4C6B6E4E03155079AD60F34971D5
:1008500000803FCDCC3DD7233C12833AB7D138C678
:100860002737388635C0D633CC2B32708930E7DB5A
:100870002EE53C1E42A20DF44A489595C7C1DC45C1
:10088000DC6DC3B333403401489DB04500DA42000B
:10089000803F505265616C2025302E3266005052E8
:1008A00065616C2025302E336600505265616C20E6
:1008B000256C750070463D25302E33660000720EA3
:1008C00000017F6F000E806F8FEF09F0250E9419E5
:1008D000D8B40AD06EC0D9FF6FC0DAFF94C0DFFF72
:1008E0006E4B6F2B8FEF09F0000E8C6F000E8B6F2D
:1008F000000E8E6F000E8D6F04D000018D85704B41
:10090000712B70C0F6FF71C0F7FF0800F550300A78
:10091000D8B4F3D770C0F6FF71C0F7FF0800F550E8
:10092000B1EC19F0D8A034D0000E00018C6F000E8D
:100930008B6F8BC00FF08CC010F0000E126E0A0E81
:10094000116E69EC19F00FC08BF010C08CF0D00E56
:100950000001766FFF0E776F70C0F6FF71C0F7FF72
:100960000800F550786F796B7651782777517923A5
:1009700078518B2779518C23704B712B70C0F6FF07
:1009800071C0F7FF0800F550B1EC19F0D8B0D1D71D
:1009900070C0F6FF71C0F7FF0800F5502E0AD8A40A
:1009A00030D000018E8D704B712B000E936F000EB6
:1009B000926F1CD092C00FF093C010F0000E126E18
:1009C0000A0E116E69EC19F070C0F6FF71C0F7FFE6
:1009D0000800F5500F26000E1022D00E0F24000143
:1009E000926FFF0E1020936F704B712B70C0F6FF4B
:1009F00071C0F7FF0800F550B1EC19F0D8A00FD086
:100A0000D9D7000E0001936F000E926F8E8907D028
:100A10008D8905D08E851DD0C00E8D131AD070C063
:100A2000F6FF71C0F7FF0001704B712B0800F5CF86
:100A300094F09451000AD8B49CEF09F0660AD8B437
:100A4000E9D70A0AD8B4E4D7190AD8B4E5D78FEFA2
:100A500009F0070E8E15D8B428D38EA904D0000E45
:100A6000936F060E926F7FC0D9FF80C0DAFFDECF92
:100A70008FF0DECF90F0DDCF91F0030E7F27000ED8
:100A8000802391AF11D08FC001F090C002F091C0CF
:100A900003F07CEC19F001C08FF002C090F003C0AD
:100AA00091F0030E00018D13000E8A6F000E896F06
:100AB0008F5190119111D8B486D0820E766FFF0EAF
:100AC000776F8FC078F090C079F091C07AF092C0C3
:100AD0007BF0100E05D0D8907B337A33793378339E
:100AE000E82EF9D778517625896F000E77218A6F25
:100AF0008907D8A08A0789C00FF08AC010F0000EBD
:100B0000126E030E116E69EC19F00FC089F010C05F
:100B10008AF089C007F08AC008F0000E0A6E0A0E3B
:100B2000096E46EC17F007C089F008C08AF0000192
:100B30008AAF03D08907D8A08A078951000801EC41
:100B40000CF03FC085F040C086F041C087F085C002
:100B500030F086C031F087C032F08FC033F090C0E3
:100B600034F091C035F08BEC14F030C085F031C01A
:100B700086F032C087F085C001F086C002F087C0E1
:100B800003F0000E046E800E056E3F0E066EFEEC46
:100B900016F0D8B005D000018907D8A08A0713D075
:100BA00085C001F086C002F087C003F0000E046E1D
:100BB000200E056E410E066EFEEC16F0D8A003D096
:100BC0000001894B8A2B000193BF06D093511BE192
:100BD0000D0E925DD8B017D08FC015F090C016F0F2
:100BE00091C017F0925134EC0FF03FC018F040C0A4
:100BF00019F041C01AF05DEC10F015C08FF016C06E
:100C000090F017C091F000018ABF06D08A5120E110
:100C10000A0E895DD8B01CD08F5190119111D8B4B3
:100C200056D08FC046F090C047F091C048F011EC0C
:100C300014F04650471048104910D8A448D000017D
:100C40008ABF45D08A5104E1020E895DD8A03FD009
:100C500085C001F086C002F087C003F0700E046EFC
:100C6000890E056E400E066EFEEC16F0D8B003D06D
:100C70000001F70E02D00001F80E8927FF0E8A232B
:100C8000895101EC0CF03FC085F040C086F041C0B6
:100C900087F08FC001F090C002F091C003F085C0D2
:100CA00004F086C005F087C006F033EC11F001C0F7
:100CB00081F002C082F003C083F004C084F0000E13
:100CC00000018F6F000E906F000E916F33D08FC0B8
:100CD00046F090C047F091C048F011EC14F046C0C7
:100CE00081F047C082F048C083F049C084F08FC0D3
:100CF00068F090C069F091C06AF081C009F082C0CC
:100D00000AF083C00BF084C00CF01AEC19F009C093
:100D10006BF00AC06CF00BC06DF048EC19F068C0C5
:100D20008FF069C090F06AC091F0000E00018A6FE8
:100D3000000E896F010E946F0A0E9419D8B418D062
:100D40009451040D010EF324F66E080EF420F76E94
:100D50000900F550815D0900F55082590900F550F0
:100D600083590900F5508459D8A002D0942BE4D7B8
:100D700094C076F0776B76BF7707925176279351C0
:100D80007723895176278A51772376518B5F775164
:100D90008C5B92519311D8B403D08B07D8A08C07E9
:100DA000030E8D15766F000E8E15776F76517711C5
:100DB000D8B403D08B07D8A08C078DA531D0030EF3
:100DC0008D15766F000E8E15776F76517711D8B42A
:100DD00014D06EC0D9FF6FC0DAFF2D0EDF6E6E4BE0
:100DE0006F2B0BD06EC0D9FF6FC0DAFF300EDF6EF5
:100DF0006E4B6F2B8B07D8A08C078CBF72D08C5199
:100E0000F1E18B05D8A06DD0EDD76EC0D9FF6FC0D2
:100E1000DAFF200EDF6E6E4B6F2B8B07D8A08C078E
:100E20008CBF05D08C51F1E18B05D8B0EED7030E05
:100E30008D15766F000E8E15776F76517711D8B4B9
:100E400050D06EC0D9FF6FC0DAFF2D0E47D081C0E1
:100E500001F082C002F083C003F084C004F094511A
:100E6000040D010EF324F66E080EF420F76E09004F
:100E7000F5CF05F00900F5CF06F00900F5CF07F032
:100E80000A00F5CF08F088EC17F001C085F002C029
:100E900086F003C087F004C088F085C00EF086C0DD
:100EA0000FF087C010F088C011F00A0E126E000E0D
:100EB000136E000E146E000E156EB6EC18F00EC018
:100EC00085F00FC086F010C087F011C088F00001D7
:100ED0008551300F6EC0D9FF6FC0DAFFDF6E6E4BE9
:100EE0006F2B94079429D8B40CD0B1D76EC0D9FF1A
:100EF0006FC0DAFF300EDF6E6E4B6F2B8907D8A004
:100F00008A078ABF05D08A51F1E18905D8B0EED7AA
:100F100093BF09D0935104E1090E925DD8A003D08C
:100F2000080E946F02D092C094F09451925F000E1C
:100F300094BFFF0E935B9451D8B408D06EC0D9FF14
:100F40006FC0DAFF2E0EDF6E6E4B6F2B945101ECEB
:100F50000CF03FC07CF040C07DF041C07EF08FC0FF
:100F600033F090C034F091C035F07CC030F07DC0DB
:100F700031F07EC032F08BEC14F030C046F031C05E
:100F800047F032C048F011EC14F046C081F047C081
:100F900082F048C083F049C084F071D081C001F074
:100FA00082C002F083C003F084C004F000019451B9
:100FB000040D010EF324F66E080EF420F76E0900FE
:100FC000F5CF05F00900F5CF06F00900F5CF07F0E1
:100FD0000A00F5CF08F088EC17F001C085F002C0D8
:100FE00086F003C087F004C088F085C00EF086C08C
:100FF0000FF087C010F088C011F00A0E126E000EBC
:10100000136E000E146E000E156EB6EC18F00EC0C6
:1010100085F00FC086F010C087F011C088F0000185
:101020008551300F6EC0D9FF6FC0DAFFDF6E6E4B97
:101030006F2B81C00EF082C00FF083C010F084C00F
:1010400011F09451040D010EF324F66E080EF420F5
:10105000F76E0900F5CF12F00900F5CF13F0090083
:10106000F5CF14F00A00F5CF15F0B6EC18F00EC06D
:1010700081F00FC082F010C083F011C084F0000135
:1010800094079429D8B40CD089D76EC0D9FF6FC00B
:10109000DAFF300EDF6E6E4B6F2B9207D8A09307EE
:1010A00092519311D8B43BD1F0D78DA90ED07FC007
:1010B000D9FF80C0DAFFDECF81F0DECF82F0DECF55
:1010C00083F0DECF84F0040E0FD07FC0D9FF80C044
:1010D000DAFFDECF76F0DDCF77F076C081F077C033
:1010E00082F0836B846B020E7F27000E8023925167
:1010F0009311D8A408D08151821183118411D8A4EE
:1011000002D0924B932B010E946F0A0E9419D8B40F
:1011100018D09451040D010EF324F66E080EF4203D
:10112000F76E0900F550815D0900F55082590900FC
:10113000F55083590900F5508459D8A002D0942B5A
:10114000E4D7800E94BF7F0E766F9251945D9351D9
:10115000800A7659D8B003D092C094F010D0935141
:10116000800A766F9451925D800E94BF7F0E7659FF
:10117000D8B005D09451926F936B92BF93078B5167
:101180008C11D8B40DD0030E8D15766F000E8E1510
:10119000776F76517711D8B403D08B07D8A08C071E
:1011A0008EAD13D08B51925D9351800A766F8C5126
:1011B000800A7659D8B005D092518B5F93518C5BE1
:1011C00004D0000E8C6F000E8B6F800E94BF7F0ECC
:1011D000766F8B51945D8C51800A7659D8B007D0C8
:1011E00094518B5F000E94BFFF0E8C5B04D0000EF9
:1011F0008C6F000E8B6F8DA522D0030E8D15766F30
:10120000000E8E15776F76517711D8B408D06EC066
:10121000D9FF6FC0DAFF2D0EDF6E6E4B6F2B8B5137
:101220008C11D8B474D06EC0D9FF6FC0DAFF300E05
:10123000DF6E6E4B6F2B8B07D8A08C07F0D78B51CE
:101240008C11D8B40FD06EC0D9FF6FC0DAFF200E5A
:10125000DF6E6E4B6F2B8B07D8A08C078B518C11D8
:10126000D8A4F1D7030E8D15766F000E8E15776F0B
:1012700076517711D8B44BD06EC0D9FF6FC0DAFF6A
:101280002D0EDF6E42D092C076F093C077F0D890EA
:1012900076377737D89076377737010E7625F66E22
:1012A000080E7721F76E0900F5CF05F00900F5CF9C
:1012B00006F00900F5CF07F00A00F5CF08F081C06D
:1012C00001F082C002F083C003F084C004F088EC17
:1012D00017F001C00EF002C00FF003C010F004C000
:1012E00011F00A0E126E000E136E000E146E000E38
:1012F000156EB6EC18F00E50300F0001946F6EC0F2
:10130000D9FF6FC0DAFF94C0DFFF6E4B6F2B9207DF
:10131000D8A093079229B7E19329D8A4B4D770C075
:10132000F6FF71C0F7FF704B712B0800F5CF94F0FA
:101330009451D8A466EF04F06EC0D9FF6FC0DAFFF5
:10134000000EDF6E1200C9EC17F09280938093823A
:1013500087EC13F0010EF5EC12F00C0EF5EC12F028
:10136000070E0001966F170E956F6A0EE82EFED7D6
:10137000952FFCD7962FFAD700F0C050F80B06092E
:10138000C06EC096C098C09A000E0101B76F000EE3
:10139000B86F000EB96F000EB16F000EB26F000E85
:1013A000B36F000EC16F000EC06F000E996F000E7C
:1013B0009A6F000E9B6F000EBA6F000EBB6F000E8F
:1013C000BC6F000EC66F000EC76F000EC86F000E18
:1013D000C26F000E9D6F000E9C6F000ED26F000E4C
:1013E000D36F000ED46F000ED56F000ED86F000EB5
:1013F000C96F000ECA6F000ECB6F000ECC6F000ECF
:10140000CD6F000ECE6FF29EABD081A015D081A221
:1014100009D0000ED26F000ED36F000ED46F000EF5
:10142000D56F0AD0040EE82EFED7010E0101D22797
:10143000000ED323D423D523000E336EB40E346EA6
:10144000430E356E240E246E740E256E490E266EE4
:10145000D2C109F0D3C10AF0D4C10BF0D5C10CF050
:101460001AEC19F009C021F00AC022F00BC023F0D9
:1014700005EC15F021C030F022C031F023C032F06D
:101480008BEC14F030C0B4F131C0B5F132C0B6F11C
:10149000B4C121F0B5C122F0B6C123F0890E246E8B
:1014A000880E256E3C0E266E05EC15F021C0BAF1B3
:1014B00022C0BBF123C0BCF1BAC17BF0BBC17CF040
:1014C000BCC17DF0A8EC16F07BC0C6F17CC0C7F1B2
:1014D0007DC0C8F1A10E00016E6F010E6F6F9E0EF0
:1014E000706F080E716FC6C172F0C7C173F0C8C1CA
:1014F00074F05FEC04F0000E046EA10E056E010E98
:10150000066E020EE9EC18F0DB0E00016E6F010EA4
:101510006F6FAA0E706F080E716FD2C172F0D3C1D7
:1015200073F0D4C174F0D5C175F05FEC04F0000E17
:10153000046EDB0E056E010E066E010EE9EC18F06E
:101540000101D851030D000EF324D96E010EF420D1
:10155000DA6EC6C1DEFFC7C1DEFFC8C1DEFFD82B11
:10156000320E0101D86551D7320ED819D8A467D0F0
:10157000000ED76F000ED66FD7BF06D0D7512CE123
:10158000330ED65DD8B028D0C9C115F0CAC116F047
:10159000CBC117F0D6C10FF0D7C110F0000E126EFC
:1015A000030E116E69EC19F0000E0F24D96E010EB6
:1015B0001020DA6EDECF18F0DECF19F0DDCF1AF092
:1015C0005DEC10F015C0C9F116C0CAF117C0CBF11F
:1015D0000101D64BD72BD0D7C9C121F0CAC122F007
:1015E000CBC123F0000E246E4C0E256E420E266EEB
:1015F00005EC15F021C0CCF122C0CDF123C0CEF115
:10160000010EF5EC12F0A10E00016E6F010E6F6F6E
:10161000B40E706F080E716FCCC172F0CDC173F053
:10162000CEC174F05FEC04F0000E046EA10E056EE6
:10163000010E066E010EE9EC18F00101D82B010E27
:10164000C26FC251D8A48DD0FCD7C282C450000151
:10165000966F956BC35095250101D96F000E00015F
:1016600096210101DA6F000EBD6F000EBE6F000EF5
:10167000BF6F000ECF6F000ED06F000ED16F000E47
:10168000336EA00E346E400E356ED9C109F0DAC14A
:101690000AF08EEC19F009C030F00AC031F00BC02E
:1016A00032F08BEC14F030C021F031C022F032C0A7
:1016B00023F0000E246E800E256E440E266E05EC7F
:1016C00015F021C0BDF122C0BEF123C0BFF1000E54
:1016D000186E200E196EC00E1A6EBDC115F0BEC177
:1016E00016F0BFC117F05DEC10F015C021F016C068
:1016F00022F017C023F0710E246E3D0E256E3E0EB3
:10170000266E05EC15F021C0CFF122C0D0F123C028
:10171000D1F1C80EE82EFED7B7C115F0B8C116F04A
:10172000B9C117F0CFC133F0D0C134F0D1C135F019
:10173000CFC130F0D0C131F0D1C132F08BEC14F018
:1017400030C018F031C019F032C01AF05DEC10F062
:1017500015C0B7F116C0B8F117C0B9F10101C04BFF
:10176000C12BC15104E1C80EC05DD8A06ED7B1C174
:1017700030F0B2C131F0B3C132F0000E336E000E62
:10178000346E430E356E8BEC14F030C0C3F131C0B3
:10179000C4F132C0C5F1DB0E00016E6F010E6F6F38
:1017A000920E706F080E716FC3C172F0C4C173F0F6
:1017B000C5C174F05FEC04F0080E046EA10E056E56
:1017C000010E066E010EE9EC18F0000E01019E6F8D
:1017D000000E9F6F000EA06FC3C121F0C4C122F0A4
:1017E000C5C123F0CCC124F0CDC125F0CEC126F077
:1017F00005EC15F021C09EF122C09FF123C0A0F19D
:10180000AFD6456E45AE01D1456C4550800A120FEA
:10181000D8A091D0000E126E030E116E000E0A6E4B
:101820000A0E096E000E046E640E036E4550016EC2
:10183000026A01BE02067EEC18F001C007F002C089
:1018400008F046EC17F0090E07240F6E000E082072
:10185000106E69EC19F0500E0F24F66E080E102071
:10186000F76E0900F5CF33F00900F5CF34F00A0028
:10187000F5CF35F0000E0A6E640E096E4550076E06
:10188000086A07BE080646EC17F0120E07240F6E12
:10189000000E0820106E000E126E030E116E69EC21
:1018A00019F0500E0F24F66E080E1020F76E090086
:1018B000F5CF30F00900F5CF31F00A00F5CF32F066
:1018C0008BEC14F030C042F031C043F032C044F031
:1018D00042C030F043C031F044C032F0000E126E0E
:1018E000030E116E000E046E0A0E036E4550016E5B
:1018F000026A01BE02067EEC18F001C00FF002C0C1
:1019000010F069EC19F0500E0F24F66E080E10203E
:10191000F76E0900F5CF33F00900F5CF34F00A0077
:10192000F5CF35F08BEC14F030C03FF031C040F013
:1019300032C041F012004550800A750FD8A053D034
:10194000000E0A6E0A0E096E4550076E086A07BE41
:10195000080646EC17F0090E07240F6E000E08204B
:10196000106E000E126E030E116E69EC19F0500E1F
:101970000F24F66E080E1020F76E0900F5CF30F038
:101980000900F5CF31F00A00F5CF32F0000E126EEB
:10199000030E116E000E046E0A0E036E4550016EAA
:1019A000026A01BE02067EEC18F001C00FF002C010
:1019B00010F069EC19F0500E0F24F66E080E10208E
:1019C000F76E0900F5CF33F00900F5CF34F00A00C7
:1019D000F5CF35F08BEC14F030C03FF031C040F063
:1019E00032C041F012004550030D500EF324F66E44
:1019F000080EF420F76E0900F5CF3FF00900F5CF8F
:101A000040F00A00F5CF41F012004550800A120F55
:101A1000D8A091D0000E126E030E116E000E0A6E49
:101A20000A0E096E000E046E640E036E4550016EC0
:101A3000026A01BE02067EEC18F001C007F002C087
:101A400008F046EC17F0090E07240F6E000E082070
:101A5000106E69EC19F0290E0F24F66E080E102096
:101A6000F76E0900F5CF33F00900F5CF34F00A0026
:101A7000F5CF35F0000E0A6E640E096E4550076E04
:101A8000086A07BE080646EC17F0120E07240F6E10
:101A9000000E0820106E000E126E030E116E69EC1F
:101AA00019F0290E0F24F66E080E1020F76E0900AB
:101AB000F5CF30F00900F5CF31F00A00F5CF32F064
:101AC0008BEC14F030C042F031C043F032C044F02F
:101AD00042C030F043C031F044C032F0000E126E0C
:101AE000030E116E000E046E0A0E036E4550016E59
:101AF000026A01BE02067EEC18F001C00FF002C0BF
:101B000010F069EC19F0290E0F24F66E080E102063
:101B1000F76E0900F5CF33F00900F5CF34F00A0075
:101B2000F5CF35F08BEC14F030C03FF031C040F011
:101B300032C041F012004550800A750FD8A053D032
:101B4000000E0A6E0A0E096E4550076E086A07BE3F
:101B5000080646EC17F0090E07240F6E000E082049
:101B6000106E000E126E030E116E69EC19F0290E44
:101B70000F24F66E080E1020F76E0900F5CF30F036
:101B80000900F5CF31F00A00F5CF32F0000E126EE9
:101B9000030E116E000E046E0A0E036E4550016EA8
:101BA000026A01BE02067EEC18F001C00FF002C00E
:101BB00010F069EC19F0290E0F24F66E080E1020B3
:101BC000F76E0900F5CF33F00900F5CF34F00A00C5
:101BD000F5CF35F08BEC14F030C03FF031C040F061
:101BE00032C041F012004550030D290EF324F66E69
:101BF000080EF420F76E0900F5CF3FF00900F5CF8D
:101C000040F00A00F5CF41F01200000E00017A6F9B
:101C100070AF11D06EC001F06FC002F070C003F061
:101C20007CEC19F001C06EF002C06FF003C070F0E0
:101C3000010E00017A6F6EC030F06FC031F070C0DD
:101C400032F0FA0E336E220E346E3E0E356E8BEC91
:101C500014F030C06EF031C06FF032C070F06EC062
:101C600068F06FC069F070C06AF06EC060F06FC05D
:101C700061F070C062F078EC15F060C06BF061C08C
:101C80006CF062C06DF048EC19F068C06EF069C08D
:101C90006FF06AC070F06EC030F06FC031F070C08D
:101CA00032F0000E336E800E346E400E356E8BECCB
:101CB00014F030C06EF031C06FF032C070F0000E22
:101CC000016E000E026E400E036E6EC004F06FC017
:101CD00005F070C006F0FEEC16F0D8B01DD06EC056
:101CE00068F06FC069F070C06AF0000E00016B6FA1
:101CF000000E6C6F400E6D6F48EC19F068C06EF00E
:101D000069C06FF06AC070F000017A51D8A402D0A7
:101D1000010E01D0000E7A6F000E016E800E026E71
:101D20003F0E036E6EC004F06FC005F070C006F089
:101D3000FEEC16F0D8B01CD06EC001F06FC002F0FF
:101D400070C003F07CEC19F001C015F002C016F071
:101D500003C017F0000E186E000E196E400E1A6EBA
:101D60005DEC10F015C06EF016C06FF017C070F08B
:101D70006EC030F06FC031F070C032F06EC033F022
:101D80006FC034F070C035F08BEC14F030C077F0D9
:101D900031C078F032C079F077C03FF078C040F0C1
:101DA00079C041F0860E426E080E436E000E456EFD
:101DB000030E446EE8EC15F03FC071F040C072F0C5
:101DC00041C073F071C024F072C025F073C026F0DA
:101DD000000E456E040E446E770E426E080E436E82
:101DE00077C03FF078C040F079C041F0E8EC15F0E2
:101DF0003FC021F040C022F041C023F005EC15F0B7
:101E000021C074F022C075F023C076F06EC030F0AF
:101E10006FC031F070C032F074C033F075C034F070
:101E200076C035F08BEC14F030C06EF031C06FF03E
:101E300032C070F000017A51D8B40FD06EC001F0FA
:101E40006FC002F070C003F07CEC19F001C06EF0BE
:101E500002C06FF003C070F012006EC06EF06FC071
:101E60006FF070C070F01200486E6D0E48649FD025
:101E7000000E126E030E116E000E0A6E0A0E096E2F
:101E8000000E046E640E036E48C001F0026A7EEC20
:101E900018F001C007F002C008F046EC17F0090E78
:101EA00007240F6E000E0820106E69EC19F0500E1A
:101EB0000F24F66E080E1020F76E0900F5CF33F0F0
:101EC0000900F5CF34F00A00F5CF35F0000E0A6EA8
:101ED000640E096E48C007F0086A46EC17F0120E4F
:101EE00007240F6E000E0820106E000E126E030EF7
:101EF000116E69EC19F0500E0F24F66E080E1020CA
:101F0000F76E0900F5CF30F00900F5CF31F00A0087
:101F1000F5CF32F08BEC14F030C045F031C046F014
:101F200032C047F0000E126E030E116E000E046EEA
:101F30000A0E036E48C001F0026A7EEC18F001C080
:101F40000FF002C010F069EC19F0500E0F24F66E7D
:101F5000080E1020F76E0900F5CF33F00900F5CF19
:101F600034F00A00F5CF35F045C030F046C031F00E
:101F700047C032F08BEC14F030C042F031C043F077
:101F800032C044F042C030F043C031F044C032F0BF
:101F9000000E336E000E346E3F0E356E8BEC14F077
:101FA00030C03FF031C040F032C041F012000A0EA4
:101FB000486463D0000E126E030E116E000E046EA4
:101FC0000A0E036E48C001F0026A7EEC18F001C0F0
:101FD0000FF002C010F069EC19F0500E0F24F66EED
:101FE000080E1020F76E0900F5CF33F00900F5CF89
:101FF00034F00A00F5CF35F0000E0A6E0A0E096EB5
:1020000048C007F0086A46EC17F0090E07240F6E67
:10201000000E0820106E000E126E030E116E69EC99
:1020200019F0500E0F24F66E080E1020F76E0900FE
:10203000F5CF30F00900F5CF31F00A00F5CF32F0DE
:102040008BEC14F030C045F031C046F032C047F0A0
:1020500045C030F046C031F047C032F0000E336E5C
:10206000000E346E3F0E356E8BEC14F030C03FF036
:1020700031C040F032C041F012004850030D500E04
:10208000F324F66E080EF420F76E0900F5CF30F059
:102090000900F5CF31F00A00F5CF32F0000E336EB3
:1020A000000E346E3F0E356E8BEC14F030C03FF0F6
:1020B00031C040F032C041F0120017C01BF01C6A62
:1020C0001D6A16341B3601E31C801B50206E1AC09B
:1020D0001BF01C6A1D6A19341B3601E31C801B505F
:1020E0001F6E2050D8B40BD01F50205CD8B00ED03B
:1020F000205000081F241B6E180E1B6407D018C048
:1021000015F019C016F01AC017F012001F50D8B4FD
:102110000BD020501F5CD8B00ED01F5000082024D8
:102120001B6E180E1B6407D015C015F016C016F0F4
:1021300017C017F01200060E1E6E17BE1E8E1ABEB6
:102140001E8C168EFF0E1516FF0E1616000E171695
:10215000198EFF0E1816FF0E1916000E1A161F50B4
:10216000205CD8B01BD0D890183619361A361F0606
:1021700020501F18D8B40DD01E061EC01BF0070E2D
:102180001B16D8B406D0EFD7D890173216321532B6
:10219000202A1F502018D8B41FD0F6D720501F5C1B
:1021A000D8B01AD0D89015361636173620062050DB
:1021B0001F18D8B40DD01E061EC01BF0070E1B162C
:1021C000D8B406D0EFD7D8901A32193218321F2A55
:1021D0001F502018D8A4F7D71EAE0CD0FF0E151A2A
:1021E000FF0E161AFF0E171A010E1526000E1622E4
:1021F000000E17221EAC0CD0FF0E181AFF0E191A73
:10220000FF0E1A1A010E1826000E1922000E1A22AD
:10221000000E1E6E155018261650192217501A223D
:102220001AAE0ED0FF0E181AFF0E191AFF0E1A1A48
:10223000010E1826000E1922000E1A22010E1E6E23
:1022400018C001F019C002F01AC003F020C004F059
:102250001EC005F051EC16F001C015F002C016F0DA
:1022600003C017F0120003C007F0086A096A0234BD
:10227000073601E3088007500F6E0F50D8A409D02D
:10228000000E016E000E026E000E036E000E046E54
:10229000120006C007F0086A096A0534073601E330
:1022A000088007500E6E0E50D8A409D0000E016EA3
:1022B000000E026E000E036E000E046E1200028EFF
:1022C000FF0E0116FF0E0216000E0316058EFF0EFE
:1022D0000416FF0E0516000E0616000E0A6E000EFE
:1022E0000B6E000E0C6E000E0D6E7F0E0F5E0E500C
:1022F000980F0F5E180E0E6ED8900A360B360C36FD
:102300000D360450015C0550025806500358D8A001
:1023100007D00450015E0550025A0650035A0A8045
:10232000D8900136023603360E2EE6D70FAE16D001
:102330000F50800A970FD8B009D0000E016E000E22
:10234000026E000E036E000E046E1200D8900D3265
:102350000C320B320A320F3EF9D715D0170E0F642C
:102360000FD0000E016E000E026E000E036E000E06
:10237000046E1200D8900A360B360C360D360F0656
:102380000F50D8A4F7D70AC001F00BC002F00CC060
:1023900003F00DC004F01200036E83968382016A7D
:1023A00003AE01D0012A010E011601320132835021
:1023B00001187F0B0118836E03C001F0060E026E38
:1023C000D8900132022EFCD7010E0116013A0146C7
:1023D000014683500118BF0B0118836E03C001F042
:1023E000050E026ED8900132022EFCD7010E0116A6
:1023F000013A014683500118DF0B0118836E03C0B8
:1024000001F0013A0F0E0116010E0116013A835038
:102410000118EF0B0118836E030EE82EFED700F0B3
:102420008386140EE82EFED7839603C001F0D89061
:102430000132D8900132D8900132010E01160132DA
:102440000132835001187F0B0118836E03C001F025
:10245000D8900132D8900132010E0116013A01469E
:10246000014683500118BF0B0118836E03C001F0B1
:10247000D8900132010E0116013A0146835001182D
:10248000DF0B0118836E03C001F0010E0116013A43
:1024900083500118EF0B0118836E030EE82EFED750
:1024A00000F08386140EE82EFED78396140EE82ED5
:1024B000FED7560E016EB60EE82EFED7012EFCD7C3
:1024C0001200033404340C6E0C50D8A409D0000E52
:1024D000016E000E026E000E036E000E046E1200FE
:1024E000063407340B6E0B50D8A409D0000E016ED1
:1024F000000E026E000E036E000E046E1200038EBC
:10250000FF0E0116FF0E0216FF0E0316000E041634
:10251000068EFF0E0416FF0E0516FF0E0616000EA1
:102520000716000E076E000E086E000E096E000EF4
:102530000A6E7F0E0C5E0B50A00F0C5E200E0B6E11
:10254000D8900736083609360A360450015C055023
:1025500002580650035807500458D8A009D0045018
:10256000015E0550025A0650035A0750045A07806C
:10257000D89001360236033604360B2EE1D70CAE66
:1025800016D00C50800A9F0FD8B009D0000E016EF3
:10259000000E026E000E036E000E046E1200D89044
:1025A0000A320932083207320C3EF9D715D01F0E15
:1025B0000C640FD0000E016E000E026E000E036E52
:1025C000000E046E1200D8900736083609360A3617
:1025D0000C060C50D8A4F7D707C001F008C002F0D1
:1025E00009C003F00AC004F01200036E83968392C0
:1025F000016A03AE01D0012A010E01160132013237
:10260000835001187F0B0118836E03C001F0060E82
:10261000026ED8900132022EFCD7010E0116013A4B
:102620000146014683500118BF0B0118836E03C099
:1026300001F0050E026ED8900132022EFCD7010E79
:102640000116013A014683500118DF0B0118836E11
:1026500003C001F0013A0F0E0116010E0116013AF6
:1026600083500118EF0B0118836E030EE82EFED77E
:1026700000F08386140EE82EFED7839603C001F087
:10268000D8900132D8900132D8900132010E011653
:1026900001320132835001187F0B0118836E03C091
:1026A00001F0D8900132D8900132010E0116013AA2
:1026B0000146014683500118BF0B0118836E03C009
:1026C00001F0D8900132010E0116013A0146835003
:1026D0000118DF0B0118836E03C001F0010E011613
:1026E000013A83500118EF0B0118836E030EE82E98
:1026F000FED700F08386140EE82EFED78396560E82
:10270000016EB60EE82EFED7012EFCD71200959E64
:10271000959C959A959895969592839E839C839A7D
:10272000839883968392560E046EB60EE82EFED7DB
:10273000042EFCD7560E046EB60EE82EFED7042EDD
:10274000FCD7560E046EB60EE82EFED7042EFCD72C
:10275000560E046EB60EE82EFED7042EFCD7560E8B
:10276000046EB60EE82EFED7042EFCD7560E046E6D
:10277000B60EE82EFED7042EFCD7010E056E1DD036
:10278000839E839C838A838883968392839E839C83
:10279000838A838883868392140EE82EFED7839ED5
:1027A000839C838A838883968392560E046EB60E2A
:1027B000E82EFED7042EFCD7052A030E0564E0D7C9
:1027C000839E839C838A839883968392839E839C33
:1027D000838A839883868392140EE82EFED7839E85
:1027E000839C838A839883968392560E046EB60EDA
:1027F000E82EFED7042EFCD7280E056E0550F5EC0A
:1028000012F0100E056E0550F5EC12F0010E056E7B
:102810000550F5EC12F00F0E056E0550F5EC12F0B8
:10282000120048C04AF04B6A4C6A47344A3601E30A
:102830004B804A50546E5450D8A409D0000E466EB6
:10284000000E476E000E486E000E496E1200170E05
:102850004A6E46C04BF047C04CF048C04DF04A2885
:102860004E6E04D0D8904D324C324B324E2EFAD7A9
:102870004B504F6E478EFF0E4616FF0E4716000E4A
:1028800048164650506E4750516E4850526E536A2B
:102890008E0E545E54AE16D05450800A8F0FD8B0AE
:1028A00009D0000E466E000E476E000E486E000EF8
:1028B000496E1200D8905332523251325032543E47
:1028C000F9D715D0170E54640FD0000E466E000EC7
:1028D000476E000E486E000E496E1200D8905036BA
:1028E00051365236533654065450D8A4F7D74F5069
:1028F000D8B408D0531E521E511E506C000E5122E7
:102900005222532250C046F051C047F052C048F006
:1029100053C049F0120032C036F0376A386A313499
:10292000363601E337803650396E3950D8A407D097
:10293000000E306E000E316E000E326E120035C089
:1029400036F0376A386A3434363601E33780365029
:102950003E6E3E50D8A407D0000E306E000E316E91
:10296000000E326E12003E507B0F392632C03EF010
:1029700035503E1A800E3E16318E348EFF0E3316C1
:10298000FF0E3416000E3516000E3A6E000E3B6E2A
:10299000000E3C6E070E3D6E30A006D033503A2636
:1029A00034503B2235503C22D890323231323032D2
:1029B000D8903336343635363D2EEED7090E3D6E7F
:1029C00030A006D033503A2634503B2235503C22BA
:1029D000D890323231323032D8903C323B323A32B7
:1029E0003D2EEED73AC001F03BC002F03CC003F0F0
:1029F00039C004F03EC005F051EC16F001C030F0D3
:102A000002C031F003C032F0120023C027F0286A60
:102A1000296A2234273601E3288027502E6E2E5053
:102A2000D8A407D0000E216E000E226E000E236E79
:102A3000120026C027F0286A296A2534273601E3C8
:102A4000288027502F6E2F50D8A407D0000E216E5B
:102A5000000E226E000E236E1200000E2B6E000E72
:102A60002C6E000E2D6E2F50890F2E5E23C02FF07E
:102A700026502F1A800E2F16228EFF0E2116FF0EC3
:102A80002216000E2316258EFF0E2416FF0E251685
:102A9000000E2616180E2A6ED8902B362C362D36A0
:102AA0002450215C2550225826502358D8A007D006
:102AB0002450215E2550225A2650235A2B80D8902C
:102AC0002136223623362A2EE7D72BC001F02CC020
:102AD00002F02DC003F02EC004F02FC005F051EC21
:102AE00016F001C021F002C022F003C023F0120052
:102AF00060C001F061C002F062C003F0660E046EB7
:102B0000000E056E06EC18F0000167AF10D062AF42
:102B100007D0000E606F800E616FBF0E626F1200F3
:102B2000000E606F000E616F000E626F1200675141
:102B300004E1150E665DD8A007D060C060F061C0EA
:102B400061F062C062F0120060C046F061C047F000
:102B500062C048F011EC14F046C055F047C056F082
:102B600048C057F049C058F042EC18F055C063F027
:102B700056C064F057C065F060C001F061C002F05B
:102B800062C003F063C004F064C005F065C006F0E5
:102B9000FEEC16F0D8B015D063C015F064C016F086
:102BA00065C017F0000E186E800E196EBF0E1A6EFB
:102BB0005DEC10F015C060F016C061F017C062F057
:102BC000120063C060F064C061F065C062F0120082
:102BD00044C00FF045C010F0000E126E030E116ECF
:102BE00069EC19F042C046F043C047F00F5046264A
:102BF0001050472246C0F6FF47C0F7FF0900F5CF47
:102C000048F00900F5CF49F00A00F5CF4AF03ED070
:102C100048C033F049C034F04AC035F03FC030F00E
:102C200040C031F041C032F08BEC14F030C015F0F0
:102C300031C016F032C017F0000E126E030E116E86
:102C40004406D8A0450644C00FF045C010F069EC1A
:102C500019F042C046F043C047F00F5046261050CE
:102C6000472246C0F6FF47C0F7FF0900F5CF18F02E
:102C70000900F5CF19F00A00F5CF1AF05DEC10F05D
:102C800015C048F016C049F017C04AF0445045102E
:102C9000D8A4BED748C03FF049C040F04AC041F078
:102CA00012000450D8B405D0015002100310D8A46B
:102CB0000CD0000E016E000E026E000E036E1200AC
:102CC000042AD890033202320132000E0114066E3B
:102CD000000E0214076EFE0E0314086E0650071055
:102CE0000810D8B40CD0ECD7042A010E0126000E2F
:102CF0000222000E0322D890033202320132000E6B
:102D00000114066E000E0214076EFF0E0314086E07
:102D1000065007100810D8B406D0E6D70406D8909D
:102D200001360236033602BE03D0020E0460F6D727
:102D300004A0029ED8900432045003120550D8A477
:102D4000038E01C001F002C002F003C003F01200C4
:102D5000100E016E490E026E400E036E7BC004F031
:102D60007CC005F07DC006F0FEEC16F0D8B023D094
:102D70007BC015F07CC016F07DC017F0CC0E186E2D
:102D8000960E196EC00E1A6E5DEC10F015C07EF036
:102D900016C07FF017C080F07EC06EF07FC06FF06D
:102DA00080C070F005EC0EF06EC07BF06FC07CF060
:102DB00070C07DF012007BC015F07CC016F07DC0A5
:102DC00017F0100E186EC90E196E3F0E1A6E5DECDC
:102DD00010F015C07EF016C07FF017C080F07EC0E6
:102DE0006EF07FC06FF080C070F005EC0EF06EC02A
:102DF0007BF06FC07CF070C07DF0120003AE16D087
:102E000001C007F002C008F003C009F0071E081E49
:102E1000091E072A000E08220922000E0724016E4F
:102E2000000E0820026E800E0920036E06AE16D03A
:102E300004C007F005C008F006C009F0071E081E10
:102E4000091E072A000E08220922000E0724046E1C
:102E5000000E0820056E800E0920066E000E011A75
:102E6000000E021A800E031A000E041A000E051A34
:102E7000800E061A0450015C055002580650035893
:102E8000D8B002D0D8901200D8801200000E0C6E7C
:102E90000AAE06D0096C0A1ED8B00A2A010E0C6EC2
:102EA00008AE06D0076C081ED8B0082A010E0C1A0E
:102EB000000E0E6E000E0D6E09500A10D8B41CD014
:102EC000010E0B6E04D0D89009360A360B2A0AAED2
:102ED000FAD7D8900D360E360950075C0A500858BC
:102EE000D8A005D00950075E0A50085A0D80D89026
:102EF0000A3209320B2EEDD70C50D8B404D00D6C29
:102F00000E1ED8B00E2A0DC007F00EC008F0120039
:102F1000000E096E000E0A6E000E0B6E000E0C6E97
:102F20000550061007100810D8B42AD0010E0D6EF7
:102F300006D0D89005360636073608360D2A08AE74
:102F4000F8D7D89009360A360B360C360550015C96
:102F5000065002580750035808500458D8A009D00A
:102F60000550015E0650025A0750035A0850045A91
:102F70000980D89008320732063205320D2EE1D78B
:102F800009C001F00AC002F00BC003F00CC004F04D
:102F90001200C29AC298C296C294C2800E0EC16E2E
:102FA000C08EC08AC098C086C084C092C090000EF7
:102FB000C46E000EC36EF29EF29CF298F292F19CE7
:102FC000F19AF096F0909D949E94CD92CD8ECF0E76
:102FD000CD16CD90000ECF6E000ECE6EBD50F00B14
:102FE0000B09BD6E090EBF6E600EBE6EC050F80BB1
:102FF0000609C06EC096C098C09AD59ED58CD59A49
:10300000D588D596D584D582D5801200015002107E
:103010000310D8A409D004C0D9FF05C0DAFF000E00
:10302000DE6E000EDD6E120003507F0B066E076A27
:10303000D8900636073604C0D9FF05C0DAFF06C0AF
:10304000DEFF07C0DDFF02AE03D0066A062A01D00C
:10305000066A065004C0D9FF05C0DAFFDE12000E72
:10306000DD1204C0D9FF05C0DAFF820EDE26FF0E96
:10307000DD2203800382038403860388038A039C82
:10308000029E1200000E5E6E8E0E5D6E58AE11D066
:10309000581E571E561E556C000E56225722582297
:1030A000010E5E6E06D0D8905832573256325532E5
:1030B0005D2A000E5514596E000E56145A6E000EFD
:1030C00057145B6EFF0E58145C6E59505A105B100B
:1030D0005C10D8A4E8D755C001F056C002F057C024
:1030E00003F05DC004F05EC005F051EC16F001C0C5
:1030F00055F002C056F003C057F01200000E066EE5
:1031000002AE06D0016C021ED8B0022A010E066E75
:1031100004AE04D0036C041ED8B0042A035004107B
:10312000D8B418D0010E056E04D0D89003360436FA
:10313000052A04AEFAD70350015C04500258D8A007
:1031400004D00350015E0450025AD8900432033276
:10315000052EF1D70650D8B404D0016C021ED8B0A9
:10316000022A01C001F002C002F012001250131036
:1031700014101510D8B424D0010E166E06D0D890B5
:103180001236133614361536162A15AEF8D71250E5
:103190000E5C13500F581450105815501158D8A0E9
:1031A00008D012500E5E13500F5A1450105A15507A
:1031B000115AD8901532143213321232162EE7D724
:1031C0000EC00EF00FC00FF010C010F011C011F0C3
:1031D0001200076E0DD00450800F08D00450C00FAD
:1031E00005D00450940F02D00450D40F086E0DD0B7
:1031F0000750010AD8B4EFD7030AD8B4EFD7010AB1
:10320000D8B4EFD7070AD8B4EFD70850F5EC12F0CE
:1032100009D005C0D9FF06C0DAFFDF50CCEC11F0B1
:10322000054A062A05C0D9FF06C0DAFFDF50D8B428
:103230001200EFD78E0E116E06D0D8900C320B32E2
:103240000A320932112A000E09140D6E000E0A14FA
:103250000E6E000E0B140F6EFF0E0C14106E0D5040
:103260000E100F101010D8A4E8D709C001F00AC042
:1032700002F00BC003F011C004F0000E056E51EC1B
:1032800016F001C009F002C00AF003C00BF01200F2
:1032900000016B516C116D11D8B406D0000E6B1B80
:1032A000000E6C1B800E6D1B68C015F069C016F017
:1032B0006AC017F06BC018F06CC019F06DC01AF03E
:1032C0005DEC10F015C068F016C069F017C06AF028
:1032D00012000F501102F3CF13F0F4CF14F00F507F
:1032E0001202F350142610501102F350142613C08A
:1032F0000FF014C010F01200015002100310D8B4E7
:1033000006D0000E011A000E021A800E031A01C028
:1033100001F002C002F003C003F0120009C001F086
:103320000AC002F0036A8E0E046E000E056E51ECA8
:1033300016F001C009F002C00AF003C00BF0120041
:1033400001EED9F0160EEE6AE806FDE100EE97F008
:103350002D0EEE6AE806FDE1000EF86E0001A3EF07
:1033600009F0036E000E026E3A0E036005D02F0EB8
:10337000036402D0010E026E02C001F0013012009F
:020000040020DA
:08000000FFFFFFFFFFFFFFFF00
:020000040030CA
:0E000000010E1F1EFF8381FF0FC00FE00F4097
:00000001FF
