:0400000007EF00F016
:0A000800558245ED15F07DEF1CF068
:1008000000010000000A00000064000000E803008E
:100810000010270000A086010040420F008096983B
:100820000000E1F50500CA9A3B00803F002041002E
:10083000C842007A44401C4650C347247449971864
:100840004BBCBE4C6B6E4E03155079AD60F34971D5
:1008500000803FCDCC3DD7233C12833AB7D138C678
:100860002737388635C0D633CC2B32708930E7DB5A
:100870002EE53C1E42A20DF44A489595C7C1DC45C1
:10088000DC6DC3B333403401489DB04500DA42000B
:10089000803F566F6C746167652025336400495250
:1008A0004D532025302E326600616D707320253047
:1008B0002E32660070463D25302E33660074657317
:0308C000740000C1
:1008C400B50E0001C16F000EC26F8BEF09F0250E4B
:1008D400D619D8B40AD0B1C0D9FFB2C0DAFFD6C095
:1008E400DFFFB14BB22B8BEF09F0000ED06F000E7F
:1008F400CF6F000ECE6F000ECD6F04D00001CD85FA
:10090400B34BB42BB3C0F6FFB4C0F7FF0800F550E7
:10091400300AD8B4F3D7B3C0F6FFB4C0F7FF080069
:10092400F550E2EC1CF0D8A035D0000E0001D06FD9
:10093400000ECF6FCFC06EF0D0C06FF0000E00017C
:10094400716F0A0E706F96EC1CF06EC0CFF06FC022
:10095400D0F0D00E0001B86FFF0EB96FB3C0F6FF30
:10096400B4C0F7FF0800F550BA6FBB6BB851BA2793
:10097400B951BB23BA51CF27BB51D023B34BB42BAE
:10098400B3C0F6FFB4C0F7FF0800F550E2EC1CF06A
:10099400D8B0D0D7B3C0F6FFB4C0F7FF0800F55005
:1009A4002E0AD8A431D00001CE8DB34BB42B000E47
:1009B400D56F000ED46F1DD0D4C06EF0D5C06FF0CB
:1009C400000E0001716F0A0E706F96EC1CF0B3C03C
:1009D400F6FFB4C0F7FF0800F55000016E27000EC3
:1009E4006F23D00E6E25D46FFF0E6F21D56FB34BDE
:1009F400B42BB3C0F6FFB4C0F7FF0800F550E2EC27
:100A04001CF0D8A00AD0D8D7000E0001D56F000E74
:100A1400D46FCE8902D0CE8519D0B3C0F6FFB4C04E
:100A2400F7FF0001B34BB42B0800F5CFD6F0D65135
:100A3400000AD8B498EF09F0640AD8B407D0020ABF
:100A4400D8B4E9D70F0AD8A48BEF09F0070ECE1556
:100A5400D8B429D3CEA904D0000ED56F060ED46F16
:100A6400C1C0D9FFC2C0DAFFDECFD1F0DECFD2F0F1
:100A7400DDCFD3F0030EC127000EC223D3AF11D0B4
:100A8400D1C060F0D2C061F0D3C062F0AAEC1CF017
:100A940060C0D1F061C0D2F062C0D3F0030E000197
:100AA400CD13000ECC6F000ECB6FD151D211D311E8
:100AB400D8B488D0820EB86FFF0EB96FD1C0BAF027
:100AC400D2C0BBF0D3C0BCF0D4C0BDF0100E05D072
:100AD400D890BD33BC33BB33BA33E82EF9D7BA51FF
:100AE400B825CB6F000EB921CC6FCB07D8A0CC07AB
:100AF400CBC06EF0CCC06FF0000E716F030E706F40
:100B040096EC1CF06EC0CBF06FC0CCF0CBC066F09E
:100B1400CCC067F0000E0001696F0A0E686F9EEC8E
:100B24001AF066C0CBF067C0CCF00001CCAF03D0A4
:100B3400CB07D8A0CC07CB5100081BEC0CF083C02A
:100B4400C3F084C0C4F085C0C5F0C3C074F0C4C091
:100B540075F0C5C076F0D1C077F0D2C078F0D3C0BC
:100B640079F045EC16F074C0C3F075C0C4F076C0DB
:100B7400C5F0C3C060F0C4C061F0C5C062F0000E2F
:100B84000001636F800E646F3F0E656F55EC1AF0C1
:100B94000001D8B004D0CB07D8A0CC0713D0C3C071
:100BA40060F0C4C061F0C5C062F0000E636F200E37
:100BB400646F410E656F55EC1AF00001D8A002D0A5
:100BC400CB4BCC2BD5BF06D0D5511BE10D0ED45D3C
:100BD400D8B017D0D1C08DF0D2C08EF0D3C08FF072
:100BE400D45137EC0EF083C090F084C091F085C0EE
:100BF40092F0A4EC10F08DC0D1F08EC0D2F08FC072
:100C0400D3F00001CCBF06D0CC511FE10A0ECB5D5E
:100C1400D8B01BD0D151D211D311D8B454D0D1C033
:100C24008AF0D2C08BF0D3C08CF0C9EC15F000016F
:100C34008A518B118C118D11D8B4CCBF44D0CC51B6
:100C440004E1020ECB5DD8A03ED0C3C060F0C4C0A6
:100C540061F0C5C062F0700E636F890E646F400E60
:100C6400656F55EC1AF00001D8B002D0F70E01D030
:100C7400F80ECB27FF0ECC23CB511BEC0CF083C01A
:100C8400C3F084C0C4F085C0C5F0D1C060F0D2C048
:100C940061F0D3C062F0C3C063F0C4C064F0C5C0E7
:100CA40065F0E5EC12F060C0C7F061C0C8F062C046
:100CB400C9F063C0CAF0000E0001D16F000ED26FFC
:100CC400000ED36F33D0D1C08AF0D2C08BF0D3C022
:100CD4008CF0C9EC15F08AC0C7F08BC0C8F08CC08A
:100CE400C9F08DC0CAF0D1C0ABF0D2C0ACF0D3C053
:100CF400ADF0C7C068F0C8C069F0C9C06AF0CAC026
:100D04006BF00BEC1CF068C0AEF069C0AFF06AC0C9
:100D1400B0F05CEC1CF0ABC0D1F0ACC0D2F0ADC014
:100D2400D3F0000E0001CC6F000ECB6F010ED66F16
:100D34000A0ED619D8B418D0D651040D010EF324D6
:100D4400F66E080EF420F76E0900F550C75D090031
:100D5400F550C8590900F550C9590900F550CA5948
:100D6400D8A002D0D62BE4D7D6C0B8F0B96BB8BFA0
:100D7400B907D451B827D551B923CB51B827CC5191
:100D8400B923B851CF5FB951D05BD451D511D8B480
:100D940003D0CF07D8A0D007030ECD15B86F000E2F
:100DA400CE15B96FB851B911D8B403D0CF07D8A0B4
:100DB400D007CDA531D0030ECD15B86F000ECE15DA
:100DC400B96FB851B911D8B414D0B1C0D9FFB2C0F9
:100DD400DAFF2D0EDF6EB14BB22B0BD0B1C0D9FFB1
:100DE400B2C0DAFF300EDF6EB14BB22BCF07D8A002
:100DF400D007D0BF73D0D051F1E1CF05D8A06ED0C9
:100E0400EDD7B1C0D9FFB2C0DAFF200EDF6EB14B0F
:100E1400B22BCF07D8A0D007D0BF05D0D051F1E175
:100E2400CF05D8B0EED7030ECD15B86F000ECE1592
:100E3400B96FB851B911D8B451D0B1C0D9FFB2C04B
:100E4400DAFF2D0E48D0C7C060F0C8C061F0C9C039
:100E540062F0CAC063F0D651040D010EF324F66E9D
:100E6400080EF420F76E0900F5CF64F00900F5CF01
:100E740065F00900F5CF66F00A00F5CF67F0E1EC04
:100E84001AF060C0C3F061C0C4F062C0C5F063C0B2
:100E9400C6F0C3C06DF0C4C06EF0C5C06FF0C6C06C
:100EA40070F00A0E0001716F000E726F000E736F06
:100EB400000E746FD7EC1BF06DC0C3F06EC0C4F0AD
:100EC4006FC0C5F070C0C6F00001C351300FB1C08F
:100ED400D9FFB2C0DAFFDF6EB14BB22BD607D629E9
:100EE400D8B40CD0B0D7B1C0D9FFB2C0DAFF300E3D
:100EF400DF6EB14BB22BCB07D8A0CC07CCBF05D04B
:100F0400CC51F1E1CB05D8B0EED7D5BF09D0D5513E
:100F140004E1090ED45DD8A003D0080ED66F02D028
:100F2400D4C0D6F0D651D45F000ED6BFFF0ED55B29
:100F3400D651D8B408D0B1C0D9FFB2C0DAFF2E0E52
:100F4400DF6EB14BB22BD6511BEC0CF083C0BEF05C
:100F540084C0BFF085C0C0F0D1C077F0D2C078F0B3
:100F6400D3C079F0BEC074F0BFC075F0C0C076F0D5
:100F740045EC16F074C08AF075C08BF076C08CF026
:100F8400C9EC15F08AC0C7F08BC0C8F08CC0C9F09A
:100F94008DC0CAF072D0C7C060F0C8C061F0C9C0CB
:100FA40062F0CAC063F00001D651040D010EF324AF
:100FB400F66E080EF420F76E0900F5CF64F0090010
:100FC400F5CF65F00900F5CF66F00A00F5CF67F0BC
:100FD400E1EC1AF060C0C3F061C0C4F062C0C5F0B7
:100FE40063C0C6F0C3C06DF0C4C06EF0C5C06FF07E
:100FF400C6C070F00A0E0001716F000E726F000E11
:10100400736F000E746FD7EC1BF06DC0C3F06EC02D
:10101400C4F06FC0C5F070C0C6F00001C351300FFA
:10102400B1C0D9FFB2C0DAFFDF6EB14BB22BC7C07B
:101034006DF0C8C06EF0C9C06FF0CAC070F0D65170
:10104400040D010EF324F66E080EF420F76E090069
:10105400F5CF71F00900F5CF72F00900F5CF73F008
:101064000A00F5CF74F0D7EC1BF06DC0C7F06EC06A
:10107400C8F06FC0C9F070C0CAF00001D607D62905
:10108400D8B40CD088D7B1C0D9FFB2C0DAFF300EC3
:10109400DF6EB14BB22BD407D8A0D507D451D511EC
:1010A400D8B437D1F0D7C1C0D9FFC2C0DAFFDECF80
:1010B400C7F0DDCFC8F0000EC8BFFF0EC96FCA6FFE
:1010C400020EC127000EC223CAAF0AD0030ECD13ED
:1010D400CA1FC91FC81FC76D000EC823C923CA234E
:1010E400D451D511D8A408D0C751C811C911CA11F7
:1010F400D8A402D0D44BD52B010ED66F0A0ED61924
:10110400D8B418D0D651040D010EF324F66E080E8F
:10111400F420F76E0900F550C75D0900F550C85971
:101124000900F550C9590900F550CA59D8A002D090
:10113400D62BE4D7800ED6BF7F0EB86FD451D65DC0
:10114400D551800AB859D8B003D0D4C0D6F010D045
:10115400D551800AB86FD651D45D800ED6BF7F0EAC
:10116400B859D8B005D0D651D46FD56BD4BFD507F4
:10117400CF51D011D8B40DD0030ECD15B86F000ED9
:10118400CE15B96FB851B911D8B403D0CF07D8A0D0
:10119400D007CEAD13D0CF51D45DD551800AB86FEE
:1011A400D051800AB859D8B005D0D451CF5FD551A9
:1011B400D05B04D0000ED06F000ECF6F800ED6BF70
:1011C4007F0EB86FCF51D65DD051800AB859D8B0D0
:1011D40007D0D651CF5F000ED6BFFF0ED05B04D030
:1011E400000ED06F000ECF6FCDA522D0030ECD150B
:1011F400B86F000ECE15B96FB851B911D8B408D074
:10120400B1C0D9FFB2C0DAFF2D0EDF6EB14BB22BE5
:10121400CF51D011D8B475D0B1C0D9FFB2C0DAFF64
:10122400300EDF6EB14BB22BCF07D8A0D007F0D76A
:10123400CF51D011D8B40FD0B1C0D9FFB2C0DAFFAA
:10124400200EDF6EB14BB22BCF07D8A0D007CF5101
:10125400D011D8A4F1D7030ECD15B86F000ECE155A
:10126400B96FB851B911D8B44CD0B1C0D9FFB2C01C
:10127400DAFF2D0EDF6E43D0D4C0B8F0D5C0B9F07C
:10128400D890B837B937D890B837B937010EB825E0
:10129400F66E080EB921F76E0900F5CF64F0090067
:1012A400F5CF65F00900F5CF66F00A00F5CF67F0D9
:1012B400C7C060F0C8C061F0C9C062F0CAC063F0C2
:1012C400E1EC1AF060C06DF061C06EF062C06FF0C6
:1012D40063C070F00A0E0001716F000E726F000E91
:1012E400736F000E746FD7EC1BF000016D51300F5B
:1012F400D66FB1C0D9FFB2C0DAFFD6C0DFFFB14BA1
:10130400B22BD407D8A0D507D429B6E1D529D8A4BF
:10131400B3D7B3C0F6FFB4C0F7FFB34BB42B080088
:10132400F5CFD6F0D651D8A469EF04F0B1C0D9FFF7
:10133400B2C0DAFF000EDF6E12003AEC1CF09280AD
:101344009380938245EC12F0010E19EC14F00C0E0C
:1013540019EC14F0070E0001D86F170ED76F6A0E40
:10136400E82EFED7D72FFCD7D82FFAD700F0C050DD
:10137400F80B0609C06EC096C098C09A000E010111
:10138400C16F000EC26F000EC36F000EAE6F000E71
:10139400AF6F000EB06F000ECB6F000ECA6F000E61
:1013A400996F000E9A6F000E9B6F000EB16F000EC6
:1013B400B26F000EB36F000EB46F000EB56F000E67
:1013C400B66F000ECD6F000E9D6F000E9C6F000E69
:1013D400BD6F000EBE6F000EBF6F000EC06F000E1B
:1013E400CC6F000EC46F000EC56F000EC66F000EEA
:1013F400B76F000EB86F000EB96FC2D0C282C4506E
:101404000001D86FD76BC350D725536E000ED82177
:10141400546E000E0101BA6F000EBB6F000EBC6F5C
:10142400000ECE6F000ECF6F000ED06F000E0001C5
:10143400776FA00E786F400E796F53C068F054C078
:1014440069F0BDEC1CF068C074F069C075F06AC046
:1014540076F045EC16F074C0B1F075C0B2F076C009
:10146400B3F0000E0001B46F800EB56F440EB66F7A
:101474003AEC17F0B1C0BAF1B2C0BBF1B3C0BCF1E1
:10148400000E0001906F200E916FC00E926FBAC1D2
:101494008DF0BBC18EF0BCC18FF0A4EC10F08DC0F8
:1014A400B1F08EC0B2F08FC0B3F0710E0001B46F12
:1014B4003D0EB56F3E0EB66F3AEC17F0B1C0CEF1EB
:1014C400B2C0CFF1B3C0D0F19E0E0001B16F010ED6
:1014D400B26F920EB36F080EB46FCAC1B5F0CBC130
:1014E400B6F062EC04F0D30E0001B16F010EB26FDE
:1014F400A90EB36F080EB46FCEC1B5F0CFC1B6F06C
:10150400D0C1B7F062EC04F0000E0001636F9E0ED0
:10151400646F010E656F010E09EC1AF0000E0001F4
:10152400636FD30E646F010E656F020E09EC1AF03F
:10153400C80EE82EFED7C1C18DF0C2C18EF0C3C162
:101544008FF0CEC177F0CFC178F0D0C179F0CEC1A1
:1015540074F0CFC175F0D0C176F045EC16F074C0CC
:1015640090F075C091F076C092F0A4EC10F08DC0AC
:10157400C1F18EC0C2F18FC0C3F10101CA4BCB2BA4
:10158400CB5104E1C80ECA5DD8A038D7000E0001C3
:10159400B46F490EB56F430EB66FC1C1B1F0C2C18D
:1015A400B2F0C3C1B3F03AEC17F0B1C0C0F0B2C0AE
:1015B400C1F0B3C0C2F07BEC11F0C0C0C7F1C1C030
:1015C400C8F1C2C0C9F1C7C1B1F0C8C1B2F0C9C144
:1015D400B3F0000E0001B46FA00EB56F410EB66FEC
:1015E4003AEC17F0B1C0AEF1B2C0AFF1B3C0B0F194
:1015F400D30E0001B16F010EB26F9E0EB36F080ED1
:10160400B46FAEC1B5F0AFC1B6F0B0C1B7F062EC23
:1016140004F0000E0001636FD30E646F010E656F5A
:10162400020E09EC1AF01F0E0001D86F710ED76F6D
:101634001E0EE82EFED7D72FFCD7D82FFAD700F0EE
:1016440082D0000E0001636FBD0E646F080E656FDB
:10165400010E09EC1AF081A016D081A20AD0000E66
:101664000101BD6F000EBE6F000EBF6F000EC06F94
:101674000AD0040EE82EFED7010E0101BD27000E8C
:10168400BE23BF23C023000E0001776FB40E786F12
:10169400430E796F240EB46F740EB56F490EB66F96
:1016A400BDC168F0BEC169F0BFC16AF0C0C16BF0D2
:1016B4000BEC1CF068C0B1F069C0B2F06AC0B3F0C2
:1016C4003AEC17F0B1C074F0B2C075F0B3C076F064
:1016D40045EC16F074C0C7F175C0C8F176C0C9F105
:1016E400C7C1B1F0C8C1B2F0C9C1B3F0890E0001DD
:1016F400B46F880EB56F3C0EB66F3AEC17F0B1C0FC
:10170400B1F1B2C0B2F1B3C0B3F1B1C1CDF0B2C165
:10171400CEF0B3C1CFF001EC19F0CDC0B4F1CEC01E
:10172400B5F1CFC0B6F10101CC51030D000EF32485
:10173400D96E010EF420DA6EB4C1DEFFB5C1DEFF4E
:10174400B6C1DEFFCC2B320E0101CC657AD7CD5168
:10175400D8A469D0000ED26F000ED16FD2BF06D0CC
:10176400D2512EE1330ED15DD8B02AD0C4C18DF050
:10177400C5C18EF0C6C18FF0D1C16EF0D2C16FF079
:10178400000E0001716F030E706F96EC1CF0000EDA
:1017940000016E25D96E010E6F21DA6EDECF90F056
:1017A400DECF91F0DDCF92F0A4EC10F08DC0C4F147
:1017B4008EC0C5F18FC0C6F10101D14BD22BCED75B
:1017C400C4C1B1F0C5C1B2F0C6C1B3F0000E00018E
:1017D400B46F4C0EB56F420EB66F3AEC17F0B1C051
:1017E400B7F1B2C0B8F1B3C0B9F19E0E0001B16F48
:1017F400010EB26FB40EB36F080EB46FB7C1B5F07B
:10180400B8C1B6F0B9C1B7F062EC04F0000E000143
:10181400636F9E0E646F010E656F010E09EC1AF082
:10182400010E0101CD6F010ECD6FCD51D8A4A8D604
:10183400FCD70001896F000189AF0CD1896D8951F2
:10184400800A120FD8A097D0000E716F030E706F2C
:10185400000E696F0A0E686F000E636F640E626F8C
:101864008951606F616B60BF61079EEC1BF060C0C3
:1018740066F061C067F09EEC1AF0090E000166255F
:101884006E6F000E67216F6F96EC1CF0500E000116
:101894006E25F66E080E6F21F76E0900F5CF77F00E
:1018A4000900F5CF78F00A00F5CF79F0000E696FE2
:1018B400640E686F8951666F676B66BF67079EEC3D
:1018C4001AF0120E000166256E6F000E67216F6F0D
:1018D400000E716F030E706F96EC1CF0500E000139
:1018E4006E25F66E080E6F21F76E0900F5CF74F0C1
:1018F4000900F5CF75F00A00F5CF76F045EC16F047
:1019040074C086F075C087F076C088F086C074F025
:1019140087C075F088C076F0000E0001716F030E69
:10192400706F000E636F0A0E626F8951606F616B96
:1019340060BF61079EEC1BF060C06EF061C06FF089
:1019440096EC1CF0500E00016E25F66E080E6F2109
:10195400F76E0900F5CF77F00900F5CF78F00A00AB
:10196400F5CF79F045EC16F074C083F075C084F0BF
:1019740076C085F0120000018951800A750FD8A045
:1019840056D0000E696F0A0E686F8951666F676BD7
:1019940066BF67079EEC1AF0090E000166256E6F9C
:1019A400000E67216F6F000E716F030E706F96EC5F
:1019B4001CF0500E00016E25F66E080E6F21F76EB6
:1019C4000900F5CF74F00900F5CF75F00A00F5CFE2
:1019D40076F0000E716F030E706F000E636F0A0EC7
:1019E400626F8951606F616B60BF61079EEC1BF091
:1019F40060C06EF061C06FF096EC1CF0500E0001F8
:101A04006E25F66E080E6F21F76E0900F5CF77F09C
:101A14000900F5CF78F00A00F5CF79F045EC16F01F
:101A240074C083F075C084F076C085F012000001A4
:101A34008951030D500EF324F66E080EF420F76E50
:101A44000900F5CF83F00900F5CF84F00A00F5CF43
:101A540085F012008951800A120FD8A097D0000E89
:101A6400716F030E706F000E696F0A0E686F000EBF
:101A7400636F640E626F8951606F616B60BF610751
:101A84009EEC1BF060C066F061C067F09EEC1AF03B
:101A9400090E000166256E6F000E67216F6F96ECCC
:101AA4001CF0290E00016E25F66E080E6F21F76EEC
:101AB4000900F5CF77F00900F5CF78F00A00F5CFEB
:101AC40079F0000E696F640E686F8951666F676BF9
:101AD40066BF67079EEC1AF0120E000166256E6F52
:101AE400000E67216F6F000E716F030E706F96EC1E
:101AF4001CF0290E00016E25F66E080E6F21F76E9C
:101B04000900F5CF74F00900F5CF75F00A00F5CFA0
:101B140076F045EC16F074C086F075C087F076C098
:101B240088F086C074F087C075F088C076F0000E27
:101B34000001716F030E706F000E636F0A0E626F07
:101B44008951606F616B60BF61079EEC1BF060C0E0
:101B54006EF061C06FF096EC1CF0290E00016E254A
:101B6400F66E080E6F21F76E0900F5CF77F00900C5
:101B7400F5CF78F00A00F5CF79F045EC16F074C093
:101B840083F075C084F076C085F01200000189519D
:101B9400800A750FD8A056D0000E696F0A0E686FC0
:101BA4008951666F676B66BF67079EEC1AF0090E72
:101BB400000166256E6F000E67216F6F000E716F56
:101BC400030E706F96EC1CF0290E00016E25F66E64
:101BD400080E6F21F76E0900F5CF74F00900F5CFF8
:101BE40075F00A00F5CF76F0000E716F030E706F7A
:101BF400000E636F0A0E626F8951606F616B60BF84
:101C040061079EEC1BF060C06EF061C06FF096EC53
:101C14001CF0290E00016E25F66E080E6F21F76E7A
:101C24000900F5CF77F00900F5CF78F00A00F5CF79
:101C340079F045EC16F074C083F075C084F076C07A
:101C440085F0120000018951030D290EF324F66E6C
:101C5400080EF420F76E0900F5CF83F00900F5CFE4
:101C640084F00A00F5CF85F0120000018C6F6D0E30
:101C740000018C65A6D0000E716F030E706F000E0C
:101C8400696F0A0E686F000E636F640E626F8CC01A
:101C940060F0616B9EEC1BF060C066F061C067F0A1
:101CA4009EEC1AF0090E000166256E6F000E672186
:101CB4006F6F96EC1CF0500E00016E25F66E080E48
:101CC4006F21F76E0900F5CF77F00900F5CF78F0B2
:101CD4000A00F5CF79F0000E696F640E686F8CC04E
:101CE40066F0676B9EEC1AF0120E000166256E6FAB
:101CF400000E67216F6F000E716F030E706F96EC0C
:101D04001CF0500E00016E25F66E080E6F21F76E62
:101D14000900F5CF74F00900F5CF75F00A00F5CF8E
:101D240076F045EC16F074C089F075C08AF076C080
:101D34008BF0000E0001716F030E706F000E636F65
:101D44000A0E626F8CC060F0616B9EEC1BF060C089
:101D54006EF061C06FF096EC1CF0500E00016E2521
:101D6400F66E080E6F21F76E0900F5CF77F00900C3
:101D7400F5CF78F00A00F5CF79F089C074F08AC005
:101D840075F08BC076F045EC16F074C086F075C023
:101D940087F076C088F086C074F087C075F088C07C
:101DA40076F0000E0001776F000E786F3F0E796FAA
:101DB40045EC16F074C083F075C084F076C085F0ED
:101DC40012000A0E00018C6567D0000E716F030EBD
:101DD400706F000E636F0A0E626F8CC060F0616BEF
:101DE4009EEC1BF060C06EF061C06FF096EC1CF0CE
:101DF400500E00016E25F66E080E6F21F76E090075
:101E0400F5CF77F00900F5CF78F00A00F5CF79F037
:101E1400000E696F0A0E686F8CC066F0676B9EECEB
:101E24001AF0090E000166256E6F000E67216F6FB0
:101E3400000E716F030E706F96EC1CF0500E0001D3
:101E44006E25F66E080E6F21F76E0900F5CF74F05B
:101E54000900F5CF75F00A00F5CF76F045EC16F0E1
:101E640074C089F075C08AF076C08BF089C074F0B4
:101E74008AC075F08BC076F0000E0001776F000EFB
:101E8400786F3F0E796F45EC16F074C083F075C01F
:101E940084F076C085F0120000018C51030D500EC1
:101EA400F324F66E080EF420F76E0900F5CF74F0F3
:101EB4000900F5CF75F00A00F5CF76F0000E776FC4
:101EC400000E786F3F0E796F45EC16F074C083F006
:101ED40075C084F076C085F01200000E0001CC6F4E
:101EE400C2AF11D0C0C060F0C1C061F0C2C062F026
:101EF400AAEC1CF060C0C0F061C0C1F062C0C2F0C6
:101F0400010E0001CC6FC0C074F0C1C075F0C2C036
:101F140076F0FA0E776F220E786F3E0E796F45ECED
:101F240016F074C0C0F075C0C1F076C0C2F0C0C075
:101F3400ABF0C1C0ACF0C2C0ADF0C0C0A3F0C1C032
:101F4400A4F0C2C0A5F021EC18F0A3C0AEF0A4C068
:101F5400AFF0A5C0B0F05CEC1CF0ABC0C0F0ACC0FE
:101F6400C1F0ADC0C2F0C0C074F0C1C075F0C2C051
:101F740076F0000E0001776F800E786F400E796F57
:101F840045EC16F074C0C0F075C0C1F076C0C2F064
:101F9400000E0001606F000E616F400E626FC0C0E2
:101FA40063F0C1C064F0C2C065F055EC1AF00001E2
:101FB400D8B01CD0C0C0ABF0C1C0ACF0C2C0ADF052
:101FC400000EAE6F000EAF6F400EB06F5CEC1CF0F5
:101FD400ABC0C0F0ACC0C1F0ADC0C2F00001CC5188
:101FE400D8A402D0010E01D0000ECC6F000E606F99
:101FF400800E616F3F0E626FC0C063F0C1C064F0B9
:10200400C2C065F055EC1AF00001D8B01DD0C0C0B4
:1020140060F0C1C061F0C2C062F0AAEC1CF060C004
:102024008DF061C08EF062C08FF0000E0001906FE1
:10203400000E916F400E926FA4EC10F08DC0C0F0B2
:102044008EC0C1F08FC0C2F0C0C074F0C1C075F0C2
:10205400C2C076F0C0C077F0C1C078F0C2C079F0D9
:1020640045EC16F074C0C9F075C0CAF076C0CBF068
:10207400C9C099F0CAC09AF0CBC09BF0860E00018B
:102084009C6F080E9D6F000E9F6F030E9E6F93EC66
:1020940018F099C0C3F09AC0C4F09BC0C5F0C3C087
:1020A400B4F0C4C0B5F0C5C0B6F0000E00019F6F17
:1020B400040E9E6F770E9C6F080E9D6FC9C099F039
:1020C400CAC09AF0CBC09BF093EC18F099C0B1F061
:1020D4009AC0B2F09BC0B3F03AEC17F0B1C0C6F0AE
:1020E400B2C0C7F0B3C0C8F0C0C074F0C1C075F0CE
:1020F400C2C076F0C6C077F0C7C078F0C8C079F027
:1021040045EC16F074C0C0F075C0C1F076C0C2F0E2
:102114000001CC51D8B40FD0C0C060F0C1C061F090
:10212400C2C062F0AAEC1CF060C0C0F061C0C1F093
:1021340062C0C2F01200C0C0C0F0C1C0C1F0C2C0D1
:10214400C2F012008FC093F00001946B956B8E3532
:10215400933701E394819351986F92C093F0946BF9
:10216400956B9135933701E394819351976F98510F
:10217400D8B40BD09751985DD8B00ED098510008C0
:102184009725936F180E936507D090C08DF091C07A
:102194008EF092C08FF012009751D8B40BD09851A2
:1021A400975DD8B00ED0975100089825936F180EFC
:1021B400936507D08DC08DF08EC08EF08FC08FF0E8
:1021C4001200060E966F8FBF968F92BF968D8E8FDC
:1021D400FF0E8D17FF0E8E17000E8F17918FFF0EB7
:1021E4009017FF0E9117000E92179751985DD8B073
:1021F4001BD0D890903791379237970798519719F9
:10220400D8B40DD0960796C093F0070E9317D8B4A0
:1022140006D0EFD7D8908F338E338D33982B9751C8
:102224009819D8B41FD0F6D79851975DD8B01AD062
:10223400D8908D378E378F37980798519719D8B41F
:102244000DD0960796C093F0070E9317D8B406D016
:10225400EFD7D890923391339033972B97519819A5
:10226400D8A4F7D796AF0CD0FF0E8D1BFF0E8E1B94
:10227400FF0E8F1B010E8D27000E8E23000E8F2361
:1022840096AD0CD0FF0E901BFF0E911BFF0E921B00
:10229400010E9027000E9123000E9223000E966FDC
:1022A4008D5190278E5191238F51922392AF0ED04E
:1022B400FF0E901BFF0E911BFF0E921B010E902729
:1022C400000E9123000E9223010E966F90C060F0D1
:1022D40091C061F092C062F098C063F096C064F05F
:1022E4005AEC19F060C08DF061C08EF062C08FF0BE
:1022F4001200000E0001606F000E616F000E626F2D
:10230400C0C063F0C1C064F0C2C065F055EC1AF0FF
:102314000001D8A00DD0C2AF04D0000EEE6F210E84
:10232400ED6F000EC06F000EC16F000EC26F120081
:10233400C0C0C9F0C1C0CAF0C2C0CBF0C0C0C3F0B5
:10234400C1C0C4F0C2C0C5F0C31FC41FC51FC32B86
:10235400000EC423C523C80EC325D06F6E0EC4213E
:10236400D16FBE0EC521D26FD890D233D133D033C2
:10237400000EC95F800ECA5B000ECB5B040ECC6FEF
:10238400D0C0C6F0D1C0C7F0D2C0C8F0D0C074F07D
:10239400D1C075F0D2C076F0C9C077F0CAC078F069
:1023A400CBC079F045EC16F074C0CDF075C0CEF01A
:1023B40076C0CFF0CDC074F0CEC075F0CFC076F04B
:1023C400D0C077F0D1C078F0D2C079F045EC16F0E7
:1023D40074C0CDF075C0CEF076C0CFF0CDC074F02F
:1023E400CEC075F0CFC076F0D0C077F0D1C078F011
:1023F400D2C079F045EC16F074C0CDF075C0CEF0C3
:1024040076C0CFF0D0C074F0D1C075F0D2C076F0F1
:10241400000E0001776FC00E786F3F0E796F45ECA8
:1024240016F074C0D0F075C0D1F076C0D2F0D0C030
:10243400ABF0D1C0ACF0D2C0ADF0CDC0AEF0CEC0E8
:10244400AFF0CFC0B0F05CEC1CF0ABC0D0F0ACC0CF
:10245400D1F0ADC0D2F00001CC2F92D7D0C074F02F
:10246400D1C075F0D2C076F0C0C077F0C1C078F0AA
:10247400C2C079F045EC16F074C0C0F075C0C1F06C
:1024840076C0C2F01200959E959C959A9598959663
:102494009592839E839C839A839883968392560E07
:1024A4000001636FB50EE82EFED7632FFCD700D072
:1024B400560E0001636FB50EE82EFED7632FFCD7CE
:1024C40000D0560E0001636FB50EE82EFED7632FC1
:1024D400FCD700D0560E0001636FB50EE82EFED770
:1024E400632FFCD700D0560E0001636FB50EE82EA3
:1024F400FED7632FFCD700D0560E0001636FB50ED4
:10250400E82EFED7632FFCD700D0010E0001646FC4
:1025140020D0839E839C838A838883968392839E20
:10252400839C838A838883868392140EE82EFED745
:10253400839E839C838A838883968392560E0001AC
:10254400636FB50EE82EFED7632FFCD700D00001D1
:10255400642B030E6465DDD7839E839C838A8398F2
:1025640083968392839E839C838A839883868392B3
:10257400140EE82EFED7839E839C838A83988396C9
:102584008392560E0001636FB50EE82EFED7632FBB
:10259400FCD700D0280E0001646F645119EC14F0CC
:1025A400100E0001646F645119EC14F0010E000167
:1025B400646F645119EC14F00F0E0001646F6451E0
:1025C40019EC14F0120062C066F00001676B686BCE
:1025D4006135663701E3678166516E6F6E51D8A429
:1025E40009D0000E606F000E616F000E626F000E66
:1025F400636F120065C066F0676B686B643566379D
:1026040001E3678166516D6F6D51D8A409D0000E46
:10261400606F000E616F000E626F000E636F120038
:10262400618FFF0E6017FF0E6117000E6217648F33
:10263400FF0E6317FF0E6417000E6517000E696F17
:10264400000E6A6F000E6B6F000E6C6F7F0E6E5F74
:102654006D51980F6E5F180E6D6FD89069376A3799
:102664006B376C376351605D6451615965516259D0
:10267400D8A007D06351605F6451615B6551625BB0
:102684006981D8906037613762376D2FE6D76EAFB6
:1026940016D06E51800A970FD8B009D0000E606F23
:1026A400000E616F000E626F000E636F1200D8900F
:1026B4006C336B336A3369336E3FF9D715D0170E19
:1026C4006E650FD0000E606F000E616F000E626FBA
:1026D400000E636F1200D89069376A376B376C3716
:1026E4006E076E51D8A4F7D769C060F06AC061F074
:1026F4006BC062F06CC063F012000001626F8396DD
:1027040083820001606B62AF01D0602B010E601701
:1027140060336033835060197F0B6019836E62C02D
:1027240060F0060E616FD8906033612FFCD7010E04
:102734006017603B6047604783506019BF0B6019A6
:10274400836E62C060F0050E616FD8906033612FB4
:10275400FCD7010E6017603B604783506019DF0BA4
:102764006019836E62C060F0603B0F0E6017010E4B
:102774006017603B83506019EF0B6019836E030E82
:10278400E82EFED700F08386140EE82EFED783963B
:1027940062C060F00001D8906033D8906033D89064
:1027A4006033010E601760336033835060197F0B10
:1027B4006019836E62C060F0D8906033D890603343
:1027C400010E6017603B6047604783506019BF0B80
:1027D4006019836E62C060F0D8906033010E601798
:1027E400603B604783506019DF0B6019836E62C0E1
:1027F40060F0010E6017603B83506019EF0B6019A5
:10280400836E030EE82EFED700F08386140EE82EA6
:10281400FED78396140EE82EFED7560E0001606F85
:10282400B50EE82EFED7602FFCD700D012000001B1
:10283400626F839683920001606B62AF01D0602B5C
:10284400010E601760336033835060197F0B601989
:10285400836E62C060F0060E616FD8906033612FA2
:10286400FCD7010E6017603B6047604783506019D6
:10287400BF0B6019836E62C060F0050E616FD89063
:102884006033612FFCD7010E6017603B60478350B3
:102894006019DF0B6019836E62C060F0603B0F0E3D
:1028A4006017010E6017603B83506019EF0B6019CD
:1028B400836E030EE82EFED700F08386140EE82EF6
:1028C400FED7839662C060F00001D8906033D89040
:1028D4006033D8906033010E6017603360338350E7
:1028E40060197F0B6019836E62C060F0D89060330A
:1028F400D8906033010E6017603B60476047835097
:102904006019BF0B6019836E62C060F0D8906033A9
:10291400010E6017603B604783506019DF0B60193C
:10292400836E62C060F0010E6017603B83506019D3
:10293400EF0B6019836E030EE82EFED700F083863A
:10294400140EE82EFED78396560E0001606FB50E66
:10295400E82EFED7602FFCD700D0120000016235AC
:1029640063356B6F6B51D8A409D0000E606F000EF5
:10297400616F000E626F000E636F1200653566357D
:102984006A6F6A51D8A409D0000E606F000E616F9F
:10299400000E626F000E636F1200628FFF0E6017ED
:1029A400FF0E6117FF0E6217000E6317658FFF0E8F
:1029B4006317FF0E6417FF0E6517000E6617000EEF
:1029C400666F000E676F000E686F000E696F7F0EF2
:1029D4006B5F6A51A00F6B5F200E6A6FD8906637E9
:1029E4006737683769376351605D64516159655170
:1029F400625966516359D8A009D06351605F64512C
:102A0400615B6551625B6651635B6681D890603738
:102A14006137623763376A2FE1D76BAF16D06B51DA
:102A2400800A9F0FD8B009D0000E606F000E616F4E
:102A3400000E626F000E636F1200D8906933683322
:102A4400673366336B3FF9D715D01F0E6B650FD014
:102A5400000E606F000E616F000E626F000E636FF8
:102A64001200D89066376737683769376B076B5140
:102A7400D8A4F7D766C060F067C061F068C062F0A0
:102A840069C063F012000600FACF2AF0FBCF2BF0E6
:102A9400E9CF2CF0EACF2DF0E1CF2EF0E2CF2FF0EA
:102AA400D9CF30F0DACF31F0F3CF32F0F4CF33F0C6
:102AB400F6CF34F0F7CF35F0F8CF36F0F5CF37F066
:102AC40055C038F056C039F057C03AF058C03BF002
:102AD400F29E9EA436D0CD909E94C4CF53F0546AF7
:102AE4005350546E536AC3505324536E000E5420F3
:102AF400546E0A0E0F6E970E106E400E116E53C078
:102B040009F054C00AF0D0EC1CF009C00CF00AC063
:102B14000DF00BC00EF0C0EC16F00CC01BF00DC095
:102B24001CF00EC01DF0000E1E6E800E1F6E440EB3
:102B3400206EAEEC17F01BC050F01CC051F01DC04D
:102B440052F03BC058F03AC057F039C056F038C084
:102B540055F037C0F5FF36C0F8FF35C0F7FF34C075
:102B6400F6FF33C0F4FF32C0F3FF31C0DAFF30C0E8
:102B7400D9FF2FC0E2FF2EC0E1FF2DC0EAFF2CC019
:102B8400E9FF2BC0FBFF2AC0FAFF559211008CC04D
:102B94008EF000018F6B906B8B358E3701E38F8144
:102BA4008E51986F9851D8A409D0000E8A6F000EE8
:102BB4008B6F000E8C6F000E8D6F1200170E8E6FD0
:102BC4008AC08FF08BC090F08CC091F08E29926FE8
:102BD40004D0D890913390338F33922FFAD70001D9
:102BE4008F51936F8B8FFF0E8A17FF0E8B17000E7A
:102BF4008C178A51946F8B51956F8C51966F976B8C
:102C04008E0E985F98AF16D09851800A8F0FD8B067
:102C140009D0000E8A6F000E8B6F000E8C6F000EB1
:102C24008D6F1200D8909733963395339433983F31
:102C3400F9D715D0170E98650FD0000E8A6F000EC5
:102C44008B6F000E8C6F000E8D6F1200D89094372E
:102C540095379637973798079851D8A4F7D7935153
:102C6400D8B408D0971F961F951F946D000E952316
:102C74009623972394C08AF095C08BF096C08CF06D
:102C840097C08DF0120076C07AF000017B6B7C6BEC
:102C940075357A3701E37B817A517D6F7D51D8A4F4
:102CA40007D0000E746F000E756F000E766F120061
:102CB40079C07AF07B6B7C6B78357A3701E37B8162
:102CC4007A51826F8251D8A407D0000E746F000E1F
:102CD400756F000E766F120082517B0F7D2776C0D0
:102CE40082F07951821B800E8217758F788FFF0EC8
:102CF4007717FF0E7817000E7917000E7E6F000EFF
:102D04007F6F000E806F070E816F74A106D077511C
:102D14007E2778517F2379518023D8907633753379
:102D24007433D890773778377937812FEED7090EF7
:102D3400816F74A106D077517E2778517F23795112
:102D44008023D890763375337433D89080337F33AF
:102D54007E33812FEED77EC060F07FC061F080C0EB
:102D640062F07DC063F082C064F05AEC19F060C078
:102D740074F061C075F062C076F012000EC012F0FB
:102D8400136A146A0D34123601E313801250156E5F
:102D94001550D8A407D0000E0C6E000E0D6E000E58
:102DA4000E6E120011C012F0136A146A1034123637
:102DB40001E3138012501A6E1A50D8A407D0000EE3
:102DC4000C6E000E0D6E000E0E6E12001A507B0F6C
:102DD40015260EC01AF011501A1A800E1A160D8EEE
:102DE400108EFF0E0F16FF0E1016000E1116000E99
:102DF400166E000E176E000E186E070E196E0CA0DC
:102E040006D00F5016261050172211501822D890B1
:102E14000E320D320C32D8900F3610361136192E70
:102E2400EED7090E196E0CA006D00F5016261050BE
:102E3400172211501822D8900E320D320C32D8902D
:102E4400183217321632192EEED716C001F017C0F9
:102E540002F018C003F015C004F01AC005F0B2EC7B
:102E640019F001C00CF002C00DF003C00EF0120006
:102E7400B3C0B7F00001B86BB96BB235B73701E333
:102E8400B881B751BE6FBE51D8A407D0000EB16F40
:102E9400000EB26F000EB36F1200B6C0B7F0B86B7D
:102EA400B96BB535B73701E3B881B751BF6FBF51BF
:102EB400D8A407D0000EB16F000EB26F000EB36F2E
:102EC4001200000EBB6F000EBC6F000EBD6FBF5131
:102ED400890FBE5FB3C0BFF0B651BF1B800EBF17D2
:102EE400B28FFF0EB117FF0EB217000EB317B58FD6
:102EF400FF0EB417FF0EB517000EB617180EBA6FF3
:102F0400D890BB37BC37BD37B451B15DB551B25958
:102F1400B651B359D8A007D0B451B15FB551B25B23
:102F2400B651B35BBB81D890B137B237B337BA2F40
:102F3400E7D7BBC060F0BCC061F0BDC062F0BEC0EA
:102F440063F0BFC064F05AEC19F060C0B1F061C026
:102F5400B2F062C0B3F012001DC021F0226A236AED
:102F64001C34213601E322802150286E2850D8A435
:102F740007D0000E1B6E000E1C6E000E1D6E12009C
:102F840020C021F0226A236A1F34213601E3228003
:102F94002150296E2950D8A407D0000E1B6E000EB4
:102FA4001C6E000E1D6E1200000E256E000E266EA5
:102FB400000E276E2950890F285E1DC029F020506D
:102FC400291A800E29161C8EFF0E1B16FF0E1C16C6
:102FD400000E1D161F8EFF0E1E16FF0E1F16000E6E
:102FE4002016180E246ED8902536263627361E5005
:102FF4001B5C1F501C5820501D58D8A007D01E50D1
:103004001B5E1F501C5A20501D5A2580D8901B3619
:103014001C361D36242EE7D725C001F026C002F049
:1030240027C003F028C004F029C005F0B2EC19F061
:1030340001C01BF002C01CF003C01DF01200A3C0AD
:1030440060F0A4C061F0A5C062F0A90E0001636F36
:10305400000E646F23EC1BF00001AAAF10D0A5AFE3
:1030640007D0000EA36F800EA46FBF0EA56F1200D1
:10307400000EA36F000EA46F000EA56F1200AA51DC
:1030840004E1150EA95DD8A007D0A3C0A3F0A4C085
:10309400A4F0A5C0A5F01200A3C08AF0A4C08BF0D0
:1030A400A5C08CF0C9EC15F08AC099F08BC09AF0D9
:1030B4008CC09BF08DC09CF061EC1BF099C0A6F015
:1030C4009AC0A7F09BC0A8F0A3C060F0A4C061F0B0
:1030D400A5C062F0A6C063F0A7C064F0A8C065F004
:1030E40055EC1AF00001D8B015D0A6C08DF0A7C0D9
:1030F4008EF0A8C08FF0000E906F800E916FBF0EFF
:10310400926FA4EC10F08DC0A3F08EC0A4F08FC019
:10311400A5F01200A6C0A3F0A7C0A4F0A8C0A5F013
:1031240012009EC06EF09FC06FF0000E0001716F20
:10313400030E706F96EC1CF09CC0A0F09DC0A1F033
:1031440000016E51A0276F51A123A0C0F6FFA1C0BA
:10315400F7FF0900F5CFA2F00900F5CFA3F00A00AC
:10316400F5CFA4F040D0A2C077F0A3C078F0A4C0FB
:1031740079F099C074F09AC075F09BC076F045EC74
:1031840016F074C08DF075C08EF076C08FF0000E0E
:103194000001716F030E706F9E07D8A09F079EC039
:1031A4006EF09FC06FF096EC1CF09CC0A0F09DC028
:1031B400A1F000016E51A0276F51A123A0C0F6FF1A
:1031C400A1C0F7FF0900F5CF90F00900F5CF91F009
:1031D4000A00F5CF92F0A4EC10F08DC0A2F08EC0DE
:1031E400A3F08FC0A4F000019E519F11D8A4BBD7B7
:1031F400A2C099F0A3C09AF0A4C09BF01200100ED4
:103204000001606F490E616F400E626FCDC063F0C4
:10321400CEC064F0CFC065F055EC1AF00001D8B010
:1032240023D0CDC08DF0CEC08EF0CFC08FF0CC0EA9
:10323400906F960E916FC00E926FA4EC10F08DC03B
:10324400D0F08EC0D1F08FC0D2F0D0C0C0F0D1C0C9
:10325400C1F0D2C0C2F06FEC0FF0C0C0CDF0C1C05D
:10326400CEF0C2C0CFF01200CDC08DF0CEC08EF033
:10327400CFC08FF0100E0001906FC90E916F3F0EFA
:10328400926FA4EC10F08DC0D0F08EC0D1F08FC03E
:10329400D2F0D0C0C0F0D1C0C1F0D2C0C2F06FEC47
:1032A4000FF0C0C0CDF0C1C0CEF0C2C0CFF012004C
:1032B40000016351D8B405D0605161116211D8A4E2
:1032C4000CD0000E606F000E616F000E626F120072
:1032D400632BD890623361336033000E6015656FE1
:1032E400000E6115666FFE0E6215676F65516611FB
:1032F4006711D8B40CD0ECD7632B010E6027000EF5
:103304006123000E6223D890623361336033000E70
:103314006015656F000E6115666FFF0E6215676FAD
:10332400655166116711D8B406D0E6D76307D89003
:1033340060376137623761BF03D0020E6361F6D72D
:1033440063A1619FD8906333635162136451D8A41D
:10335400628F60C060F061C061F062C062F0120010
:103364000450D8B405D0015002100310D8A40CD0D6
:10337400000E016E000E026E000E036E1200042A8F
:10338400D890033202320132000E0114066E000E90
:103394000214076EFE0E0314086E06500710081080
:1033A400D8B40CD0ECD7042A010E0126000E022258
:1033B400000E0322D890033202320132000E0114AF
:1033C400066E000E0214076EFF0E0314086E0650FC
:1033D40007100810D8B406D0E6D70406D8900136F2
:1033E4000236033602BE03D0020E0460F6D704A0F0
:1033F400029ED8900432045003120550D8A4038EC0
:1034040001C001F002C002F003C003F01200000189
:10341400666F0ED000016351800F08D06351C00F56
:1034240005D06351940F02D06351D40F676F0ED04F
:1034340000016651010AD8B4EDD7030AD8B4EED717
:10344400010AD8B4EED7070AD8B4EED7675119ECFD
:1034540014F015D064C0F6FF65C0F7FFF86A070ED4
:10346400F76403D00800F55005D0F6CFD9FFF7CFA5
:10347400DAFFDF507FEC13F00001644B652B64C06E
:10348400F6FF65C0F7FFF86A070EF76403D008007B
:10349400F55005D0F6CFD9FFF7CFDAFFDF5000099A
:1034A400D8B41200D7D7000162AF16D060C066F05E
:1034B40061C067F062C068F0661F671F681F662BF3
:1034C400000E67236823000E6625606F000E6721D7
:1034D400616F800E6821626F65AF16D063C066F0BD
:1034E40064C067F065C068F0661F671F681F662BBD
:1034F400000E67236823000E6625636F000E6721A4
:10350400646F800E6821656F000E601B000E611BE6
:10351400800E621B000E631B000E641B800E651B75
:103524006351605D6451615965516259D8B002D0EC
:10353400D8901200D8801200000E00016B6F69AFA2
:1035440006D0686D691FD8B0692B010E6B6F67AF29
:1035540006D0666D671FD8B0672B010E6B1B000E7B
:103564006D6F000E6C6F68516911D8B41CD0010ED8
:103574006A6F04D0D890683769376A2B69AFFAD775
:10358400D8906C376D376851665D69516759D8A01A
:1035940005D06851665F6951675B6C81D890693367
:1035A40068336A2FEDD76B51D8B404D06C6D6D1F9E
:1035B400D8B06D2B6CC066F06DC067F01200000EC1
:1035C4000001686F000E696F000E6A6F000E6B6F6A
:1035D4006451651166116711D8B42AD0010E6C6F5D
:1035E40006D0D89064376537663767376C2B67AF7A
:1035F400F8D7D890683769376A376B376451605D9C
:10360400655161596651625967516359D8A009D00F
:103614006451605F6551615B6651625B6751635BD6
:103624006881D89067336633653364336C2FE1D790
:1036340068C060F069C061F06AC062F06BC063F09A
:1036440012000001605161116211D8A409D063C055
:10365400D9FF64C0DAFF000EDE6E000EDD6E1200CC
:1036640062517F0B656F666BD8906537663763C0B0
:10367400D9FF64C0DAFF65C0DEFF66C0DDFF61AF5D
:1036840003D0656B652B02D00001656B655163C087
:10369400D9FF64C0DAFFDE12000EDD1263C0D9FF69
:1036A40064C0DAFF820EDE26FF0EDD2262816283B1
:1036B400628562876289628B629D619F1200000E3F
:1036C4000001A26F8E0EA16F9CAF11D09C1F9B1F97
:1036D4009A1F996D000E9A239B239C23010EA26FBF
:1036E40006D0D8909C339B339A339933A12B000E88
:1036F40099159D6F000E9A159E6F000E9B159F6F76
:10370400FF0E9C15A06F9D519E119F11A011D8A46E
:10371400E8D799C060F09AC061F09BC062F0A1C084
:1037240063F0A2C064F05AEC19F060C099F061C073
:103734009AF062C09BF01200000E0001656F61AF49
:1037440006D0606D611FD8B0612B010E656F63AF49
:1037540004D0626D631FD8B0632B62516311D8B477
:1037640018D0010E646F04D0D89062376337642B8D
:1037740063AFFAD76251605D63516159D8A004D038
:103784006251605F6351615BD89063336233642F2D
:10379400F1D76551D8B404D0606D611FD8B0612BE6
:1037A40060C060F061C061F01200000171517211DB
:1037B40073117411D8B424D0010E756F06D0D8904B
:1037C4007137723773377437752B74AFF8D77151FB
:1037D4006D5D72516E5973516F5974517059D8A0FF
:1037E40008D071516D5F72516E5B73516F5B745190
:1037F400705BD8907433733372337133752FE7D79A
:103804006DC06DF06EC06EF06FC06FF070C070F080
:1038140012008E0E0001706F06D0D8906B336A339D
:1038240069336833702B000E68156C6F000E6915D0
:103834006D6F000E6A156E6FFF0E6B156F6F6C5116
:103844006D116E116F11D8A4E8D768C060F069C01B
:1038540061F06AC062F070C063F0000E646F5AECED
:1038640019F060C068F061C069F062C06AF01200CB
:10387400C29AC298C296C294C2800E0EC16EC08E05
:10388400C08AC098C086C084C092C090000EC46E26
:10389400000EC36EBD50F00B0B09BD6E090EBF6E5A
:1038A400600EBE6EC050F80B0609C06EC096C0987C
:1038B400C09A12000001AE51AF11B011D8B406D0B5
:1038C400000EAE1B000EAF1B800EB01BABC08DF004
:1038D400ACC08EF0ADC08FF0AEC090F0AFC091F030
:1038E400B0C092F0A4EC10F08DC0ABF08EC0ACF080
:1038F4008FC0ADF0120001EED3F0140EEE6AE806AC
:10390400FDE100EED9F0160EEE6AE806FDE100EEE8
:103914003CF0190EEE6AE806FDE155905592000E52
:10392400F86E00019FEF09F000016E517003F3CFB0
:1039340072F0F4CF73F06E517103F35073276F512B
:103944007003F350732772C06EF073C06FF01200EF
:103954000001605161116211D8B406D0000E601BE1
:10396400000E611B800E621B60C060F061C061F0DC
:1039740062C062F0120068C060F069C061F00001CA
:10398400626B8E0E636F000E646F5AEC19F060C0A8
:1039940068F061C069F062C06AF0120009C001F009
:1039A4000AC002F0036A8E0E046E000E056EB2ECBD
:1039B40019F001C009F002C00AF003C00BF01200B4
:1039C4000001626F000E0001616F3A0E626105D062
:1039D4002F0E626502D0010E616F61C060F060312C
:0239E4001200CF
:020000040020DA
:08000000FFFFFFFFFFFFFFFF00
:020000040030CA
:0E000000010E1F1EFF8381FF0FC00FE00F4097
:00000001FF
