:0400000007EF00F016
:0A00080055823CED16F074EF1DF078
:1008000000010000000A00000064000000E803008E
:100810000010270000A086010040420F008096983B
:100820000000E1F50500CA9A3B00803F002041002E
:10083000C842007A44401C4650C347247449971864
:100840004BBCBE4C6B6E4E03155079AD60F34971D5
:1008500000803FCDCC3DD7233C12833AB7D138C678
:100860002737388635C0D633CC2B32708930E7DB5A
:100870002EE53C1E42A20DF44A489595C7C1DC45C1
:10088000DC6DC3B333403401489DB04500DA42000B
:10089000803F63617267616E646F2025302E32661F
:1008A0000063617267616E646F20253364002530D8
:1008B0002E32665641520070463D25302E3366007A
:1008C00063617267616E64700025302E3266564136
:1008D0000025302E326620570000B50E0001C16F92
:1008E000000EC26F96EF09F0250ED619D8B40AD0C3
:1008F000B1C0D9FFB2C0DAFFD6C0DFFFB14BB22B17
:1009000096EF09F0000ED06F000ECF6F000ECE6F85
:10091000000ECD6F04D00001CD85B34BB42BB3C016
:10092000F6FFB4C0F7FF0800F550300AD8B4F3D78B
:10093000B3C0F6FFB4C0F7FF0800F550DFEC1DF0C0
:10094000D8A035D0000E0001D06F000ECF6FCFC001
:100950006EF0D0C06FF0000E0001716F0A0E706F64
:1009600093EC1DF06EC0CFF06FC0D0F0D00E000140
:10097000B86FFF0EB96FB3C0F6FFB4C0F7FF080041
:10098000F550BA6FBB6BB851BA27B951BB23BA51F6
:10099000CF27BB51D023B34BB42BB3C0F6FFB4C0A9
:1009A000F7FF0800F550DFEC1DF0D8B0D0D7B3C08A
:1009B000F6FFB4C0F7FF0800F5502E0AD8A431D0D6
:1009C0000001CE8DB34BB42B000ED56F000ED46F4B
:1009D0001DD0D4C06EF0D5C06FF0000E0001716F55
:1009E0000A0E706F93EC1DF0B3C0F6FFB4C0F7FFB2
:1009F0000800F55000016E27000E6F23D00E6E2503
:100A0000D46FFF0E6F21D56FB34BB42BB3C0F6FF7D
:100A1000B4C0F7FF0800F550DFEC1DF0D8A00AD0F5
:100A2000D8D7000E0001D56F000ED46FCE8902D04A
:100A3000CE8519D0B3C0F6FFB4C0F7FF0001B34BA9
:100A4000B42B0800F5CFD6F0D651000AD8B4A3EFE6
:100A500009F0640AD8B407D0020AD8B4E9D70F0A5B
:100A6000D8A496EF09F0070ECE15D8B429D3CEA995
:100A700004D0000ED56F060ED46FC1C0D9FFC2C01E
:100A8000DAFFDECFD1F0DECFD2F0DDCFD3F0030E30
:100A9000C127000EC223D3AF11D0D1C083F0D2C082
:100AA00084F0D3C085F0A7EC1DF083C0D1F084C0E2
:100AB000D2F085C0D3F0030E0001CD13000ECC6F31
:100AC000000ECB6FD151D211D311D8B488D0820E81
:100AD000B86FFF0EB96FD1C0BAF0D2C0BBF0D3C0AF
:100AE000BCF0D4C0BDF0100E05D0D890BD33BC33DF
:100AF000BB33BA33E82EF9D7BA51B825CB6F000E05
:100B0000B921CC6FCB07D8A0CC07CBC06EF0CCC03E
:100B10006FF0000E716F030E706F93EC1DF06EC0DE
:100B2000CBF06FC0CCF0CBC066F0CCC067F0000E4D
:100B30000001696F0A0E686F95EC1BF066C0CBF080
:100B400067C0CCF00001CCAF03D0CB07D8A0CC0756
:100B5000CB51000812EC0DF083C0C3F084C0C4F088
:100B600085C0C5F0C3C074F0C4C075F0C5C076F0D0
:100B7000D1C077F0D2C078F0D3C079F03CEC17F058
:100B800074C0C3F075C0C4F076C0C5F0C3C060F0D7
:100B9000C4C061F0C5C062F0000E0001636F800E3A
:100BA000646F3F0E656F4CEC1BF00001D8B004D0B1
:100BB000CB07D8A0CC0713D0C3C060F0C4C061F08D
:100BC000C5C062F0000E636F200E646F410E656F4A
:100BD0004CEC1BF00001D8A002D0CB4BCC2BD5BFE6
:100BE00006D0D5511BE10D0ED45DD8B017D0D1C0C1
:100BF0008DF0D2C08EF0D3C08FF0D4512EEC0FF018
:100C000083C090F084C091F085C092F09BEC11F00D
:100C10008DC0D1F08EC0D2F08FC0D3F00001CCBF18
:100C200006D0CC511FE10A0ECB5DD8B01BD0D151FC
:100C3000D211D311D8B454D0D1C08AF0D2C08BF025
:100C4000D3C08CF0C0EC16F000018A518B118C11CE
:100C50008D11D8B4CCBF44D0CC5104E1020ECB5D91
:100C6000D8A03ED0C3C060F0C4C061F0C5C062F07F
:100C7000700E636F890E646F400E656F4CEC1BF055
:100C80000001D8B002D0F70E01D0F80ECB27FF0E2E
:100C9000CC23CB5112EC0DF083C0C3F084C0C4F060
:100CA00085C0C5F0D1C060F0D2C061F0D3C062F0A1
:100CB000C3C063F0C4C064F0C5C065F0DCEC13F0E1
:100CC00060C0C7F061C0C8F062C0C9F063C0CAF0BC
:100CD000000E0001D16F000ED26F000ED36F33D023
:100CE000D1C08AF0D2C08BF0D3C08CF0C0EC16F02B
:100CF0008AC0C7F08BC0C8F08CC0C9F08DC0CAF0E4
:100D0000D1C0ABF0D2C0ACF0D3C0ADF0C7C068F07A
:100D1000C8C069F0C9C06AF0CAC06BF002EC1DF02F
:100D200068C0AEF069C0AFF06AC0B0F053EC1DF01F
:100D3000ABC0D1F0ACC0D2F0ADC0D3F0000E00011A
:100D4000CC6F000ECB6F010ED66F0A0ED619D8B439
:100D500018D0D651040D010EF324F66E080EF420BF
:100D6000F76E0900F550C75D0900F550C859090034
:100D7000F550C9590900F550CA59D8A002D0D62B50
:100D8000E4D7D6C0B8F0B96BB8BFB907D451B8270B
:100D9000D551B923CB51B827CC51B923B851CF5F26
:100DA000B951D05BD451D511D8B403D0CF07D8A056
:100DB000D007030ECD15B86F000ECE15B96FB85120
:100DC000B911D8B403D0CF07D8A0D007CDA531D062
:100DD000030ECD15B86F000ECE15B96FB851B9110D
:100DE000D8B414D0B1C0D9FFB2C0DAFF2D0EDF6E77
:100DF000B14BB22B0BD0B1C0D9FFB2C0DAFF300E6D
:100E0000DF6EB14BB22BCF07D8A0D007D0BF73D0C5
:100E1000D051F1E1CF05D8A06ED0EDD7B1C0D9FF48
:100E2000B2C0DAFF200EDF6EB14BB22BCF07D8A0D5
:100E3000D007D0BF05D0D051F1E1CF05D8B0EED763
:100E4000030ECD15B86F000ECE15B96FB851B9119C
:100E5000D8B451D0B1C0D9FFB2C0DAFF2D0E48D0FE
:100E6000C7C060F0C8C061F0C9C062F0CAC063F01A
:100E7000D651040D010EF324F66E080EF420F76E21
:100E80000900F5CF64F00900F5CF65F00900F5CF52
:100E900066F00A00F5CF67F0D8EC1BF060C0C3F035
:100EA00061C0C4F062C0C5F063C0C6F0C3C06DF0DD
:100EB000C4C06EF0C5C06FF0C6C070F00A0E00016D
:100EC000716F000E726F000E736F000E746FCEECB8
:100ED0001CF06DC0C3F06EC0C4F06FC0C5F070C030
:100EE000C6F00001C351300FB1C0D9FFB2C0DAFF64
:100EF000DF6EB14BB22BD607D629D8B40CD0B0D701
:100F0000B1C0D9FFB2C0DAFF300EDF6EB14BB22BE9
:100F1000CB07D8A0CC07CCBF05D0CC51F1E1CB0595
:100F2000D8B0EED7D5BF09D0D55104E1090ED45DB4
:100F3000D8A003D0080ED66F02D0D4C0D6F0D651B8
:100F4000D45F000ED6BFFF0ED55BD651D8B408D003
:100F5000B1C0D9FFB2C0DAFF2E0EDF6EB14BB22B9B
:100F6000D65112EC0DF083C0BEF084C0BFF085C036
:100F7000C0F0D1C077F0D2C078F0D3C079F0BEC055
:100F800074F0BFC075F0C0C076F03CEC17F074C0D0
:100F90008AF075C08BF076C08CF0C0EC16F08AC079
:100FA000C7F08BC0C8F08CC0C9F08DC0CAF072D039
:100FB000C7C060F0C8C061F0C9C062F0CAC063F0C9
:100FC0000001D651040D010EF324F66E080EF42034
:100FD000F76E0900F5CF64F00900F5CF65F0090060
:100FE000F5CF66F00A00F5CF67F0D8EC1BF060C0D3
:100FF000C3F061C0C4F062C0C5F063C0C6F0C3C036
:101000006DF0C4C06EF0C5C06FF0C6C070F00A0EBF
:101010000001716F000E726F000E736F000E746F1F
:10102000CEEC1CF06DC0C3F06EC0C4F06FC0C5F054
:1010300070C0C6F00001C351300FB1C0D9FFB2C0BB
:10104000DAFFDF6EB14BB22BC7C06DF0C8C06EF0D7
:10105000C9C06FF0CAC070F0D651040D010EF32460
:10106000F66E080EF420F76E0900F5CF71F0090056
:10107000F5CF72F00900F5CF73F00A00F5CF74F0E8
:10108000CEEC1CF06DC0C7F06EC0C8F06FC0C9F0E8
:1010900070C0CAF00001D607D629D8B40CD088D7C2
:1010A000B1C0D9FFB2C0DAFF300EDF6EB14BB22B48
:1010B000D407D8A0D507D451D511D8B437D1F0D79B
:1010C000C1C0D9FFC2C0DAFFDECFC7F0DDCFC8F0A4
:1010D000000EC8BFFF0EC96FCA6F020EC127000EF7
:1010E000C223CAAF0AD0030ECD13CA1FC91FC81F1F
:1010F000C76D000EC823C923CA23D451D511D8A463
:1011000008D0C751C811C911CA11D8A402D0D44BF4
:10111000D52B010ED66F0A0ED619D8B418D0D651D9
:10112000040D010EF324F66E080EF420F76E09008C
:10113000F550C75D0900F550C8590900F550C95967
:101140000900F550CA59D8A002D0D62BE4D7800E9A
:10115000D6BF7F0EB86FD451D65DD551800AB8592D
:10116000D8B003D0D4C0D6F010D0D551800AB86F13
:10117000D651D45D800ED6BF7F0EB859D8B005D0F9
:10118000D651D46FD56BD4BFD507CF51D011D8B4B9
:101190000DD0030ECD15B86F000ECE15B96FB85136
:1011A000B911D8B403D0CF07D8A0D007CEAD13D093
:1011B000CF51D45DD551800AB86FD051800AB8594B
:1011C000D8B005D0D451CF5FD551D05B04D0000E3C
:1011D000D06F000ECF6F800ED6BF7F0EB86FCF518D
:1011E000D65DD051800AB859D8B007D0D651CF5F5C
:1011F000000ED6BFFF0ED05B04D0000ED06F000EE5
:10120000CF6FCDA522D0030ECD15B86F000ECE1531
:10121000B96FB851B911D8B408D0B1C0D9FFB2C0B4
:10122000DAFF2D0EDF6EB14BB22BCF51D011D8B4F7
:1012300075D0B1C0D9FFB2C0DAFF300EDF6EB14B4E
:10124000B22BCF07D8A0D007F0D7CF51D011D8B448
:101250000FD0B1C0D9FFB2C0DAFF200EDF6EB14BA4
:10126000B22BCF07D8A0D007CF51D011D8A4F1D737
:10127000030ECD15B86F000ECE15B96FB851B91168
:10128000D8B44CD0B1C0D9FFB2C0DAFF2D0EDF6E9A
:1012900043D0D4C0B8F0D5C0B9F0D890B837B9377A
:1012A000D890B837B937010EB825F66E080EB921B7
:1012B000F76E0900F5CF64F00900F5CF65F009007D
:1012C000F5CF66F00A00F5CF67F0C7C060F0C8C080
:1012D00061F0C9C062F0CAC063F0D8EC1BF060C016
:1012E0006DF061C06EF062C06FF063C070F00A0E06
:1012F0000001716F000E726F000E736F000E746F3D
:10130000CEEC1CF000016D51300FD66FB1C0D9FF8B
:10131000B2C0DAFFD6C0DFFFB14BB22BD407D8A0E2
:10132000D507D429B6E1D529D8A4B3D7B3C0F6FFE1
:10133000B4C0F7FFB34BB42B0800F5CFD6F0D651AD
:10134000D8A474EF04F0B1C0D9FFB2C0DAFF000E28
:10135000DF6E120031EC1DF09280938093823CECA2
:1013600013F0010E10EC15F00C0E10EC15F0070E3A
:101370000001D86F170ED76F6A0EE82EFED7D72F51
:10138000FCD7D82FFAD700F0C050F80B0609C06E72
:10139000C096C098C09A000E0101C16F000EC26FC6
:1013A000000EC36F000EAE6F000EAF6F000EB06F79
:1013B000000ECB6F000ECA6F000ED96F000EDA6FF1
:1013C000000EDB6F000EB16F000EB26F000EB36F38
:1013D000000EB46F000EB56F000EB66F000ECD6F2D
:1013E000000E9A6F000E996F000EBD6F000EBE6F5B
:1013F000000EBF6F000EC06F000ECC6F000EC46FEA
:10140000000EC56F000EC66F000ECE6F000ECF6FC0
:10141000000ED06FC2D0C282C4500001D86FD76B0B
:10142000C350D7253F6E000ED821406E000E01013B
:10143000B76F000EB86F000EB96F000ED16F000EBF
:10144000D26F000ED36F000E0001776FA00E786F81
:10145000400E796F3FC068F040C069F0BAEC1DF0F3
:1014600068C074F069C075F06AC076F03CEC17F0A3
:1014700074C0B1F075C0B2F076C0B3F0000E0001D8
:10148000B46F800EB56F440EB66F31EC18F0B1C07A
:10149000B7F1B2C0B8F1B3C0B9F1000E0001906F5E
:1014A000200E916FC00E926FB7C18DF0B8C18EF053
:1014B000B9C18FF09BEC11F08DC0B1F08EC0B2F0CD
:1014C0008FC0B3F0710E0001B46F3D0EB56F3E0ECC
:1014D000B66F31EC18F0B1C0D1F1B2C0D2F1B3C0E7
:1014E000D3F19B0E0001B16F010EB26FA10EB36F6D
:1014F000080EB46FCAC1B5F0CBC1B6F06DEC04F004
:10150000DC0E0001B16F010EB26F920EB36F080EC8
:10151000B46FD1C1B5F0D2C1B6F0D3C1B7F06DECA4
:1015200004F0000E0001636F9B0E646F010E656F87
:10153000010E00EC1BF0000E0001636FDC0E646F07
:10154000010E656F020E00EC1BF0C80EE82EFED7F0
:10155000C1C18DF0C2C18EF0C3C18FF0D1C177F08F
:10156000D2C178F0D3C179F0D1C174F0D2C175F095
:10157000D3C176F03CEC17F074C090F075C091F0D8
:1015800076C092F09BEC11F08DC0C1F18EC0C2F11B
:101590008FC0C3F10101CA4BCB2B0101CB5104E138
:1015A000C80ECA5DD8A037D7000E0001B46F490E2F
:1015B000B56F430EB66FC1C1B1F0C2C1B2F0C3C1C5
:1015C000B3F031EC18F0B1C0C0F0B2C0C1F0B3C09C
:1015D000C2F072EC12F0C0C0C7F1C1C0C8F1C2C005
:1015E000C9F1C7C1B1F0C8C1B2F0C9C1B3F0000EB2
:1015F0000001B46FA00EB56F410EB66F31EC18F05C
:10160000B1C0AEF1B2C0AFF1B3C0B0F1AEC174F0D1
:10161000AFC175F0B0C176F0000E0001776F000E1B
:10162000786F430E796F3CEC17F074C0D9F175C038
:10163000DAF176C0DBF19B0E0001B16F010EB26FE3
:10164000D10EB36F080EB46FD9C1B5F0DAC1B6F0E0
:10165000DBC1B7F06DEC04F0000E0001636F9B0E70
:10166000646F010E656F010E00EC1BF01F0E000190
:10167000D86F710ED76F1E0EE82EFED7D72FFCD76E
:10168000D82FFAD700F082D0080E0001636FC00E89
:10169000646F080E656F010E00EC1BF081A016D080
:1016A00081A20AD0000E0101BD6F000EBE6F000EB8
:1016B000BF6F000EC06F0AD0040EE82EFED7010ED9
:1016C0000101BD27000EBE23BF23C023000E000171
:1016D000776FB40E786F430E796F240EB46F740E6B
:1016E000B56F490EB66FBDC168F0BEC169F0BFC12C
:1016F0006AF0C0C16BF002EC1DF068C0B1F069C0C7
:10170000B2F06AC0B3F031EC18F0B1C074F0B2C0FE
:1017100075F0B3C076F03CEC17F074C0C7F175C03B
:10172000C8F176C0C9F1C7C1B1F0C8C1B2F0C9C132
:10173000B3F0890E0001B46F880EB56F3C0EB66F22
:1017400031EC18F0B1C0B1F1B2C0B2F1B3C0B3F135
:10175000B1C1CDF0B2C1CEF0B3C1CFF0F8EC19F009
:10176000CDC0B4F1CEC0B5F1CFC0B6F10101CC51BE
:10177000030D000EF324D96E010EF420DA6EB4C10D
:10178000DEFFB5C1DEFFB6C1DEFFCC2B320E01019C
:10179000CC657AD7CD51D8A469D0000ED86F000E91
:1017A000D76FD8BF06D0D8512EE1330ED75DD8B051
:1017B0002AD0C4C18DF0C5C18EF0C6C18FF0D7C18B
:1017C0006EF0D8C16FF0000E0001716F030E706FE4
:1017D00093EC1DF0000E00016E25D96E010E6F21F5
:1017E000DA6EDECF90F0DECF91F0DDCF92F09BECA1
:1017F00011F08DC0C4F18EC0C5F18FC0C6F10101DA
:10180000D74BD82BCED7C4C1B1F0C5C1B2F0C6C139
:10181000B3F0000E0001B46F4C0EB56F420EB66F00
:1018200031EC18F0B1C0CEF1B2C0CFF1B3C0D0F1FD
:10183000DC0E0001B16F010EB26FB70EB36F080E70
:10184000B46FCEC1B5F0CFC1B6F0D0C1B7F06DEC7A
:1018500004F0080E0001636FDC0E646F010E656F0B
:10186000010E00EC1BF0010E0101CD6F010ECD6FDA
:10187000DC0E0001B16F010EB26FB70EB36F080E30
:10188000B46FCEC1B5F0CFC1B6F0D0C1B7F06DEC3A
:1018900004F0080E0001636FDC0E646F010E656FCB
:1018A000010E00EC1BF00101CD51D8B4FCD7000EA5
:1018B000D46F000ED56F000ED66FD9C1B1F0DAC16A
:1018C000B2F0DBC1B3F0CEC1B4F0CFC1B5F0D0C13E
:1018D000B6F031EC18F0B1C0D4F1B2C0D5F1B3C05C
:1018E000D6F1DB0E0001B16F000EB26FC90EB36FFF
:1018F000080EB46FD4C1B5F0D5C1B6F0D6C1B7F0FB
:101900006DEC04F0000E0001636FDB0E646F000EDF
:10191000656F020E00EC1BF0130E0001D86F440E31
:10192000D76F440EE82EFED7D72FFCD7D82FFAD783
:1019300000F0000E0101BA6F000EBB6F000EBC6F0D
:10194000D4C177F0D5C178F0D6C179F0D4C174F0A4
:10195000D5C175F0D6C176F03CEC17F074C08DF0AF
:1019600075C08EF076C08FF0D9C177F0DAC178F00B
:10197000DBC179F0D9C174F0DAC175F0DBC176F062
:101980003CEC17F074C083F075C084F076C085F02D
:10199000A7EC1DF083C090F084C091F085C092F058
:1019A0009BEC11F08DC0ABF18EC0ACF18FC0ADF1EE
:1019B000ABC1C0F0ACC1C1F0ADC1C2F072EC12F06D
:1019C000C0C0BAF1C1C0BBF1C2C0BCF1410E000140
:1019D000B16F000EB26FAE0EB36F080EB46FBAC126
:1019E000B5F0BBC1B6F0BCC1B7F06DEC04F0080EA9
:1019F0000001636F410E646F000E656F020E00EC14
:101A00001BF03D0E0001D86FE10ED76F3F0EE82EA0
:101A1000FED7D72FFCD7D82FFAD700D0010E10EC65
:101A200015F0BBD50001896F000189AF0CD1896D1C
:101A30008951800A120FD8A097D0000E716F030E43
:101A4000706F000E696F0A0E686F000E636F640E90
:101A5000626F8951606F616B60BF610795EC1CF02C
:101A600060C066F061C067F095EC1BF0090E0001E4
:101A700066256E6F000E67216F6F93EC1DF0500EA0
:101A800000016E25F66E080E6F21F76E0900F5CF86
:101A900077F00900F5CF78F00A00F5CF79F0000E65
:101AA000696F640E686F8951666F676B66BF670701
:101AB00095EC1BF0120E000166256E6F000E67217B
:101AC0006F6F000E716F030E706F93EC1DF0500E70
:101AD00000016E25F66E080E6F21F76E0900F5CF36
:101AE00074F00900F5CF75F00A00F5CF76F03CEC04
:101AF00017F074C086F075C087F076C088F086C095
:101B000074F087C075F088C076F0000E0001716F28
:101B1000030E706F000E636F0A0E626F8951606F63
:101B2000616B60BF610795EC1CF060C06EF061C036
:101B30006FF093EC1DF0500E00016E25F66E080E4E
:101B40006F21F76E0900F5CF77F00900F5CF78F037
:101B50000A00F5CF79F03CEC17F074C083F075C043
:101B600084F076C085F0120000018951800A750F5B
:101B7000D8A056D0000E696F0A0E686F8951666F43
:101B8000676B66BF670795EC1BF0090E00016625C1
:101B90006E6F000E67216F6F000E716F030E706F16
:101BA00093EC1DF0500E00016E25F66E080E6F21AD
:101BB000F76E0900F5CF74F00900F5CF75F00A0053
:101BC000F5CF76F0000E716F030E706F000E636F2D
:101BD0000A0E626F8951606F616B60BF610795EC9F
:101BE0001CF060C06EF061C06FF093EC1DF0500E01
:101BF00000016E25F66E080E6F21F76E0900F5CF15
:101C000077F00900F5CF78F00A00F5CF79F03CECD9
:101C100017F074C083F075C084F076C085F01200B0
:101C200000018951030D500EF324F66E080EF420C6
:101C3000F76E0900F5CF83F00900F5CF84F00A00B4
:101C4000F5CF85F012008951800A120FD8A097D0E5
:101C5000000E716F030E706F000E696F0A0E686FD1
:101C6000000E636F640E626F8951606F616B60BFBD
:101C7000610795EC1CF060C066F061C067F095EC00
:101C80001BF0090E000166256E6F000E67216F6F55
:101C900093EC1DF0290E00016E25F66E080E6F21E3
:101CA000F76E0900F5CF77F00900F5CF78F00A005C
:101CB000F5CF79F0000E696F640E686F8951666F19
:101CC000676B66BF670795EC1BF0120E0001662577
:101CD0006E6F000E67216F6F000E716F030E706FD5
:101CE00093EC1DF0290E00016E25F66E080E6F2193
:101CF000F76E0900F5CF74F00900F5CF75F00A0012
:101D0000F5CF76F03CEC17F074C086F075C087F024
:101D100076C088F086C074F087C075F088C076F011
:101D2000000E0001716F030E706F000E636F0A0EDC
:101D3000626F8951606F616B60BF610795EC1CF049
:101D400060C06EF061C06FF093EC1DF0290E0001D1
:101D50006E25F66E080E6F21F76E0900F5CF77F04D
:101D60000900F5CF78F00A00F5CF79F03CEC17F0D8
:101D700074C083F075C084F076C085F01200000155
:101D80008951800A750FD8A056D0000E696F0A0ECF
:101D9000686F8951666F676B66BF670795EC1BF0CC
:101DA000090E000166256E6F000E67216F6F000E31
:101DB000716F030E706F93EC1DF0290E00016E25FC
:101DC000F66E080E6F21F76E0900F5CF74F009006A
:101DD000F5CF75F00A00F5CF76F0000E716F030EA7
:101DE000706F000E636F0A0E626F8951606F616BD6
:101DF00060BF610795EC1CF060C06EF061C06FF0D1
:101E000093EC1DF0290E00016E25F66E080E6F2171
:101E1000F76E0900F5CF77F00900F5CF78F00A00EA
:101E2000F5CF79F03CEC17F074C083F075C084F006
:101E300076C085F0120000018951030D290EF324AC
:101E4000F66E080EF420F76E0900F5CF83F0090056
:101E5000F5CF84F00A00F5CF85F0120000018C6FF9
:101E60006D0E00018C65A6D0000E716F030E706FB1
:101E7000000E696F0A0E686F000E636F640E626F6A
:101E80008CC060F0616B95EC1CF060C066F061C0C6
:101E900067F095EC1BF0090E000166256E6F000ED1
:101EA00067216F6F93EC1DF0500E00016E25F66EEA
:101EB000080E6F21F76E0900F5CF77F00900F5CF16
:101EC00078F00A00F5CF79F0000E696F640E686F44
:101ED0008CC066F0676B95EC1BF0120E0001662556
:101EE0006E6F000E67216F6F000E716F030E706FC3
:101EF00093EC1DF0500E00016E25F66E080E6F215A
:101F0000F76E0900F5CF74F00900F5CF75F00A00FF
:101F1000F5CF76F03CEC17F074C089F075C08AF00C
:101F200076C08BF0000E0001716F030E706F000E13
:101F3000636F0A0E626F8CC060F0616B95EC1CF0F1
:101F400060C06EF061C06FF093EC1DF0500E0001A8
:101F50006E25F66E080E6F21F76E0900F5CF77F04B
:101F60000900F5CF78F00A00F5CF79F089C074F058
:101F70008AC075F08BC076F03CEC17F074C086F028
:101F800075C087F076C088F086C074F087C075F0A1
:101F900088C076F0000E0001776F000E786F3F0E5C
:101FA000796F3CEC17F074C083F075C084F076C094
:101FB00085F012000A0E00018C6567D0000E716F6B
:101FC000030E706F000E636F0A0E626F8CC060F0BC
:101FD000616B95EC1CF060C06EF061C06FF093EC2B
:101FE0001DF0500E00016E25F66E080E6F21F76E83
:101FF0000900F5CF77F00900F5CF78F00A00F5CFAA
:1020000079F0000E696F0A0E686F8CC066F0676B1E
:1020100095EC1BF0090E000166256E6F000E67211E
:102020006F6F000E716F030E706F93EC1DF0500E0A
:1020300000016E25F66E080E6F21F76E0900F5CFD0
:1020400074F00900F5CF75F00A00F5CF76F03CEC9E
:1020500017F074C089F075C08AF076C08BF089C023
:1020600074F08AC075F08BC076F0000E0001776FB7
:10207000000E786F3F0E796F3CEC17F074C083F060
:1020800075C084F076C085F0120000018C51030DFC
:10209000500EF324F66E080EF420F76E0900F5CF0B
:1020A00074F00900F5CF75F00A00F5CF76F0000E58
:1020B000776F000E786F3F0E796F3CEC17F074C0AD
:1020C00083F075C084F076C085F01200000E000128
:1020D000CC6FC2AF11D0C0C083F0C1C084F0C2C009
:1020E00085F0A7EC1DF083C0C0F084C0C1F085C0AE
:1020F000C2F0010E0001CC6FC0C074F0C1C075F019
:10210000C2C076F0FA0E776F220E786F3E0E796FAE
:102110003CEC17F074C0C0F075C0C1F076C0C2F0DE
:10212000C0C0ABF0C1C0ACF0C2C0ADF0C0C0A3F045
:10213000C1C0A4F0C2C0A5F018EC19F0A3C0AEF065
:10214000A4C0AFF0A5C0B0F053EC1DF0ABC0C0F020
:10215000ACC0C1F0ADC0C2F0C0C074F0C1C075F079
:10216000C2C076F0000E0001776F800E786F400ECF
:10217000796F3CEC17F074C0C0F075C0C1F076C048
:10218000C2F0000E0001606F000E616F400E626FC2
:10219000C0C063F0C1C064F0C2C065F04CEC1BF07D
:1021A0000001D8B01CD0C0C0ABF0C1C0ACF0C2C000
:1021B000ADF0000EAE6F000EAF6F400EB06F53EC7F
:1021C0001DF0ABC0C0F0ACC0C1F0ADC0C2F00001AA
:1021D000CC51D8A402D0010E01D0000ECC6F000E5D
:1021E000606F800E616F3F0E626FC0C063F0C1C050
:1021F00064F0C2C065F04CEC1BF00001D8B01DD0FB
:10220000C0C083F0C1C084F0C2C085F0A7EC1DF04F
:1022100083C08DF084C08EF085C08FF0000E000169
:10222000906F000E916F400E926F9BEC11F08DC07D
:10223000C0F08EC0C1F08FC0C2F0C0C074F0C1C089
:1022400075F0C2C076F0C0C077F0C1C078F0C2C0EF
:1022500079F03CEC17F074C0C9F075C0CAF076C0D4
:10226000CBF0C9C099F0CAC09AF0CBC09BF0860EE3
:1022700000019C6F080E9D6F000E9F6F030E9E6FF6
:102280008AEC19F099C0C3F09AC0C4F09BC0C5F0A5
:10229000C3C0B4F0C4C0B5F0C5C0B6F0000E0001B4
:1022A0009F6F040E9E6F770E9C6F080E9D6FC9C0C6
:1022B00099F0CAC09AF0CBC09BF08AEC19F099C093
:1022C000B1F09AC0B2F09BC0B3F031EC18F0B1C0DD
:1022D000C6F0B2C0C7F0B3C0C8F0C0C074F0C1C08F
:1022E00075F0C2C076F0C6C077F0C7C078F0C8C03D
:1022F00079F03CEC17F074C0C0F075C0C1F076C046
:10230000C2F00001CC51D8B40FD0C0C083F0C1C01E
:1023100084F0C2C085F0A7EC1DF083C0C0F084C07B
:10232000C1F085C0C2F01200C0C0C0F0C1C0C1F091
:10233000C2C0C2F012008FC093F00001946B956B85
:102340008E35933701E394819351986F92C093F047
:10235000946B956B9135933701E394819351976F0B
:102360009851D8B40BD09751985DD8B00ED09851F1
:1023700000089725936F180E936507D090C08DF0D5
:1023800091C08EF092C08FF012009751D8B40BD04C
:102390009851975DD8B00ED0975100089825936F4B
:1023A000180E936507D08DC08DF08EC08EF08FC053
:1023B0008FF01200060E966F8FBF968F92BF968D8C
:1023C0008E8FFF0E8D17FF0E8E17000E8F17918FB9
:1023D000FF0E9017FF0E9117000E92179751985D00
:1023E000D8B01BD0D8909037913792379707985133
:1023F0009719D8B40DD0960796C093F0070E93178F
:10240000D8B406D0EFD7D8908F338E338D33982B36
:1024100097519819D8B41FD0F6D79851975DD8B076
:102420001AD0D8908D378E378F37980798519719D3
:10243000D8B40DD0960796C093F0070E9317D8B472
:1024400006D0EFD7D890923391339033972B975192
:102450009819D8A4F7D796AF0CD0FF0E8D1BFF0E9E
:102460008E1BFF0E8F1B010E8D27000E8E23000E7C
:102470008F2396AD0CD0FF0E901BFF0E911BFF0E0D
:10248000921B010E9027000E9123000E9223000E46
:10249000966F8D5190278E5191238F51922392AF39
:1024A0000ED0FF0E901BFF0E911BFF0E921B010E14
:1024B0009027000E9123000E9223010E966F90C07C
:1024C00060F091C061F092C062F098C063F096C075
:1024D00064F051EC1AF060C08DF061C08EF062C003
:1024E0008FF01200000E0001606F000E616F000E91
:1024F000626FC0C063F0C1C064F0C2C065F04CEC54
:102500001BF00001D8A00DD0C2AF04D0000EDA6FCE
:10251000210ED96F000EC06F000EC16F000EC26F8A
:102520001200C0C0C9F0C1C0CAF0C2C0CBF0C0C068
:10253000C3F0C1C0C4F0C2C0C5F0C31FC41FC51FD3
:10254000C32B000EC423C523C80EC325D06F6E0E47
:10255000C421D16FBE0EC521D26FD890D233D133F2
:10256000D033000EC95F800ECA5B000ECB5B040E39
:10257000CC6FD0C0C6F0D1C0C7F0D2C0C8F0D0C0B8
:1025800074F0D1C075F0D2C076F0C9C077F0CAC07F
:1025900078F0CBC079F03CEC17F074C0CDF075C08A
:1025A000CEF076C0CFF0CDC074F0CEC075F0CFC005
:1025B00076F0D0C077F0D1C078F0D2C079F03CECA2
:1025C00017F074C0CDF075C0CEF076C0CFF0CDC09E
:1025D00074F0CEC075F0CFC076F0D0C077F0D1C027
:1025E00078F0D2C079F03CEC17F074C0CDF075C033
:1025F000CEF076C0CFF0D0C074F0D1C075F0D2C0AC
:1026000076F0000E0001776FC00E786F3F0E796F85
:102610003CEC17F074C0D0F075C0D1F076C0D2F0A9
:10262000D0C0ABF0D1C0ACF0D2C0ADF0CDC0AEF0F8
:10263000CEC0AFF0CFC0B0F053EC1DF0ABC0D0F0C7
:10264000ACC0D1F0ADC0D2F00001CC2F92D7D0C039
:1026500074F0D1C075F0D2C076F0C0C077F0C1C0C0
:1026600078F0C2C079F03CEC17F074C0C0F075C0CF
:10267000C1F076C0C2F01200959E959C959A9598EF
:1026800095969592839E839C839A83988396839252
:10269000560E0001636FB50EE82EFED7632FFCD7F0
:1026A00000D0560E0001636FB50EE82EFED7632FE3
:1026B000FCD700D0560E0001636FB50EE82EFED792
:1026C000632FFCD700D0560E0001636FB50EE82EC5
:1026D000FED7632FFCD700D0560E0001636FB50EF6
:1026E000E82EFED7632FFCD700D0560E0001636F93
:1026F000B50EE82EFED7632FFCD700D0010E0001E7
:10270000646F20D0839E839C838A83888396839280
:10271000839E839C838A838883868392140EE82E0B
:10272000FED7839E839C838A838883968392560EEA
:102730000001636FB50EE82EFED7632FFCD700D0E3
:102740000001642B030E6465DDD7839E839C838A1E
:10275000839883968392839E839C838A83988386BF
:102760008392140EE82EFED7839E839C838A8398DF
:1027700083968392560E0001636FB50EE82EFED746
:10278000632FFCD700D0280E0001646F645110EC59
:1027900015F0100E0001646F645110EC15F0010E7D
:1027A0000001646F645110EC15F00F0E0001646FAE
:1027B000645110EC15F0120062C066F00001676B06
:1027C000686B6135663701E3678166516E6F6E51E4
:1027D000D8A409D0000E606F000E616F000E626F0A
:1027E000000E636F120065C066F0676B686B64353E
:1027F000663701E3678166516D6F6D51D8A409D0CA
:10280000000E606F000E616F000E626F000E636F4E
:102810001200618FFF0E6017FF0E6117000E621726
:10282000648FFF0E6317FF0E6417000E6517000E0E
:10283000696F000E6A6F000E6B6F000E6C6F7F0E7B
:102840006E5F6D51980F6E5F180E6D6FD89069377F
:102850006A376B376C376351605D645161596551FC
:102860006259D8A007D06351605F6451615B6551C4
:10287000625B6981D8906037613762376D2FE6D728
:102880006EAF16D06E51800A970FD8B009D0000EE7
:10289000606F000E616F000E626F000E636F1200BA
:1028A000D8906C336B336A3369336E3FF9D715D0E8
:1028B000170E6E650FD0000E606F000E616F000E78
:1028C000626F000E636F1200D89069376A376B37FA
:1028D0006C376E076E51D8A4F7D769C060F06AC034
:1028E00061F06BC062F06CC063F012000001626FB7
:1028F000839683820001606B62AF01D0602B010E72
:10290000601760336033835060197F0B6019836EEA
:1029100062C060F0060E616FD8906033612FFCD703
:10292000010E6017603B6047604783506019BF0B22
:102930006019836E62C060F0050E616FD8906033DD
:10294000612FFCD7010E6017603B60478350601910
:10295000DF0B6019836E62C060F0603B0F0E601782
:10296000010E6017603B83506019EF0B6019836E96
:10297000030EE82EFED700F08386140EE82EFED755
:10298000839662C060F00001D8906033D8906033C5
:10299000D8906033010E6017603360338350601944
:1029A0007F0B6019836E62C060F0D8906033D8905E
:1029B0006033010E6017603B6047604783506019C9
:1029C000BF0B6019836E62C060F0D8906033010E57
:1029D0006017603B604783506019DF0B6019836E9E
:1029E00062C060F0010E6017603B83506019EF0B0E
:1029F0006019836E030EE82EFED700F08386140E56
:102A0000E82EFED78396140EE82EFED7560E000150
:102A1000606FB50EE82EFED7602FFCD700D01200F5
:102A20000001626F839683920001606B62AF01D0F8
:102A3000602B010E601760336033835060197F0B89
:102A40006019836E62C060F0060E616FD8906033CB
:102A5000612FFCD7010E6017603B604760478350D1
:102A60006019BF0B6019836E62C060F0050E616F64
:102A7000D8906033612FFCD7010E6017603B604730
:102A800083506019DF0B6019836E62C060F0603B99
:102A90000F0E6017010E6017603B83506019EF0B3B
:102AA0006019836E030EE82EFED700F08386140EA5
:102AB000E82EFED7839662C060F00001D8906033A4
:102AC000D8906033D8906033010E60176033603364
:102AD000835060197F0B6019836E62C060F0D890DC
:102AE0006033D8906033010E6017603B60476047E9
:102AF00083506019BF0B6019836E62C060F0D8907C
:102B00006033010E6017603B604783506019DF0B34
:102B10006019836E62C060F0010E6017603B8350E5
:102B20006019EF0B6019836E030EE82EFED700F0DC
:102B30008386140EE82EFED78396560E0001606F32
:102B4000B50EE82EFED7602FFCD700D01200000192
:102B5000623563356B6F6B51D8A409D0000E606F7E
:102B6000000E616F000E626F000E636F120065351C
:102B700066356A6F6A51D8A409D0000E606F000EE6
:102B8000616F000E626F000E636F1200628FFF0EA6
:102B90006017FF0E6117FF0E6217000E6317658F37
:102BA000FF0E6317FF0E6417FF0E6517000E661702
:102BB000000E666F000E676F000E686F000E696F83
:102BC0007F0E6B5F6A51A00F6B5F200E6A6FD8900B
:102BD00066376737683769376351605D645161599B
:102BE0006551625966516359D8A009D06351605F3D
:102BF0006451615B6551625B6651635B6681D8902D
:102C000060376137623763376A2FE1D76BAF16D011
:102C10006B51800A9F0FD8B009D0000E606F000E74
:102C2000616F000E626F000E636F1200D8906933FF
:102C30006833673366336B3FF9D715D01F0E6B656A
:102C40000FD0000E606F000E616F000E626F000EFD
:102C5000636F1200D89066376737683769376B073C
:102C60006B51D8A4F7D766C060F067C061F068C048
:102C700062F069C063F012000600FACF2AF0FBCFC1
:102C80002BF0E9CF2CF0EACF2DF0E1CF2EF0E2CF00
:102C90002FF0D9CF30F0DACF31F0F3CF32F0F4CFDC
:102CA00033F0F6CF34F0F7CF35F0F8CF36F0F5CF7C
:102CB00037F055C038F056C039F057C03AF058C018
:102CC0003BF0F29E9EA436D0CD909E94C4CF3FF0B0
:102CD000406A3F50406E3F6AC3503F243F6E000E33
:102CE0004020406E0A0E0F6E970E106E400E116E51
:102CF0003FC009F040C00AF0CDEC1DF009C00CF057
:102D00000AC00DF00BC00EF0B7EC17F00CC01BF0B2
:102D10000DC01CF00EC01DF0000E1E6E800E1F6E4A
:102D2000440E206EA5EC18F01BC03CF01CC03DF01A
:102D30001DC03EF03BC058F03AC057F039C056F0C5
:102D400038C055F037C0F5FF36C0F8FF35C0F7FF83
:102D500034C0F6FF33C0F4FF32C0F3FF31C0DAFFF6
:102D600030C0D9FF2FC0E2FF2EC0E1FF2DC0EAFF27
:102D70002CC0E9FF2BC0FBFF2AC0FAFF55921100BF
:102D80008CC08EF000018F6B906B8B358E3701E31A
:102D90008F818E51986F9851D8A409D0000E8A6FF8
:102DA000000E8B6F000E8C6F000E8D6F1200170ED1
:102DB0008E6F8AC08FF08BC090F08CC091F08E29FE
:102DC000926F04D0D890913390338F33922FFAD7EB
:102DD00000018F51936F8B8FFF0E8A17FF0E8B1799
:102DE000000E8C178A51946F8B51956F8C51966F92
:102DF000976B8E0E985F98AF16D09851800A8F0F00
:102E0000D8B009D0000E8A6F000E8B6F000E8C6F49
:102E1000000E8D6F1200D89097339633953394330C
:102E2000983FF9D715D0170E98650FD0000E8A6F0E
:102E3000000E8B6F000E8C6F000E8D6F1200D890FD
:102E4000943795379637973798079851D8A4F7D77E
:102E50009351D8B408D0971F961F951F946D000EFC
:102E600095239623972394C08AF095C08BF096C043
:102E70008CF097C08DF0120076C07AF000017B6B69
:102E80007C6B75357A3701E37B817A517D6F7D519B
:102E9000D8A407D0000E746F000E756F000E766F09
:102EA000120079C07AF07B6B7C6B78357A3701E35E
:102EB0007B817A51826F8251D8A407D0000E746F43
:102EC000000E756F000E766F120082517B0F7D270A
:102ED00076C082F07951821B800E8217758F788FB1
:102EE000FF0E7717FF0E7817000E7917000E7E6F12
:102EF000000E7F6F000E806F070E816F74A106D0E9
:102F000077517E2778517F2379518023D89076336B
:102F100075337433D890773778377937812FEED778
:102F2000090E816F74A106D077517E2778517F23D7
:102F300079518023D890763375337433D8908033A9
:102F40007F337E33812FEED77EC060F07FC061F08B
:102F500080C062F07DC063F082C064F051EC1AF072
:102F600060C074F061C075F062C076F012000EC0EF
:102F700012F0136A146A0D34123601E313801250F2
:102F8000156E1550D8A407D0000E0C6E000E0D6EF5
:102F9000000E0E6E120011C012F0136A146A103483
:102FA000123601E3138012501A6E1A50D8A407D0BB
:102FB000000E0C6E000E0D6E000E0E6E12001A50FA
:102FC0007B0F15260EC01AF011501A1A800E1A1611
:102FD0000D8E108EFF0E0F16FF0E1016000E11161E
:102FE000000E166E000E176E000E186E070E196E8C
:102FF0000CA006D00F501626105017221150182280
:10300000D8900E320D320C32D8900F361036113661
:10301000192EEED7090E196E0CA006D00F501626E9
:103020001050172211501822D8900E320D320C3247
:10303000D890183217321632192EEED716C001F07A
:1030400017C002F018C003F015C004F01AC005F054
:10305000A9EC1AF001C00CF002C00DF003C00EF094
:103060001200B3C0B7F00001B86BB96BB235B73717
:1030700001E3B881B751BE6FBE51D8A407D0000E8E
:10308000B16F000EB26F000EB36F1200B6C0B7F092
:10309000B86BB96BB535B73701E3B881B751BF6FBE
:1030A000BF51D8A407D0000EB16F000EB26F000E52
:1030B000B36F1200000EBB6F000EBC6F000EBD6F31
:1030C000BF51890FBE5FB3C0BFF0B651BF1B800EAA
:1030D000BF17B28FFF0EB117FF0EB217000EB31756
:1030E000B58FFF0EB417FF0EB517000EB617180EEA
:1030F000BA6FD890BB37BC37BD37B451B15DB5514D
:10310000B259B651B359D8A007D0B451B15FB55137
:10311000B25BB651B35BBB81D890B137B237B3372E
:10312000BA2FE7D7BBC060F0BCC061F0BDC062F091
:10313000BEC063F0BFC064F051EC1AF060C0B1F0E3
:1031400061C0B2F062C0B3F012001DC021F0226A6B
:10315000236A1C34213601E322802150286E285036
:10316000D8A407D0000E1B6E000E1C6E000E1D6E44
:10317000120020C021F0226A236A1F34213601E3A5
:1031800022802150296E2950D8A407D0000E1B6E32
:10319000000E1C6E000E1D6E1200000E256E000E3D
:1031A000266E000E276E2950890F285E1DC029F05B
:1031B0002050291A800E29161C8EFF0E1B16FF0E9A
:1031C0001C16000E1D161F8EFF0E1E16FF0E1F165C
:1031D000000E2016180E246ED89025362636273677
:1031E0001E501B5C1F501C5820501D58D8A007D0E3
:1031F0001E501B5E1F501C5A20501D5A2580D8900F
:103200001B361C361D36242EE7D725C001F026C0FC
:1032100002F027C003F028C004F029C005F0A9EC93
:103220001AF001C01BF002C01CF003C01DF0120018
:10323000A3C060F0A4C061F0A5C062F0A90E0001B7
:10324000636F000E646F1AEC1CF00001AAAF10D07F
:10325000A5AF07D0000EA36F800EA46FBF0EA56FA1
:103260001200000EA36F000EA46F000EA56F1200D7
:10327000AA5104E1150EA95DD8A007D0A3C0A3F000
:10328000A4C0A4F0A5C0A5F01200A3C08AF0A4C0F9
:103290008BF0A5C08CF0C0EC16F08AC099F08BC002
:1032A0009AF08CC09BF08DC09CF058EC1CF099C03B
:1032B000A6F09AC0A7F09BC0A8F0A3C060F0A4C07D
:1032C00061F0A5C062F0A6C063F0A7C064F0A8C01A
:1032D00065F04CEC1BF00001D8B015D0A6C08DF005
:1032E000A7C08EF0A8C08FF0000E906F800E916F77
:1032F000BF0E926F9BEC11F08DC0A3F08EC0A4F0B6
:103300008FC0A5F01200A6C0A3F0A7C0A4F0A8C06B
:10331000A5F012009EC06EF09FC06FF0000E00017D
:10332000716F030E706F93EC1DF09CC0A0F09DC0F8
:10333000A1F000016E51A0276F51A123A0C0F6FF9C
:10334000A1C0F7FF0900F5CFA2F00900F5CFA3F067
:103350000A00F5CFA4F040D0A2C077F0A3C078F067
:10336000A4C079F099C074F09AC075F09BC076F053
:103370003CEC17F074C08DF075C08EF076C08FF005
:10338000000E0001716F030E706F9E07D8A09F079B
:103390009EC06EF09FC06FF093EC1DF09CC0A0F03B
:1033A0009DC0A1F000016E51A0276F51A123A0C0C4
:1033B000F6FFA1C0F7FF0900F5CF90F00900F5CFA7
:1033C00091F00A00F5CF92F09BEC11F08DC0A2F0C5
:1033D0008EC0A3F08FC0A4F000019E519F11D8A40D
:1033E000BBD7A2C099F0A3C09AF0A4C09BF0120072
:1033F000100E0001606F490E616F400E626FCDC00C
:1034000063F0CEC064F0CFC065F04CEC1BF000015F
:10341000D8B023D0CDC08DF0CEC08EF0CFC08FF00D
:10342000CC0E906F960E916FC00E926F9BEC11F0C8
:103430008DC0D0F08EC0D1F08FC0D2F0D0C0C0F01F
:10344000D1C0C1F0D2C0C2F066EC10F0C0C0CDF067
:10345000C1C0CEF0C2C0CFF01200CDC08DF0CEC042
:103460008EF0CFC08FF0100E0001906FC90E916FDB
:103470003F0E926F9BEC11F08DC0D0F08EC0D1F05A
:103480008FC0D2F0D0C0C0F0D1C0C1F0D2C0C2F065
:1034900066EC10F0C0C0CDF0C1C0CEF0C2C0CFF01D
:1034A000120000016351D8B405D06051611162115E
:1034B000D8A40CD0000E606F000E616F000E626F1A
:1034C0001200632BD890623361336033000E6015B5
:1034D000656F000E6115666FFE0E6215676F6551B0
:1034E00066116711D8B40CD0ECD7632B010E60279E
:1034F000000E6123000E6223D89062336133603383
:10350000000E6015656F000E6115666FFF0E621587
:10351000676F655166116711D8B406D0E6D76307A7
:10352000D89060376137623761BF03D0020E6361A4
:10353000F6D763A1619FD8906333635162136451DE
:10354000D8A4628F60C060F061C061F062C062F0B8
:1035500012000450D8B405D0015002100310D8A4B2
:103560000CD0000E016E000E026E000E036E1200F3
:10357000042AD890033202320132000E0114066E82
:10358000000E0214076EFE0E0314086E065007109C
:103590000810D8B40CD0ECD7042A010E0126000E76
:1035A0000222000E0322D890033202320132000EB2
:1035B0000114066E000E0214076EFF0E0314086E4F
:1035C000065007100810D8B406D0E6D70406D890E5
:1035D00001360236033602BE03D0020E0460F6D76F
:1035E00004A0029ED8900432045003120550D8A4BF
:1035F000038E01C001F002C002F003C003F012000C
:103600000001666F0ED000016351800F08D0635136
:10361000C00F05D06351940F02D06351D40F676F70
:103620000ED000016651010AD8B4EDD7030AD8B410
:10363000EED7010AD8B4EED7070AD8B4EED767514F
:1036400010EC15F015D064C0F6FF65C0F7FFF86AFE
:10365000070EF76403D00800F55005D0F6CFD9FF68
:10366000F7CFDAFFDF5076EC14F00001644B652BE6
:1036700064C0F6FF65C0F7FFF86A070EF76403D071
:103680000800F55005D0F6CFD9FFF7CFDAFFDF50AD
:103690000009D8B41200D7D7000162AF16D060C0BD
:1036A00066F061C067F062C068F0661F671F681F40
:1036B000662B000E67236823000E6625606F000EE0
:1036C0006721616F800E6821626F65AF16D063C09D
:1036D00066F064C067F065C068F0661F671F681F0A
:1036E000662B000E67236823000E6625636F000EAD
:1036F0006721646F800E6821656F000E601B000EED
:10370000611B800E621B000E631B000E641B800E8B
:10371000651B6351605D6451615965516259D8B050
:1037200002D0D8901200D8801200000E00016B6FFA
:1037300069AF06D0686D691FD8B0692B010E6B6F39
:1037400067AF06D0666D671FD8B0672B010E6B1B85
:10375000000E6D6F000E6C6F68516911D8B41CD0EB
:10376000010E6A6F04D0D890683769376A2B69AF49
:10377000FAD7D8906C376D376851665D69516759D3
:10378000D8A005D06851665F6951675B6C81D8909D
:10379000693368336A2FEDD76B51D8B404D06C6DA0
:1037A0006D1FD8B06D2B6CC066F06DC067F0120055
:1037B000000E0001686F000E696F000E6A6F000E48
:1037C0006B6F6451651166116711D8B42AD0010E70
:1037D0006C6F06D0D89064376537663767376C2BC7
:1037E00067AFF8D7D890683769376A376B37645155
:1037F000605D655161596651625967516359D8A03E
:1038000009D06451605F6551615B6651625B6751CD
:10381000635B6881D89067336633653364336C2F9C
:10382000E1D768C060F069C061F06AC062F06BC047
:1038300063F012000001605161116211D8A409D037
:1038400063C0D9FF64C0DAFF000EDE6E000EDD6ECD
:10385000120062517F0B656F666BD89065376637D3
:1038600063C0D9FF64C0DAFF65C0DEFF66C0DDFF5C
:1038700061AF03D0656B652B02D00001656B6551AC
:1038800063C0D9FF64C0DAFFDE12000EDD1263C030
:10389000D9FF64C0DAFF820EDE26FF0EDD226281D0
:1038A0006283628562876289628B629D619F12007A
:1038B000000E0001A26F8E0EA16F9CAF11D09C1F55
:1038C0009B1F9A1F996D000E9A239B239C23010E28
:1038D000A26F06D0D8909C339B339A339933A12B97
:1038E000000E99159D6F000E9A159E6F000E9B1588
:1038F0009F6FFF0E9C15A06F9D519E119F11A011EF
:10390000D8A4E8D799C060F09AC061F09BC062F07B
:10391000A1C063F0A2C064F051EC1AF060C099F04D
:1039200061C09AF062C09BF01200000E0001656F4A
:1039300061AF06D0606D611FD8B0612B010E656F5D
:1039400063AF04D0626D631FD8B0632B6251631103
:10395000D8B418D0010E646F04D0D89062376337A2
:10396000642B63AFFAD76251605D63516159D8A08F
:1039700004D06251605F6351615BD89063336233FE
:10398000642FF1D76551D8B404D0606D611FD8B0F1
:10399000612B60C060F061C061F0120000017151E4
:1039A000721173117411D8B424D0010E756F06D042
:1039B000D8907137723773377437752B74AFF8D767
:1039C00071516D5D72516E5973516F5974517059C7
:1039D000D8A008D071516D5F72516E5B73516F5BEF
:1039E0007451705BD8907433733372337133752FA5
:1039F000E7D76DC06DF06EC06EF06FC06FF070C035
:103A000070F012008E0E0001706F06D0D8906B33EC
:103A10006A3369336833702B000E68156C6F000EC3
:103A200069156D6F000E6A156E6FFF0E6B156F6F67
:103A30006C516D116E116F11D8A4E8D768C060F099
:103A400069C061F06AC062F070C063F0000E646F1C
:103A500051EC1AF060C068F061C069F062C06AF0B1
:103A60001200C29AC298C296C294C2800E0EC16E53
:103A7000C08EC08AC098C086C084C092C090000E1C
:103A8000C46E000EC36EBD50F00B0B09BD6E090E67
:103A9000BF6E600EBE6EC050F80B0609C06EC096B9
:103AA000C098C09A12000001AE51AF11B011D8B445
:103AB00006D0000EAE1B000EAF1B800EB01BABC0BD
:103AC0008DF0ACC08EF0ADC08FF0AEC090F0AFC046
:103AD00091F0B0C092F09BEC11F08DC0ABF08EC0B5
:103AE000ACF08FC0ADF0120002EE00F0140EEE6AE2
:103AF000E806FDE101EEDCF0140EEE6AE806FDE1F9
:103B000000EED9F0160EEE6AE806FDE100EE3CF09C
:103B1000190EEE6AE806FDE155905592000EF86E1A
:103B20000001AAEF09F000016E517003F3CF72F0AB
:103B3000F4CF73F06E517103F35073276F5170031C
:103B4000F350732772C06EF073C06FF01200000163
:103B5000835184118511D8B406D0000E831B000E4A
:103B6000841B800E851B83C083F084C084F085C0D5
:103B700085F0120068C060F069C061F00001626BFE
:103B80008E0E636F000E646F51EC1AF060C068F027
:103B900061C069F062C06AF0120009C001F00AC099
:103BA00002F0036A8E0E046E000E056EA9EC1AF088
:103BB00001C009F002C00AF003C00BF012000001BE
:103BC000626F000E0001616F3A0E626105D02F0E28
:103BD000626502D0010E616F61C060F06031120059
:020000040020DA
:08000000FFFFFFFFFFFFFFFF00
:020000040030CA
:0E000000010E1F1EFF8381FF0FC00FE00F4097
:00000001FF
