:04000000A3EF3FF03B
:107F46000001B9EF3FF0C580C5B0FED79E9612007E
:107F56003F0EC716000EC66E000EC56EC686C78ECD
:107F660093809382C68A130EC86E1200D0EC3FF03F
:107F7600000E046E640E036EABEC3FF0A6EC3FF011
:107F86001F0E026E710E016E1E0EE82EFED7012E1A
:107F9600FCD7022EFAD700D0F1D7F29EF29CD58EEE
:107FA600D58CD59AD596D550F80B0409D56EF29492
:107FB600C180C182C184C186070EC26EC290C08EC6
:107FC600C050F80B0609C06EC050C70B2809C06E1A
:107FD6009282C050F80B0609C06EC19AC198C08E35
:107FE600C2909D9C9E9CC086C088C08AC2829E9A72
:0A7FF600000E956E000E806E120062
:020000040020DA
:08000000FFFFFFFFFFFFFFFF00
:020000040030CA
:0E000000010E1F1EFF8381FF0FC00FE00F4097
:00000001FF
