:0400000017EF3CF0CA
:10782E00000EF86E0001B7EF3EF0000E0C6E0AAEC1
:10783E0006D0096C0A1ED8B00A2A010E0C6E09C0B9
:10784E0001F00AC002F0036A8E0E046E0CC005F041
:10785E0070EC3CF001C009F002C00AF003C00BF05E
:10786E001200F28EF28CD58ED58CD59AD596D55037
:10787E00F80B0409D56EF294C180C182C184C18611
:10788E00000E926E000E936E070EC26EC290C08EE8
:10789E00C050F80B0609C06EC050C70B2809C06E49
:1078AE00C150F00B0D09C16E9282C050F80B060943
:1078BE00C06EC19AC198C08EC2909D9C9E9CC0867F
:1078CE00C088C08AC2829E9A000E956E000E806E8F
:1078DE0012000450D8B405D0015002100310D8A4E1
:1078EE000CD0000E016E000E026E000E036E120022
:1078FE00042AD890033202320132000E0114066EB1
:10790E00000E0214076EFE0E0314086E06500710CA
:10791E000810D8B40CD0ECD7042A010E0126000EA4
:10792E000222000E0322D890033202320132000EE0
:10793E000114066E000E0214076EFF0E0314086E7D
:10794E00065007100810D8B406D0E6D70406D89013
:10795E0001360236033602BE03D0020E0460F6D79D
:10796E0004A0029ED8900432045003120550D8A4ED
:10797E00038E01C001F002C002F003C003F012003A
:10798E00000E326E000E316E000E346E000E336E2F
:10799E00000E306E000E2F6E830ED66ED6502D6EEC
:1079AE002E6A2D1E2E1E2D4A2E2A050ED8902D36ED
:1079BE002E36E82EFBD7000E2D24096E200E2E201B
:1079CE000A6E1CEC3CF009C010F00AC011F00BC09E
:1079DE0012F0000E0D6EFA0E0E6E450E0F6E2DECA1
:1079EE003DF00DC01CF00EC01DF00FC01EF0A0EC3F
:1079FE003DF01CC033F01DC034F0D58E20D0F2A463
:107A0E001ED0F294830ED66E314A322A335031187C
:107A1E0016E134503218D8A412D02F4A302A2F50E3
:107A2E002B1804E130502C18D8B405D0000E326E4D
:107A3E00000E316E04D033C031F034C032F033500A
:107A4E00315C34503258D8B01200D9D70FC013F071
:107A5E00146A156A0E34133601E3148013501A6E2D
:107A6E001A50D8A407D0000E0D6E000E0E6E000E2A
:107A7E000F6E120012C013F0146A156A1134133609
:107A8E0001E3148013501B6E1B50D8A407D0000EB8
:107A9E000D6E000E0E6E000E0F6E1200000E176EA3
:107AAE00000E186E000E196E1B50890F1A5E0FC055
:107ABE001BF012501B1A800E1B160E8EFF0E0D168B
:107ACE00FF0E0E16000E0F16118EFF0E1016FF0E65
:107ADE001116000E1216180E166ED890173618368E
:107AEE00193610500D5C11500E5812500F58D8A068
:107AFE0007D010500D5E11500E5A12500F5A1780AB
:107B0E00D8900D360E360F36162EE7D717C001F069
:107B1E0018C002F019C003F01AC004F01BC005F023
:107B2E0070EC3CF001C00DF002C00EF003C00FF07F
:107B3E0012001EC020F0216A226A1D34203601E395
:107B4E00218020502A6E2A50D8A409D0000E1C6E17
:107B5E00000E1D6E000E1E6E000E1F6E1200170E12
:107B6E00206E1CC021F01DC022F01EC023F0202864
:107B7E00246E04D0D890233222322132242EFAD70A
:107B8E002150256E1D8EFF0E1C16FF0E1D16000EAB
:107B9E001E161C50266E1D50276E1E50286E296A0A
:107BAE008E0E2A5E2AAE16D02A50800A8F0FD8B0BB
:107BBE0009D0000E1C6E000E1D6E000E1E6E000E05
:107BCE001F6E1200D89029322832273226322A3ED2
:107BDE00F9D715D0170E2A640FD0000E1C6E000EAA
:107BEE001D6E000E1E6E000E1F6E1200D8902636F1
:107BFE002736283629362A062A50D8A4F7D72550F4
:107C0E00D8B408D0291E281E271E266C000E272247
:107C1E002822292226C01CF027C01DF028C01EF0E5
:107C2E0029C01FF01200016E75D0EE0ECB6E070E3E
:107C3E00CA6E770EBE6E1C0EBD6E1200E00ECB6EBF
:107C4E00070ECA6E700EBE6E1C0EBD6E1200D40EE6
:107C5E00CB6E070ECA6E6A0EBE6E1C0EBD6E120085
:107C6E00C80ECB6E070ECA6E640EBE6E1C0EBD6EB7
:107C7E001200BD0ECB6E070ECA6E5E0EBE6E3C0EB1
:107C8E00BD6E1200B20ECB6E070ECA6E590EBE6ED0
:107C9E001C0EBD6E1200A80ECB6E070ECA6E540ED1
:107CAE00BE6E1C0EBD6E12009E0ECB6E070ECA6E01
:107CBE004F0EBE6E1C0EBD6E1200950ECB6E070ED5
:107CCE00CA6E4A0EBE6E3C0EBD6E12008D0ECB6E8F
:107CDE00070ECA6E460EBE6E3C0EBD6E1200850EAF
:107CEE00CB6E070ECA6E420EBE6E3C0EBD6E1200FD
:107CFE007E0ECB6E070ECA6E3F0EBE6E1C0EBD6E96
:107D0E001200000ECB6E000ECA6E000EBE6E000E7E
:107D1E00BD6E12000150410AD8B4E1D7020AD8B4A0
:107D2E008DD7070AD8B49CD7020AD8B4B4D7010AA3
:107D3E00D8B4C3D7260AD8B4C9D7030AD8B4D8D76B
:107D4E00010AD8B472D7070AD8B481D7010AD8B4B9
:107D5E0090D7030AD8B496D7010AD8B4A5D7D1D7ED
:107D6E00720ED36E38EC3CF0000E946E000E826EE6
:107D7E00010E966E010E956E010E936E03D0630E7C
:107D8E001AEC3EF083A404D0FAD7430E1AEC3EF060
:107D9E0083A604D0FAD7640E1AEC3EF083A804D062
:107DAE00FAD7440E1AEC3EF083AA04D0FAD7650E29
:107DBE001AEC3EF083AC04D0FAD7660E1AEC3EF005
:107DCE0083AE04D0FAD7460E1AEC3EF081A004D052
:107DDE00FAD7670E1AEC3EF081A204D0FAD7470EFE
:107DEE001AEC3EF081A404D0FAD7610E1AEC3EF0E4
:107DFE0081A604D0FAD7410E1AEC3EF081A804D029
:107E0E00FAD7620E1AEC3EF081BAFBD7000EBD6EA9
:107E1E0063D0640E1AEC3EF0010E2C6E2C0E2B6EFF
:107E2E00C7EC3CF0670E1AEC3EF0020E2C6E580EAC
:107E3E002B6EC7EC3CF0620E1AEC3EF0000E2C6E70
:107E4E00320E2B6EC7EC3CF0610E1AEC3EF0000EBB
:107E5E002C6E320E2B6EC7EC3CF0670E1AEC3EF019
:107E6E00000E2C6E320E2B6EC7EC3CF0620E1AEC2E
:107E7E003EF0020E2C6E580E2B6EC7EC3CF0610ECF
:107E8E001AEC3EF0010E2C6E2C0E2B6EC7EC3CF055
:107E9E00670E1AEC3EF0020E2C6E580E2B6EC7ECCF
:107EAE003CF0650E1AEC3EF0010E2C6E2C0E2B6E75
:107EBE00C7EC3CF0640E1AEC3EF0020E2C6E580E1F
:107ECE002B6EC7EC3CF0640E1AEC3EF0010E2C6EDD
:107EDE002C0E2B6EC7EC3CF084A288D09AD7650E80
:107EEE001AEC3EF0000E2C6E640E2B6EC7EC3CF0BE
:107EFE00650E1AEC3EF0000E2C6E640E2B6EC7EC67
:107F0E003CF0660E1AEC3EF0000E2C6E640E2B6EDC
:107F1E00C7EC3CF0670E1AEC3EF0000E2C6E640EB1
:107F2E002B6EC7EC3CF0670E1AEC3EF0000E2C6E7A
:107F3E00640E2B6EC7EC3CF0660E1AEC3EF0000E93
:107F4E002C6E640E2B6EC7EC3CF0650E1AEC3EF0F8
:107F5E00000E2C6E640E2B6EC7EC3CF0640E1AEC09
:107F6E003EF0000E2C6E640E2B6EC7EC3CF0630ED2
:107F7E001AEC3EF0000E2C6E640E2B6EC7EC3CF02D
:107F8E00630E1AEC3EF0000E2C6E640E2B6EC7ECD8
:107F9E003CF0640E1AEC3EF0000E2C6E640E2B6E4E
:107FAE00C7EC3CF0650E1AEC3EF0000E2C6E640E23
:107FBE002B6EC7EC3CF0650E1AEC3EF0000E2C6EEC
:107FCE00640E2B6EC7EC3CF0640E1AEC3EF0000E05
:107FDE002C6E640E2B6EC7EC3CF0640E1AEC3EF069
:107FEE00000E2C6E640E2B6EC7EC3CF084A0CAD62D
:027FFE0076D734
:020000040020DA
:08000000FFFFFFFFFFFFFFFF00
:020000040030CA
:0E000000010E1F1EFF8381FF0FC00FE00F4097
:00000001FF
