:0400000011EF07F005
:0708000000686F6C6100004D
:100808001EC020F0216A226A1D34203601E32180AF
:1008180020502A6E2A50D8A409D0000E1C6E000E53
:100828001D6E000E1E6E000E1F6E1200170E206E3B
:100838001CC021F01DC022F01EC023F02028246E09
:1008480004D0D890233222322132242EFAD72150D4
:10085800256E1D8EFF0E1C16FF0E1D16000E1E1691
:100868001C50266E1D50276E1E50286E296A8E0E4B
:100878002A5E2AAE16D02A50800A8F0FD8B009D027
:10088800000E1C6E000E1D6E000E1E6E000E1F6EFA
:100898001200D89029322832273226322A3EF9D738
:1008A80015D0170E2A640FD0000E1C6E000E1D6E98
:1008B800000E1E6E000E1F6E1200D89026362736C8
:1008C800283629362A062A50D8A4F7D72550D8B46E
:1008D80008D0291E281E271E266C000E2722282233
:1008E800292226C01CF027C01DF028C01EF029C0F0
:1008F8001FF012000FC013F0146A156A0E34133675
:1009080001E3148013501A6E1A50D8A407D0000EB1
:100918000D6E000E0E6E000E0F6E120012C013F058
:10092800146A156A1134133601E3148013501B6ED0
:100938001B50D8A407D0000E0D6E000E0E6E000ED0
:100948000F6E1200000E176E000E186E000E196E54
:100958001B50890F1A5E0FC01BF012501B1A800E15
:100968001B160E8EFF0E0D16FF0E0E16000E0F161E
:10097800118EFF0E1016FF0E1116000E1216180E0D
:10098800166ED89017361836193610500D5C11505F
:100998000E5812500F58D8A007D010500D5E1150A5
:1009A8000E5A12500F5A1780D8900D360E360F3641
:1009B800162EE7D717C001F018C002F019C003F0CF
:1009C8001AC004F01BC005F0BEEC05F001C00DF024
:1009D80002C00EF003C00FF0120095929594959600
:1009E8009598959A959C959E8392839483968398DF
:1009F800839A839C839E000E2C6E140E2B6E58ECEB
:100A080005F0300E836EF5EC06F0000E2C6E040E29
:100A18002B6E58EC05F0300E836EF5EC06F0000EE8
:100A28002C6E040E2B6E58EC05F0300E836EF5EC30
:100A380006F0000E2C6E010E2B6E58EC05F0200E01
:100A4800836EF5EC06F0000E366E280E356E49EC16
:100A580006F0000E2C6E080E2B6E58EC05F0000EFA
:100A6800366E0C0E356E49EC06F0000E2C6E080E34
:100A78002B6E58EC05F0000E366E010E356E49EC03
:100A880006F0000E2C6E020E2B6E58EC05F0000ED0
:100A9800366E060E356E49EC06F0000E2C6E080E0A
:100AA8002B6E58EC05F01200000E326E000E316EFF
:100AB800000E346E000E336E000E306E000E2F6E78
:100AC800830ED66ED6502D6E2E6A2D1E2E1E2D4AE2
:100AD8002E2A050ED8902D362E36E82EFBD7000E7E
:100AE8002D24096E200E2E200A6EACEC06F009C0EB
:100AF80010F00AC011F00BC012F0000E0D6EFA0EC5
:100B08000E6E450E0F6E7EEC04F00DC01CF00EC08C
:100B18001DF00FC01EF004EC04F01CC033F01DC023
:100B280034F0D58E20D0F2A41ED0F294830ED66E67
:100B3800314A322A3350311816E134503218D8A4C9
:100B480012D02F4A302A2F502B1804E130502C187D
:100B5800D8B405D0000E326E000E316E04D033C00A
:100B680031F034C032F03350315C34503258D8B0A0
:100B78001200D9D70450D8B405D001500210031080
:100B8800D8A40CD0000E016E000E026E000E036E8B
:100B98001200042AD890033202320132000E0114E6
:100BA800066E000E0214076EFE0E0314086E065041
:100BB80007100810D8B40CD0ECD7042A010E01266F
:100BC800000E0222000E0322D890033202320132B4
:100BD800000E0114066E000E0214076EFF0E0314B9
:100BE800086E065007100810D8B406D0E6D70406D9
:100BF800D89001360236033602BE03D0020E0460D6
:100C0800F6D704A0029ED89004320450031205506F
:100C1800D8A4038E01C001F002C002F003C003F0A3
:100C28001200838283CF37F00F0E371635C038F0A5
:100C380036C039F0040E3A6ED890393238323A2E2E
:100C4800FBD70F0E381683380F0B0F0B0F0938140C
:100C58003B6E3B38F00B3710836EF5EC06F083CF14
:100C680037F00F0E371635C038F00F0E38168338A8
:100C78000F0B0F0B0F093814396E3938F00B37107A
:100C8800836EF5EC06F083921200839283CF37F0DF
:100C98000F0E371635C038F036C039F0040E3A6EEC
:100CA800D890393238323A2EFBD70F0E381683389F
:100CB8000F0B0F0B0F0938143B6E3B38F00B371036
:100CC800836EF5EC06F083CF37F00F0E371635C07C
:100CD80038F00F0E381683380F0B0F0B0F09381426
:100CE800396E3938F00B3710836EF5EC06F01200C8
:100CF800F29EF29CD58ED58CD59AD596D550F80B08
:100D08000409D56EF294C180C182C184C186070EE0
:100D1800C26EC290C08EC050F80B0609C06EC0509B
:100D2800C70B2809C06E9282C050F80B0609C06E26
:100D3800C19AC198C08EC2909D9C9E9CC086C08856
:100D4800C08AC2829E9A000E956E000E806E1200B6
:100D5800000E0C6E0AAE06D0096C0A1ED8B00A2A1C
:100D6800010E0C6E09C001F00AC002F0036A8E0E73
:100D7800046E0CC005F0BEEC05F001C009F002C01D
:100D88000AF003C00BF012000CD03CC0F6FF3DC0C7
:100D9800F7FF0800F550356E366A15EC06F03C4A48
:100DA8003D2A3CC0F6FF3DC0F7FF0800F55000099A
:100DB800D8B41200EAD77CEC06F0F1EC04F0C1805C
:100DC800C182C184C1869494939895869584948EA3
:100DD80004EC07F0010E3C6E080E3D6EC8EC06F000
:100DE800F7D78386000E2C6E020E2B6E58EC05F09A
:100DF8008396000E2C6E020E2B6E58EC05F0120036
:100E0800000E366E020E356E49EC06F0000E2C6EA2
:100E1800040E2B6E58EC05F01200000EF86E080E4A
:080E2800F76E0001DFEF06F098
:020000040020DA
:08000000FFFFFFFFFFFFFFFF00
:020000040030CA
:0E000000190E1F1EFF8381FF0FC00FE00F407F
:00000001FF
