:04000000B5EF3DF02B
:107B6A00000125EF3EF08D928D8089908982120066
:107B7A008D828D90898089921200899089928D9246
:107B8A008D901200016E0104D8A405D089808992D3
:107B9A008D928D901200020E0118D8A412008980CD
:107BAA0089928D928D801200000E0C6E0AAE06D05C
:107BBA00096C0A1ED8B00A2A010E0C6E09C001F01F
:107BCA000AC002F0036A8E0E046E0CC005F056EC71
:107BDA003EF001C009F002C00AF003C00BF0120027
:107BEA00F29EF29CD58ED58CD59AD596D550F80BA7
:107BFA000409D56EF294C180C182C184C186070E80
:107C0A00C26EC290C08EC050F80B0609C06EC0503A
:107C1A00C70B2809C06E9282C050F80B0609C06EC5
:107C2A00C19AC198C08EC2909D9C9E9CC086C088F5
:107C3A00C08AC2829E9A000E956E000E806E120055
:107C4A00F5EC3DF0C180C182C184C18692909292C6
:107C5A0096909692030E2C6EE80E2B6EADEC3EF0CB
:107C6A00BDEC3DF0030E2C6EE80E2B6EADEC3EF033
:107C7A00B8EC3DF0030E2C6EE80E2B6EADEC3EF028
:107C8A00C2EC3DF0010EC7EC3DF0030E2C6EE80E7F
:107C9A002B6EADEC3EF0C2EC3DF0020EC7EC3DF0AF
:107CAA00D9D70450D8B405D0015002100310D8A473
:107CBA000CD0000E016E000E026E000E036E120052
:107CCA00042AD890033202320132000E0114066EE1
:107CDA00000E0214076EFE0E0314086E06500710FB
:107CEA000810D8B40CD0ECD7042A010E0126000ED5
:107CFA000222000E0322D890033202320132000E11
:107D0A000114066E000E0214076EFF0E0314086EAD
:107D1A00065007100810D8B406D0E6D70406D89043
:107D2A0001360236033602BE03D0020E0460F6D7CD
:107D3A0004A0029ED8900432045003120550D8A41D
:107D4A00038E01C001F002C002F003C003F012006A
:107D5A00000E326E000E316E000E346E000E336E5F
:107D6A00000E306E000E2F6E830ED66ED6502D6E1C
:107D7A002E6A2D1E2E1E2D4A2E2A050ED8902D361D
:107D8A002E36E82EFBD7000E2D24096E200E2E204B
:107D9A000A6ED9EC3DF009C010F00AC011F00BC010
:107DAA0012F0000E0D6EFA0E0E6E450E0F6E13ECEB
:107DBA003FF00DC01CF00EC01DF00FC01EF086EC87
:107DCA003FF01CC033F01DC034F0D58E20D0F2A491
:107DDA001ED0F294830ED66E314A322A33503118AD
:107DEA0016E134503218D8A412D02F4A302A2F5014
:107DFA002B1804E130502C18D8B405D0000E326E7E
:107E0A00000E316E04D033C031F034C032F033503A
:107E1A00315C34503258D8B01200D9D70FC013F0A1
:107E2A00146A156A0E34133601E3148013501A6E5D
:107E3A001A50D8A407D0000E0D6E000E0E6E000E5A
:107E4A000F6E120012C013F0146A156A1134133639
:107E5A0001E3148013501B6E1B50D8A407D0000EE8
:107E6A000D6E000E0E6E000E0F6E1200000E176ED3
:107E7A00000E186E000E196E1B50890F1A5E0FC085
:107E8A001BF012501B1A800E1B160E8EFF0E0D16BB
:107E9A00FF0E0E16000E0F16118EFF0E1016FF0E95
:107EAA001116000E1216180E166ED89017361836BE
:107EBA00193610500D5C11500E5812500F58D8A098
:107ECA0007D010500D5E11500E5A12500F5A1780DB
:107EDA00D8900D360E360F36162EE7D717C001F09A
:107EEA0018C002F019C003F01AC004F01BC005F054
:107EFA0056EC3EF001C00DF002C00EF003C00FF0C8
:107F0A0012001EC020F0216A226A1D34203601E3C5
:107F1A00218020502A6E2A50D8A409D0000E1C6E47
:107F2A00000E1D6E000E1E6E000E1F6E1200170E42
:107F3A00206E1CC021F01DC022F01EC023F0202894
:107F4A00246E04D0D890233222322132242EFAD73A
:107F5A002150256E1D8EFF0E1C16FF0E1D16000EDB
:107F6A001E161C50266E1D50276E1E50286E296A3A
:107F7A008E0E2A5E2AAE16D02A50800A8F0FD8B0EB
:107F8A0009D0000E1C6E000E1D6E000E1E6E000E35
:107F9A001F6E1200D89029322832273226322A3E02
:107FAA00F9D715D0170E2A640FD0000E1C6E000EDA
:107FBA001D6E000E1E6E000E1F6E1200D890263621
:107FCA002736283629362A062A50D8A4F7D7255024
:107FDA00D8B408D0291E281E271E266C000E272278
:107FEA002822292226C01CF027C01DF028C01EF016
:067FFA0029C01FF0120077
:020000040020DA
:08000000FFFFFFFFFFFFFFFF00
:020000040030CA
:0E000000190E1F1EFF8381FF0FC00FE00F407F
:00000001FF
