:04000000A7EF0FF067
:100800000000803F72313FFE753E58633D951D3CB0
:10081000C5AE3A79213994803793A73556153400FF
:10082000000000803FF0FFBEE2A93E8376BEAE2B03
:0B0830003E3CC3BDD2133D78D3BB009B
:10083C005BC009F05CC00AF054EC0FF009C01CF06E
:10084C000AC01DF00BC01EF0000E106E800E116E53
:10085C003F0E126EEAC00DF0EBC00EF0ECC00FF0C4
:10086C00E6EC07F00DC019F00EC01AF00FC01BF02B
:10087C0083EC0AF019C095F01AC096F01BC097F0E3
:10088C00000E2B6EC80E2C6E420E2D6E000E1C6EC2
:10089C00800E1D6E400E1E6E95C019F096C01AF09B
:1008AC0097C01BF083EC0AF019C028F01AC029F08D
:1008BC001BC02AF0FDEC0AF028C037F029C038F034
:1008CC002AC039F009EC0AF037C098F038C099F01A
:1008DC0020EEAEF010EE77F01D0EDBCFE3FFE80656
:1008EC00FCE298C0AAF099C0ABF0000E00019B6F1F
:1008FC00000E9A6F000E9D6F000E9C6F000EA96F7C
:10090C00000EA86F000EA76F000EA66F24D0010E6C
:10091C00AA155D6E000EAB155E6ED8909A35D96E29
:10092C009B35DA6E770ED926000EDA225DC0DEFF1B
:10093C005EC0DDFFAAC001F0ABC002F0000E046E79
:10094C00020E036EEEEC0DF001C0AAF002C0ABF08B
:10095C0000019A4B9B2BABBF05D0AB51D8E1AA053C
:10096C00D8B0D5D7000EAD6F000EAC6FADBF06D0B2
:10097C00AD5159E1020EAC5DD8B055D0ACC009F008
:10098C00ADC00AF054EC0FF009C09EF00AC09FF005
:10099C000BC0A0F09EC069F09FC06AF0A0C06BF0C5
:1009AC00000E0001666F000E676F400E686FBCECA6
:1009BC0008F066C0A1F067C0A2F068C0A3F0A1C0A7
:1009CC001CF0A2C01DF0A3C01EF0D8900001AC35E5
:1009DC00D96EAD35DA6E770ED926000EDA22DECF5F
:1009EC0009F0DDCF0AF054EC0FF009C019F00AC081
:1009FC001AF00BC01BF083EC0AF019C037F01AC0C8
:100A0C0038F01BC039F009EC0AF037C0A4F038C03C
:100A1C00A5F00001A851A425A86FA951A521A96F83
:100A2C00AC4BAD2BA3D7000EAD6F020EAC6FADBFB0
:100A3C0006D0AD515BE10A0EAC5DD8B057D09CC06E
:100A4C0009F09DC00AF054EC0FF009C09EF00AC0EA
:100A5C009FF00BC0A0F09EC069F09FC06AF0A0C0D0
:100A6C006BF0000E0001666F000E676F400E686F32
:100A7C00BCEC08F066C0A1F067C0A2F068C0A3F09F
:100A8C00A1C01CF0A2C01DF0A3C01EF0D8900001A4
:100A9C00AC35D96EAD35DA6E770ED926000EDA226A
:100AAC00DECF09F0DDCF0AF054EC0FF009C019F0DD
:100ABC000AC01AF00BC01BF083EC0AF019C037F017
:100ACC001AC038F01BC039F009EC0AF037C0A4F09A
:100ADC0038C0A5F00001A651A425A66FA751A521E9
:100AEC00A76F9C4B9D2BAC4BAD2BA1D7A8C05DF039
:100AFC005D3ABA505D18CF0B5D18BA6EA6C0BBFF3D
:100B0C0012005BC009F05CC00AF054EC0FF009C095
:100B1C001CF00AC01DF00BC01EF0000E106E800EF3
:100B2C00116E3F0E126EEAC00DF0EBC00EF0ECC071
:100B3C000FF0E6EC07F00DC019F00EC01AF00FC064
:100B4C001BF083EC0AF019C095F01AC096F01BC08C
:100B5C0097F0000E2B6EC80E2C6E420E2D6E000EF2
:100B6C001C6E800E1D6E400E1E6E95C019F096C048
:100B7C001AF097C01BF083EC0AF019C028F01AC0C9
:100B8C0029F01BC02AF0FDEC0AF028C037F029C070
:100B9C0038F02AC039F009EC0AF037C098F038C0A8
:100BAC0099F020EECCF010EE77F01D0EDBCFE3FFCA
:100BBC00E806FCE298C0AAF099C0ABF0000E000168
:100BCC009B6F000E9A6F000E9D6F000E9C6F000EB7
:100BDC00A96F000EA86F000EA76F000EA66F24D091
:100BEC00010EAA155D6E000EAB155E6ED8909A358F
:100BFC00D96E9B35DA6E770ED926000EDA225DC0DF
:100C0C00DEFF5EC0DDFFAAC001F0ABC002F0000E3B
:100C1C00046E020E036EEEEC0DF001C0AAF002C0E1
:100C2C00ABF000019A4B9B2BABBF05D0AB51D8E17D
:100C3C00AA05D8B0D5D7000EAD6F000EAC6FADBF06
:100C4C0006D0AD5159E1020EAC5DD8B055D0ACC058
:100C5C0009F0ADC00AF054EC0FF009C09EF00AC0C8
:100C6C009FF00BC0A0F09EC069F09FC06AF0A0C0BE
:100C7C006BF0000E0001666F000E676F400E686F20
:100C8C00BCEC08F066C0A1F067C0A2F068C0A3F08D
:100C9C00A1C01CF0A2C01DF0A3C01EF0D890000192
:100CAC00AC35D96EAD35DA6E770ED926000EDA2258
:100CBC00DECF09F0DDCF0AF054EC0FF009C019F0CB
:100CCC000AC01AF00BC01BF083EC0AF019C037F005
:100CDC001AC038F01BC039F009EC0AF037C0A4F088
:100CEC0038C0A5F00001A851A425A86FA951A521D1
:100CFC00A96FAC4BAD2BA3D7000EAD6F020EAC6F32
:100D0C00ADBF06D0AD515BE10A0EAC5DD8B057D08B
:100D1C009CC009F09DC00AF054EC0FF009C09EF085
:100D2C000AC09FF00BC0A0F09EC069F09FC06AF093
:100D3C00A0C06BF0000E0001666F000E676F400ED6
:100D4C00686FBCEC08F066C0A1F067C0A2F068C088
:100D5C00A3F0A1C01CF0A2C01DF0A3C01EF0D8903F
:100D6C000001AC35D96EAD35DA6E770ED926000E92
:100D7C00DA22DECF09F0DDCF0AF054EC0FF009C017
:100D8C0019F00AC01AF00BC01BF083EC0AF019C062
:100D9C0037F01AC038F01BC039F009EC0AF037C034
:100DAC00A4F038C0A5F00001A651A425A66FA75148
:100DBC00A521A76F9C4B9D2BAC4BAD2BA1D7A8C0ED
:100DCC005DF05D3ABD505D18CF0B5D18BD6EA6C0D1
:100DDC00BEFF1200585059105A10D8A407D0000E5C
:100DEC00586E800E596E3F0E5A6E1200720E016EC6
:100DFC00310E026E440E036E58C004F059C005F05B
:100E0C005AC006F0A6EC0DF0D8B00CD0000E0001C4
:100E1C00EE6F220EED6FFF0E586E7F0E596E7F0E29
:100E2C005A6E120058C001F059C002F05AC003F0BB
:100E3C00490E046E3A0E056EC40E066EA6EC0DF04D
:100E4C00D8B00CD0000E0001EE6F220EED6F000E2C
:100E5C00586E000E596E000E5A6E12005AAE02D029
:100E6C00010E01D0000E0001656F6551D8B40ED093
:100E7C0058C001F059C002F05AC003F083EC0FF0D7
:100E8C0001C058F002C059F003C05AF058C019F014
:100E9C0059C01AF05AC01BF0AA0E1C6EB80E1D6E6B
:100EAC003F0E1E6E83EC0AF019C058F01AC059F0B0
:100EBC001BC05AF058C050F059C051F05AC052F0F3
:100ECC0070EC0BF050C060F051C061F052C062F099
:100EDC0060C037F061C038F062C039F009EC0AF03C
:100EEC0037C063F038C064F058C019F059C01AF01C
:100EFC005AC01BF063C009F064C00AF054EC0FF048
:100F0C0009C01CF00AC01DF00BC01EF034EC0FF031
:100F1C0019C058F01AC059F01BC05AF058C028F02C
:100F2C0059C029F05AC02AF0010E2B6E080E2C6EF7
:100F3C00000E2E6E090E2D6EDFEC0BF028C034F077
:100F4C0029C035F02AC036F063C037F064C038F0E1
:100F5C0048EC0CF034C058F035C059F036C05AF09B
:100F6C0000016551D8B425D058280EE17F0E5918D0
:100F7C000BE17F0E5A18D8A407D0000E586E000E45
:100F8C00596E000E5A6E1200000E286E800E296EDD
:100F9C003F0E2A6E58C02BF059C02CF05AC02DF0C1
:100FAC00FDEC0AF028C058F029C059F02AC05AF0BC
:100FBC00120058C058F059C059F05AC05AF01200DB
:100FCC000FC013F0146A156A0E34133601E3148043
:100FDC001350186E12C013F0146A156A11341336BC
:100FEC0001E314801350176E1850D8B40BD017505F
:100FFC00185CD8B00ED0185000081724136E180EB9
:10100C00136407D010C00DF011C00EF012C00FF019
:10101C0012001750D8B40BD01850175CD8B00ED0A3
:10102C00175000081824136E180E136407D00DC047
:10103C000DF00EC00EF00FC00FF01200060E166E63
:10104C000FBE168E12BE168C0E8EFF0E0D16FF0ED8
:10105C000E16000E0F16118EFF0E1016FF0E111627
:10106C00000E12161750185CD8B01BD0D890103642
:10107C0011361236170618501718D8B40DD016069C
:10108C0016C013F0070E1316D8B406D0EFD7D890AD
:10109C000F320E320D32182A17501818D8B41FD030
:1010AC00F6D71850175CD8B01AD0D8900D360E362B
:1010BC000F36180618501718D8B40DD0160616C0CF
:1010CC0013F0070E1316D8B406D0EFD7D8901232FF
:1010DC0011321032172A17501818D8A4F7D716AE99
:1010EC000CD0FF0E0D1AFF0E0E1AFF0E0F1A010E6A
:1010FC000D26000E0E22000E0F2216AC0CD0FF0E89
:10110C00101AFF0E111AFF0E121A010E1026000EE5
:10111C001122000E1222000E166E0D5010260E50CB
:10112C0011220F50122212AE0ED0FF0E101AFF0E0B
:10113C00111AFF0E121A010E1026000E1122000EAB
:10114C001222010E166E10C001F011C002F012C076
:10115C0003F018C004F016C005F007EC0DF001C048
:10116C000DF002C00EF003C00FF01200000E0001D3
:10117C00726F665167116811D8A41DD0000E016EF4
:10118C00000E026E000E036E69C004F06AC005F01A
:10119C006BC006F0A6EC0DF0D8A005D0000E000137
:1011AC00EE6F210EED6F000E0001666F000E676F83
:1011BC00000E686F120069516A116B11D8A407D028
:1011CC00000E666F800E676F3F0E686F120068AF7F
:1011DC0041D069C037F06AC038F06BC039F009EC07
:1011EC000AF037C073F038C074F039C075F03AC0EB
:1011FC0076F073C009F074C00AF075C00BF076C0BD
:10120C000CF006EC0FF000016951091807E16A5166
:10121C000A1804E16B510B18D8B40BD0000EEE6F0A
:10122C00210EED6F000E666F000E676F000E686F7B
:10123C0012007351010B726F66C001F067C002F0AF
:10124C0068C003F083EC0FF001C066F002C067F0D9
:10125C0003C068F066C034F067C035F068C036F083
:10126C007AEC09F034C06CF035C06DF036C06EF01D
:10127C006CC019F06DC01AF06EC01BF069C01CF088
:10128C006AC01DF06BC01EF083EC0AF019C06FF041
:10129C001AC070F01BC071F06FC058F070C059F0DC
:1012AC0071C05AF0F0EC06F058C066F059C067F007
:1012BC005AC068F000017251D8B40FD066C001F06A
:1012CC0067C002F068C003F083EC0FF001C066F059
:1012DC0002C067F003C068F0120066C066F067C019
:1012EC0067F068C068F0120036AE0CD0000E00013A
:1012FC00EE6F210EED6F000E346E000E356E000E8B
:10130C00366E1200345035103610D8A40CD0000EA6
:10131C000001EE6F220EED6F000E346E000E356E76
:10132C00000E366E1200000E1C6E000E1D6E400E6E
:10133C001E6E370E046E000E056E34C001F035C003
:10134C0002F036C003F05EEC0DF001C019F002C0E3
:10135C001AF003C01BF083EC0AF019C00DF01AC090
:10136C000EF01BC00FF0000E106E800E116EBF0E33
:10137C00126EE6EC07F00DC034F00EC035F00FC065
:10138C0036F03706D8A0380634C028F035C029F01E
:10139C0036C02AF01F0E2B6E080E2C6E000E2E6E11
:1013AC00080E2D6EDFEC0BF028C034F029C035F0A0
:1013BC002AC036F0720E1C6E310E1D6E3F0E1E6E64
:1013CC0037C009F038C00AF054EC0FF009C019F01E
:1013DC000AC01AF00BC01BF083EC0AF019C00DF018
:1013EC001AC00EF01BC00FF034C010F035C011F055
:1013FC0036C012F0E6EC07F00DC034F00EC035F03C
:10140C000FC036F0120039C03BF03C6A3D6A3834EC
:10141C003B3601E33C803B50456E4550D8A409D087
:10142C00000E376E000E386E000E396E000E3A6EDE
:10143C001200170E3B6E37C03CF038C03DF039C07F
:10144C003EF03B283F6E04D0D8903E323D323C32C9
:10145C003F2EFAD73C50406E388EFF0E3716FF0EDB
:10146C003816000E39163750416E3850426E3950CE
:10147C00436E446A8E0E455E45AE16D04550800ACA
:10148C008F0FD8B009D0000E376E000E386E000EDC
:10149C00396E000E3A6E1200D8904432433242320A
:1014AC004132453EF9D715D0170E45640FD0000ECA
:1014BC00376E000E386E000E396E000E3A6E12004A
:1014CC00D890413642364336443645064550D8A46A
:1014DC00F7D74050D8B408D0441E431E421E416C6E
:1014EC00000E42224322442241C037F042C038F061
:1014FC0043C039F044C03AF012001BC01FF0206A00
:10150C00216A1A341F3601E320801F50226E2250AC
:10151C00D8A407D0000E196E000E1A6E000E1B6EAA
:10152C0012001EC01FF0206A216A1D341F3601E311
:10153C0020801F50276E2750D8A407D0000E196E9C
:10154C00000E1A6E000E1B6E120027507B0F222607
:10155C001BC027F01E50271A800E27161A8E1D8EC0
:10156C00FF0E1C16FF0E1D16000E1E16000E236E0F
:10157C00000E246E000E256E070E266E19A006D0E6
:10158C001C5023261D5024221E502522D8901B327D
:10159C001A321932D8901C361D361E36262EEED72E
:1015AC00090E266E19A006D01C5023261D5024228D
:1015BC001E502522D8901B321A321932D89025325F
:1015CC0024322332262EEED723C001F024C002F0A1
:1015DC0025C003F022C004F027C005F007EC0DF085
:1015EC0001C019F002C01AF003C01BF012002AC08F
:1015FC002EF02F6A306A29342E3601E32F802E50BC
:10160C00356E3550D8A407D0000E286E000E296E0A
:10161C00000E2A6E12002DC02EF02F6A306A2C3468
:10162C002E3601E32F802E50366E3650D8A407D0BC
:10163C00000E286E000E296E000E2A6E1200000E8F
:10164C00326E000E336E000E346E3650890F355EDE
:10165C002AC036F02D50361A800E3616298EFF0E03
:10166C002816FF0E2916000E2A162C8EFF0E2B168E
:10167C00FF0E2C16000E2D16180E316ED890323629
:10168C00333634362B50285C2C5029582D502A5880
:10169C00D8A007D02B50285E2C50295A2D502A5AEE
:1016AC003280D890283629362A36312EE7D732C0E8
:1016BC0001F033C002F034C003F035C004F036C082
:1016CC0005F007EC0DF001C028F002C029F003C0B2
:1016DC002AF0120050C001F051C002F052C003F0C9
:1016EC00560E046E000E056E5EEC0DF057AE10D06B
:1016FC0052AE07D0000E506E800E516EBF0E526E61
:10170C001200000E506E000E516E000E526E120042
:10171C00575004E1150E565CD8A007D050C050F0BD
:10172C0051C051F052C052F0120050C037F051C0AD
:10173C0038F052C039F009EC0AF037C046F038C026
:10174C0047F039C048F03AC049F030EC0EF046C0D2
:10175C0053F047C054F048C055F050C001F051C090
:10176C0002F052C003F053C004F054C005F055C051
:10177C0006F0A6EC0DF0D8B015D053C00DF054C047
:10178C000EF055C00FF0000E106E800E116EBF0ED5
:10179C00126EE6EC07F00DC050F00EC051F00FC009
:1017AC0052F0120053C050F054C051F055C052F0DA
:1017BC0012002DC001F02EC002F0000E046E030EBC
:1017CC00036E70EC0FF02BC02FF02CC030F00150DA
:1017DC002F26025030222FC0F6FF30C0F7FF090031
:1017EC00F5CF31F00900F5CF32F00A00F5CF33F028
:1017FC003ED031C01CF032C01DF033C01EF028C0EA
:10180C0019F029C01AF02AC01BF083EC0AF019C099
:10181C000DF01AC00EF01BC00FF0000E046E030E7C
:10182C00036E2D06D8A02E062DC001F02EC002F09E
:10183C0070EC0FF02BC02FF02CC030F001502F2685
:10184C00025030222FC0F6FF30C0F7FF0900F5CF51
:10185C0010F00900F5CF11F00A00F5CF12F0E6EC0C
:10186C0007F00DC031F00EC032F00FC033F02D5028
:10187C002E10D8A4BED731C028F032C029F033C006
:10188C002AF01200345035103610D8A407D0000EB0
:10189C00346E000E356E000E366E120036507F0B15
:1018AC00396E3A6AD89039363A36395037263A502A
:1018BC00382235AE03D0396A392A01D0396A395009
:1018CC003726000E382238AE0CD0000E0001EE6F19
:1018DC00220EED6F000E346E000E356E000E366E5D
:1018EC00120038BE16D03804D8A013D0000E000158
:1018FC00EE6F220EED6F36AE06D0FF0E346E7F0EFD
:10190C00356EFF0EECD7FF0E346E7F0E356E7F0EEC
:10191C00E6D7383438303A6E3730396E365039189D
:10192C00800B3918366E37C039F0010E3916393242
:10193C003932355039187F0B3918356E34C034F0C4
:10194C0035C035F036C036F01200EFC01CF0F0C0D8
:10195C001DF0F1C01EF049C019F04AC01AF04BC07E
:10196C001BF083EC0AF019C04CF01AC04DF01BC0F0
:10197C004EF0000E106E800E116EBF0E126E000E29
:10198C001C6E800E1D6E400E1E6E4CC019F04DC0AC
:10199C001AF04EC01BF083EC0AF019C02BF01AC0E1
:1019AC002CF01BC02DF046C028F047C029F048C0D1
:1019BC002AF0FDEC0AF028C00DF029C00EF02AC068
:1019CC000FF0E6EC07F00DC037F00EC038F00FC08A
:1019DC0039F009EC0AF03750CB6ECB5095EC0FF088
:1019EC0009C0EAF00AC0EBF00BC0ECF03F0EBD16DC
:1019FC00BA50F00B0C09BA6EBD50F00B0C09BD6E51
:101A0C0012000450D8B405D0015002100310D8A411
:101A1C000CD0000E016E000E026E000E036E120052
:101A2C00042AD890033202320132000E0114066EE1
:101A3C00000E0214076EFE0E0314086E06500710FB
:101A4C000810D8B40CD0ECD7042A010E0126000ED5
:101A5C000222000E0322D890033202320132000E11
:101A6C000114066E000E0214076EFF0E0314086EAE
:101A7C00065007100810D8B406D0E6D70406D89044
:101A8C0001360236033602BE03D0020E0460F6D7CE
:101A9C0004A0029ED8900432045003120550D8A41E
:101AAC00038E01C001F002C002F003C003F012006B
:101ABC00015002100310D8A40FD004C0D9FF05C0E8
:101ACC00DAFF000EDE6E000EDD6E000E016E000EF3
:101ADC00026E000E036E120003507F0B066E076A37
:101AEC00D8900636073604C0D9FF05C0DAFF06C009
:101AFC00DEFF07C0DDFF02AE03D0066A062A01D066
:101B0C00066A065004C0D9FF05C0DAFFDE12000ECB
:101B1C00DD1204C0D9FF05C0DAFF820EDE26FF0EEF
:101B2C00DD2203800382038403860388038A039CDB
:101B3C00029E01C001F002C002F003C003F01200CB
:101B4C0003AE16D001C007F002C008F003C009F0C4
:101B5C00071E081E091E072A000E08220922000E65
:101B6C000724016E000E0820026E800E0920036E01
:101B7C0006AE16D004C007F005C008F006C009F088
:101B8C00071E081E091E072A000E08220922000E35
:101B9C000724046E000E0820056E800E0920066EC8
:101BAC00000E011A000E021A800E031A000E041AFF
:101BBC00000E051A800E061A0450015C05500258DE
:101BCC0006500358D8B002D0D8901200D88012001A
:101BDC00000E066E04AE06D0036C041ED8B0042AA8
:101BEC00010E066E02AE06D0016C021ED8B0022A9F
:101BFC00010E061A000E086E000E076E035004103C
:101C0C00D8B41CD0010E056E04D0D890033604361F
:101C1C00052A04AEFAD7D890073608360350015C73
:101C2C0004500258D8A005D00350015E0450025A4B
:101C3C000780D89004320332052EEDD70650D8B465
:101C4C0004D0076C081ED8B0082A07C001F008C0E1
:101C5C0002F01200000E4F6E8E0E4E6E49AE11D079
:101C6C00491E481E471E466C000E47224822492238
:101C7C00010E4F6E06D0D890493248324732463268
:101C8C004E2A000E46144A6E000E47144B6E000E80
:101C9C0048144C6EFF0E49144D6E4A504B104C10AC
:101CAC004D10D8A4E8D746C001F047C002F048C098
:101CBC0003F04EC004F04FC005F007EC0DF001C06E
:101CCC0046F002C047F003C048F01200CA96CA980A
:101CDC00CA9ACA9C0FC009F010C00AF054EC0FF05D
:101CEC0009C0EFF00AC0F0F00BC0F1F00BD0FC0E05
:101CFC00CA161AD0CA50FC0B0109CA6E15D0030EB5
:101D0C00CA1212D00FC011F010C012F01250000AFB
:101D1C00D8A40AD01150010AD8B4E9D7050AD8B40E
:101D2C00E9D7140AD8B4EBD7CA96CA98CA9ACA9CEF
:101D3C000DB002D0CA9401D0CA841200D6EC0EF0B9
:101D4C00C180C182C184C1869290929296909692E3
:101D5C0094949492000E0E6E000E0D6E000E106E8A
:101D6C00100E0F6E6CEC0EF01B0E466E370E476E9F
:101D7C004C0E486E400E496E9C0E4A6E450E4B6ED4
:101D8C00ABEC0CF0000E5C6E190E5B6E87EC05F084
:101D9C00000E5C6E230E5B6E1EEC04F0CA84FFD743
:101DAC00F29EF29CD58ED58CD59AD596D550F80B43
:101DBC000409D56EF294C180C182C184C186070E1C
:101DCC00C26EC290C08EC050F80B0609C06EC050D7
:101DDC00C70B2809C06E9282C050F80B0609C06E62
:101DEC00C19AC198C08EC2909D9C9E9CC086C08892
:101DFC00C08AC2829E9A000E956E000E806E1200F2
:101E0C008E0E116E06D0D8900C320B320A3209327B
:101E1C00112A000E09140D6E000E0A140E6E000E1F
:101E2C000B140F6EFF0E0C14106E0D500E100F10C5
:101E3C001010D8A4E8D709C001F00AC002F00BC0FA
:101E4C0003F011C004F0000E056E07EC0DF001C09C
:101E5C0009F002C00AF003C00BF012001C501D1058
:101E6C001E10D8B406D0000E1C1A000E1D1A800EBF
:101E7C001E1A19C00DF01AC00EF01BC00FF01CC0BA
:101E8C0010F01DC011F01EC012F0E6EC07F00DC0F2
:101E9C0019F00EC01AF00FC01BF01200000E0C6EE1
:101EAC000AAE06D0096C0A1ED8B00A2A010E0C6EB6
:101EBC0009C001F00AC002F0036A8E0E046E0CC059
:101ECC0005F007EC0DF001C009F002C00AF003C0E8
:101EDC000BF0120001500302F3CF05F0F4CF06F023
:101EEC0001500402F350062602500302F35006265A
:101EFC0005C001F006C002F01200015002100310E0
:101F0C00D8B406D0000E011A000E021A800E031A65
:101F1C0001C001F002C002F003C003F012000C6E0D
:101F2C000C50016E026A036A8E0E046E000E056E72
:101F3C0007EC0DF001C009F002C00AF003C00BF071
:101F4C00120000EEAEF0410EEE6AE806FDE1000E66
:081F5C00F86E0001A4EF0EF085
:020000040020DA
:08000000FFFFFFFFFFFFFFFF00
:020000040030CA
:0E000000010E1F1EFF8381FF0FC00FE00F4097
:00000001FF
