:0400000030EF10F0DD
:100800000000803F72313FFE753E58633D951D3CB0
:10081000C5AE3A79213994803793A73556153400FF
:10082000000000803FF0FFBEE2A93E8376BEAE2B03
:0B0830003E3CC3BDD2133D78D3BB009B
:10083C005BC009F05CC00AF0AAEC0FF009C010F024
:10084C000AC011F00BC012F0000E2E6E800E2F6E2F
:10085C003F0E306EEAC02BF0EBC02CF0ECC02DF04C
:10086C00E6EC07F02BC00DF02CC00EF02DC00FF0F5
:10087C0083EC0AF00DC095F00EC096F00FC097F007
:10088C00000E1F6EC80E206E420E216E000E106EF2
:10089C00800E116E400E126E95C00DF096C00EF0CB
:1008AC0097C00FF083EC0AF00DC01CF00EC01DF0C9
:1008BC000FC01EF0FDEC0AF01CC037F01DC038F064
:1008CC001EC039F009EC0AF037C098F038C099F026
:1008DC0020EEAEF010EE77F01D0EDBCFE3FFE80656
:1008EC00FCE298C0AAF099C0ABF0000E00019B6F1F
:1008FC00000E9A6F000E9D6F000E9C6F000EA96F7C
:10090C00000EA86F000EA76F000EA66F24D0010E6C
:10091C00AA155D6E000EAB155E6ED8909A35D96E29
:10092C009B35DA6E770ED926000EDA225DC0DEFF1B
:10093C005EC0DDFFAAC001F0ABC002F0000E046E79
:10094C00020E036E50EC0EF001C0AAF002C0ABF028
:10095C0000019A4B9B2BABBF05D0AB51D8E1AA053C
:10096C00D8B0D5D7000EAD6F000EAC6FADBF06D0B2
:10097C00AD5159E1020EAC5DD8B055D0ACC009F008
:10098C00ADC00AF0AAEC0FF009C09EF00AC09FF0AF
:10099C000BC0A0F09EC069F09FC06AF0A0C06BF0C5
:1009AC00000E0001666F000E676F400E686FBCECA6
:1009BC0008F066C0A1F067C0A2F068C0A3F0A1C0A7
:1009CC0010F0A2C011F0A3C012F0D8900001AC3509
:1009DC00D96EAD35DA6E770ED926000EDA22DECF5F
:1009EC0009F0DDCF0AF0AAEC0FF009C00DF00AC037
:1009FC000EF00BC00FF083EC0AF00DC037F00EC0F8
:100A0C0038F00FC039F009EC0AF037C0A4F038C048
:100A1C00A5F00001A851A425A86FA951A521A96F83
:100A2C00AC4BAD2BA3D7000EAD6F020EAC6FADBFB0
:100A3C0006D0AD515BE10A0EAC5DD8B057D09CC06E
:100A4C0009F09DC00AF0AAEC0FF009C09EF00AC094
:100A5C009FF00BC0A0F09EC069F09FC06AF0A0C0D0
:100A6C006BF0000E0001666F000E676F400E686F32
:100A7C00BCEC08F066C0A1F067C0A2F068C0A3F09F
:100A8C00A1C010F0A2C011F0A3C012F0D8900001C8
:100A9C00AC35D96EAD35DA6E770ED926000EDA226A
:100AAC00DECF09F0DDCF0AF0AAEC0FF009C00DF093
:100ABC000AC00EF00BC00FF083EC0AF00DC037F03B
:100ACC000EC038F00FC039F009EC0AF037C0A4F0B2
:100ADC0038C0A5F00001A651A425A66FA751A521E9
:100AEC00A76F9C4B9D2BAC4BAD2BA1D7A8C05DF039
:100AFC005D3ABA505D18CF0B5D18BA6EA6C0BBFF3D
:100B0C0012005BC009F05CC00AF0AAEC0FF009C03F
:100B1C0010F00AC011F00BC012F0000E2E6E800EF9
:100B2C002F6E3F0E306EEAC02BF0EBC02CF0ECC0F9
:100B3C002DF0E6EC07F02BC00DF02CC00EF02DC004
:100B4C000FF083EC0AF00DC095F00EC096F00FC0BC
:100B5C0097F0000E1F6EC80E206E420E216E000E16
:100B6C00106E800E116E400E126E95C00DF096C078
:100B7C000EF097C00FF083EC0AF00DC01CF00EC005
:100B8C001DF00FC01EF0FDEC0AF01CC037F01DC0AC
:100B9C0038F01EC039F009EC0AF037C098F038C0B4
:100BAC0099F020EECCF010EE77F01D0EDBCFE3FFCA
:100BBC00E806FCE298C0AAF099C0ABF0000E000168
:100BCC009B6F000E9A6F000E9D6F000E9C6F000EB7
:100BDC00A96F000EA86F000EA76F000EA66F24D091
:100BEC00010EAA155D6E000EAB155E6ED8909A358F
:100BFC00D96E9B35DA6E770ED926000EDA225DC0DF
:100C0C00DEFF5EC0DDFFAAC001F0ABC002F0000E3B
:100C1C00046E020E036E50EC0EF001C0AAF002C07E
:100C2C00ABF000019A4B9B2BABBF05D0AB51D8E17D
:100C3C00AA05D8B0D5D7000EAD6F000EAC6FADBF06
:100C4C0006D0AD5159E1020EAC5DD8B055D0ACC058
:100C5C0009F0ADC00AF0AAEC0FF009C09EF00AC072
:100C6C009FF00BC0A0F09EC069F09FC06AF0A0C0BE
:100C7C006BF0000E0001666F000E676F400E686F20
:100C8C00BCEC08F066C0A1F067C0A2F068C0A3F08D
:100C9C00A1C010F0A2C011F0A3C012F0D8900001B6
:100CAC00AC35D96EAD35DA6E770ED926000EDA2258
:100CBC00DECF09F0DDCF0AF0AAEC0FF009C00DF081
:100CCC000AC00EF00BC00FF083EC0AF00DC037F029
:100CDC000EC038F00FC039F009EC0AF037C0A4F0A0
:100CEC0038C0A5F00001A851A425A86FA951A521D1
:100CFC00A96FAC4BAD2BA3D7000EAD6F020EAC6F32
:100D0C00ADBF06D0AD515BE10A0EAC5DD8B057D08B
:100D1C009CC009F09DC00AF0AAEC0FF009C09EF02F
:100D2C000AC09FF00BC0A0F09EC069F09FC06AF093
:100D3C00A0C06BF0000E0001666F000E676F400ED6
:100D4C00686FBCEC08F066C0A1F067C0A2F068C088
:100D5C00A3F0A1C010F0A2C011F0A3C012F0D89063
:100D6C000001AC35D96EAD35DA6E770ED926000E92
:100D7C00DA22DECF09F0DDCF0AF0AAEC0FF009C0C1
:100D8C000DF00AC00EF00BC00FF083EC0AF00DC092
:100D9C0037F00EC038F00FC039F009EC0AF037C04C
:100DAC00A4F038C0A5F00001A651A425A66FA75148
:100DBC00A521A76F9C4B9D2BAC4BAD2BA1D7A8C0ED
:100DCC005DF05D3ABD505D18CF0B5D18BD6EA6C0D1
:100DDC00BEFF1200585059105A10D8A407D0000E5C
:100DEC00586E800E596E3F0E5A6E1200720E016EC6
:100DFC00310E026E440E036E58C004F059C005F05B
:100E0C005AC006F008EC0EF0D8B00CD0000E000161
:100E1C00EE6F220EED6FFF0E586E7F0E596E7F0E29
:100E2C005A6E120058C001F059C002F05AC003F0BB
:100E3C00490E046E3A0E056EC40E066E08EC0EF0EA
:100E4C00D8B00CD0000E0001EE6F220EED6F000E2C
:100E5C00586E000E596E000E5A6E12005AAE02D029
:100E6C00010E01D0000E0001656F6551D8B40ED093
:100E7C0058C001F059C002F05AC003F0EBEC0FF06F
:100E8C0001C058F002C059F003C05AF058C00DF020
:100E9C0059C00EF05AC00FF0AA0E106EB80E116E9B
:100EAC003F0E126E83EC0AF00DC058F00EC059F0D4
:100EBC000FC05AF058C050F059C051F05AC052F0FF
:100ECC0070EC0BF050C060F051C061F052C062F099
:100EDC0060C037F061C038F062C039F009EC0AF03C
:100EEC0037C063F038C064F058C037F059C038F0E0
:100EFC005AC039F063C009F064C00AF0AAEC0FF0D4
:100F0C0009C03AF00AC03BF00BC03CF08AEC0FF081
:100F1C0037C058F038C059F039C05AF058C037F0C3
:100F2C0059C038F05AC039F0010E3A6E080E3B6EBB
:100F3C00000E3D6E090E3C6EDFEC0BF037C043F03B
:100F4C0038C044F039C045F063C046F064C047F087
:100F5C0048EC0CF043C058F044C059F045C05AF06E
:100F6C0000016551D8B425D058280EE17F0E5918D0
:100F7C000BE17F0E5A18D8A407D0000E586E000E45
:100F8C00596E000E5A6E1200000E1C6E800E1D6EF5
:100F9C003F0E1E6E58C01FF059C020F05AC021F0F1
:100FAC00FDEC0AF01CC058F01DC059F01EC05AF0E0
:100FBC00120058C058F059C059F05AC05AF01200DB
:100FCC002DC031F0326A336A2C34313601E3328071
:100FDC003150366E30C031F0326A336A2F343136CC
:100FEC0001E332803150356E3650D8B40BD03550C9
:100FFC00365CD8B00ED0365000083524316E180E41
:10100C00316407D02EC02BF02FC02CF030C02DF047
:10101C0012003550D8B40BD03650355CD8B00ED049
:10102C00355000083624316E180E316407D02BC0B1
:10103C002BF02CC02CF02DC02DF01200060E346EAF
:10104C002DBE348E30BE348C2C8EFF0E2B16FF0E24
:10105C002C16000E2D162F8EFF0E2E16FF0E2F1691
:10106C00000E30163550365CD8B01BD0D8902E36CA
:10107C002F363036350636503518D8B40DD03406E8
:10108C0034C031F0070E3116D8B406D0EFD7D89053
:10109C002D322C322B32362A35503618D8B41FD07C
:1010AC00F6D73650355CD8B01AD0D8902B362C36B3
:1010BC002D36360636503518D8B40DD0340634C01B
:1010CC0031F0070E3116D8B406D0EFD7D8903032A5
:1010DC002F322E32352A35503618D8A4F7D734AEE5
:1010EC000CD0FF0E2B1AFF0E2C1AFF0E2D1A010E10
:1010FC002B26000E2C22000E2D2234AC0CD0FF0E11
:10110C002E1AFF0E2F1AFF0E301A010E2E26000E6D
:10111C002F22000E3022000E346E2B502E262C5017
:10112C002F222D50302230AE0ED0FF0E2E1AFF0E75
:10113C002F1AFF0E301A010E2E26000E2F22000E33
:10114C003022010E346E2EC001F02FC002F030C0E0
:10115C0003F036C004F034C005F069EC0DF001C0AA
:10116C002BF002C02CF003C02DF01200000E000179
:10117C00726F665167116811D8A41DD0000E016EF4
:10118C00000E026E000E036E69C004F06AC005F01A
:10119C006BC006F008EC0EF0D8A005D0000E0001D4
:1011AC00EE6F210EED6F000E0001666F000E676F83
:1011BC00000E686F120069516A116B11D8A407D028
:1011CC00000E666F800E676F3F0E686F120068AF7F
:1011DC0041D069C037F06AC038F06BC039F009EC07
:1011EC000AF037C073F038C074F039C075F03AC0EB
:1011FC0076F073C009F074C00AF075C00BF076C0BD
:10120C000CF036EC0FF000016951091807E16A5136
:10121C000A1804E16B510B18D8B40BD0000EEE6F0A
:10122C00210EED6F000E666F000E676F000E686F7B
:10123C0012007351010B726F66C001F067C002F0AF
:10124C0068C003F0EBEC0FF001C066F002C067F071
:10125C0003C068F066C043F067C044F068C045F056
:10126C007AEC09F043C06CF044C06DF045C06EF0F0
:10127C006CC00DF06DC00EF06EC00FF069C010F0B8
:10128C006AC011F06BC012F083EC0AF00DC06FF065
:10129C000EC070F00FC071F06FC058F070C059F0F4
:1012AC0071C05AF0F0EC06F058C066F059C067F007
:1012BC005AC068F000017251D8B40FD066C001F06A
:1012CC0067C002F068C003F0EBEC0FF001C066F0F1
:1012DC0002C067F003C068F0120066C066F067C019
:1012EC0067F068C068F0120045AE0CD0000E00012B
:1012FC00EE6F210EED6F000E436E000E446E000E6D
:10130C00456E1200435044104510D8A40CD0000E6A
:10131C000001EE6F220EED6F000E436E000E446E58
:10132C00000E456E1200000E106E000E116E400E77
:10133C00126E460E046E000E056E43C001F044C0E2
:10134C0002F045C003F0C0EC0DF001C00DF002C07E
:10135C000EF003C00FF083EC0AF00DC02BF00EC0A2
:10136C002CF00FC02DF0000E2E6E800E2F6EBF0EC7
:10137C00306EE6EC07F02BC043F02CC044F02DC0CF
:10138C0045F04606D8A0470643C037F044C038F0B5
:10139C0045C039F01F0E3A6E080E3B6E000E3D6EC6
:1013AC00080E3C6EDFEC0BF037C043F038C044F055
:1013BC0039C045F0720E106E310E116E3F0E126E6A
:1013CC0046C009F047C00AF0AAEC0FF009C00DF0B6
:1013DC000AC00EF00BC00FF083EC0AF00DC02BF01E
:1013EC000EC02CF00FC02DF043C02EF044C02FF0D7
:1013FC0045C030F0E6EC07F02BC043F02CC044F0B5
:10140C002DC045F0120039C03BF03C6A3D6A3834BF
:10141C003B3601E33C803B50456E4550D8A409D087
:10142C00000E376E000E386E000E396E000E3A6EDE
:10143C001200170E3B6E37C03CF038C03DF039C07F
:10144C003EF03B283F6E04D0D8903E323D323C32C9
:10145C003F2EFAD73C50406E388EFF0E3716FF0EDB
:10146C003816000E39163750416E3850426E3950CE
:10147C00436E446A8E0E455E45AE16D04550800ACA
:10148C008F0FD8B009D0000E376E000E386E000EDC
:10149C00396E000E3A6E1200D8904432433242320A
:1014AC004132453EF9D715D0170E45640FD0000ECA
:1014BC00376E000E386E000E396E000E3A6E12004A
:1014CC00D890413642364336443645064550D8A46A
:1014DC00F7D74050D8B408D0441E431E421E416C6E
:1014EC00000E42224322442241C037F042C038F061
:1014FC0043C039F044C03AF012000FC013F0146A24
:10150C00156A0E34133601E314801350166E165000
:10151C00D8A407D0000E0D6E000E0E6E000E0F6ECE
:10152C00120012C013F0146A156A1134133601E359
:10153C00148013501B6E1B50D8A407D0000E0D6ED8
:10154C00000E0E6E000E0F6E12001B507B0F162637
:10155C000FC01BF012501B1A800E1B160E8E118E14
:10156C00FF0E1016FF0E1116000E1216000E176E3F
:10157C00000E186E000E196E070E1A6E0DA006D016
:10158C00105017261150182212501922D8900F32D1
:10159C000E320D32D8901036113612361A2EEED776
:1015AC00090E1A6E0DA006D01050172611501822D5
:1015BC0012501922D8900F320E320D32D8901932A7
:1015CC00183217321A2EEED717C001F018C002F0DD
:1015DC0019C003F016C004F01BC005F069EC0DF047
:1015EC0001C00DF002C00EF003C00FF012001EC0BF
:1015FC0022F0236A246A1D34223601E32380225010
:10160C00296E2950D8A407D0000E1C6E000E1D6E3A
:10161C00000E1E6E120021C022F0236A246A2034B0
:10162C00223601E3238022502A6E2A50D8A407D0F8
:10163C00000E1C6E000E1D6E000E1E6E1200000EB3
:10164C00266E000E276E000E286E2A50890F295E1A
:10165C001EC02AF021502A1A800E2A161D8EFF0E4B
:10166C001C16FF0E1D16000E1E16208EFF0E1F16CA
:10167C00FF0E2016000E2116180E256ED890263659
:10168C00273628361F501C5C20501D5821501E58E0
:10169C00D8A007D01F501C5E20501D5A21501E5A36
:1016AC002680D8901C361D361E36252EE7D726C030
:1016BC0001F027C002F028C003F029C004F02AC0B2
:1016CC0005F069EC0DF001C01CF002C01DF003C068
:1016DC001EF0120050C001F051C002F052C003F0D5
:1016EC00560E046E000E056EC0EC0DF057AE10D009
:1016FC0052AE07D0000E506E800E516EBF0E526E61
:10170C001200000E506E000E516E000E526E120042
:10171C00575004E1150E565CD8A007D050C050F0BD
:10172C0051C051F052C052F0120050C037F051C0AD
:10173C0038F052C039F009EC0AF037C046F038C026
:10174C0047F039C048F03AC049F092EC0EF046C070
:10175C0053F047C054F048C055F050C001F051C090
:10176C0002F052C003F053C004F054C005F055C051
:10177C0006F008EC0EF0D8B015D053C02BF054C0C6
:10178C002CF055C02DF0000E2E6E800E2F6EBF0E5D
:10179C00306EE6EC07F02BC050F02CC051F02DC091
:1017AC0052F0120053C050F054C051F055C052F0DA
:1017BC0012003CC001F03DC002F0000E046E030E9E
:1017CC00036EC6EC0FF03AC03EF03BC03FF0015048
:1017DC003E2602503F223EC0F6FF3FC0F7FF0900F5
:1017EC00F5CF40F00900F5CF41F00A00F5CF42F0FB
:1017FC003ED040C010F041C011F042C012F037C0D2
:10180C000DF038C00EF039C00FF083EC0AF00DC0AB
:10181C002BF00EC02CF00FC02DF0000E046E030E3A
:10182C00036E3C06D8A03D063CC001F03DC002F062
:10183C00C6EC0FF03AC03EF03BC03FF001503E26E4
:10184C0002503F223EC0F6FF3FC0F7FF0900F5CF24
:10185C002EF00900F5CF2FF00A00F5CF30F0E6ECB2
:10186C0007F02BC040F02CC041F02DC042F03C5092
:10187C003D10D8A4BED740C037F041C038F042C0AC
:10188C0039F01200435044104510D8A407D0000E74
:10189C00436E000E446E000E456E120045507F0BD9
:1018AC00486E496AD89048364936485046264950C1
:1018BC00472244AE03D0486A482A01D0486A4850AF
:1018CC004626000E472247AE0CD0000E0001EE6FEC
:1018DC00220EED6F000E436E000E446E000E456E30
:1018EC00120047BE16D04704D8A013D0000E00013A
:1018FC00EE6F220EED6F45AE06D0FF0E436E7F0EDF
:10190C00446EFF0EECD7FF0E436E7F0E446E7F0EBF
:10191C00E6D747344730496E4630486E4550481834
:10192C00800B4818456E46C048F0010E48164832E8
:10193C004832445048187F0B4818446E43C043F05B
:10194C0044C044F045C045F0120006EC0FF0C180D5
:10195C00C182C184C1869290929296909692938AFB
:10196C009388938694949492000E0E6E000E0D6ED6
:10197C00000E106E100E0F6ECEEC0EF01B0E466E9F
:10198C00370E476E4C0E486E600E496E6A0E4A6EEC
:10199C00460E4B6E0DEC0DF0CA8481A681B805D0B5
:1019AC0081BA03D00EEC10F0F8D781A681B806D01E
:1019BC0081AA04D0030E64EC0FF0EFD781A681A8A6
:1019CC0005D081BA03D01FEC10F0E7D781A681A80F
:1019DC0005D081AA03D01FEC10F0DFD781B681B8F7
:1019EC0006D081BA04D0010E64EC0FF0D6D781B6C4
:1019FC0081A805D081BA03D01FEC10F0CED781B6E8
:101A0C0081A8CBD781AAC9D7FDEC0FF0C6D7EFC000
:101A1C0010F0F0C011F0F1C012F049C00DF04AC046
:101A2C000EF04BC00FF083EC0AF00DC04CF00EC062
:101A3C004DF00FC04EF0000E2E6E800E2F6EBF0EAE
:101A4C00306E000E106E800E116E400E126E4CC079
:101A5C000DF04DC00EF04EC00FF083EC0AF00DC02F
:101A6C001FF00EC020F00FC021F046C01CF047C084
:101A7C001DF048C01EF0FDEC0AF01CC02BF01DC080
:101A8C002CF01EC02DF0E6EC07F02BC037F02CC06C
:101A9C0038F02DC039F009EC0AF03750CB6ECB5032
:101AAC00D9EC0FF009C0EAF00AC0EBF00BC0ECF077
:101ABC003F0EBD16BA50F00B0C09BA6EBD50F00BB0
:101ACC000C09BD6E12000450D8B405D001500210A0
:101ADC000310D8A40CD0000E016E000E026E000E86
:101AEC00036E1200042AD890033202320132000E27
:101AFC000114066E000E0214076EFE0E0314086E1F
:101B0C00065007100810D8B40CD0ECD7042A010EDC
:101B1C000126000E0222000E0322D890033202325C
:101B2C000132000E0114066E000E0214076EFF0E39
:101B3C000314086E065007100810D8B406D0E6D768
:101B4C000406D89001360236033602BE03D0020ECC
:101B5C000460F6D704A0029ED890043204500312FD
:101B6C000550D8A4038E01C001F002C002F003C0DE
:101B7C0003F01200015002100310D8A40FD004C0BF
:101B8C00D9FF05C0DAFF000EDE6E000EDD6E000E12
:101B9C00016E000E026E000E036E120003507F0BDE
:101BAC00066E076AD8900636073604C0D9FF05C002
:101BBC00DAFF06C0DEFF07C0DDFF02AE03D0066A07
:101BCC00062A01D0066A065004C0D9FF05C0DAFF08
:101BDC00DE12000EDD1204C0D9FF05C0DAFF820E42
:101BEC00DE26FF0EDD220380038203840386038836
:101BFC00038A039C029E01C001F002C002F003C0E4
:101C0C0003F0120003AE16D001C007F002C008F0BA
:101C1C0003C009F0071E081E091E072A000E082221
:101C2C000922000E0724016E000E0820026E800EA1
:101C3C000920036E06AE16D004C007F005C008F0EC
:101C4C0006C009F0071E081E091E072A000E0822EE
:101C5C000922000E0724046E000E0820056E800E6B
:101C6C000920066E000E011A000E021A800E031ACD
:101C7C00000E041A000E051A800E061A0450015CA0
:101C8C000550025806500358D8B002D0D890120014
:101C9C00D8801200000E066E04AE06D0036C041E33
:101CAC00D8B0042A010E066E02AE06D0016C021EDC
:101CBC00D8B0022A010E061A000E086E000E076E2E
:101CCC0003500410D8B41CD0010E056E04D0D8906B
:101CDC0003360436052A04AEFAD7D89007360836F0
:101CEC000350015C04500258D8A005D00350015E8B
:101CFC000450025A0780D89004320332052EEDD7D7
:101D0C000650D8B404D0076C081ED8B0082A07C0F7
:101D1C0001F008C002F01200000E4F6E8E0E4E6ED7
:101D2C0049AE11D0491E481E471E466C000E472274
:101D3C0048224922010E4F6E06D0D89049324832C3
:101D4C00473246324E2A000E46144A6E000E471495
:101D5C004B6E000E48144C6EFF0E49144D6E4A50DB
:101D6C004B104C104D10D8A4E8D746C001F047C01A
:101D7C0002F048C003F04EC004F04FC005F069EC0F
:101D8C000DF001C046F002C047F003C048F012004D
:101D9C00CA96CA98CA9ACA9C0FC009F010C00AF019
:101DAC00AAEC0FF009C0EFF00AC0F0F00BC0F1F094
:101DBC000BD0FC0ECA161AD0CA50FC0B0109CA6E05
:101DCC0015D0030ECA1212D00FC011F010C012F0B1
:101DDC001250000AD8A40AD01150010AD8B4E9D77D
:101DEC00050AD8B4E9D7140AD8B4EBD7CA96CA985E
:101DFC00CA9ACA9C0DB002D0CA9401D0CA841200EF
:101E0C00F29EF29CD58ED58CD59AD596D550F80BE2
:101E1C000409D56EF294C180C182C184C186070EBB
:101E2C00C26EC290C08EC050F80B0609C06EC05076
:101E3C00C70B2809C06E9282C050F80B0609C06E01
:101E4C00C19AC198C08EC2909D9C9E9CC086C08831
:101E5C00C08AC2829E9A000E956E000E806E120091
:101E6C008E0E116E06D0D8900C320B320A3209321B
:101E7C00112A000E09140D6E000E0A140E6E000EBF
:101E8C000B140F6EFF0E0C14106E0D500E100F1065
:101E9C001010D8A4E8D709C001F00AC002F00BC09A
:101EAC0003F011C004F0000E056E69EC0DF001C0DA
:101EBC0009F002C00AF003C00BF012005F6E5F0461
:101ECC00D8A404D0898089928D9210D0020E5F180C
:101EDC00D8A405D0898089928D928D8008D0030E6C
:101EEC005F18D8A404D0899089928D828D90000EB1
:101EFC005C6E640E5B6E87EC05F0000E5C6E640E1F
:101F0C005B6E1EEC04F012003A503B103C10D8B43F
:101F1C0006D0000E3A1A000E3B1A800E3C1A37C03F
:101F2C002BF038C02CF039C02DF03AC02EF03BC04D
:101F3C002FF03CC030F0E6EC07F02BC037F02CC093
:101F4C0038F02DC039F01200000E0C6E0AAE06D01F
:101F5C00096C0A1ED8B00A2A010E0C6E09C001F0D9
:101F6C000AC002F0036A8E0E046E0CC005F069EC18
:101F7C000DF001C009F002C00AF003C00BF0120012
:101F8C0001500302F3CF05F0F4CF06F00150040228
:101F9C00F350062602500302F350062605C001F04A
:101FAC0006C002F012000C6E0C50016E026A036A3D
:101FBC008E0E046E000E056E69EC0DF001C009F07A
:101FCC0002C00AF003C00BF0120001500210031003
:101FDC00D8B406D0000E011A000E021A800E031A95
:101FEC0001C001F002C002F003C003F0120089909E
:101FFC0089928D928D90000E5C6E000E5B6E87EC5C
:10200C0005F0000E5C6E000E5B6E1EEC04F0120010
:10201C008D828D9089808992000E5C6E500E5B6E65
:10202C0087EC05F0000E5C6E500E5B6E1EEC04F03F
:10203C0012008D828D9089808992000E5C6E640EE8
:10204C005B6E87EC05F0000E5C6E640E5B6E1EEC36
:10205C0004F0120000EEAEF0410EEE6AE806FDE16F
:0A206C00000EF86E0001ABEF0CF05F
:020000040020DA
:08000000FFFFFFFFFFFFFFFF00
:020000040030CA
:0E000000010E1F1EFF8381FF0FC00FE00F4097
:00000001FF
