:0400000007EF00F016
:0A0008004D82A3ED11F08DEF15F00D
:1008000000010000000A00000064000000E803008E
:100810000010270000A086010040420F008096983B
:100820000000E1F50500CA9A3B00803F002041002E
:10083000C842007A44401C4650C347247449971864
:100840004BBCBE4C6B6E4E03155079AD60F34971D5
:1008500000803FCDCC3DD7233C12833AB7D138C678
:100860002737388635C0D633CC2B32708930E7DB5A
:100870002EE53C1E42A20D76313D2025302E3266FB
:0308800020000055
:10088400750E0001816F000E826FD8EF08F0250EFF
:100894009619D8B408D071C0D9FF72C0DAFF96C0D7
:1008A400DFFFD6EF08F0000E906F000E8F6F000E82
:1008B4008E6F000E8D6F04D000018D85734B742BE9
:1008C40073C0F6FF74C0F7FF0800F550300AD8B4BF
:1008D400F3D773C0F6FF74C0F7FF0800F55060EC5F
:1008E40015F0D8A034D0000E0001906F000E8F6F69
:1008F4008FC021F090C022F0000E246E0A0E236EE9
:1009040018EC15F021C08FF022C090F0D00E000139
:10091400786FFF0E796F73C0F6FF74C0F7FF08009D
:10092400F5507A6F7B6B78517A2779517B237A5112
:100934008F277B519023734B742B73C0F6FF74C0C5
:10094400F7FF0800F55060EC15F0D8B0D1D773C0AC
:10095400F6FF74C0F7FF0800F5502E0AD8A430D073
:1009640000018E8D734B742B000E956F000E946FE7
:100974001CD094C021F095C022F0000E246E0A0E03
:10098400236E18EC15F073C0F6FF74C0F7FF08006F
:10099400F5502126000E2222D00E21240001946F4E
:1009A400FF0E2220956F734B742B73C0F6FF74C037
:1009B400F7FF0800F55060EC15F0D8A00AD0D9D79D
:1009C400000E0001956F000E946F8E8902D08E8503
:1009D40012D073C0F6FF74C0F7FF0001734B742B81
:1009E4000800F5CF96F09651000AD8B4ECD3660A05
:1009F400D8B4EDD7DBD3070E8E15D8B428D38EA97F
:100A040004D0000E956F060E946F81C0D9FF82C08A
:100A1400DAFFDECF91F0DECF92F0DDCF93F0030E5C
:100A24008127000E822393AF11D091C013F092C09E
:100A340014F093C015F02BEC15F013C091F014C012
:100A440092F015C093F0030E00018D13000E8C6F0D
:100A5400000E8B6F915192119311D8B486D0820EEF
:100A6400786FFF0E796F91C07AF092C07BF093C0DB
:100A74007CF094C07DF0100E05D0D8907D337C338B
:100A84007B337A33E82EF9D77A5178258B6F000EB1
:100A940079218C6F8B07D8A08C078BC021F08CC078
:100AA40022F0000E246E030E236E18EC15F021C004
:100AB4008BF022C08CF08BC019F08CC01AF0000EA1
:100AC4001C6E0A0E1B6E01EC13F019C08BF01AC0D9
:100AD4008CF000018CAF03D08B07D8A08C078B510E
:100AE4000008ECEC08F036C087F037C088F038C056
:100AF40089F087C027F088C028F089C029F091C008
:100B04002AF092C02BF093C02CF0DAEC0FF027C03F
:100B140087F028C088F029C089F087C013F088C006
:100B240014F089C015F0000E166E800E176E3F0E7D
:100B3400186EB9EC12F0D8B005D000018B07D8A01C
:100B44008C0713D087C013F088C014F089C015F047
:100B5400000E166E200E176E410E186EB9EC12F0D0
:100B6400D8A003D000018B4B8C2B000195BF06D07D
:100B740095511BE10D0E945DD8B017D091C060F073
:100B840092C061F093C062F09451F0EC0AF036C068
:100B940063F037C064F038C065F019EC0CF060C045
:100BA40091F061C092F062C093F000018CBF06D056
:100BB4008C5120E10A0E8B5DD8B01CD0915192115A
:100BC4009311D8B456D091C03FF092C040F093C076
:100BD40041F05EEC0FF03F50401041104210D8A499
:100BE40048D000018CBF45D08C5104E1020E8B5DCE
:100BF400D8A03FD087C013F088C014F089C015F086
:100C0400700E166E890E176E400E186EB9EC12F047
:100C1400D8B003D00001F70E02D00001F80E8B27E4
:100C2400FF0E8C238B51ECEC08F036C087F037C0F4
:100C340088F038C089F091C013F092C014F093C0CA
:100C440015F087C016F088C017F089C018F0A9EC19
:100C54000DF013C083F014C084F015C085F016C0E5
:100C640086F0000E0001916F000E926F000E936FDC
:100C740033D091C03FF092C040F093C041F05EEC9D
:100C84000FF03FC083F040C084F041C085F042C003
:100C940086F091C069F092C06AF093C06BF083C093
:100CA4001BF084C01CF085C01DF086C01EF095ECBE
:100CB40014F01BC06CF01CC06DF01DC06EF0C3ECD2
:100CC40014F069C091F06AC092F06BC093F0000E0A
:100CD40000018C6F000E8B6F010E966F0A0E961931
:100CE400D8B418D09651040D010EF324F66E080EF4
:100CF400F420F76E0900F550835D0900F55084591E
:100D04000900F55085590900F5508659D8A002D03C
:100D1400962BE4D796C078F0796B78BF7907945115
:100D24007827955179238B5178278C5179237851E1
:100D34008F5F7951905B94519511D8B403D08F078C
:100D4400D8A09007030E8D15786F000E8E15796F5D
:100D540078517911D8B403D08F07D8A090078DA506
:100D640031D0030E8D15786F000E8E15796F785182
:100D74007911D8B414D071C0D9FF72C0DAFF2D0E26
:100D8400DF6E714B722B0BD071C0D9FF72C0DAFFCA
:100D9400300EDF6E714B722B8F07D8A0900790BF77
:100DA40072D09051F1E18F05D8A06DD0EDD771C00C
:100DB400D9FF72C0DAFF200EDF6E714B722B8F07E2
:100DC400D8A0900790BF05D09051F1E18F05D8B01D
:100DD400EED7030E8D15786F000E8E15796F78514E
:100DE4007911D8B450D071C0D9FF72C0DAFF2D0E7A
:100DF40047D083C013F084C014F085C015F086C0BA
:100E040016F09651040D010EF324F66E080EF4202C
:100E1400F76E0900F5CF17F00900F5CF18F00900B7
:100E2400F5CF19F00A00F5CF1AF043EC13F013C014
:100E340087F014C088F015C089F016C08AF087C006
:100E440013F088C014F089C015F08AC016F00A0E99
:100E5400176E000E186E000E196E000E1A6E62ECFC
:100E640014F013C087F014C088F015C089F016C0C0
:100E74008AF000018751300F71C0D9FF72C0DAFFC8
:100E8400DF6E714B722B96079629D8B40CD0B1D76C
:100E940071C0D9FF72C0DAFF300EDF6E714B722B56
:100EA4008B07D8A08C078CBF05D08C51F1E18B0542
:100EB400D8B0EED795BF09D0955104E1090E945DE1
:100EC400D8A003D0080E966F02D094C096F0965125
:100ED400945F000E96BFFF0E955B9651D8B408D070
:100EE40071C0D9FF72C0DAFF2E0EDF6E714B722B08
:100EF4009651ECEC08F036C07EF037C07FF038C075
:100F040080F091C02AF092C02BF093C02CF07EC0E8
:100F140027F07FC028F080C029F0DAEC0FF027C05A
:100F24003FF028C040F029C041F05EEC0FF03FC014
:100F340083F040C084F041C085F042C086F071D097
:100F440083C013F084C014F085C015F086C016F079
:100F540000019651040D010EF324F66E080EF420E0
:100F6400F76E0900F5CF17F00900F5CF18F0090066
:100F7400F5CF19F00A00F5CF1AF043EC13F013C0C3
:100F840087F014C088F015C089F016C08AF087C0B5
:100F940013F088C014F089C015F08AC016F00A0E48
:100FA400176E000E186E000E196E000E1A6E62ECAB
:100FB40014F013C087F014C088F015C089F016C06F
:100FC4008AF000018751300F71C0D9FF72C0DAFF77
:100FD400DF6E714B722B83C013F084C014F085C094
:100FE40015F086C016F09651040D010EF324F66E2A
:100FF400080EF420F76E0900F5CF17F00900F5CFBD
:1010040018F00900F5CF19F00A00F5CF1AF062ECD8
:1010140014F013C083F014C084F015C085F016C01A
:1010240086F0000196079629D8B40CD089D771C0F0
:10103400D9FF72C0DAFF300EDF6E714B722B94074A
:10104400D8A0950794519511D8B4B0D0F0D7945145
:101054009511D8A408D08351841185118611D8A480
:1010640002D0944B952B800E96BF7F0E786F9451CF
:10107400965D9551800A7859D8B003D094C096F003
:1010840010D09551800A786F9651945D800E96BF6A
:101094007F0E7859D8B005D09651946F956B94BF54
:1010A40095078F519011D8B40DD0030E8D15786F1C
:1010B400000E8E15796F78517911D8B403D08F074B
:1010C400D8A090078EAD13D08F51945D9551800AAE
:1010D400786F9051800A7859D8B005D094518F5FB9
:1010E4009551905B04D0000E906F000E8F6F800EB0
:1010F40096BF7F0E786F8F51965D9051800A785914
:10110400D8B007D096518F5F000E96BFFF0E905B4C
:1011140004D0000E906F000E8F6F8DA522D0030EA9
:101124008D15786F000E8E15796F78517911D8B4BA
:1011340008D071C0D9FF72C0DAFF2D0EDF6E714B7B
:10114400722B8F519011D8B431D071C0D9FF72C0B5
:10115400DAFF300EDF6E714B722B8F07D8A0900729
:10116400F0D78F519011D8B40FD071C0D9FF72C08D
:10117400DAFF200EDF6E714B722B8F07D8A0900719
:101184008F519011D8A4F1D7030E8D15786F000EEE
:101194008E15796F78517911D8B408D071C0D9FF00
:1011A40072C0DAFF2D0EDF6E714B722B73C0F6FF27
:1011B40074C0F7FF734B742B0800F5CF96F096516B
:1011C400D8A449EF04F071C0D9FF72C0DAFF000E51
:1011D400DF6E12003C6E3CAE01D13C6C3C50800A88
:1011E400120FD8A091D0000E246E030E236E000EB1
:1011F4001C6E0A0E1B6E000E166E640E156E3C50AD
:10120400136E146A13BE1406BFEC13F013C019F066
:1012140014C01AF001EC13F0090E1924216E000E0B
:101224001A20226E18EC15F0500E2124F66E080ECA
:101234002220F76E0900F5CF2AF00900F5CF2BF034
:101244000A00F5CF2CF0000E1C6E640E1B6E3C5091
:10125400196E1A6A19BE1A0601EC13F0120E19243B
:10126400216E000E1A20226E000E246E030E236ED1
:1012740018EC15F0500E2124F66E080E2220F76E9D
:101284000900F5CF27F00900F5CF28F00A00F5CFC3
:1012940029F0DAEC0FF027C039F028C03AF029C061
:1012A4003BF039C027F03AC028F03BC029F0000ECB
:1012B400246E030E236E000E166E0A0E156E3C503D
:1012C400136E146A13BE1406BFEC13F013C021F09E
:1012D40014C022F018EC15F0500E2124F66E080EFE
:1012E4002220F76E0900F5CF2AF00900F5CF2BF084
:1012F4000A00F5CF2CF0DAEC0FF027C036F028C046
:1013040037F029C038F012003C50800A750FD8A07D
:1013140053D0000E1C6E0A0E1B6E3C50196E1A6AD6
:1013240019BE1A0601EC13F0090E1924216E000EE1
:101334001A20226E000E246E030E236E18EC15F094
:10134400500E2124F66E080E2220F76E0900F5CF08
:1013540027F00900F5CF28F00A00F5CF29F0000E98
:10136400246E030E236E000E166E0A0E156E3C508C
:10137400136E146A13BE1406BFEC13F013C021F0ED
:1013840014C022F018EC15F0500E2124F66E080E4D
:101394002220F76E0900F5CF2AF00900F5CF2BF0D3
:1013A4000A00F5CF2CF0DAEC0FF027C036F028C095
:1013B40037F029C038F012003C50030D500EF324CE
:1013C400F66E080EF420F76E0900F5CF36F009002A
:1013D400F5CF37F00A00F5CF38F012003C50800A00
:1013E400120FD8A091D0000E246E030E236E000EAF
:1013F4001C6E0A0E1B6E000E166E640E156E3C50AB
:10140400136E146A13BE1406BFEC13F013C019F064
:1014140014C01AF001EC13F0090E1924216E000E09
:101424001A20226E18EC15F0290E2124F66E080EEF
:101434002220F76E0900F5CF2AF00900F5CF2BF032
:101444000A00F5CF2CF0000E1C6E640E1B6E3C508F
:10145400196E1A6A19BE1A0601EC13F0120E192439
:10146400216E000E1A20226E000E246E030E236ECF
:1014740018EC15F0290E2124F66E080E2220F76EC2
:101484000900F5CF27F00900F5CF28F00A00F5CFC1
:1014940029F0DAEC0FF027C039F028C03AF029C05F
:1014A4003BF039C027F03AC028F03BC029F0000EC9
:1014B400246E030E236E000E166E0A0E156E3C503B
:1014C400136E146A13BE1406BFEC13F013C021F09C
:1014D40014C022F018EC15F0290E2124F66E080E23
:1014E4002220F76E0900F5CF2AF00900F5CF2BF082
:1014F4000A00F5CF2CF0DAEC0FF027C036F028C044
:1015040037F029C038F012003C50800A750FD8A07B
:1015140053D0000E1C6E0A0E1B6E3C50196E1A6AD4
:1015240019BE1A0601EC13F0090E1924216E000EDF
:101534001A20226E000E246E030E236E18EC15F092
:10154400290E2124F66E080E2220F76E0900F5CF2D
:1015540027F00900F5CF28F00A00F5CF29F0000E96
:10156400246E030E236E000E166E0A0E156E3C508A
:10157400136E146A13BE1406BFEC13F013C021F0EB
:1015840014C022F018EC15F0290E2124F66E080E72
:101594002220F76E0900F5CF2AF00900F5CF2BF0D1
:1015A4000A00F5CF2CF0DAEC0FF027C036F028C093
:1015B40037F029C038F012003C50030D290EF324F3
:1015C400F66E080EF420F76E0900F5CF36F0090028
:1015D400F5CF37F00A00F5CF38F012003F6E6D0EEC
:1015E4003F649FD0000E246E030E236E000E1C6E0B
:1015F4000A0E1B6E000E166E640E156E3FC013F0BD
:10160400146ABFEC13F013C019F014C01AF001EC03
:1016140013F0090E1924216E000E1A20226E18EC04
:1016240015F0500E2124F66E080E2220F76E0900E4
:10163400F5CF2AF00900F5CF2BF00A00F5CF2CF0F6
:10164400000E1C6E640E1B6E3FC019F01A6A01EC8A
:1016540013F0120E1924216E000E1A20226E000EB1
:10166400246E030E236E18EC15F0500E2124F66E32
:10167400080E2220F76E0900F5CF27F00900F5CFF8
:1016840028F00A00F5CF29F0DAEC0FF027C03CF07F
:1016940028C03DF029C03EF0000E246E030E236ED8
:1016A400000E166E0A0E156E3FC013F0146ABFECDE
:1016B40013F013C021F014C022F018EC15F0500EF2
:1016C4002124F66E080E2220F76E0900F5CF2AF0C9
:1016D4000900F5CF2BF00A00F5CF2CF03CC027F021
:1016E4003DC028F03EC029F0DAEC0FF027C039F0F5
:1016F40028C03AF029C03BF039C027F03AC028F09E
:101704003BC029F0000E2A6E000E2B6E3F0E2C6E8D
:10171400DAEC0FF027C036F028C037F029C038F0D3
:1017240012000A0E3F6463D0000E246E030E236E73
:10173400000E166E0A0E156E3FC013F0146ABFEC4D
:1017440013F013C021F014C022F018EC15F0500E61
:101754002124F66E080E2220F76E0900F5CF2AF038
:101764000900F5CF2BF00A00F5CF2CF0000E1C6E0B
:101774000A0E1B6E3FC019F01A6A01EC13F0090E31
:101784001924216E000E1A20226E000E246E030E00
:10179400236E18EC15F0500E2124F66E080E22204C
:1017A400F76E0900F5CF27F00900F5CF28F00A00FD
:1017B400F5CF29F0DAEC0FF027C03CF028C03DF05B
:1017C40029C03EF03CC027F03DC028F03EC029F0BF
:1017D400000E2A6E000E2B6E3F0E2C6EDAEC0FF00C
:1017E40027C036F028C037F029C038F012003F5027
:1017F400030D500EF324F66E080EF420F76E090064
:10180400F5CF27F00900F5CF28F00A00F5CF29F02D
:10181400000E2A6E000E2B6E3F0E2C6EDAEC0FF0CB
:1018240027C036F028C037F029C038F0120062C053
:1018340040F0416A426A00016135403601E341806B
:101844004050686F65C040F0416A426A6435403672
:1018540001E341804050676F6851D8B40BD06751A1
:10186400685DD8B00ED0685100086725406E180E28
:10187400406407D063C060F064C061F065C062F08A
:1018840012006751D8B40BD06851675DD8B00ED040
:10189400675100086825406E180E406407D060C088
:1018A40060F061C061F062C062F01200060E666F03
:1018B40062BF668F65BF668D618FFF0E6017FF0E76
:1018C4006117000E6217648FFF0E6317FF0E641713
:1018D400000E65176751685DD8B01BD0D890633788
:1018E40064376537670768516719D8B40DD0660740
:1018F40066C040F0070E4016D8B406D0EFD7D89093
:10190400623361336033682B67516819D8B41FD0D0
:10191400F6D76851675DD8B01AD0D8906037613770
:101924006237680768516719D8B40DD0660766C076
:1019340040F0070E4016D8B406D0EFD7D8906533E0
:1019440064336333672B67516819D8A4F7D766AF3C
:101954000CD0FF0E601BFF0E611BFF0E621B010EFD
:101964006027000E6123000E622366AD0CD0FF0ECB
:10197400631BFF0E641BFF0E651B010E6327000E25
:101984006423000E6523000E666F60516327615166
:1019940064236251652365AF0ED0FF0E631BFF0EF7
:1019A400641BFF0E651B010E6327000E6423000EEB
:1019B4006523010E666F63C013F064C014F065C044
:1019C40015F068C016F066C017F062EC12F013C090
:1019D40060F014C061F015C062F012000AEC12F05D
:1019E400C8EC10F0C280000E0001726F020E716F1D
:1019F4003BEC11F092808090C282C2B2FED7000EFE
:101A040000019E6F000E9F6F000EA06F000E976F77
:101A1400000E986F000E996F000E7C6F000E7B6FA6
:101A2400D6EC0EF07BC09AF07CC09BF0000E000157
:101A3400726F020E716F3BEC11F0000E00017C6FAF
:101A4400010E7B6FD6EC0EF07BC09CF07CC09DF049
:101A54000A0E2A6E8F0E2B6E400E2C6E9AC01BF04F
:101A64009BC01CF03DEC15F01BC027F01CC028F0F7
:101A74001DC029F0DAEC0FF027C036F028C037F08B
:101A840029C038F0C00E396E7F0E3A6E440E3B6E9C
:101A940054EC10F036C09EF037C09FF038C0A0F070
:101AA4000A0E2A6E8F0E2B6E400E2C6E9CC01BF0FD
:101AB4009DC01CF03DEC15F01BC027F01CC028F0A5
:101AC4001DC029F0DAEC0FF027C036F028C037F03B
:101AD40029C038F0C00E396E7F0E3A6E440E3B6E4C
:101AE40054EC10F036C097F037C098F038C099F035
:101AF4007EEC15F0A10E0001716F000E726F770E6F
:101B0400736F080E746F9EC075F09FC076F0A0C00E
:101B140077F042EC04F0A10E0001826F000E836F97
:101B240000EC15F0010E0001826F020E84EC13F03C
:101B3400A10E0001826F000E836F00EC15F0000E01
:101B44000001726FC80E716F3BEC11F04BD715C0DA
:101B540019F01A6A1B6A1434193601E31A801950F1
:101B6400216E2150D8A409D0000E136E000E146EFD
:101B7400000E156E000E166E120018C019F01A6AC7
:101B84001B6A1734193601E31A801950206E20504D
:101B9400D8A409D0000E136E000E146E000E156E3C
:101BA400000E166E1200148EFF0E1316FF0E14167E
:101BB400000E1516178EFF0E1616FF0E1716000EC2
:101BC4001816000E1C6E000E1D6E000E1E6E000E0A
:101BD4001F6E7F0E215E2050980F215E180E206E1E
:101BE400D8901C361D361E361F361650135C1750FF
:101BF400145818501558D8A007D01650135E175013
:101C0400145A1850155A1C80D890133614361536A9
:101C1400202EE6D721AE16D02150800A970FD8B0D7
:101C240009D0000E136E000E146E000E156E000E19
:101C3400166E1200D8901F321E321D321C32213E05
:101C4400F9D715D0170E21640FD0000E136E000EB5
:101C5400146E000E156E000E166E1200D8901C360F
:101C64001D361E361F3621062150D8A4F7D71CC0B6
:101C740013F01DC014F01EC015F01FC016F01200A2
:101C8400153416341E6E1E50D8A409D0000E136EDF
:101C9400000E146E000E156E000E166E120018342F
:101CA40019341D6E1D50D8A409D0000E136E000EF9
:101CB400146E000E156E000E166E1200158EFF0EB9
:101CC4001316FF0E1416FF0E1516000E1616188E98
:101CD400FF0E1616FF0E1716FF0E1816000E191615
:101CE400000E196E000E1A6E000E1B6E000E1C6E96
:101CF4007F0E1E5E1D50A00F1E5E200E1D6ED8901E
:101D040019361A361B361C361650135C17501458E5
:101D14001850155819501658D8A009D01650135EEB
:101D24001750145A1850155A1950165A1980D89029
:101D340013361436153616361D2EE1D71EAE16D0C0
:101D44001E50800A9F0FD8B009D0000E136E000EEB
:101D5400146E000E156E000E166E1200D8901C3212
:101D64001B321A3219321E3EF9D715D01F0E1E64CB
:101D74000FD0000E136E000E146E000E156E000EC2
:101D8400166E1200D89019361A361B361C361E06EB
:101D94001E50D8A4F7D719C013F01AC014F01BC0F2
:101DA40015F01CC016F0120000017B517C11D8A460
:101DB40004D0C294C296C298C29A7B057C11D8A45E
:101DC40004D0C250C30B0409C26E020E7B197C11ED
:101DD400D8A404D0C250C30B2009C26E030E7B19D1
:101DE4007C11D8A404D0C250C30B2409C26E040EC3
:101DF4007B197C11D8A404D0C294C296C298C29A0A
:101E0400050E7B197C11D8A404D0C250C30B04095D
:101E1400C26E060E7B197C11D8A404D0C250C30B29
:101E24002009C26E070E7B197C11D8A404D0C250BD
:101E3400C30B2409C26E080E7B197C11D8A404D0EC
:101E4400C250C30B2009C26E090E7B197C11D8A4A1
:101E540004D0C250C30B2409C26E0A0E7B197C1134
:101E6400D8A404D0C250C30B0809C26E0B0E7B1950
:101E74007C11D8A404D0C250C30B0C09C26E0C0E42
:101E84007B197C11D8A404D0C250C30B3009C26E94
:101E9400000E726F020E716F3BEC11F0C282C2B27F
:101EA400FED7C45000017E6F7D6BC3507D257B6FD0
:101EB400000E7E217C6F120041C066F00001676B4A
:101EC400686B4034663701E367816651706F705107
:101ED400D8A409D0000E3F6E000E406E000E416E75
:101EE400000E426E1200170E666F3FC067F040C0CE
:101EF40068F041C069F066296A6F04D0D8906933EC
:101F0400683367336A2FFAD7000167516B6F408ECD
:101F1400FF0E3F16FF0E4016000E41163F506C6F29
:101F240040506D6F41506E6F6F6B8E0E705F70AF6F
:101F340016D07051800A8F0FD8B009D0000E3F6EB2
:101F4400000E406E000E416E000E426E1200D890DC
:101F54006F336E336D336C33703FF9D715D0170E72
:101F640070650FD0000E3F6E000E406E000E416E85
:101F7400000E426E1200D8906C376D376E376F3793
:101F840070077051D8A4F7D76B51D8B408D06F1F1D
:101F94006E1F6D1F6C6D000E6D236E236F236CC05E
:101FA4003FF06DC040F06EC041F06FC042F01200CF
:101FB40029C02DF02E6A2F6A28342D3601E32E8095
:101FC4002D50306E3050D8A407D0000E276E000E6E
:101FD400286E000E296E12002CC02DF02E6A2F6A76
:101FE4002B342D3601E32E802D50356E3550D8A478
:101FF40007D0000E276E000E286E000E296E120008
:1020040035507B0F302629C035F02C50351A800E00
:102014003516288E2B8EFF0E2A16FF0E2B16000E59
:102024002C16000E316E000E326E000E336E070E4B
:10203400346E27A006D02A5031262B5032222C5041
:102044003322D890293228322732D8902A362B3698
:102054002C36342EEED7090E346E27A006D02A5023
:1020640031262B5032222C503322D8902932283258
:102074002732D890333232323132342EEED731C057
:1020840013F032C014F033C015F030C016F035C070
:1020940017F062EC12F013C027F014C028F015C03A
:1020A40029F0120038C03CF03D6A3E6A37343C36B1
:1020B40001E33D803C500001646F6451D8A407D013
:1020C400000E366E000E376E000E386E12003BC0E6
:1020D4003CF03D6A3E6A3A343C3601E33D803C5074
:1020E400656F6551D8A407D0000E366E000E376EAA
:1020F400000E386E1200000E616F000E626F000E4B
:10210400636F6551890F645F38C065F03B50651B90
:10211400800E6517378EFF0E3616FF0E3716000E2B
:1021240038163A8EFF0E3916FF0E3A16000E3B167D
:10213400180E606FD8906137623763373950365C58
:102144003A5037583B503858D8A007D03950365EEB
:102154003A50375A3B50385A6181D8903636373620
:102164003836602FE7D761C013F062C014F063C043
:1021740015F064C016F065C017F062EC12F013C0DD
:1021840036F014C037F015C038F0120095929594CB
:1021940095969598959A959C959E8392839483960B
:1021A4008398839A839C839E000E0001726F140EA1
:1021B400716F3BEC11F0300E836E4FEC15F0000E96
:1021C4000001726F040E716F3BEC11F0300E836EE0
:1021D4004FEC15F0000E0001726F040E716F3BECB2
:1021E40011F0300E836E4FEC15F0000E0001726F8B
:1021F400010E716F3BEC11F0200E836E4FEC15F065
:10220400000E00017C6F280E7B6F2DEC14F0000E85
:102214000001726F080E716F3BEC11F0000E0001AB
:102224007C6F0C0E7B6F2DEC14F0000E0001726FAE
:10223400080E716F3BEC11F0000E00017C6F010E73
:102244007B6F2DEC14F0000E0001726F020E716FA3
:102254003BEC11F0000E00017C6F060E7B6F2DEC41
:1022640014F0000E0001726F080E716F3BEC11F058
:102274001200000E0001786F000E776F000E7A6F67
:10228400000E796F000E766F000E756F830ED66E9A
:10229400D650736F746B731F741F734B742B050EBE
:1022A400D89073377437E82EFBD7000E73251B6E56
:1022B400200E74211C6EE4EC14F01BC039F01CC019
:1022C4003AF01DC03BF0800E366E3B0E376E460E64
:1022D400386E54EC10F036C03FF037C040F038C0D0
:1022E40041F05EEC0FF03FC079F040C07AF0D58E3B
:1022F40020D0F2A41ED0F294830ED66E774B782BA6
:102304007951771916E17A517819D8A412D0754BFE
:10231400762B7551711904E176517219D8B405D030
:10232400000E786F000E776F04D079C077F07AC012
:1023340078F000017951775D7A517859D8B012005C
:10234400D8D70600FACF01F0FBCF02F0E9CF03F0B3
:10235400EACF04F0E1CF05F0E2CF06F0D9CF07F0E1
:10236400DACF08F0F3CF09F0F4CF0AF0F6CF0BF090
:10237400F7CF0CF0F8CF0DF0F5CF0EF04DC00FF005
:102384004EC010F04FC011F050C012F0F2A205D0B0
:10239400F292000E4C6E010E4B6EF0A005D0F09040
:1023A400000E4A6E010E496EF0A205D0F092000EA6
:1023B400486E010E476E9EAC05D09E9C000E466E84
:1023C400010E456E12C050F011C04FF010C04EF017
:1023D4000FC04DF00EC0F5FF0DC0F8FF0CC0F7FFA5
:1023E4000BC0F6FF0AC0F4FF09C0F3FF08C0DAFF10
:1023F40007C0D9FF06C0E2FF05C0E1FF04C0EAFF41
:1024040003C0E9FF02C0FBFF01C0FAFF4D921100B7
:10241400C290300EC112C150F00B0709C16EC08EBC
:10242400C050F80B0609C06EC050C70B2809C06E17
:10243400010E926E000E936E000E946E000E956E59
:10244400000E966E000E806E000E816E000E826E7F
:10245400000E836E000E846E939A93989288D09E99
:10246400F29EF28CF288F28AF18CF18AF188F09C67
:10247400F09EF086F0889D9C9E9CD58ED58CD59A36
:10248400D596D550F80B0409D56EF294C150F00BD3
:102494000E09C16E9280C050F80B0609C06EC19A35
:1024A400C198C08EC150F00B0B09C16E928092820C
:1024B400C2809D8C9E9CC086C088C08AC282120045
:1024C4001650D8B405D0135014101510D8A40CD03D
:1024D400000E136E000E146E000E156E1200162AF6
:1024E400D890153214321332000E1314186E000EE5
:1024F4001414196EFE0E15141A6E185019101A10B1
:10250400D8B40CD0ECD7162A010E1326000E1422D0
:10251400000E1522D890153214321332000E131403
:10252400186E000E1414196EFF0E15141A6E18503E
:1025340019101A10D8B406D0E6D71606D890133658
:102544001436153614BE03D0020E1660F6D716A044
:10255400149ED8901632165015121750D8A4158E02
:1025640013C013F014C014F015C015F0120015AE0A
:1025740016D013C019F014C01AF015C01BF0191EA0
:102584001A1E1B1E192A000E1A221B22000E1924C1
:10259400136E000E1A20146E800E1B20156E18AEDA
:1025A40016D016C019F017C01AF018C01BF0191E67
:1025B4001A1E1B1E192A000E1A221B22000E192491
:1025C400166E000E1A20176E800E1B20186E000E59
:1025D400131A000E141A800E151A000E161A000E85
:1025E400171A800E181A1650135C175014581850E6
:1025F4001558D8B002D0D8901200D8801200000E1E
:102604001E6E1CAE06D01B6C1C1ED8B01C2A010EFC
:102614001E6E1AAE06D0196C1A1ED8B01A2A010EF4
:102624001E1A000E206E000E1F6E1B501C10D8B414
:102634001CD0010E1D6E04D0D8901B361C361D2AEA
:102644001CAEFAD7D8901F3620361B50195C1C508C
:102654001A58D8A005D01B50195E1C501A5A1F8056
:10266400D8901C321B321D2EEDD71E50D8B404D086
:102674001F6C201ED8B0202A1FC019F020C01AF0E9
:102684001200000E1B6E000E1C6E000E1D6E000E5E
:102694001E6E1750181019101A10D8B42AD0010E33
:1026A4001F6E06D0D8901736183619361A361F2AD8
:1026B4001AAEF8D7D8901B361C361D361E36175066
:1026C400135C18501458195015581A501658D8A09D
:1026D40009D01750135E1850145A1950155A1A502D
:1026E400165A1B80D8901A321932183217321F2EFC
:1026F400E1D71BC013F01CC014F01DC015F01EC0A0
:1027040016F0120000018A6F6FEC15F000018A05C3
:10271400D8A40FD0010E886F08D0000E7C6F140E61
:102724007B6F2DEC14F00001882B8251885DD8A0BA
:10273400F4D7020E8A19D8A41200010E896F08D0AA
:10274400000E7C6F140E7B6F2DEC14F00001892BAE
:102754008251836F846B280E8327000E8423895152
:10276400856F866B8351855D8651800A876F84519E
:10277400800A8759D8B01200E3D7000E186E14AE41
:1027840006D0136C141ED8B0142A010E186E16AE9F
:1027940004D0156C161ED8B0162A15501610D8B4CD
:1027A40018D0010E176E04D0D89015361636172A95
:1027B40016AEFAD71550135C16501458D8A004D08E
:1027C4001550135E1650145AD89016321532172E1F
:1027D400F1D71850D8B404D0136C141ED8B0142AEE
:1027E40013C013F014C014F01200838283CF7DF061
:1027F4000F0E00017D177BC07EF07CC07FF0040EBD
:10280400806FD8907F337E33802FFBD70F0E7E17D7
:1028140083380F0B0F0B0F097E15816F8139F00B75
:102824007D11836E4FEC15F083CF7DF00F0E000108
:102834007D177BC07EF00F0E7E1783380F0B0F0BB6
:102844000F097E157F6F7F39F00B7D11836E4FEC7E
:1028540015F083921200839283CF7DF00F0E000156
:102864007D177BC07EF07CC07FF0040E806FD89013
:102874007F337E33802FFBD70F0E7E1783380F0BE9
:102884000F0B0F097E15816F8139F00B7D11836E5B
:102894004FEC15F083CF7DF00F0E00017D177BC048
:1028A4007EF00F0E7E1783380F0B0F0B0F097E156A
:1028B4007F6F7F39F00B7D11836E4FEC15F01200A2
:1028C4001750181019101A10D8B424D0010E1B6E0A
:1028D40006D0D8901736183619361A361B2A1AAE6F
:1028E400F8D71750135C18501458195015581A502B
:1028F4001658D8A008D01750135E1850145A1950FF
:10290400155A1A50165AD8901A32193218321732E8
:102914001B2EE7D713C013F014C014F015C015F024
:1029240016C016F012008E0E236E06D0D8901E32FA
:102934001D321C321B32232A000E1B141F6E000E84
:102944001C14206E000E1D14216EFF0E1E14226E28
:102954001F50201021102210D8A4E8D71BC013F058
:102964001CC014F01DC015F023C016F0000E176E25
:1029740062EC12F013C01BF014C01CF015C01DF063
:10298400120000016C516D116E11D8B406D0000E06
:102994006C1B000E6D1B800E6E1B69C060F06AC05C
:1029A40061F06BC062F06CC063F06DC064F06EC027
:1029B40065F019EC0CF060C069F061C06AF062C0A7
:1029C4006BF01200000E1E6E1CAE06D01B6C1C1E9B
:1029D400D8B01C2A010E1E6E1BC013F01CC014F0CC
:1029E400156A8E0E166E1EC017F062EC12F013C03C
:1029F4001BF014C01CF015C01DF012000FD082C0D3
:102A0400D9FF83C0DAFFDF500001846F84517B6FEC
:102A14007C6BF7EC13F00001824B832B82C0D9FF4F
:102A240083C0DAFFDF50D8B41200E9D72150230263
:102A3400F3CF25F0F4CF26F021502402F3502626BC
:102A440022502302F350262625C021F026C022F06E
:102A54001200135014101510D8B406D0000E131A17
:102A6400000E141A800E151A13C013F014C014F0BB
:102A740015C015F012001BC013F01CC014F0156A29
:102A84008E0E166E000E176E62EC12F013C01BF061
:102A940014C01CF015C01DF012008386000E000146
:102AA400726F020E716F3BEC11F08396000E000101
:102AB400726F020E716F3BEC11F01200156E000E76
:102AC400146E3A0E156005D02F0E156402D0010E57
:102AD400146E14C013F013301200000E00017C6F4A
:102AE400020E7B6F2DEC14F0000E0001726F040EC9
:102AF400716F3BEC11F01200000E00017C6F010EAF
:102B04007B6F2DEC14F0000E0001726F020E716FDA
:102B14003BEC11F0120000EE43F00A0EEE6AE806F8
:102B2400FDE14D904D92000EF86E0001F0EF0CF0B7
:020000040020DA
:08000000FFFFFFFFFFFFFFFF00
:020000040030CA
:0E000000200E1F1EFF8381FF0FC00FE00F4078
:00000001FF
