:04000000C3EF12F048
:1008000000010000000A00000064000000E803008E
:100810000010270000A086010040420F008096983B
:100820000000E1F50500CA9A3B00803F002041002E
:10083000C842007A44401C4650C347247449971864
:100840004BBCBE4C6B6E4E03155079AD60F34971D5
:1008500000803FCDCC3DD7233C12833AB7D138C678
:100860002737388635C0D633CC2B32708930E7DB5A
:100870002EE53C1E42A20D25322E32665620000087
:10088000440E0001636F000E646F7AEF08F0250ECE
:100890007819D8B408D040C0D9FF41C0DAFF78C079
:1008A000DFFF78EF08F0000E6C6F000E6B6F000E2C
:1008B0006A6F000E696F42C0F6FF43C0F7FF080081
:1008C000F55037EC13F0D8A034D0000E00016C6F57
:1008D000000E6B6F6BC00FF06CC010F0000E126E4C
:1008E0000A0E116E12EC13F00FC06BF010C06CF01A
:1008F000D00E476EFF0E486E42C0F6FF43C0F7FFB2
:100900000800F550496E4A6A4750492648504A2225
:10091000495000016B274A506C23424A432A42C087
:10092000F6FF43C0F7FF0800F55037EC13F0D8B0DE
:10093000D1D742C0F6FF43C0F7FF0800F5502E0A9A
:10094000D8A430D000016A8D424A432A000E776F46
:10095000000E766F1CD076C00FF077C010F0000E3E
:10096000126E0A0E116E12EC13F042C0F6FF43C075
:10097000F7FF0800F5500F26000E1022D00E0F24AE
:100980000001766FFF0E1020776F424A432A42C063
:10099000F6FF43C0F7FF0800F55037EC13F0D8A07E
:1009A0000AD0D9D7000E0001776F000E766F6A89E2
:1009B00002D06A8512D042C0F6FF43C0F7FF424A18
:1009C000432A0800F5CF78F000017851000AD8B426
:1009D0009ED3660AD8B4EDD78DD3070E6A15D8B466
:1009E000FED26AA904D0000E776F060E766F63C040
:1009F000D9FF64C0DAFFDECF73F0DECF74F0DDCF55
:100A000075F0030E6327000E642375AF11D073C019
:100A100001F074C002F075C003F025EC13F001C0C2
:100A200073F002C074F003C075F0030E0001691387
:100A3000000E726F000E716F735174117511D8B47E
:100A400086D0820E476EFF0E486E73C049F074C0A8
:100A50004AF075C04BF076C04CF0100E05D0D8901F
:100A60004C324B324A324932E82EF9D749504724AA
:100A7000716F000E4820726F7107D8A0720771C0A5
:100A80000FF072C010F0000E126E030E116E12EC19
:100A900013F00FC071F010C072F071C007F072C097
:100AA00008F0000E0A6E0A0E096EDFEC10F007C0A7
:100AB00071F008C072F0000172AF03D07107D8A0C6
:100AC0007207715100088EEC08F024C06DF025C04B
:100AD0006EF026C06FF06DC015F06EC016F06FC0DE
:100AE00017F073C018F074C019F075C01AF0BEEC9E
:100AF0000DF015C06DF016C06EF017C06FF06DC030
:100B000001F06EC002F06FC003F0000E046E800EA4
:100B1000056E3F0E066E97EC10F0D8B005D00001C0
:100B20007107D8A0720713D06DC001F06EC002F03B
:100B30006FC003F0000E046E200E056E410E066EAF
:100B400097EC10F0D8A003D00001714B722B00017C
:100B500077BF06D077511BE10D0E765DD8B017D068
:100B600073C02EF074C02FF075C030F0765192EC47
:100B70000AF024C031F025C032F026C033F0BBECBF
:100B80000BF02EC073F02FC074F030C075F0000170
:100B900072BF06D0725120E10A0E715DD8B01CD030
:100BA000735174117511D8B456D073C02BF074C042
:100BB0002CF075C02DF038EC0EF02B502C102D10B1
:100BC0002E10D8A448D0000172BF45D0725104E164
:100BD000020E715DD8A03FD06DC001F06EC002F072
:100BE0006FC003F0700E046E890E056E400E066E27
:100BF00097EC10F0D8B003D00001F70E02D000013E
:100C0000F80E7127FF0E722371518EEC08F024C08C
:100C10006DF025C06EF026C06FF073C001F074C097
:100C200002F075C003F06DC004F06EC005F06FC037
:100C300006F091EC0CF001C065F002C066F003C054
:100C400067F004C068F0000E0001736F000E746F4F
:100C5000000E756F33D073C02BF074C02CF075C0CC
:100C60002DF038EC0EF02BC065F02CC066F02DC0D6
:100C700067F02EC068F073C03AF074C03BF075C0E6
:100C80003CF065C009F066C00AF067C00BF068C0B0
:100C90000CF075EC12F009C03DF00AC03EF00BC03C
:100CA0003FF0A3EC12F03AC073F03BC074F03CC0CC
:100CB00075F0000E0001726F000E716F010E786FFB
:100CC0000A0E7819D8B418D07851040D010EF32407
:100CD000F66E080EF420F76E0900F550655D090008
:100CE000F55066590900F55067590900F5506859E3
:100CF000D8A002D0782BE4D778C047F0486A47BE26
:100D0000480676514726775148227151472672513D
:100D1000482247506B5F48506C5B76517711D8B4CE
:100D200003D06B07D8A06C07030E6915476E000E41
:100D30006A15486E47504810D8B40CD008D040C04F
:100D4000D9FF41C0DAFF200EDF6E404A412A6B070F
:100D5000D8A06C076CBF05D06C51F1E16B05D8B021
:100D6000EED7030E6915476E000E6A15486E4750A0
:100D70004810D8B450D040C0D9FF41C0DAFF2D0E82
:100D800047D065C001F066C002F067C003F068C0DC
:100D900004F07851040D010EF324F66E080EF420D1
:100DA000F76E0900F5CF05F00900F5CF06F0090050
:100DB000F5CF07F00A00F5CF08F021EC11F001C0E3
:100DC0006DF002C06EF003C06FF004C070F06DC033
:100DD00001F06EC002F06FC003F070C004F00A0EA4
:100DE000056E000E066E000E076E000E086E0FEC0C
:100DF00012F001C06DF002C06EF003C06FF004C0CD
:100E000070F000016D51300F40C0D9FF41C0DAFFD2
:100E1000DF6E404A412A78077829D8B40CD0B1D780
:100E200040C0D9FF41C0DAFF300EDF6E404A412A90
:100E30007107D8A0720772BF05D07251F1E1710538
:100E4000D8B0EED777BF09D0775104E1090E765DAF
:100E5000D8A003D0080E786F02D076C078F0785111
:100E6000765F000E78BFFF0E775B7851D8B408D05C
:100E700040C0D9FF41C0DAFF2E0EDF6E404A412A42
:100E800078518EEC08F024C060F025C061F026C0D7
:100E900062F073C018F074C019F075C01AF060C029
:100EA00015F061C016F062C017F0BEEC0DF015C071
:100EB0002BF016C02CF017C02DF038EC0EF02BC024
:100EC00065F02CC066F02DC067F02EC068F071D0C0
:100ED00065C001F066C002F067C003F068C004F0AE
:100EE00000017851040D010EF324F66E080EF42073
:100EF000F76E0900F5CF05F00900F5CF06F00900FF
:100F0000F5CF07F00A00F5CF08F021EC11F001C091
:100F10006DF002C06EF003C06FF004C070F06DC0E1
:100F200001F06EC002F06FC003F070C004F00A0E52
:100F3000056E000E066E000E076E000E086E0FECBA
:100F400012F001C06DF002C06EF003C06FF004C07B
:100F500070F000016D51300F40C0D9FF41C0DAFF81
:100F6000DF6E404A412A65C001F066C002F067C0EA
:100F700003F068C004F07851040D010EF324F66EFE
:100F8000080EF420F76E0900F5CF05F00900F5CF43
:100F900006F00900F5CF07F00A00F5CF08F00FECD6
:100FA00012F001C065F002C066F003C067F004C033
:100FB00068F0000178077829D8B40CD089D740C0F0
:100FC000D9FF41C0DAFF300EDF6E404A412A760772
:100FD000D8A0770776517711D8B48CD0F0D7765156
:100FE0007711D8A408D06551661167116811D8A48B
:100FF00002D0764B772B800E78BF7F0E476E7651EE
:10100000785D7751800A4758D8B003D076C078F021
:1010100010D07751800A476E7851765D800E78BF88
:101020007F0E4758D8B005D07851766F776B76BF72
:1010300077076B516C11D8B40DD0030E6915476E4C
:10104000000E6A15486E47504810D8B403D06B079D
:10105000D8A06C076AAD13D06B51765D7751800ACA
:10106000476E6C51800A4758D8B005D076516B5FF7
:1010700077516C5B04D0000E6C6F000E6B6F800EAE
:1010800078BF7F0E476E6B51785D6C51800A475870
:10109000D8B007D078516B5F000E78BFFF0E6C5B45
:1010A00004D0000E6C6F000E6B6F6B516C11D8B4D6
:1010B0000FD040C0D9FF41C0DAFF200EDF6E404A9A
:1010C000412A6B07D8A06C076B516C11D8A4F1D7DB
:1010D000030E6915476E000E6A15486E475048109A
:1010E000D8B408D040C0D9FF41C0DAFF2D0EDF6E62
:1010F000404A412A42C0F6FF43C0F7FF424A432A12
:101100000800F5CF78F07851D8A447EF04F040C03C
:10111000D9FF41C0DAFF000EDF6E12002A6E2AAE40
:1011200001D12A6C2A50800A120FD8A091D0000E4B
:10113000126E030E116E000E0A6E0A0E096E000E7C
:10114000046E640E036E2A50016E026A01BE02062E
:10115000A3EC11F001C007F002C008F0DFEC10F0C2
:10116000090E07240F6E000E0820106E12EC13F00B
:10117000500E0F24F66E080E1020F76E0900F5CF02
:1011800018F00900F5CF19F00A00F5CF1AF0000E9B
:101190000A6E640E096E2A50076E086A07BE0806BA
:1011A000DFEC10F0120E07240F6E000E0820106EF8
:1011B000000E126E030E116E12EC13F0500E0F247F
:1011C000F66E080E1020F76E0900F5CF15F0090035
:1011D000F5CF16F00A00F5CF17F0BEEC0DF015C0F4
:1011E00027F016C028F017C029F027C015F028C036
:1011F00016F029C017F0000E126E030E116E000ECD
:10120000046E0A0E036E2A50016E026A01BE0206C7
:10121000A3EC11F001C00FF002C010F012EC13F0BB
:10122000500E0F24F66E080E1020F76E0900F5CF51
:1012300018F00900F5CF19F00A00F5CF1AF0BEEC4E
:101240000DF015C024F016C025F017C026F01200CE
:101250002A50800A750FD8A053D0000E0A6E0A0ECD
:10126000096E2A50076E086A07BE0806DFEC10F008
:10127000090E07240F6E000E0820106E000E126E6D
:10128000030E116E12EC13F0500E0F24F66E080EC2
:101290001020F76E0900F5CF15F00900F5CF16F014
:1012A0000A00F5CF17F0000E126E030E116E000E3D
:1012B000046E0A0E036E2A50016E026A01BE020617
:1012C000A3EC11F001C00FF002C010F012EC13F00B
:1012D000500E0F24F66E080E1020F76E0900F5CFA1
:1012E00018F00900F5CF19F00A00F5CF1AF0BEEC9E
:1012F0000DF015C024F016C025F017C026F012001E
:101300002A50030D500EF324F66E080EF420F76EEB
:101310000900F5CF24F00900F5CF25F00A00F5CF3C
:1013200026F012002A50800A120FD8A091D0000E89
:10133000126E030E116E000E0A6E0A0E096E000E7A
:10134000046E640E036E2A50016E026A01BE02062C
:10135000A3EC11F001C007F002C008F0DFEC10F0C0
:10136000090E07240F6E000E0820106E12EC13F009
:10137000290E0F24F66E080E1020F76E0900F5CF27
:1013800018F00900F5CF19F00A00F5CF1AF0000E99
:101390000A6E640E096E2A50076E086A07BE0806B8
:1013A000DFEC10F0120E07240F6E000E0820106EF6
:1013B000000E126E030E116E12EC13F0290E0F24A4
:1013C000F66E080E1020F76E0900F5CF15F0090033
:1013D000F5CF16F00A00F5CF17F0BEEC0DF015C0F2
:1013E00027F016C028F017C029F027C015F028C034
:1013F00016F029C017F0000E126E030E116E000ECB
:10140000046E0A0E036E2A50016E026A01BE0206C5
:10141000A3EC11F001C00FF002C010F012EC13F0B9
:10142000290E0F24F66E080E1020F76E0900F5CF76
:1014300018F00900F5CF19F00A00F5CF1AF0BEEC4C
:101440000DF015C024F016C025F017C026F01200CC
:101450002A50800A750FD8A053D0000E0A6E0A0ECB
:10146000096E2A50076E086A07BE0806DFEC10F006
:10147000090E07240F6E000E0820106E000E126E6B
:10148000030E116E12EC13F0290E0F24F66E080EE7
:101490001020F76E0900F5CF15F00900F5CF16F012
:1014A0000A00F5CF17F0000E126E030E116E000E3B
:1014B000046E0A0E036E2A50016E026A01BE020615
:1014C000A3EC11F001C00FF002C010F012EC13F009
:1014D000290E0F24F66E080E1020F76E0900F5CFC6
:1014E00018F00900F5CF19F00A00F5CF1AF0BEEC9C
:1014F0000DF015C024F016C025F017C026F012001C
:101500002A50030D290EF324F66E080EF420F76E10
:101510000900F5CF24F00900F5CF25F00A00F5CF3A
:1015200026F012002D6E6D0E2D649FD0000E126EEF
:10153000030E116E000E0A6E0A0E096E000E046E86
:10154000640E036E2DC001F0026AA3EC11F001C01D
:1015500007F002C008F0DFEC10F0090E07240F6E50
:10156000000E0820106E12EC13F0500E0F24F66ED1
:10157000080E1020F76E0900F5CF18F00900F5CF1E
:1015800019F00A00F5CF1AF0000E0A6E640E096E0B
:101590002DC007F0086ADFEC10F0120E07240F6E62
:1015A000000E0820106E000E126E030E116E12EC6B
:1015B00013F0500E0F24F66E080E1020F76E09007F
:1015C000F5CF15F00900F5CF16F00A00F5CF17F0AA
:1015D000BEEC0DF015C02AF016C02BF017C02CF091
:1015E000000E126E030E116E000E046E0A0E036ED4
:1015F0002DC001F0026AA3EC11F001C00FF002C08F
:1016000010F012EC13F0500E0F24F66E080E10209E
:10161000F76E0900F5CF18F00900F5CF19F00A00B0
:10162000F5CF1AF02AC015F02BC016F02CC017F019
:10163000BEEC0DF015C027F016C028F017C029F039
:1016400027C015F028C016F029C017F0000E186E3C
:10165000000E196E3F0E1A6EBEEC0DF015C024F090
:1016600016C025F017C026F012000A0E2D6463D0B4
:10167000000E126E030E116E000E046E0A0E036E43
:101680002DC001F0026AA3EC11F001C00FF002C0FE
:1016900010F012EC13F0500E0F24F66E080E10200E
:1016A000F76E0900F5CF18F00900F5CF19F00A0020
:1016B000F5CF1AF0000E0A6E0A0E096E2DC007F063
:1016C000086ADFEC10F0090E07240F6E000E0820E8
:1016D000106E000E126E030E116E12EC13F0500E0F
:1016E0000F24F66E080E1020F76E0900F5CF15F0E6
:1016F0000900F5CF16F00A00F5CF17F0BEEC0DF09B
:1017000015C02AF016C02BF017C02CF02AC015F017
:101710002BC016F02CC017F0000E186E000E196EBC
:101720003F0E1A6EBEEC0DF015C024F016C025F069
:1017300017C026F012002D50030D500EF324F66E44
:10174000080EF420F76E0900F5CF15F00900F5CF6B
:1017500016F00A00F5CF17F0000E186E000E196E85
:101760003F0E1A6EBEEC0DF015C024F016C025F029
:1017700017C026F0120030C034F0356A366A2F34B4
:10178000343601E335803450396E33C034F0356A75
:10179000366A3234343601E335803450386E39508D
:1017A000D8B40BD03850395CD8B00ED039500008BE
:1017B0003824346E180E346407D031C02EF032C095
:1017C0002FF033C030F012003850D8B40BD039505D
:1017D000385CD8B00ED0385000083924346E180E5A
:1017E000346407D02EC02EF02FC02FF030C030F060
:1017F0001200060E376E30BE378E33BE378C2F8EFA
:10180000FF0E2E16FF0E2F16000E3016328EFF0E14
:101810003116FF0E3216000E33163850395CD8B030
:101820001BD0D89031363236333638063950381816
:10183000D8B40DD0370637C034F0070E3416D8B4FC
:1018400006D0EFD7D89030322F322E32392A385086
:101850003918D8B41FD0F6D73950385CD8B01AD060
:10186000D8902E362F363036390639503818D8B43D
:101870000DD0370637C034F0070E3416D8B406D072
:10188000EFD7D890333232323132382A38503918C3
:10189000D8A4F7D737AE0CD0FF0E2E1AFF0E2F1A92
:1018A000FF0E301A010E2E26000E2F22000E3022BF
:1018B00037AC0CD0FF0E311AFF0E321AFF0E331A5E
:1018C000010E3126000E3222000E3322000E376E3A
:1018D0002E5031262F5032223050332233AE0ED0CC
:1018E000FF0E311AFF0E321AFF0E331A010E312687
:1018F000000E3222000E3322010E376E31C001F08D
:1019000032C002F033C003F039C004F037C005F034
:10191000F2EC0FF001C02EF002C02FF003C030F047
:10192000120003C007F0086A096A0234073601E3AF
:10193000088007500F6E0F50D8A409D0000E016E1A
:10194000000E026E000E036E000E046E120006C042
:1019500007F0086A096A0534073601E30880075072
:101960000E6E0E50D8A409D0000E016E000E026E4D
:10197000000E036E000E046E1200028EFF0E0116A2
:10198000FF0E0216000E0316058EFF0E0416FF0E44
:101990000516000E0616000E0A6E000E0B6E000EE7
:1019A0000C6E000E0D6E7F0E0F5E0E50980F0F5EC8
:1019B000180E0E6ED8900A360B360C360D360450C3
:1019C000015C0550025806500358D8A007D00450B7
:1019D000015E0550025A0650035A0A80D89001361B
:1019E000023603360E2EE6D70FAE16D00F50800A01
:1019F000970FD8B009D0000E016E000E026E000ED7
:101A0000036E000E046E1200D8900D320C320B32B1
:101A10000A320F3EF9D715D0170E0F640FD0000E03
:101A2000016E000E026E000E036E000E046E1200B8
:101A3000D8900A360B360C360D360F060F50D8A448
:101A4000F7D70AC001F00BC002F00CC003F00DC0C4
:101A500004F01200033404340C6E0C50D8A409D0E6
:101A6000000E016E000E026E000E036E000E046E7C
:101A70001200063407340B6E0B50D8A409D0000EA8
:101A8000016E000E026E000E036E000E046E120058
:101A9000038EFF0E0116FF0E0216FF0E0316000E38
:101AA0000416068EFF0E0416FF0E0516FF0E061610
:101AB000000E0716000E076E000E086E000E096E6F
:101AC000000E0A6E7F0E0C5E0B50A00F0C5E200EF7
:101AD0000B6ED8900736083609360A360450015C7A
:101AE000055002580650035807500458D8A009D092
:101AF0000450015E0550025A0650035A0750045A1A
:101B00000780D89001360236033604360B2EE1D713
:101B10000CAE16D00C50800A9F0FD8B009D0000E22
:101B2000016E000E026E000E036E000E046E1200B7
:101B3000D8900A320932083207320C3EF9D715D054
:101B40001F0E0C640FD0000E016E000E026E000E10
:101B5000036E000E046E1200D89007360836093660
:101B60000A360C060C50D8A4F7D707C001F008C0FD
:101B700002F009C003F00AC004F0120017C01BF005
:101B80001C6A1D6A16341B3601E31C801B501E6E36
:101B90001E50D8A407D0000E156E000E166E000E53
:101BA000176E12001AC01BF01C6A1D6A19341B360E
:101BB00001E31C801B50236E2350D8A407D0000ED5
:101BC000156E000E166E000E176E120023507B0F5E
:101BD0001E2617C023F01A50231A800E2316168EC5
:101BE000198EFF0E1816FF0E1916000E1A16000E8B
:101BF0001F6E000E206E000E216E070E226E15A0C5
:101C000006D018501F26195020221A502122D89091
:101C1000173216321532D890183619361A36222E47
:101C2000EED7090E226E15A006D018501F261950A7
:101C300020221A502122D890173216321532D8900D
:101C4000213220321F32222EEED71FC001F020C0D9
:101C500002F021C003F01EC004F023C005F0F2EC36
:101C60000FF001C015F002C016F003C017F012000B
:101C70002DC02FF0306A316A2C342F3601E33080CA
:101C80002F50396E3950D8A409D0000E2B6E000E9B
:101C90002C6E000E2D6E000E2E6E1200170E2F6E83
:101CA0002BC030F02CC031F02DC032F02F28336E15
:101CB00004D0D890323231323032332EFAD730500D
:101CC000346E2C8EFF0E2B16FF0E2C16000E2D16CA
:101CD0002B50356E2C50366E2D50376E386A8E0E66
:101CE000395E39AE16D03950800A8F0FD8B009D07E
:101CF000000E2B6E000E2C6E000E2D6E000E2E6E42
:101D00001200D8903832373236323532393EF9D770
:101D100015D0170E39640FD0000E2B6E000E2C6EEE
:101D2000000E2D6E000E2E6E1200D890353636360F
:101D30003736383639063950D8A4F7D73450D8B4A6
:101D400008D0381E371E361E356C000E362237225C
:101D5000382235C02BF036C02CF037C02DF038C0FB
:101D60002EF012000FC013F0146A156A0E341336E9
:101D700001E3148013501A6E1A50D8A407D0000E35
:101D80000D6E000E0E6E000E0F6E120012C013F0DC
:101D9000146A156A1134133601E3148013501B6E54
:101DA0001B50D8A407D0000E0D6E000E0E6E000E54
:101DB0000F6E1200000E176E000E186E000E196ED8
:101DC0001B50890F1A5E0FC01BF012501B1A800E99
:101DD0001B160E8EFF0E0D16FF0E0E16000E0F16A2
:101DE000118EFF0E1016FF0E1116000E1216180E91
:101DF000166ED89017361836193610500D5C1150E3
:101E00000E5812500F58D8A007D010500D5E115028
:101E10000E5A12500F5A1780D8900D360E360F36C4
:101E2000162EE7D717C001F018C002F019C003F052
:101E30001AC004F01BC005F0F2EC0FF001C00DF069
:101E400002C00EF003C00FF0120095929594959683
:101E50009598959A959C959E839283948396839862
:101E6000839A839C839E000E3B6E140E3A6E8CEC1C
:101E70000FF0300E836E46EC13F0000E3B6E040E36
:101E80003A6E8CEC0FF0300E836E46EC13F0000EC1
:101E90003B6E040E3A6E8CEC0FF0300E836E46EC07
:101EA00013F0000E3B6E010E3A6E8CEC0FF0200E1C
:101EB000836E46EC13F0000E456E280E446E42EC25
:101EC00012F0000E3B6E080E3A6E8CEC0FF0000E16
:101ED000456E0C0E446E42EC12F0000E3B6E080E86
:101EE0003A6E8CEC0FF0000E456E010E446E42EC23
:101EF00012F0000E3B6E020E3A6E8CEC0FF0000EEC
:101F0000456E060E446E42EC12F0000E3B6E080E5B
:101F10003A6E8CEC0FF01200000E416E000E406E17
:101F2000000E436E000E426E000E3F6E000E3E6EBF
:101F3000830ED66ED6503C6E3D6A3C1E3D1E3C4A1A
:101F40003D2A050ED8903C363D36E82EFBD7000ED4
:101F50003C24096E200E3D200A6EE0EC12F009C010
:101F600010F00AC011F00BC012F0000E0D6EFA0E48
:101F70000E6E450E0F6EB2EC0EF00DC02BF00EC0C3
:101F80002CF00FC02DF038EC0EF02BC042F02CC01E
:101F900043F0D58E20D0F2A41ED0F294830ED66EDC
:101FA000404A412A4250401816E143504118D8A4F3
:101FB00012D03E4A3F2A3E503A1804E13F503B18A7
:101FC000D8B405D0000E416E000E406E04D042C061
:101FD00040F043C041F04250405C43504158D8B0BB
:101FE0001200D9D70450D8B405D001500210031004
:101FF000D8A40CD0000E016E000E026E000E036E0F
:102000001200042AD890033202320132000E011469
:10201000066E000E0214076EFE0E0314086E0650C4
:1020200007100810D8B40CD0ECD7042A010E0126F2
:10203000000E0222000E0322D89003320232013237
:10204000000E0114066E000E0214076EFF0E03143C
:10205000086E065007100810D8B406D0E6D704065C
:10206000D89001360236033602BE03D0020E046059
:10207000F6D704A0029ED8900432045003120550F3
:10208000D8A4038E01C001F002C002F003C003F027
:10209000120094829484720ED36E62EC11F025ECDF
:1020A0000FF0BA80BA82BA94BA86B196B19CA09069
:1020B000A1909280C280CD800B0EBC6EB80EBB6E1C
:1020C0009EA005D09E905950CF6E58C0CEFFA1A0C3
:1020D00005D0A190000E5B6E010E5A6E55EC13F008
:1020E000000E3B6E0A0E3A6E8CEC0FF0790E406ECD
:1020F000000E416E770E426E080E436E4EC044F0E5
:102100004FC045F050C046F040EC04F0790E4B6EE5
:10211000000E4C6EFCEC12F0000E5B6E000E5A6E60
:10212000010E3B6EF40E3A6E8CEC0FF0C5D703AE89
:1021300016D001C007F002C008F003C009F0071E66
:10214000081E091E072A000E08220922000E072475
:10215000016E000E0820026E800E0920036E06AE8E
:1021600016D004C007F005C008F006C009F0071E2D
:10217000081E091E072A000E08220922000E072445
:10218000046E000E0820056E800E0920066E000EFB
:10219000011A000E021A800E031A000E041A000E15
:1021A000051A800E061A0450015C055002580650AC
:1021B0000358D8B002D0D8901200D8801200000E78
:1021C0000C6E0AAE06D0096C0A1ED8B00A2A010E9F
:1021D0000C6E08AE06D0076C081ED8B0082A010E97
:1021E0000C1A000E0E6E000E0D6E09500A10D8B4B7
:1021F0001CD0010E0B6E04D0D89009360A360B2A7B
:102200000AAEFAD7D8900D360E360950075C0A5040
:102210000858D8A005D00950075E0A50085A0D800A
:10222000D8900A3209320B2EEDD70C50D8B404D016
:102230000D6C0E1ED8B00E2A0DC007F00EC008F0AF
:102240001200000E096E000E0A6E000E0B6E000EDC
:102250000C6E0550061007100810D8B42AD0010ED5
:102260000D6E06D0D89005360636073608360D2A8C
:1022700008AEF8D7D89009360A360B360C3605501A
:10228000015C065002580750035808500458D8A063
:1022900009D00550015E0650025A0750035A0850F3
:1022A000045A0980D89008320732063205320D2EC2
:1022B000E1D709C001F00AC002F00BC003F00CC066
:1022C00004F01200F28EF28CD58ED58CD59AD5966C
:1022D000D550F80B0409D56EF294C180C182C18437
:1022E000C186000E926E000E936E070EC26EC290F3
:1022F000C08EC050F80B0609C06EC050C70B28092D
:10230000C06EC150F00B0D09C16E9282C050F80B27
:102310000609C06EC19AC198C294C296C298C29A68
:10232000C08EC150F00B0B09C16E9280C2809D8C93
:102330009E9CC086C088C08AC2829E9A000E956EFE
:10234000000E806E1200000E066E02AE06D0016C0A
:10235000021ED8B0022A010E066E04AE04D0036C31
:10236000041ED8B0042A03500410D8B418D0010EAB
:10237000056E04D0D89003360436052A04AEFAD789
:102380000350015C04500258D8A004D00350015EF1
:102390000450025AD89004320332052EF1D7065069
:1023A000D8B404D0016C021ED8B0022A01C001F0DA
:1023B00002C002F01200838283CF46F00F0E461651
:1023C00044C047F045C048F0040E496ED8904832EA
:1023D0004732492EFBD70F0E471683380F0B0F0BD2
:1023E0000F0947144A6E4A38F00B4610836E46ECCC
:1023F00013F083CF46F00F0E461644C047F00F0E81
:10240000471683380F0B0F0B0F094714486E4838D7
:10241000F00B4610836E46EC13F0839212000550C9
:10242000061007100810D8B424D0010E096E06D08B
:10243000D8900536063607360836092A08AEF8D78A
:102440000550015C065002580750035808500458C4
:10245000D8A008D00550015E0650025A0750035A12
:102460000850045AD8900832073206320532092E35
:10247000E7D701C001F002C002F003C003F004C0BE
:1024800004F01200839283CF46F00F0E461644C02C
:1024900047F045C048F0040E496ED89048324732A4
:1024A000492EFBD70F0E471683380F0B0F0B0F0962
:1024B00047144A6E4A38F00B4610836E46EC13F010
:1024C00083CF46F00F0E461644C047F00F0E471656
:1024D00083380F0B0F0B0F094714486E4838F00B69
:1024E0004610836E46EC13F012008E0E116E06D06D
:1024F000D8900C320B320A320932112A000E09141C
:102500000D6E000E0A140E6E000E0B140F6EFF0EF1
:102510000C14106E0D500E100F101010D8A4E8D728
:1025200009C001F00AC002F00BC003F011C004F0B2
:10253000000E056EF2EC0FF001C009F002C00AF0C7
:1025400003C00BF012003D503E103F10D8B406D02F
:10255000000E3D1A000E3E1A800E3F1A3AC02EF0B1
:102560003BC02FF03CC030F03DC031F03EC032F0F7
:102570003FC033F0BBEC0BF02EC03AF02FC03BF065
:1025800030C03CF01200C40EF66E260EF76E000E40
:10259000F86E0900F5CF5CF00900F5CF5DF000EEB4
:1025A00079F0180EEE6AE806FDE100EE4EF00E0E30
:1025B000EE6AE806FDE1000EF86E000149EF10F04A
:1025C000000E0C6E0AAE06D0096C0A1ED8B00A2A9C
:1025D000010E0C6E09C001F00AC002F0036A8E0EF3
:1025E000046E0CC005F0F2EC0FF001C009F002C05F
:1025F0000AF003C00BF012000DD04BC0D9FF4CC045
:10260000DAFFDF504D6E4D50446E456ADBEC11F041
:102610004B4A4C2A4BC0D9FF4CC0DAFFDF50D8B42C
:102620001200EBD70F501102F3CF13F0F4CF14F0D8
:102630000F501202F350142610501102F3501426BA
:1026400013C00FF014C010F012000150021003105C
:10265000D8B406D0000E011A000E021A800E031A1A
:1026600001C001F002C002F003C003F01200036ECB
:10267000000E026E3A0E036005D02F0E036402D0E6
:10268000010E026E02C001F0013012008386000EBE
:102690003B6E020E3A6E8CEC0FF08396000E3B6E92
:1026A000020E3A6E8CEC0FF01200000E456E020E18
:1026B000446E42EC12F0000E3B6E040E3A6E8CEC4F
:0626C0000FF01200010002
:020000040020DA
:08000000FFFFFFFFFFFFFFFF00
:020000040030CA
:0E000000010E1F1EFF8381FF0FC00FE00F4097
:00000001FF
