:0400000007EF00F016
:0A0008004D828EED11F011EF15F09E
:1008000000010000000A00000064000000E803008E
:100810000010270000A086010040420F008096983B
:100820000000E1F50500CA9A3B00803F002041002E
:10083000C842007A44401C4650C347247449971864
:100840004BBCBE4C6B6E4E03155079AD60F34971D5
:1008500000803FCDCC3DD7233C12833AB7D138C678
:100860002737388635C0D633CC2B32708930E7DB5A
:0F0870002EE53C1E42A20D25312E32660A0000F5
:10088000700E00017C6F000E7D6F7AEF08F0250E70
:100890009119D8B408D06CC0D9FF6DC0DAFF91C0EF
:1008A000DFFF78EF08F0000E856F000E846F000EFA
:1008B000836F000E826F6EC0F6FF6FC0F7FF0800F7
:1008C000F550E5EC14F0D8A034D0000E0001856F8F
:1008D000000E846F84C021F085C022F0000E246ECB
:1008E0000A0E236E9CEC14F021C084F022C085F027
:1008F000D00E0001736FFF0E746F6EC0F6FF6FC0F5
:10090000F7FF0800F550756F766B735175277451BA
:10091000762375518427765185236E4B6F2B6EC0DD
:10092000F6FF6FC0F7FF0800F550E5EC14F0D8B003
:10093000D1D76EC0F6FF6FC0F7FF0800F5502E0A42
:10094000D8A430D00001838D6E4B6F2B000E906FBA
:10095000000E8F6F1CD08FC021F090C022F0000ECF
:10096000246E0A0E236E9CEC14F06EC0F6FF6FC06E
:10097000F7FF0800F5502126000E2222D00E212478
:1009800000018F6FFF0E2220906F6E4B6F2B6EC099
:10099000F6FF6FC0F7FF0800F550E5EC14F0D8A0A3
:1009A0000AD0D9D7000E0001906F000E8F6F838997
:1009B00002D0838512D06EC0F6FF6FC0F7FF000132
:1009C0006E4B6F2B0800F5CF91F09151000AD8B40F
:1009D0009ED3660AD8B4EDD78DD3070E8315D8B44D
:1009E000FED283A904D0000E906F060E8F6F7CC0DC
:1009F000D9FF7DC0DAFFDECF8CF0DECF8DF0DDCF0A
:100A00008EF0030E7C27000E7D238EAF11D08CC09C
:100A100013F08DC014F08EC015F0AFEC14F013C0BD
:100A20008CF014C08DF015C08EF0030E00018213FF
:100A3000000E8B6F000E8A6F8C518D118E11D8B401
:100A400086D0820E736FFF0E746F8CC075F08DC0F0
:100A500076F08EC077F08FC078F0100E05D0D89069
:100A60007833773376337533E82EF9D7755173259C
:100A70008A6F000E74218B6F8A07D8A08B078AC0FB
:100A800021F08BC022F0000E246E030E236E9CEC2E
:100A900014F021C08AF022C08BF08AC019F08BC0FC
:100AA0001AF0000E1C6E0A0E1B6E23EC12F019C019
:100AB0008AF01AC08BF000018BAF03D08A07D8A050
:100AC0008B078A5100088EEC08F036C086F037C0DC
:100AD00087F038C088F086C027F087C028F088C02B
:100AE00029F08CC02AF08DC02BF08EC02CF077EC52
:100AF0000FF027C086F028C087F029C088F086C094
:100B000013F087C014F088C015F0000E166E800E2A
:100B1000176E3F0E186EDBEC11F0D8B005D0000157
:100B20008A07D8A08B0713D086C013F087C014F0B3
:100B300088C015F0000E166E200E176E410E186E4E
:100B4000DBEC11F0D8A003D000018A4B8B2B000105
:100B500090BF06D090511BE10D0E8F5DD8B017D01D
:100B60008CC045F08DC046F08EC047F08F5192EC9E
:100B70000AF036C048F037C049F038C04AF0BBEC44
:100B80000BF045C08CF046C08DF047C08EF00001E0
:100B90008BBF06D08B5120E10A0E8A5DD8B01CD0E5
:100BA0008C518D118E11D8B456D08CC045F08DC0AB
:100BB00046F08EC047F0FBEC0EF045504610471053
:100BC0004810D8A448D000018BBF45D08B5104E118
:100BD000020E8A5DD8A03FD086C013F087C014F003
:100BE00088C015F0700E166E890E176E400E186EC6
:100BF000DBEC11F0D8B003D00001F70E02D00001F9
:100C0000F80E8A27FF0E8B238A518EEC08F036C02F
:100C100086F037C087F038C088F08CC013F08DC0E4
:100C200014F08EC015F086C016F087C017F088C08B
:100C300018F046EC0DF013C07EF014C07FF015C024
:100C400080F016C081F0000E00018C6F000E8D6FD9
:100C5000000E8E6F33D08CC045F08DC046F08EC034
:100C600047F0FBEC0EF045C07EF046C07FF047C079
:100C700080F048C081F08CC066F08DC067F08EC0F7
:100C800068F07EC01BF07FC01CF080C01DF081C0EA
:100C90001EF0F2EC13F01BC069F01CC06AF01DC01E
:100CA0006BF044EC14F066C08CF067C08DF068C047
:100CB0008EF0000E00018B6F000E8A6F010E916F97
:100CC0000A0E9119D8B418D09151040D010EF324D5
:100CD000F66E080EF420F76E0900F5507E5D0900EF
:100CE000F5507F590900F55080590900F550815998
:100CF000D8A002D0912BE4D791C073F0746B73BF6E
:100D000074078F517327905174238A5173278B5125
:100D100074237351845F7451855B8F519011D8B4E3
:100D200003D08407D8A08507030E8215736F000EC9
:100D30008315746F73517411D8B40CD008D06CC083
:100D4000D9FF6DC0DAFF200EDF6E6C4B6D2B840770
:100D5000D8A0850785BF05D08551F1E18405D8B0BD
:100D6000EED7030E8215736F000E8315746F7351E7
:100D70007411D8B450D06CC0D9FF6DC0DAFF2D0EFD
:100D800047D07EC013F07FC014F080C015F081C042
:100D900016F09151040D010EF324F66E080EF420A6
:100DA000F76E0900F5CF17F00900F5CF18F009002C
:100DB000F5CF19F00A00F5CF1AF065EC12F013C068
:100DC00086F014C087F015C088F016C089F086C080
:100DD00013F087C014F088C015F089C016F00A0E11
:100DE000176E000E186E000E196E000E1A6E8CEC47
:100DF00013F013C086F014C087F015C088F016C039
:100E000089F000018651300F6CC0D9FF6DC0DAFF48
:100E1000DF6E6C4B6D2B91079129D8B40CD0B1D7F4
:100E20006CC0D9FF6DC0DAFF300EDF6E6C4B6D2BDE
:100E30008A07D8A08B078BBF05D08B51F1E18A05BB
:100E4000D8B0EED790BF09D0905104E1090E8F5D64
:100E5000D8A003D0080E916F02D08FC091F09151AD
:100E60008F5F000E91BFFF0E905B9151D8B408D0F8
:100E70006CC0D9FF6DC0DAFF2E0EDF6E6C4B6D2B90
:100E800091518EEC08F036C079F037C07AF038C056
:100E90007BF08CC02AF08DC02BF08EC02CF079C076
:100EA00027F07AC028F07BC029F077EC0FF027C03C
:100EB00045F028C046F029C047F0FBEC0EF045C0D5
:100EC0007EF046C07FF047C080F048C081F071D00E
:100ED0007EC013F07FC014F080C015F081C016F002
:100EE00000019151040D010EF324F66E080EF4205A
:100EF000F76E0900F5CF17F00900F5CF18F00900DB
:100F0000F5CF19F00A00F5CF1AF065EC12F013C016
:100F100086F014C087F015C088F016C089F086C02E
:100F200013F087C014F088C015F089C016F00A0EBF
:100F3000176E000E186E000E196E000E1A6E8CECF5
:100F400013F013C086F014C087F015C088F016C0E7
:100F500089F000018651300F6CC0D9FF6DC0DAFFF7
:100F6000DF6E6C4B6D2B7EC013F07FC014F080C021
:100F700015F081C016F09151040D010EF324F66EA8
:100F8000080EF420F76E0900F5CF17F00900F5CF31
:100F900018F00900F5CF19F00A00F5CF1AF08CEC23
:100FA00013F013C07EF014C07FF015C080F016C09F
:100FB00081F0000191079129D8B40CD089D76CC079
:100FC000D9FF6DC0DAFF300EDF6E6C4B6D2B8F07D3
:100FD000D8A090078F519011D8B48CD0F0D78F51F2
:100FE0009011D8A408D07E517F1180118111D8A40E
:100FF00002D08F4B902B800E91BF7F0E736F8F515D
:10100000915D9051800A7359D8B003D08FC091F090
:1010100010D09051800A736F91518F5D800E91BFF7
:101020007F0E7359D8B005D091518F6F906B8FBFE1
:10103000900784518511D8B40DD0030E8215736FBB
:10104000000E8315746F73517411D8B403D08407E4
:10105000D8A0850783AD13D084518F5D9051800A4D
:10106000736F8551800A7359D8B005D08F51845F52
:101070009051855B04D0000E856F000E846F800E4A
:1010800091BF7F0E736F8451915D8551800A7359B2
:10109000D8B007D09151845F000E91BFFF0E855BE1
:1010A00004D0000E856F000E846F84518511D8B472
:1010B0000FD06CC0D9FF6DC0DAFF200EDF6E6C4B15
:1010C0006D2B8407D8A0850784518511D8A4F1D74A
:1010D000030E8215736F000E8315746F73517411B4
:1010E000D8B408D06CC0D9FF6DC0DAFF2D0EDF6E0A
:1010F0006C4B6D2B6EC0F6FF6FC0F7FF6E4B6F2B06
:101100000800F5CF91F09151D8A447EF04F06CC0DE
:10111000D9FF6DC0DAFF000EDF6E12003C6E3CAEF0
:1011200001D13C6C3C50800A120FD8A091D0000E27
:10113000246E030E236E000E1C6E0A0E1B6E000E34
:10114000166E640E156E3C50136E146A13BE1406B0
:101150001FEC13F013C019F014C01AF023EC12F0B6
:10116000090E1924216E000E1A20226E9CEC14F038
:10117000500E2124F66E080E2220F76E0900F5CFDE
:101180002AF00900F5CF2BF00A00F5CF2CF0000E65
:101190001C6E640E1B6E3C50196E1A6A19BE1A063C
:1011A00023EC12F0120E1924216E000E1A20226E6A
:1011B000000E246E030E236E9CEC14F0500E2124BE
:1011C000F66E080E2220F76E0900F5CF27F0090011
:1011D000F5CF28F00A00F5CF29F077EC0FF027C003
:1011E00039F028C03AF029C03BF039C027F03AC0A6
:1011F00028F03BC029F0000E246E030E236E000E73
:10120000166E0A0E156E3C50136E146A13BE140649
:101210001FEC13F013C021F014C022F09CEC14F06A
:10122000500E2124F66E080E2220F76E0900F5CF2D
:101230002AF00900F5CF2BF00A00F5CF2CF077EC5F
:101240000FF027C036F028C037F029C038F0120060
:101250003C50800A750FD8A053D0000E1C6E0A0EA9
:101260001B6E3C50196E1A6A19BE1A0623EC12F056
:10127000090E1924216E000E1A20226E000E246E13
:10128000030E236E9CEC14F0500E2124F66E080E13
:101290002220F76E0900F5CF27F00900F5CF28F0DE
:1012A0000A00F5CF29F0000E246E030E236E000E07
:1012B000166E0A0E156E3C50136E146A13BE140699
:1012C0001FEC13F013C021F014C022F09CEC14F0BA
:1012D000500E2124F66E080E2220F76E0900F5CF7D
:1012E0002AF00900F5CF2BF00A00F5CF2CF077ECAF
:1012F0000FF027C036F028C037F029C038F01200B0
:101300003C50030D500EF324F66E080EF420F76ED9
:101310000900F5CF36F00900F5CF37F00A00F5CF18
:1013200038F012003C50800A120FD8A091D0000E65
:10133000246E030E236E000E1C6E0A0E1B6E000E32
:10134000166E640E156E3C50136E146A13BE1406AE
:101350001FEC13F013C019F014C01AF023EC12F0B4
:10136000090E1924216E000E1A20226E9CEC14F036
:10137000290E2124F66E080E2220F76E0900F5CF03
:101380002AF00900F5CF2BF00A00F5CF2CF0000E63
:101390001C6E640E1B6E3C50196E1A6A19BE1A063A
:1013A00023EC12F0120E1924216E000E1A20226E68
:1013B000000E246E030E236E9CEC14F0290E2124E3
:1013C000F66E080E2220F76E0900F5CF27F009000F
:1013D000F5CF28F00A00F5CF29F077EC0FF027C001
:1013E00039F028C03AF029C03BF039C027F03AC0A4
:1013F00028F03BC029F0000E246E030E236E000E71
:10140000166E0A0E156E3C50136E146A13BE140647
:101410001FEC13F013C021F014C022F09CEC14F068
:10142000290E2124F66E080E2220F76E0900F5CF52
:101430002AF00900F5CF2BF00A00F5CF2CF077EC5D
:101440000FF027C036F028C037F029C038F012005E
:101450003C50800A750FD8A053D0000E1C6E0A0EA7
:101460001B6E3C50196E1A6A19BE1A0623EC12F054
:10147000090E1924216E000E1A20226E000E246E11
:10148000030E236E9CEC14F0290E2124F66E080E38
:101490002220F76E0900F5CF27F00900F5CF28F0DC
:1014A0000A00F5CF29F0000E246E030E236E000E05
:1014B000166E0A0E156E3C50136E146A13BE140697
:1014C0001FEC13F013C021F014C022F09CEC14F0B8
:1014D000290E2124F66E080E2220F76E0900F5CFA2
:1014E0002AF00900F5CF2BF00A00F5CF2CF077ECAD
:1014F0000FF027C036F028C037F029C038F01200AE
:101500003C50030D290EF324F66E080EF420F76EFE
:101510000900F5CF36F00900F5CF37F00A00F5CF16
:1015200038F012003F6E6D0E3F649FD0000E246EA7
:10153000030E236E000E1C6E0A0E1B6E000E166E3E
:10154000640E156E3FC013F0146A1FEC13F013C045
:1015500019F014C01AF023EC12F0090E1924216EB0
:10156000000E1A20226E9CEC14F0500E2124F66E10
:10157000080E2220F76E0900F5CF2AF00900F5CFFA
:101580002BF00A00F5CF2CF0000E1C6E640E1B6EC3
:101590003FC019F01A6A23EC12F0120E1924216EC2
:1015A000000E1A20226E000E246E030E236E9CEC99
:1015B00014F0500E2124F66E080E2220F76E09005A
:1015C000F5CF27F00900F5CF28F00A00F5CF29F074
:1015D00077EC0FF027C03CF028C03DF029C03EF06A
:1015E000000E246E030E236E000E166E0A0E156E8C
:1015F0003FC013F0146A1FEC13F013C021F014C0A5
:1016000022F09CEC14F0500E2124F66E080E2220DD
:10161000F76E0900F5CF2AF00900F5CF2BF00A008C
:10162000F5CF2CF03CC027F03DC028F03EC029F09B
:1016300077EC0FF027C039F028C03AF029C03BF012
:1016400039C027F03AC028F03BC029F0000E2A6EBE
:10165000000E2B6E3F0E2C6E77EC0FF027C036F08D
:1016600028C037F029C038F012000A0E3F6463D05A
:10167000000E246E030E236E000E166E0A0E156EFB
:101680003FC013F0146A1FEC13F013C021F014C014
:1016900022F09CEC14F0500E2124F66E080E22204D
:1016A000F76E0900F5CF2AF00900F5CF2BF00A00FC
:1016B000F5CF2CF0000E1C6E0A0E1B6E3FC019F009
:1016C0001A6A23EC12F0090E1924216E000E1A205A
:1016D000226E000E246E030E236E9CEC14F0500E4E
:1016E0002124F66E080E2220F76E0900F5CF27F0B0
:1016F0000900F5CF28F00A00F5CF29F077EC0FF0BC
:1017000027C03CF028C03DF029C03EF03CC027F087
:101710003DC028F03EC029F0000E2A6E000E2B6E50
:101720003F0E2C6E77EC0FF027C036F028C037F054
:1017300029C038F012003F50030D500EF324F66E0E
:10174000080EF420F76E0900F5CF27F00900F5CF59
:1017500028F00A00F5CF29F0000E2A6E000E2B6E3D
:101760003F0E2C6E77EC0FF027C036F028C037F014
:1017700029C038F0120047C060F00001616B626B55
:101780004634603701E361816051656F4AC060F0A3
:10179000616B626B4934603701E361816051646F52
:1017A0006551D8B40BD06451655DD8B00ED0655189
:1017B00000086425606F180E606507D048C045F0CA
:1017C00049C046F04AC047F012006451D8B40BD06B
:1017D0006551645DD8B00ED0645100086525606F16
:1017E000180E606507D045C045F046C046F047C0BA
:1017F00047F01200060E636F47BE638F4ABE638DCB
:10180000468EFF0E4516FF0E4616000E4716498EF1
:10181000FF0E4816FF0E4916000E4A166451655D0C
:10182000D8B01BD0D890483649364A36640765513F
:101830006419D8B40DD0630763C060F0070E601759
:10184000D8B406D0EFD7D890473246324532652B10
:1018500064516519D8B41FD0F6D76551645DD8B00E
:101860001AD0D89045364636473665076551641913
:10187000D8B40DD0630763C060F0070E6017D8B40A
:1018800006D0EFD7D8904A3249324832642B64519F
:101890006519D8A4F7D763AF0CD0FF0E451AFF0E19
:1018A000461AFF0E471A010E4526000E4622000E6C
:1018B000472263AD0CD0FF0E481AFF0E491AFF0EE7
:1018C0004A1A010E4826000E4922000E4A22000E36
:1018D000636F455048264650492247504A224AAE37
:1018E0000ED0FF0E481AFF0E491AFF0E4A1A010EBB
:1018F0004826000E4922000E4A22010E636F48C09E
:1019000013F049C014F04AC015F065C016F063C06A
:1019100017F037EC11F013C045F014C046F015C0B5
:1019200047F01200BFEC13F064EC10F0720ED36EAF
:10193000800E00016B6F250E6C6F000E6D6F000E38
:101940006E6FA6EC12F0000E146E320E136E81EC68
:1019500014F0000E0001936F000E926FC250C30B83
:101960000409C26E000E9A6F000E9B6F000E9C6FF2
:10197000000E956F000E946F000E976F000E966F1D
:10198000000E4A6E020E496ECFEC10F0000E000100
:10199000726F010E716F73EC0EF071C098F072C02F
:1019A00099F00A0E2A6E8F0E2B6E400E2C6E98C088
:1019B0001BF099C01CF0C1EC14F01BC027F01CC038
:1019C00028F01DC029F077EC0FF027C036F028C0B2
:1019D00037F029C038F0C00E396E7F0E3A6E440ED3
:1019E0003B6EF1EC0FF036C09AF037C09BF038C078
:1019F0009CF09D0E00016C6F000E6D6F770E6E6F88
:101A0000080E6F6F9AC070F09BC071F09CC072F0AE
:101A100040EC04F09D0E146E000E156ED3EC14F025
:101A200098C01BF099C01CF0C1EC14F01BC01EF054
:101A30001CC01FF01DC020F020EC14F0330E136EFC
:101A4000730E146E400E156E9AC016F09BC017F000
:101A50009CC018F0DBEC11F0D8B009D093908180D5
:101A6000000E4A6E320E496ECFEC10F08190000EDF
:101A70004A6E020E496ECFEC10F0000E146E960EF8
:101A8000136E81EC14F003EC15F07AD715C019F041
:101A90001A6A1B6A1434193601E31A801950216E30
:101AA0002150D8A409D0000E136E000E146E000E43
:101AB000156E000E166E120018C019F01A6A1B6A15
:101AC0001734193601E31A801950206E2050D8A41B
:101AD00009D0000E136E000E146E000E156E000E6F
:101AE000166E1200148EFF0E1316FF0E1416000E43
:101AF0001516178EFF0E1616FF0E1716000E181667
:101B0000000E1C6E000E1D6E000E1E6E000E1F6E6F
:101B10007F0E215E2050980F215E180E206ED89007
:101B20001C361D361E361F361650135C17501458BF
:101B300018501558D8A007D01650135E1750145AD5
:101B40001850155A1C80D890133614361536202E8E
:101B5000E6D721AE16D02150800A970FD8B009D011
:101B6000000E136E000E146E000E156E000E166E33
:101B70001200D8901F321E321D321C32213EF9D77E
:101B800015D0170E21640FD0000E136E000E146EC8
:101B9000000E156E000E166E1200D8901C361D3603
:101BA0001E361F3621062150D8A4F7D71CC013F0CB
:101BB0001DC014F01EC015F01FC016F01200153421
:101BC00016341E6E1E50D8A409D0000E136E000EDF
:101BD000146E000E156E000E166E120018341934B5
:101BE0001D6E1D50D8A409D0000E136E000E146E89
:101BF000000E156E000E166E1200158EFF0E1316D7
:101C0000FF0E1416FF0E1516000E1616188EFF0E78
:101C10001616FF0E1716FF0E1816000E1916000ED8
:101C2000196E000E1A6E000E1B6E000E1C6E7F0EDB
:101C30001E5E1D50A00F1E5E200E1D6ED890193620
:101C40001A361B361C361650135C17501458185091
:101C5000155819501658D8A009D01650135E1750B1
:101C6000145A1850155A1950165A1980D89013360C
:101C70001436153616361D2EE1D71EAE16D01E5060
:101C8000800A9F0FD8B009D0000E136E000E146E9C
:101C9000000E156E000E166E1200D8901C321B320C
:101CA0001A3219321E3EF9D715D01F0E1E640FD0FE
:101CB000000E136E000E146E000E156E000E166EE2
:101CC0001200D89019361A361B361C361E061E50C6
:101CD000D8A4F7D719C013F01AC014F01BC015F020
:101CE0001CC016F01200000171517211D8A404D06A
:101CF000C294C296C298C29A71057211D8A404D037
:101D0000C250C30B0409C26E020E71197211D8A41D
:101D100004D0C250C30B2009C26E030E7119721198
:101D2000D8A404D0C250C30B2409C26E040E71198A
:101D30007211D8A404D0C294C296C298C29A050E59
:101D400071197211D8A404D0C250C30B0409C26E19
:101D5000060E71197211D8A404D0C250C30B200909
:101D6000C26E070E71197211D8A404D0C250C30BF1
:101D70002409C26E080E71197211D8A404D0C25081
:101D8000C30B2009C26E090E71197211D8A404D0B8
:101D9000C250C30B2409C26E0A0E71197211D8A465
:101DA00004D0C250C30B0809C26E0B0E7119721118
:101DB000D8A404D0C250C30B0C09C26E0C0E71190A
:101DC0007211D8A404D0C250C30B3009C26E000EE9
:101DD0004A6E020E496ECFEC10F0C282C2B2FED73C
:101DE000C4500001746F736BC3507325716F000E84
:101DF0007421726F120047C060F00001616B626B6A
:101E00004634603701E3618160516A6F6A51D8A43A
:101E100009D0000E456E000E466E000E476E000E95
:101E2000486E1200170E606F45C061F046C062F048
:101E300047C063F06029646F04D0D8906333623385
:101E40006133642FFAD700016151656F468EFF0E32
:101E50004516FF0E4616000E47164550666F465053
:101E6000676F4750686F696B8E0E6A5F6AAF16D0F6
:101E70006A51800A8F0FD8B009D0000E456E000E4F
:101E8000466E000E476E000E486E1200D890693301
:101E90006833673366336A3FF9D715D0170E6A6522
:101EA0000FD0000E456E000E466E000E476E000EFF
:101EB000486E1200D89066376737683769376A0707
:101EC0006A51D8A4F7D76551D8B408D0691F681FE4
:101ED000671F666D000E67236823692366C045F09F
:101EE00067C046F068C047F069C048F0120029C0DA
:101EF0002DF02E6A2F6A28342D3601E32E802D50C6
:101F0000306E3050D8A407D0000E276E000E286E19
:101F1000000E296E12002CC02DF02E6A2F6A2B3471
:101F20002D3601E32E802D50356E3550D8A407D0C4
:101F3000000E276E000E286E000E296E120035501E
:101F40007B0F302629C035F02C50351A800E3516FF
:101F5000288E2B8EFF0E2A16FF0E2B16000E2C1627
:101F6000000E316E000E326E000E336E070E346EB0
:101F700027A006D02A5031262B5032222C50332253
:101F8000D890293228322732D8902A362B362C3650
:101F9000342EEED7090E346E27A006D02A503126F3
:101FA0002B5032222C503322D8902932283227321B
:101FB000D890333232323132342EEED731C013F072
:101FC00032C014F033C015F030C016F035C017F031
:101FD00037EC11F013C027F014C028F015C029F019
:101FE000120038C03CF03D6A3E6A37343C3601E3AB
:101FF0003D803C50436E4350D8A407D0000E366E4F
:10200000000E376E000E386E12003BC03CF03D6A89
:102010003E6A3A343C3601E33D803C50446E4450C5
:10202000D8A407D0000E366E000E376E000E386E44
:102030001200000E406E000E416E000E426E4450C3
:10204000890F435E38C044F03B50441A800E44165A
:10205000378EFF0E3616FF0E3716000E38163A8EE4
:10206000FF0E3916FF0E3A16000E3B16180E3F6E85
:10207000D8904036413642363950365C3A5037585F
:102080003B503858D8A007D03950365E3A50375AAE
:102090003B50385A4080D8903636373638363F2E47
:1020A000E7D740C013F041C014F042C015F043C060
:1020B00016F044C017F037EC11F013C036F014C01E
:1020C00037F015C038F01200959295949596959832
:1020D000959A959C959E8392839483968398839AF0
:1020E000839C839E000E4A6E140E496ECFEC10F056
:1020F000300E836EF4EC14F0000E4A6E040E496E3E
:10210000CFEC10F0300E836EF4EC14F0000E4A6E3B
:10211000040E496ECFEC10F0300E836EF4EC14F028
:10212000000E4A6E010E496ECFEC10F0200E836E49
:10213000F4EC14F0000E0001726F280E716F57EC72
:1021400013F0000E4A6E080E496ECFEC10F0000E30
:102150000001726F0C0E716F57EC13F0000E4A6E97
:10216000080E496ECFEC10F0000E0001726F010EE8
:10217000716F57EC13F0000E4A6E020E496ECFECF1
:1021800010F0000E0001726F060E716F57EC13F025
:10219000000E4A6E080E496ECFEC10F01200000ED1
:1021A00000016E6F000E6D6F000E706F000E6F6F8E
:1021B000000E6C6F000E6B6F830ED66ED6504B6E9A
:1021C0004C6A4B1E4C1E4B4A4C2A050ED8904B367F
:1021D0004C36E82EFBD7000E4B241B6E200E4C20F5
:1021E0001C6E65EC14F01BC039F01CC03AF01DC029
:1021F0003BF0000E366EFA0E376E450E386EF1EC7F
:102200000FF036C045F037C046F038C047F0FBEC61
:102210000EF045C06FF046C070F0D58E20D0F2A40D
:102220001ED0F294830ED66E6D4B6E2B6F516D19CE
:1022300016E170516E19D8A412D06B4B6C2B6B51F8
:10224000491804E16C514A18D8B405D0000E6E6FDD
:10225000000E6D6F04D06FC06DF070C06EF00001A5
:102260006F516D5D70516E59D8B01200D8D71650AD
:10227000D8B405D0135014101510D8A40CD0000EEB
:10228000136E000E146E000E156E1200162AD890F2
:10229000153214321332000E1314186E000E14147B
:1022A000196EFE0E15141A6E185019101A10D8B4A3
:1022B0000CD0ECD7162A010E1326000E1422000EA5
:1022C0001522D890153214321332000E1314186EE2
:1022D000000E1414196EFF0E15141A6E18501910F2
:1022E0001A10D8B406D0E6D71606D890133614368E
:1022F000153614BE03D0020E1660F6D716A0149E33
:10230000D8901632165015121750D8A4158E13C037
:1023100013F014C014F015C015F012000600FACF27
:1023200001F0FBCF02F0E9CF03F0EACF04F0E1CFF8
:1023300005F0E2CF06F0D9CF07F0DACF08F0F3CFFF
:1023400009F0F4CF0AF0F6CF0BF0F7CF0CF0F8CF8E
:102350000DF0F5CF0EF04DC00FF04EC010F04FC095
:1023600011F050C012F09EBC9E9C12C050F011C0E3
:102370004FF010C04EF00FC04DF00EC0F5FF0DC075
:10238000F8FF0CC0F7FF0BC0F6FF0AC0F4FF09C04E
:10239000F3FF08C0DAFF07C0D9FF06C0E2FF05C09F
:1023A000E1FF04C0EAFF03C0E9FF02C0FBFF01C078
:1023B000FAFF4D92110015AE16D013C019F014C0DB
:1023C0001AF015C01BF0191E1A1E1B1E192A000E2A
:1023D0001A221B22000E1924136E000E1A20146EEE
:1023E000800E1B20156E18AE16D016C019F017C03F
:1023F0001AF018C01BF0191E1A1E1B1E192A000EF7
:102400001A221B22000E1924166E000E1A20176EB7
:10241000800E1B20186E000E131A000E141A800E68
:10242000151A000E161A000E171A800E181A1650DA
:10243000135C1750145818501558D8B002D0D890C3
:102440001200D8801200000E1E6E1CAE06D01B6C4F
:102450001C1ED8B01C2A010E1E6E1AAE06D0196CB6
:102460001A1ED8B01A2A010E1E1A000E206E000E77
:102470001F6E1B501C10D8B41CD0010E1D6E04D052
:10248000D8901B361C361D2A1CAEFAD7D8901F36A2
:1024900020361B50195C1C501A58D8A005D01B5070
:1024A000195E1C501A5A1F80D8901C321B321D2EE8
:1024B000EDD71E50D8B404D01F6C201ED8B0202AEF
:1024C0001FC019F020C01AF01200000E1B6E000E83
:1024D0001C6E000E1D6E000E1E6E17501810191087
:1024E0001A10D8B42AD0010E1F6E06D0D890173615
:1024F000183619361A361F2A1AAEF8D7D8901B3656
:102500001C361D361E361750135C185014581950BF
:1025100015581A501658D8A009D01750135E1850E5
:10252000145A1950155A1A50165A1B80D8901A323C
:102530001932183217321F2EE1D71BC013F01CC0FE
:1025400014F01DC015F01EC016F01200949C948E5D
:102550006BC01BF06CC01CF06DC01DF06EC01EF097
:10256000E3EC12F01BC039F01CC03AF01DC03BF088
:10257000240E366EF40E376E470E386EF1EC0FF007
:1025800036C045F037C046F038C047F0000E486E00
:10259000800E496EBF0E4A6EBBEC0BF045C06FF06B
:1025A00046C070F047C071F06FC045F070C046F093
:1025B00071C047F0FBEC0EF04550AF6E200EAC6ED4
:1025C000900EAB6E1200000E246E8E0E236E1EAEA9
:1025D00011D01E1E1D1E1C1E1B6C000E1C221D2257
:1025E0001E22010E246E06D0D8901E321D321C32DF
:1025F0001B32232A000E1B141F6E000E1C14206EAB
:10260000000E1D14216EFF0E1E14226E1F5020108E
:1026100021102210D8A4E8D71BC013F01CC014F05E
:102620001DC015F023C016F024C017F037EC11F0D0
:1026300013C01BF014C01CF015C01DF01200000EDA
:10264000186E14AE06D0136C141ED8B0142A010EE6
:10265000186E16AE04D0156C161ED8B0162A15507A
:102660001610D8B418D0010E176E04D0D8901536B5
:102670001636172A16AEFAD71550135C1650145892
:10268000D8A004D01550135E1650145AD8901632A4
:102690001532172EF1D71850D8B404D0136C141E6D
:1026A000D8B0142A13C013F014C014F0120083928F
:1026B00083CF73F00F0E0001731771C074F072C0F6
:1026C00075F0040E766FD89075337433762FFBD780
:1026D0000F0E741783380F0B0F0B0F097415776FDC
:1026E0007739F00B7311836EF4EC14F083CF73F031
:1026F0000F0E0001731771C074F00F0E741783383A
:102700000F0B0F0B0F097415756F7539F00B7311E3
:10271000836EF4EC14F012001750181019101A10F0
:10272000D8B424D0010E1B6E06D0D89017361836B8
:1027300019361A361B2A1AAEF8D71750135C1850E0
:102740001458195015581A501658D8A008D01750B8
:10275000135E1850145A1950155A1A50165AD89018
:102760001A321932183217321B2EE7D713C013F062
:1027700014C014F015C015F016C016F01200F28E39
:10278000F28CD58ED58CD59AD596D550F80B0409F8
:10279000D56EF294C180C182C184C186000E926E52
:1027A000000E936E070EC26EC290C292C294C29681
:1027B000C298C29AC198C19AC180C182C194C1868F
:1027C000C08EC096C098C08AC090C082C0849282D9
:1027D000C2809D8C9E9CC282000E956E000E806E03
:1027E000949212008E0E236E06D0D8901E321D32A7
:1027F0001C321B32232A000E1B141F6E000E1C14E9
:10280000206E000E1D14216EFF0E1E14226E1F502E
:10281000201021102210D8A4E8D71BC013F01CC030
:1028200014F01DC015F023C016F0000E176E37EC23
:1028300011F013C01BF014C01CF015C01DF01200E5
:102840001EC013F01FC014F020C015F0000E166E4D
:10285000480E176E420E186EDBEC11F0D8B012D095
:10286000000E136E200E146EC10E156E1EC016F0F3
:102870001FC017F020C018F0DBEC11F0D8B002D068
:102880008282120082921200000169516A116B115A
:10289000D8B406D0000E691B000E6A1B800E6B1B9D
:1028A00066C045F067C046F068C047F069C048F0B0
:1028B0006AC049F06BC04AF0BBEC0BF045C066F053
:1028C00046C067F047C068F01200000E1E6E1CAED6
:1028D00006D01B6C1C1ED8B01C2A010E1E6E1BC01D
:1028E00013F01CC014F0156A8E0E166E1EC017F081
:1028F00037EC11F013C01BF014C01CF015C01DF014
:102900001200000E166E000E156E0FD0000E186E1F
:10291000000E176E185007E1510E175CD8B003D0A7
:10292000174A182AF7D7154A162A1550135C16505D
:102930001458D8A01200EAD721502302F3CF25F073
:10294000F4CF26F021502402F350262622502302F1
:10295000F350262625C021F026C022F01200135085
:1029600014101510D8B406D0000E131A000E141A45
:10297000800E151A13C013F014C014F015C015F012
:1029800012001BC013F01CC014F0156A8E0E166ED8
:10299000000E176E37EC11F013C01BF014C01CF0C2
:1029A00015C01DF0120009D014C0D9FF15C0DAFF00
:1029B000DF5018EC15F0144A152A14C0D9FF15C0C1
:1029C000DAFFDF50D8B41200EFD7156E000E146E88
:1029D0003A0E156005D02F0E156402D0010E146E4C
:1029E00014C013F0133012008386000E4A6E020EDC
:1029F000496ECFEC10F08396000E4A6E020E496EBF
:102A0000CFEC10F01200000E0001726F020E716F19
:102A100057EC13F0000E4A6E040E496ECFEC10F026
:102A200012004D904D92000EF86E000192EF0CF0E6
:0C2A3000136E9EA8FED713C0ADFF12006D
:020000040020DA
:08000000FFFFFFFFFFFFFFFF00
:020000040030CA
:0E000000010E1F1EFF8181FF0FC00FE00F4099
:00000001FF
