:0400000007EF00F016
:0A0008004C829EED06F0FDEF08F0BB
:09080000006F6666006F6E0000D7
:10080A0037C03BF03C6A3D6A36343B3601E33C80F4
:10081A003B500001626F3AC03BF03C6A3D6A393492
:10082A003B3601E33C803B50616F6251D8B40BD038
:10083A006151625DD8B00ED06251000861253B6EED
:10084A00180E3B6407D038C035F039C036F03AC0CC
:10085A0037F012006151D8B40BD06251615DD8B043
:10086A000ED06151000862253B6E180E3B6407D01A
:10087A0035C035F036C036F037C037F01200060EF4
:10088A00606F37BE608F3ABE608D368EFF0E3516AA
:10089A00FF0E3616000E3716398EFF0E3816FF0E6B
:1008AA003916000E3A166151625DD8B01BD0D89045
:1008BA00383639363A36610762516119D8B40DD0E3
:1008CA00600760C03BF0070E3B16D8B406D0EFD7DE
:1008DA00D890373236323532622B61516219D8B428
:1008EA001FD0F6D76251615DD8B01AD0D89035368C
:1008FA0036363736620762516119D8B40DD06007AF
:10090A0060C03BF0070E3B16D8B406D0EFD7D8909C
:10091A003A3239323832612B61516219D8A4F7D789
:10092A0060AF0CD0FF0E351AFF0E361AFF0E371ABB
:10093A00010E3526000E3622000E372260AD0CD08D
:10094A00FF0E381AFF0E391AFF0E3A1A010E382610
:10095A00000E3922000E3A22000E606F35503826FA
:10096A003650392237503A223AAE0ED0FF0E381A94
:10097A00FF0E391AFF0E3A1A010E3826000E3922D6
:10098A00000E3A22010E606F38C014F039C015F01B
:10099A003AC016F062C017F060C018F064EC07F0B5
:1009AA0014C035F015C036F016C037F0120037C043
:1009BA0039F03A6A3B6A3634393601E33A803950BB
:1009CA000001656F6551D8A409D0000E356E000E7E
:1009DA00366E000E376E000E386E1200170E396E24
:1009EA0035C03AF036C03BF037C03CF039283D6E8E
:1009FA0004D0D8903C323B323A323D2EFAD73A50A4
:100A0A000001606F368EFF0E3516FF0E3616000E89
:100A1A0037163550616F3650626F3750636F646BAB
:100A2A008E0E655F65AF16D06551800A8F0FD8B0FC
:100A3A0009D0000E356E000E366E000E376E000EAF
:100A4A00386E1200D8906433633362336133653F82
:100A5A00F9D715D0170E65650FD0000E356E000E4A
:100A6A00366E000E376E000E386E1200D89061375F
:100A7A0062376337643765076551D8A4F7D7605181
:100A8A00D8B408D0641F631F621F616D000E622311
:100A9A006323642361C035F062C036F063C037F067
:100AAA0064C038F0120028C02CF02D6A2E6A273450
:100ABA002C3601E32D802C50336E3350D8A407D046
:100ACA00000E266E000E276E000E286E12002BC036
:100ADA002CF02D6A2E6A2A342C3601E32D802C50F4
:100AEA00346E3450D8A407D0000E266E000E276E3E
:100AFA00000E286E1200000E306E000E316E000ECF
:100B0A00326E3450890F335E28C034F02B50341AB9
:100B1A00800E3416278EFF0E2616FF0E2716000E9D
:100B2A0028162A8EFF0E2916FF0E2A16000E2B16DD
:100B3A00180E2F6ED8903036313632362950265C50
:100B4A002A5027582B502858D8A007D02950265E5B
:100B5A002A50275A2B50285A3080D89026362736C2
:100B6A0028362F2EE7D730C014F031C015F032C026
:100B7A0016F033C017F034C018F064EC07F014C054
:100B8A0026F015C027F016C028F012009592959409
:100B9A0095969598959A959C959E8392839483961B
:100BAA008398839A839C839E000E3F6E140E3E6E3A
:100BBA0036EC06F0300E836E92EC09F0000E3F6EB2
:100BCA00040E3E6E36EC06F0300E836E92EC09F09F
:100BDA00000E3F6E040E3E6E36EC06F0300E836E4B
:100BEA0092EC09F0000E3F6E010E3E6E36EC06F0F6
:100BFA00200E836E92EC09F0000E00016F6F280E32
:100C0A006E6FA2EC08F0000E3F6E080E3E6E36ECD8
:100C1A0006F0000E00016F6F0C0E6E6FA2EC08F06A
:100C2A00000E3F6E080E3E6E36EC06F0000E000116
:100C3A006F6F010E6E6FA2EC08F0000E3F6E020E8F
:100C4A003E6E36EC06F0000E00016F6F060E6E6FF8
:100C5A00A2EC08F0000E3F6E080E3E6E36EC06F06F
:100C6A001200000E00016B6F000E6A6F000E6D6FAE
:100C7A00000E6C6F000E696F000E686F830ED66EE1
:100C8A00D650666F676B661F671F664B672B050E2C
:100C9A00D89066376737E82EFBD7000E66251C6E9C
:100CAA00200E67211D6E1BEC09F01CC029F01DC027
:100CBA002AF01EC02BF0000E266EFA0E276E450E85
:100CCA00286E58EC05F026C035F027C036F028C04B
:100CDA0037F0DCEC04F035C06CF036C06DF0D58E20
:100CEA0020D0F2A41ED0F294830ED66E6A4B6B2BE0
:100CFA006C516A1916E16D516B19D8A412D0684B60
:100D0A00692B68513E1804E169513F18D8B405D0DF
:100D1A00000E6B6F000E6A6F04D06CC06AF06DC073
:100D2A006BF000016C516A5D6D516B59D8B01200BD
:100D3A00D8D70600FACF01F0FBCF02F0E9CF03F0D3
:100D4A00EACF04F0E1CF05F0E2CF06F0D9CF07F001
:100D5A00DACF08F0F3CF09F0F4CF0AF0F6CF0BF0B0
:100D6A00F7CF0CF0F8CF0DF0F5CF0EF04CC00FF026
:100D7A004DC010F04EC011F04FC012F09EAA1BD009
:100D8A00AECF13F0600E136403D07A0E136404D04E
:100D9A00200E1318D8A40BD0780E4224D96E000E58
:100DAA004320DA6E13C0DFFF424A432A04D0000E02
:100DBA00436E000E426E12C04FF011C04EF010C0CA
:100DCA004DF00FC04CF00EC0F5FF0DC0F8FF0CC07F
:100DDA00F7FF0BC0F6FF0AC0F4FF09C0F3FF08C013
:100DEA00DAFF07C0D9FF06C0E2FF05C0E1FF04C071
:100DFA00EAFF03C0E9FF02C0FBFF01C0FAFF4C9201
:100E0A001100720ED36E000E946E34EC08F0CBEC27
:100E1A0005F0800E0001666F250E676F000E686F81
:100E2A00000E696FBBEC07F0000E156E320E146EE1
:100E3A0037EC09F09D8AA1EC09F0AFEC09F0780EC5
:100E4A000001756F000E766F52EC09F0780E156E80
:100E5A00000E166E80EC09F0050E146E080E156E63
:100E6A00780E166E000E176ED7EC08F01450151097
:100E7A00D8A402D082840ED0010E146E080E156E0C
:100E8A00780E166E000E176ED7EC08F01450151077
:100E9A00D8B48294780E146E000E156E000E176E7A
:100EAA00000E166E000E196E160E186E6AEC09F018
:100EBA00010E3F6EF40E3E6E36EC06F0BCD71750AC
:100ECA00D8B405D0145015101610D8A40CD0000EA2
:100EDA00146E000E156E000E166E1200172AD890A8
:100EEA00163215321432000E1414196E000E15142F
:100EFA001A6EFE0E16141B6E19501A101B10D8B457
:100F0A000CD0ECD7172A010E1426000E1522000E5B
:100F1A001622D890163215321432000E1414196E95
:100F2A00000E15141A6EFF0E16141B6E19501A10A5
:100F3A001B10D8B406D0E6D71706D8901436153643
:100F4A00163615BE03D0020E1760F6D717A0159EE7
:100F5A00D8901732175016121850D8A4168E14C0EB
:100F6A0014F015C015F016C016F01200949C948E59
:100F7A0066C01CF067C01DF068C01EF069C01FF093
:100F8A00F8EC07F01CC029F01DC02AF01EC02BF097
:100F9A00240E266EF40E276E470E286E58EC05F0C6
:100FAA0026C035F027C036F028C037F0000E386E5C
:100FBA00800E396EBF0E3A6E05EC04F035C06AF049
:100FCA0036C06BF037C06CF06AC035F06BC036F0D3
:100FDA006CC037F0DCEC04F03550AF6E200EAC6E0E
:100FEA00940EAB6E1200000E256E8E0E246E1FAE8E
:100FFA0011D01F1E1E1E1D1E1C6C000E1D221E223D
:10100A001F22010E256E06D0D8901F321E321D32C5
:10101A001C32242A000E1C14206E000E1D14216E90
:10102A00000E1E14226EFF0E1F14236E2050211074
:10103A0022102310D8A4E8D71CC014F01DC015F044
:10104A001EC016F024C017F025C018F064EC07F093
:10105A0014C01CF015C01DF016C01EF01200F28E4E
:10106A00F28CD58ED58CD59AD596D550F80B040925
:10107A00D56EF294C180C182C184C186000E926E7F
:10108A00000E936E070EC26EC290C08EC050F80B4F
:10109A000609C06EC050C70B2809C06EC150F00BBC
:1010AA000D09C16E9282C050F80B0609C06EC19A32
:1010BA00C198C08EC2909D8C9E9CC086C088C08AF2
:1010CA00C2829E9A000E956E000E806E1200838276
:1010DA0083CF70F00F0E000170176EC071F06FC0F1
:1010EA0072F0040E736FD89072337133732FFBD77B
:1010FA000F0E711783380F0B0F0B0F097115746FD1
:10110A007439F00B7011836E92EC09F083CF70F092
:10111A000F0E000170176EC071F00F0E7117833831
:10112A000F0B0F0B0F097115726F7239F00B7011DB
:10113A00836E92EC09F083921200839283CF70F04F
:10114A000F0E000170176EC071F06FC072F0040EBE
:10115A00736FD89072337133732FFBD70F0E7117D9
:10116A0083380F0B0F0B0F097115746F7439F00B5D
:10117A007011836E92EC09F083CF70F00F0E0001AC
:10118A0070176EC071F00F0E711783380F0B0F0BAB
:10119A000F097115726F7239F00B7011836E92EC30
:1011AA0009F0120004D0144A152A164A172A14C044
:1011BA00F6FF15C0F7FF0800F5CF18F016C0D9FFE3
:1011CA0017C0DAFFDF5000081824196E1950D8A486
:1011DA0009D014C0F6FF15C0F7FF0800F550000942
:1011EA00D8A4E1D71950146E156A14BE1506120058
:1011FA00860EF66E130EF76E000EF86E0900F5CF26
:10120A004BF000EE78F0160EEE6AE806FDE100EE0D
:10121A0040F00B0EEE6AE806FDE14C904C92000E8F
:10122A00F86E080EF76E000106EF07F0000E1F6E4B
:10123A001DAE06D01C6C1D1ED8B01D2A010E1F6ED5
:10124A001CC014F01DC015F0166A8E0E176E1FC052
:10125A0018F064EC07F014C01CF015C01DF016C09D
:10126A001EF01200000E176E000E166E0FD0000E42
:10127A00196E000E186E195007E1510E185CD8B09D
:10128A0003D0184A192AF7D7164A172A1650145C97
:10129A0017501558D8A01200EAD70FD075C0D9FF39
:1012AA0076C0DAFFDF500001776F77516E6F6F6B90
:1012BA006CEC08F00001754B762B75C0D9FF76C02F
:1012CA00DAFFDF50D8B41200E9D714C01AF015C0FB
:1012DA001BF008D01AC0D9FF1BC0DAFF16C0DFFF07
:1012EA001A4A1B2A1806D8A019061828F3E1192841
:1012FA00D8B41200EFD709D015C0D9FF16C0DAFF4B
:10130A00DF50BDEC09F0154A162A15C0D9FF16C0E0
:10131A00DAFFDF50D8B41200EFD78386000E3F6E93
:10132A00020E3E6E36EC06F08396000E3F6E020EFB
:10133A003E6E36EC06F01200000E00016F6F020ED0
:10134A006E6FA2EC08F0000E3F6E040E3E6E36EC95
:10135A0006F01200000E00016F6F010E6E6FA2EC14
:10136A0008F0000E3F6E020E3E6E36EC06F01200DA
:0D137A00146E9EA8FED714C0ADFF12000730
:020000040020DA
:08000000FFFFFFFFFFFFFFFF00
:020000040030CA
:0E000000010E1F1EFF8381FF0FC00FE00F4097
:00000001FF
