:0400000007EF00F016
:100008004D82F6ED02F0D3EF04F036C03AF03B6AC9
:100018003C6A35343A3601E33B803A503F6E39C08A
:100028003AF03B6A3C6A38343A3601E33B803A504E
:100038003E6E3F50D8B40BD03E503F5CD8B00ED087
:100048003F5000083E243A6E180E3A6407D037C075
:1000580034F038C035F039C036F012003E50D8B40C
:100068000BD03F503E5CD8B00ED03E5000083F2425
:100078003A6E180E3A6407D034C034F035C035F003
:1000880036C036F01200060E3D6E36BE3D8E39BEC5
:100098003D8C358EFF0E3416FF0E3516000E3616C3
:1000A800388EFF0E3716FF0E3816000E39163E50E2
:1000B8003F5CD8B01BD0D8903736383639363E0634
:1000C8003F503E18D8B40DD03D063DC03AF0070E5B
:1000D8003A16D8B406D0EFD7D89036323532343203
:1000E8003F2A3E503F18D8B41FD0F6D73F503E5C49
:1000F800D8B01AD0D8903436353636363F063F5009
:100108003E18D8B40DD03D063DC03AF0070E3A1659
:10011800D8B406D0EFD7D8903932383237323E2AA1
:100128003E503F18D8A4F7D73DAE0CD0FF0E341A76
:10013800FF0E351AFF0E361A010E3426000E352230
:10014800000E36223DAC0CD0FF0E371AFF0E381ABF
:10015800FF0E391A010E3726000E3822000E3922FA
:10016800000E3D6E3450372635503822365039222D
:1001780039AE0ED0FF0E371AFF0E381AFF0E391A95
:10018800010E3726000E3822000E3922010E3D6E70
:1001980037C013F038C014F039C015F03FC016F05E
:1001A8003DC017F09FEC02F013C034F014C035F0D6
:1001B80015C036F0120036C038F0396A3A6A35345C
:1001C800383601E339803850426E4250D8A409D0FD
:1001D800000E346E000E356E000E366E000E376E51
:1001E8001200170E386E34C039F035C03AF036C0F8
:1001F8003BF038283C6E04D0D8903B323A32393242
:100208003C2EFAD739503D6E358EFF0E3416FF0E50
:100218003516000E361634503E6E35503F6E365049
:10022800406E416A8E0E425E42AE16D04250800A3F
:100238008F0FD8B009D0000E346E000E356E000E48
:10024800366E000E376E1200D890413240323F327F
:100258003E32423EF9D715D0170E42640FD0000E39
:10026800346E000E356E000E366E000E376E1200BC
:10027800D8903E363F364036413642064250D8A4E2
:10028800F7D73D50D8B408D0411E401E3F1E3E6CE3
:10029800000E3F22402241223EC034F03FC035F0DC
:1002A80040C036F041C037F0120027C02BF02C6A4E
:1002B8002D6A26342B3601E32C802B50326E3250B7
:1002C800D8A407D0000E256E000E266E000E276EED
:1002D80012002AC02BF02C6A2D6A29342B3601E330
:1002E8002C802B50336E3350D8A407D0000E256EC7
:1002F800000E266E000E276E1200000E2F6E000EE6
:10030800306E000E316E3350890F325E27C033F0E5
:100318002A50331A800E3316268EFF0E2516FF0E2E
:100328002616000E2716298EFF0E2816FF0E2916F0
:10033800000E2A16180E2E6ED8902F36303631360B
:100348002850255C295026582A502758D8A007D06D
:100358002850255E2950265A2A50275A2F80D8908F
:100368002536263627362E2EE7D72FC013F030C075
:1003780014F031C015F032C016F033C017F09FECFE
:1003880002F013C025F014C026F015C027F01200A3
:100398009592959495969598959A959C959E839205
:1003A800839483968398839A839C839E000E446EDD
:1003B800140E436E37EC02F0300E836EF8EC04F046
:1003C800000E446E040E436E37EC02F0300E836E5E
:1003D800F8EC04F0000E446E040E436E37EC02F0A5
:1003E800300E836EF8EC04F0000E446E010E436E7E
:1003F80037EC02F0200E836EF8EC04F0000E0001DA
:10040800676F280E666F29EC04F0000E446E080E24
:10041800436E37EC02F0000E0001676F0C0E666F3A
:1004280029EC04F0000E446E080E436E37EC02F01F
:10043800000E0001676F010E666F29EC04F0000ED4
:10044800446E020E436E37EC02F0000E0001676F37
:10045800060E666F29EC04F0000E446E080E436E1B
:1004680037EC02F01200000E0001636F000E626F9D
:10047800000E656F000E646F000E616F000E606FF6
:10048800830ED66ED650456E466A451E461E454AB0
:10049800462A050ED89045364636E82EFBD7000E7C
:1004A80045241B6E200E46201C6E84EC04F01BC0F5
:1004B80028F01CC029F01DC02AF0000E256EFA0E87
:1004C800266E450E276E59EC01F025C034F026C083
:1004D80035F027C036F0DFEC00F034C064F035C0EA
:1004E80065F0D58E20D0F2A41ED0F294830ED66E7D
:1004F800624B632B6451621916E165516319D8A4E4
:1005080012D0604B612B6051431804E161514418CB
:10051800D8B405D0000E636F000E626F04D064C0BB
:1005280062F065C063F000016451625D6551635912
:10053800D8B01200D8D71650D8B405D0135014101C
:100548001510D8A40CD0000E136E000E146E000EF9
:10055800156E1200162AD890153214321332000E76
:100568001314186E000E1414196EFE0E15141A6E5C
:10057800185019101A10D8B40CD0ECD7162A010E3E
:100588001326000E1422000E1522D89015321432AC
:100598001332000E1314186E000E1414196EFF0E89
:1005A80015141A6E185019101A10D8B406D0E6D7B8
:1005B8001606D89013361436153614BE03D0020E1C
:1005C8001660F6D716A0149ED8901632165015123B
:1005D8001750D8A4158E13C013F014C014F015C00A
:1005E80015F012000600FACF01F0FBCF02F0E9CFB8
:1005F80003F0EACF04F0E1CF05F0E2CF06F0D9CF5F
:1006080007F0DACF08F0F3CF09F0F4CF0AF0F6CF0D
:100618000BF0F7CF0CF0F8CF0DF0F5CF0EF04DC082
:100628000FF04EC010F04FC011F050C012F09EBC39
:100638009E9C12C050F011C04FF010C04EF00FC079
:100648004DF00EC0F5FF0DC0F8FF0CC0F7FF0BC052
:10065800F6FF0AC0F4FF09C0F3FF08C0DAFF07C0BD
:10066800D9FF06C0E2FF05C0E1FF04C0EAFF03C0EE
:10067800E9FF02C0FBFF01C0FAFF4D921100949CF4
:10068800948E43C01BF044C01CF045C01DF046C00A
:100698001EF080EC03F01BC028F01CC029F01DC020
:1006A8002AF0240E256EF40E266E470E276E59EC9E
:1006B80001F025C034F026C035F027C036F0000E12
:1006C800376E800E386EBF0E396E09EC00F034C0FC
:1006D80060F035C061F036C062F060C034F061C0CF
:1006E80035F062C036F0DFEC00F03450AF6E200E0B
:1006F800AC6E900EAB6E1200000E246E8E0E236E42
:100708001EAE11D01E1E1D1E1C1E1B6C000E1C22B0
:100718001D221E22010E246E06D0D8901E321D32D4
:100728001C321B32232A000E1B141F6E000E1C14D1
:10073800206E000E1D14216EFF0E1E14226E1F5017
:10074800201021102210D8A4E8D71BC013F01CC019
:1007580014F01DC015F023C016F024C017F09FEC4C
:1007680002F013C01BF014C01CF015C01DF01200DD
:10077800F28EF28CD58ED58CD59AD596D550F80BAD
:100788000409D56EF294C180C182C184C186000E6D
:10079800926E000E936E070EC26EC290C08EC0504D
:1007A800F80B0609C06EC050C70B2809C06EC150AF
:1007B800F00B0D09C16E9282C050F80B0609C06E8D
:1007C800C19AC198C08EC2809D8C9E9CC086C088EC
:1007D800C08AC282000E956E000E806E120083825F
:1007E80083CF68F00F0E0001681766C069F067C014
:1007F8006AF0040E6B6FD8906A3369336B2FFBD79E
:100808000F0E691783380F0B0F0B0F0969156C6FE3
:100818006C39F00B6811836EF8EC04F083CF68F044
:100828000F0E0001681766C069F00F0E691783384C
:100838000F0B0F0B0F0969156A6F6A39F00B6811F6
:10084800836EF8EC04F083921200839283CF68F0F1
:100858000F0E0001681766C069F067C06AF0040EE1
:100868006B6FD8906A3369336B2FFBD70F0E6917FC
:1008780083380F0B0F0B0F0969156C6F6C39F00B70
:100888006811836EF8EC04F083CF68F00F0E000156
:10089800681766C069F00F0E691783380F0B0F0BC6
:1008A8000F0969156A6F6A39F00B6811836EF8ECE5
:1008B80004F01200720ED36EBCEC03F0CCEC01F025
:1008C800800E436E250E446E000E456E000E466E79
:1008D80043EC03F0000E146E320E136EA0EC04F01D
:1008E80007EC05F0700E146E000E156EE6EC04F0C1
:1008F800700E00016D6F000E6E6FBBEC04F0F0D748
:10090800000E1E6E1CAE06D01B6C1C1ED8B01C2A16
:10091800010E1E6E1BC013F01CC014F0156A8E0E5B
:10092800166E1EC017F09FEC02F013C01BF014C027
:100938001CF015C01DF01200000E166E000E156E8C
:100948000FD0000E186E000E176E185007E1510EEA
:10095800175CD8B003D0174A182AF7D7154A162AB1
:100968001550135C16501458D8A01200EAD70FD0AF
:100978006DC0D9FF6EC0DAFFDF5000016F6F6F5195
:10098800666F676BF3EC03F000016D4B6E2B6DC067
:10099800D9FF6EC0DAFFDF50D8B41200E9D7360E9F
:1009A800F66E0A0EF76E000EF86E0900F5CF4CF0E1
:1009B8004B6A4A6A496A486A476A4D904D920001F3
:1009C8005EEF04F009D014C0D9FF15C0DAFFDF507C
:1009D80015EC05F0144A152A14C0D9FF15C0DAFF22
:1009E800DF50D8B41200EFD78386000E446E020E93
:1009F800436E37EC02F08396000E446E020E436E8F
:100A080037EC02F01200000E0001676F020E666FED
:100A180029EC04F0000E446E040E436E37EC02F02D
:0F0A28001200136E9EA8FED713C0ADFF12000779
:020000040020DA
:08000000FFFFFFFFFFFFFFFF00
:020000040030CA
:0E000000010E1F1EFF8181FF0FC00FE00F4099
:00000001FF
