:04000000C5EF13F045
:1008000000010000000A00000064000000E803008E
:100810000010270000A086010040420F008096983B
:100820000000E1F50500CA9A3B00803F002041002E
:10083000C842007A44401C4650C347247449971864
:100840004BBCBE4C6B6E4E03155079AD60F34971D5
:1008500000803FCDCC3DD7233C12833AB7D138C678
:100860002737388635C0D633CC2B32708930E7DB5A
:100870002EE53C1E42A20D252E32662020647574A2
:100880007900252E316620487A200000500E0001A4
:10089000636F000E646F6BD3250E7619D8B407D042
:1008A0004CC0D9FF4DC0DAFF76C0DFFF5ED3000E2B
:1008B000666F000E656F4EC0F6FF4FC0F7FF080071
:1008C000F5502E0AD8A42FD0668D4E4A4F2A000E1E
:1008D000726F000E716F1CD071C00FF072C010F0FB
:1008E000000E126E0A0E116E75EC13F04EC0F6FF7C
:1008F0004FC0F7FF0800F5500F26000E1022D00E53
:100900000F240001716FFF0E1020726F4E4A4F2AA4
:100910004EC0F6FF4FC0F7FF0800F5509AEC13F0F9
:10092000D8A00AD0D9D7000E0001726F000E716FE7
:10093000668902D0668512D04EC0F6FF4FC0F7FF21
:100940004E4A4F2A0800F5CF76F000017651000A92
:10095000D8B419D3660AD8B4EDD709D3070E6615F3
:10096000D8B4C9D266A904D0000E726F060E716F9A
:1009700063C0D9FF64C0DAFFDECF73F0DECF74F05E
:10098000DDCF75F0030E6327000E642375AF11D021
:1009900073C001F074C002F075C003F088EC13F06E
:1009A00001C073F002C074F003C075F0030E0001C3
:1009B0006513000E6C6F000E6B6F7351741175111F
:1009C000D8B486D0820E536EFF0E546E73C055F0AD
:1009D00074C056F075C057F076C058F0100E05D0B0
:1009E000D8905832573256325532E82EF9D75550F2
:1009F00053246B6F000E54206C6F6B07D8A06C07EC
:100A00006BC00FF06CC010F0000E126E030E116E72
:100A100075EC13F00FC06BF010C06CF06BC007F0FA
:100A20006CC008F0000E0A6E0A0E096E1BEC11F085
:100A300007C06BF008C06CF000016CAF03D06B070F
:100A4000D8A06C076B510008CAEC07F030C06DF0FD
:100A500031C06EF032C06FF06DC021F06EC022F078
:100A60006FC023F073C024F074C025F075C026F069
:100A700048EC0EF021C06DF022C06EF023C06FF084
:100A80006DC001F06EC002F06FC003F0000E046E86
:100A9000800E056E3F0E066ED3EC10F0D8B005D078
:100AA00000016B07D8A06C0713D06DC001F06EC0B9
:100AB00002F06FC003F0000E046E200E056E410EB2
:100AC000066ED3EC10F0D8A003D000016B4B6C2B5A
:100AD000000172BF06D072511BE10D0E715DD8B0DE
:100AE00017D073C03AF074C03BF075C03CF0715140
:100AF0001CEC0BF030C03DF031C03EF032C03FF096
:100B000045EC0CF03AC073F03BC074F03CC075F09B
:100B100000016CBF06D06C5120E10A0E6B5DD8B0AD
:100B20001CD0735174117511D8B456D073C037F0FE
:100B300074C038F075C039F0C2EC0EF03750381080
:100B400039103A10D8A448D000016CBF45D06C5180
:100B500004E1020E6B5DD8A03FD06DC001F06EC005
:100B600002F06FC003F0700E046E890E056E400E29
:100B7000066ED3EC10F0D8B003D00001F70E02D00F
:100B80000001F80E6B27FF0E6C236B51CAEC07F0C7
:100B900030C06DF031C06EF032C06FF073C001F044
:100BA00074C002F075C003F06DC004F06EC005F0B3
:100BB0006FC006F01BEC0DF001C067F002C068F0DA
:100BC00003C069F004C06AF0000E0001736F000EEC
:100BD000746F000E756F33D073C037F074C038F087
:100BE00075C039F0C2EC0EF037C067F038C068F05D
:100BF00039C069F03AC06AF073C046F074C047F07B
:100C000075C048F067C009F068C00AF069C00BF011
:100C10006AC00CF0DFEC12F009C049F00AC04AF0DB
:100C20000BC04BF00DEC13F046C073F047C074F0EE
:100C300048C075F0000E00016C6F000E6B6F010E66
:100C4000766F0A0E7619D8B418D07651040D010EBD
:100C5000F324F66E080EF420F76E0900F550675D78
:100C60000900F55068590900F55069590900F55017
:100C70006A59D8A002D0762BE4D7030E6515536EBF
:100C8000000E6615546E53505410D8B450D04CC05A
:100C9000D9FF4DC0DAFF2D0E47D067C001F068C004
:100CA00002F069C003F06AC004F07651040D010E31
:100CB000F324F66E080EF420F76E0900F5CF05F068
:100CC0000900F5CF06F00900F5CF07F00A00F5CFCF
:100CD00008F05DEC11F001C06DF002C06EF003C0D1
:100CE0006FF004C070F06DC001F06EC002F06FC014
:100CF00003F070C004F00A0E056E000E066E000EC2
:100D0000076E000E086E79EC12F001C06DF002C0A3
:100D10006EF003C06FF004C070F000016D51300F31
:100D20004CC0D9FF4DC0DAFFDF6E4C4A4D2A760722
:100D30007629D8B40CD0B1D74CC0D9FF4DC0DAFF5A
:100D4000300EDF6E4C4A4D2A6B07D8A06C076CBF83
:100D500005D06C51F1E16B05D8B0EED772BF09D068
:100D6000725104E1090E715DD8A003D0080E766FB0
:100D700002D071C076F07651715F000E76BFFF0E23
:100D8000725B7651D8B408D04CC0D9FF4DC0DAFFA1
:100D90002E0EDF6E4C4A4D2A7651CAEC07F030C059
:100DA00060F031C061F032C062F073C024F074C0F2
:100DB00025F075C026F060C021F061C022F062C04D
:100DC00023F048EC0EF021C037F022C038F023C0E9
:100DD00039F0C2EC0EF037C067F038C068F039C0A7
:100DE00069F03AC06AF071D067C001F068C002F0E3
:100DF00069C003F06AC004F000017651040D010ED1
:100E0000F324F66E080EF420F76E0900F5CF05F016
:100E10000900F5CF06F00900F5CF07F00A00F5CF7D
:100E200008F05DEC11F001C06DF002C06EF003C07F
:100E30006FF004C070F06DC001F06EC002F06FC0C2
:100E400003F070C004F00A0E056E000E066E000E70
:100E5000076E000E086E79EC12F001C06DF002C052
:100E60006EF003C06FF004C070F000016D51300FE0
:100E70004CC0D9FF4DC0DAFFDF6E4C4A4D2A67C027
:100E800001F068C002F069C003F06AC004F0765156
:100E9000040D010EF324F66E080EF420F76E09001F
:100EA000F5CF05F00900F5CF06F00900F5CF07F002
:100EB0000A00F5CF08F079EC12F001C067F002C02B
:100EC00068F003C069F004C06AF000017607762973
:100ED000D8B40CD089D74CC0D9FF4DC0DAFF300E42
:100EE000DF6E4C4A4D2A7107D8A0720771517211FA
:100EF000D8B43DD0F0D771517211D8A408D0675141
:100F0000681169116A11D8A402D0714B722B800E3E
:100F100076BF7F0E536E7151765D7251800A5358C1
:100F2000D8B003D071C076F010D07251800A536EE1
:100F30007651715D800E76BF7F0E5358D8B005D0C4
:100F40007651716F726B71BF7207030E6515536E28
:100F5000000E6615546E53505410D8B408D04CC0CF
:100F6000D9FF4DC0DAFF2D0EDF6E4C4A4D2A4EC020
:100F7000F6FF4FC0F7FF4E4A4F2A0800F5CF76F034
:100F80007651D8A489D44CC0D9FF4DC0DAFF000EE9
:100F9000DF6E1200366E36AE01D1366C3650800AE6
:100FA000120FD8A091D0000E126E030E116E000E1B
:100FB0000A6E0A0E096E000E046E640E036E365041
:100FC000016E026A01BE02069EEC11F001C007F03C
:100FD00002C008F01BEC11F0090E07240F6E000E82
:100FE0000820106E75EC13F0500E0F24F66E080EEC
:100FF0001020F76E0900F5CF24F00900F5CF25F099
:101000000A00F5CF26F0000E0A6E640E096E365007
:10101000076E086A07BE08061BEC11F0120E0724C3
:101020000F6E000E0820106E000E126E030E116E71
:1010300075EC13F0500E0F24F66E080E1020F76EAC
:101040000900F5CF21F00900F5CF22F00A00F5CF15
:1010500023F048EC0EF021C033F022C034F023C05E
:1010600035F033C021F034C022F035C023F0000E3B
:10107000126E030E116E000E046E0A0E036E3650D1
:10108000016E026A01BE02069EEC11F001C00FF073
:1010900002C010F075EC13F0500E0F24F66E080E1F
:1010A0001020F76E0900F5CF24F00900F5CF25F0E8
:1010B0000A00F5CF26F048EC0EF021C030F022C037
:1010C00031F023C032F012003650800A750FD8A0DC
:1010D00053D0000E0A6E0A0E096E3650076E086A6B
:1010E00007BE08061BEC11F0090E07240F6E000E58
:1010F0000820106E000E126E030E116E75EC13F0C8
:10110000500E0F24F66E080E1020F76E0900F5CF72
:1011100021F00900F5CF22F00A00F5CF23F0000EF0
:10112000126E030E116E000E046E0A0E036E365020
:10113000016E026A01BE02069EEC11F001C00FF0C2
:1011400002C010F075EC13F0500E0F24F66E080E6E
:101150001020F76E0900F5CF24F00900F5CF25F037
:101160000A00F5CF26F048EC0EF021C030F022C086
:1011700031F023C032F012003650030D500EF3242C
:10118000F66E080EF420F76E0900F5CF30F0090076
:10119000F5CF31F00A00F5CF32F012003650800A58
:1011A000120FD8A091D0000E126E030E116E000E19
:1011B0000A6E0A0E096E000E046E640E036E36503F
:1011C000016E026A01BE02069EEC11F001C007F03A
:1011D00002C008F01BEC11F0090E07240F6E000E80
:1011E0000820106E75EC13F0290E0F24F66E080E11
:1011F0001020F76E0900F5CF24F00900F5CF25F097
:101200000A00F5CF26F0000E0A6E640E096E365005
:10121000076E086A07BE08061BEC11F0120E0724C1
:101220000F6E000E0820106E000E126E030E116E6F
:1012300075EC13F0290E0F24F66E080E1020F76ED1
:101240000900F5CF21F00900F5CF22F00A00F5CF13
:1012500023F048EC0EF021C033F022C034F023C05C
:1012600035F033C021F034C022F035C023F0000E39
:10127000126E030E116E000E046E0A0E036E3650CF
:10128000016E026A01BE02069EEC11F001C00FF071
:1012900002C010F075EC13F0290E0F24F66E080E44
:1012A0001020F76E0900F5CF24F00900F5CF25F0E6
:1012B0000A00F5CF26F048EC0EF021C030F022C035
:1012C00031F023C032F012003650800A750FD8A0DA
:1012D00053D0000E0A6E0A0E096E3650076E086A69
:1012E00007BE08061BEC11F0090E07240F6E000E56
:1012F0000820106E000E126E030E116E75EC13F0C6
:10130000290E0F24F66E080E1020F76E0900F5CF97
:1013100021F00900F5CF22F00A00F5CF23F0000EEE
:10132000126E030E116E000E046E0A0E036E36501E
:10133000016E026A01BE02069EEC11F001C00FF0C0
:1013400002C010F075EC13F0290E0F24F66E080E93
:101350001020F76E0900F5CF24F00900F5CF25F035
:101360000A00F5CF26F048EC0EF021C030F022C084
:1013700031F023C032F012003650030D290EF32451
:10138000F66E080EF420F76E0900F5CF30F0090074
:10139000F5CF31F00A00F5CF32F01200720ED36EA5
:1013A000D6EC11F0AFEC0FF09484000E016E010E3C
:1013B000026E000E046E000E036E000E066E1E0E10
:1013C000056E49EC13F0780E016E010E026E000EF0
:1013D000046E000E036E000E066E140E056E49ECD0
:1013E00013F09D849E94050EBD6E000EBF6E000E20
:1013F000BE6E9E90800ECD6ECD80B8EC13F09EA494
:10140000FED79E94BECFDDF1BFCFDEF10101DF6BD1
:10141000E06B040EBD6E9EA4FED79E94BECFC8F1B5
:10142000BFCFC9F10101CA6BCB6B050EBD6E9EA487
:10143000FED79E94BECFD9F1BFCFDAF10101DB6BAD
:10144000DC6BD951DD5DDA51DE59DB51DF59DC51FE
:10145000E059D8B0D0D0DDC177F0DEC178F0DFC17F
:1014600079F0E0C17AF00001771F781F791F7A1FA9
:10147000772B000E782379237A230101D9510001BB
:1014800077250101D56FDA51000178210101D66F6E
:10149000DB51000179210101D76FDC5100017A2174
:1014A0000101D86F240E126EF40E136E490E146EE5
:1014B000D5C109F0D6C10AF0D7C10BF0D8C10CF0E4
:1014C000DFEC12F009C015F00AC016F00BC017F0DF
:1014D0003CEC0FF012C0CCF113C0CDF114C0CEF132
:1014E000000E4C6E010E4D6E820E4E6E080E4F6E4B
:1014F000CCC150F0CDC151F0CEC152F046EC04F059
:10150000000E576E010E586E5FEC13F0DDC177F0E0
:10151000DEC178F0DFC179F0E0C17AF00001771F19
:10152000781F791F7A1F772B000E782379237A236F
:101530000101C85100017725096E0101C95100015F
:1015400078210A6E0101CA51000179210B6E010157
:10155000CB5100017A210C6EDFEC12F009C0CFF103
:101560000AC0D0F10BC0D1F1D5C109F0D6C10AF043
:10157000D7C10BF0D8C10CF0DFEC12F009C015F0A8
:101580000AC016F00BC017F0CFC112F0D0C113F093
:10159000D1C114F03CEC0FF012C021F013C022F0C6
:1015A00014C023F0000E246EC80E256E420E266E67
:1015B00048EC0EF021C0D2F122C0D3F123C0D4F107
:1015C000780E4C6E010E4D6E770E4E6E080E4F6EFD
:1015D000D2C150F0D3C151F0D4C152F046EC04F066
:1015E000010E576E020E0EEC12F0780E576E010EC1
:1015F000586E5FEC13F0000ECF6E000ECE6E000E34
:10160000016E010E026E000E046E000E036E000EDF
:10161000066E1E0E056E49EC13F0780E016E010E7B
:10162000026E000E046E000E036E000E066E140EA7
:10163000056E49EC13F0E1D6396E6D0E39649FD01A
:10164000000E126E030E116E000E0A6E0A0E096E67
:10165000000E046E640E036E39C001F0026A9EEC47
:1016600011F001C007F002C008F01BEC11F0090EE8
:1016700007240F6E000E0820106E75EC13F0500E4C
:101680000F24F66E080E1020F76E0900F5CF24F037
:101690000900F5CF25F00A00F5CF26F0000E0A6EFE
:1016A000640E096E39C007F0086A1BEC11F0120EC7
:1016B00007240F6E000E0820106E000E126E030E2F
:1016C000116E75EC13F0500E0F24F66E080E1020FC
:1016D000F76E0900F5CF21F00900F5CF22F00A00DE
:1016E000F5CF23F048EC0EF021C036F022C037F0E1
:1016F00023C038F0000E126E030E116E000E046E41
:101700000A0E036E39C001F0026A9EEC11F001C0AE
:101710000FF002C010F075EC13F0500E0F24F66EAF
:10172000080E1020F76E0900F5CF24F00900F5CF60
:1017300025F00A00F5CF26F036C021F037C022F0A0
:1017400038C023F048EC0EF021C033F022C034F052
:1017500023C035F033C021F034C022F035C023F06F
:10176000000E246E000E256E3F0E266E48EC0EF025
:1017700021C030F022C031F023C032F012000A0E36
:10178000396463D0000E126E030E116E000E046EEB
:101790000A0E036E39C001F0026A9EEC11F001C01E
:1017A0000FF002C010F075EC13F0500E0F24F66E1F
:1017B000080E1020F76E0900F5CF24F00900F5CFD0
:1017C00025F00A00F5CF26F0000E0A6E0A0E096E0B
:1017D00039C007F0086A1BEC11F0090E07240F6EE0
:1017E000000E0820106E000E126E030E116E75ECC6
:1017F00013F0500E0F24F66E080E1020F76E09003D
:10180000F5CF21F00900F5CF22F00A00F5CF23F043
:1018100048EC0EF021C036F022C037F023C038F07B
:1018200036C021F037C022F038C023F0000E246EFD
:10183000000E256E3F0E266E48EC0EF021C030F0F3
:1018400022C031F023C032F012003950030D500E87
:10185000F324F66E080EF420F76E0900F5CF21F0A0
:101860000900F5CF22F00A00F5CF23F0000E246E18
:10187000000E256E3F0E266E48EC0EF021C030F0B3
:1018800022C031F023C032F012003CC040F0416A67
:10189000426A3B34403601E341804050456E3FC0D0
:1018A00040F0416A426A3E34403601E34180405094
:1018B000446E4550D8B40BD04450455CD8B00ED0DF
:1018C000455000084424406E180E406407D03DC0C7
:1018D0003AF03EC03BF03FC03CF012004450D8B458
:1018E0000BD04550445CD8B00ED04450000845247D
:1018F000406E180E406407D03AC03AF03BC03BF04F
:101900003CC03CF01200060E436E3CBE438E3FBE10
:10191000438C3B8EFF0E3A16FF0E3B16000E3C1614
:101920003E8EFF0E3D16FF0E3E16000E3F16445033
:10193000455CD8B01BD0D8903D363E363F36440685
:1019400045504418D8B40DD0430643C040F0070EAC
:101950004016D8B406D0EFD7D8903C323B323A325A
:10196000452A44504518D8B41FD0F6D74550445C9A
:10197000D8B01AD0D8903A363B363C36450645505A
:101980004418D8B40DD0430643C040F0070E4016AB
:10199000D8B406D0EFD7D8903F323E323D32442AF9
:1019A00044504518D8A4F7D743AE0CD0FF0E3A1ACE
:1019B000FF0E3B1AFF0E3C1A010E3A26000E3B2288
:1019C000000E3C2243AC0CD0FF0E3D1AFF0E3E1A17
:1019D000FF0E3F1A010E3D26000E3E22000E3F2252
:1019E000000E436E3A503D263B503E223C503F2273
:1019F0003FAE0ED0FF0E3D1AFF0E3E1AFF0E3F1AED
:101A0000010E3D26000E3E22000E3F22010E436EC7
:101A10003DC001F03EC002F03FC003F045C004F0FD
:101A200043C005F07CEC10F001C03AF002C03BF07E
:101A300003C03CF0120003C007F0086A096A0234D0
:101A4000073601E3088007500F6E0F50D8A409D065
:101A5000000E016E000E026E000E036E000E046E8C
:101A6000120006C007F0086A096A0534073601E368
:101A7000088007500E6E0E50D8A409D0000E016EDB
:101A8000000E026E000E036E000E046E1200028E37
:101A9000FF0E0116FF0E0216000E0316058EFF0E36
:101AA0000416FF0E0516000E0616000E0A6E000E36
:101AB0000B6E000E0C6E000E0D6E7F0E0F5E0E5044
:101AC000980F0F5E180E0E6ED8900A360B360C3635
:101AD0000D360450015C0550025806500358D8A03A
:101AE00007D00450015E0550025A0650035A0A807E
:101AF000D8900136023603360E2EE6D70FAE16D03A
:101B00000F50800A970FD8B009D0000E016E000E5A
:101B1000026E000E036E000E046E1200D8900D329D
:101B20000C320B320A320F3EF9D715D0170E0F6464
:101B30000FD0000E016E000E026E000E036E000E3E
:101B4000046E1200D8900A360B360C360D360F068E
:101B50000F50D8A4F7D70AC001F00BC002F00CC098
:101B600003F00DC004F01200033404340C6E0C506A
:101B7000D8A409D0000E016E000E026E000E036E96
:101B8000000E046E1200063407340B6E0B50D8A4FE
:101B900009D0000E016E000E026E000E036E000EE4
:101BA000046E1200038EFF0E0116FF0E0216FF0ECA
:101BB0000316000E0416068EFF0E0416FF0E051601
:101BC000FF0E0616000E0716000E076E000E086EBA
:101BD000000E096E000E0A6E7F0E0C5E0B50A00FF9
:101BE0000C5E200E0B6ED8900736083609360A3682
:101BF0000450015C05500258065003580750045821
:101C0000D8A009D00450015E0550025A0650035A6C
:101C10000750045A0780D89001360236033604363E
:101C20000B2EE1D70CAE16D00C50800A9F0FD8B007
:101C300009D0000E016E000E026E000E036E000E43
:101C4000046E1200D8900A320932083207320C3E74
:101C5000F9D715D01F0E0C640FD0000E016E000EC8
:101C6000026E000E036E000E046E1200D89007364E
:101C7000083609360A360C060C50D8A4F7D707C028
:101C800001F008C002F009C003F00AC004F012001D
:101C900023C027F0286A296A2234273601E32880E6
:101CA00027502A6E2A50D8A407D0000E216E000EAD
:101CB000226E000E236E120026C027F0286A296AC1
:101CC0002534273601E3288027502F6E2F50D8A4C3
:101CD00007D0000E216E000E226E000E236E120041
:101CE0002F507B0F2A2623C02FF026502F1A800E4C
:101CF0002F16228E258EFF0E2416FF0E2516000E9F
:101D00002616000E2B6E000E2C6E000E2D6E070E8A
:101D10002E6E21A006D024502B2625502C22265092
:101D20002D22D890233222322132D89024362536E3
:101D300026362E2EEED7090E2E6E21A006D0245068
:101D40002B2625502C2226502D22D89023322232A9
:101D50002132D8902D322C322B322E2EEED72BC0A2
:101D600001F02CC002F02DC003F02AC004F02FC0F7
:101D700005F07CEC10F001C021F002C022F003C09D
:101D800023F0120039C03BF03C6A3D6A38343B36E0
:101D900001E33C803B50456E4550D8A409D0000E6D
:101DA000376E000E386E000E396E000E3A6E12005D
:101DB000170E3B6E37C03CF038C03DF039C03EF0E6
:101DC0003B283F6E04D0D8903E323D323C323F2E0D
:101DD000FAD73C50406E388EFF0E3716FF0E38167D
:101DE000000E39163750416E3850426E3950436EEE
:101DF000446A8E0E455E45AE16D04550800A8F0F60
:101E0000D8B009D0000E376E000E386E000E396E55
:101E1000000E3A6E1200D8904432433242324132C0
:101E2000453EF9D715D0170E45640FD0000E376E1A
:101E3000000E386E000E396E000E3A6E1200D89009
:101E4000413642364336443645064550D8A4F7D786
:101E50004050D8B408D0441E431E421E416C000EB0
:101E600042224322442241C037F042C038F043C0EE
:101E700039F044C03AF0120014C018F0196A1A6A16
:101E80001334183601E3198018501F6E1F50D8A460
:101E900007D0000E126E000E136E000E146E1200AC
:101EA00017C018F0196A1A6A1634183601E3198037
:101EB0001850206E2050D8A407D0000E126E000ECD
:101EC000136E000E146E1200000E1C6E000E1D6EBE
:101ED000000E1E6E2050890F1F5E14C020F0175098
:101EE000201A800E2016138EFF0E1216FF0E1316E8
:101EF000000E1416168EFF0E1516FF0E1616000E87
:101F00001716180E1B6ED8901C361D361E3615502F
:101F1000125C1650135817501458D8A007D01550FB
:101F2000125E1650135A1750145A1C80D89012364D
:101F3000133614361B2EE7D71CC001F01DC002F06B
:101F40001EC003F01FC004F020C005F07CEC10F0B0
:101F500001C012F002C013F003C014F012009592F9
:101F6000959495969598959A959C959E8392839431
:101F700083968398839A839C839E000E476E140EEB
:101F8000466E16EC10F0300E836EA9EC13F0000EC6
:101F9000476E040E466E16EC10F0300E836EA9EC00
:101FA00013F0000E476E040E466E16EC10F0300E65
:101FB000836EA9EC13F0000E476E010E466E16EC10
:101FC00010F0200E836EA9EC13F0000E516E280E57
:101FD000506EACEC12F0000E476E080E466E16EC1A
:101FE00010F0000E516E0C0E506EACEC12F0000EA4
:101FF000476E080E466E16EC10F0000E516E010E84
:10200000506EACEC12F0000E476E020E466E16ECEF
:1020100010F0000E516E060E506EACEC12F0000E79
:10202000476E080E466E16EC10F01200000E4D6E54
:10203000000E4C6E000E4F6E000E4E6E000E4B6E7C
:10204000000E4A6E830ED66ED650486E496A481E00
:10205000491E484A492A050ED89048364936E82E86
:10206000FBD7000E4824096E200E49200A6E2DEC85
:1020700013F009C015F00AC016F00BC017F0000EDF
:10208000126EFA0E136E450E146E3CEC0FF012C079
:1020900037F013C038F014C039F0C2EC0EF037C07E
:1020A0004EF038C04FF0D58E20D0F2A41ED0F2945E
:1020B000830ED66E4C4A4D2A4E504C1816E14F50A6
:1020C0004D18D8A412D04A4A4B2A4A50461804E167
:1020D0004B504718D8B405D0000E4D6E000E4C6E14
:1020E00004D04EC04CF04FC04DF04E504C5C4F50A1
:1020F0004D58D8B01200D9D70450D8B405D00150EB
:1021000002100310D8A40CD0000E016E000E026E57
:10211000000E036E1200042AD890033202320132FC
:10212000000E0114066E000E0214076EFE0E03145C
:10213000086E065007100810D8B40CD0ECD7042A4B
:10214000010E0126000E0222000E0322D890033257
:1021500002320132000E0114066E000E0214076EE8
:10216000FF0E0314086E065007100810D8B406D0EE
:10217000E6D70406D89001360236033602BE03D0F5
:10218000020E0460F6D704A0029ED89004320450D8
:1021900003120550D8A4038E01C001F002C002F062
:1021A00003C003F0120003AE16D001C007F002C056
:1021B00008F003C009F0071E081E091E072A000EBA
:1021C00008220922000E0724016E000E0820026E6C
:1021D000800E0920036E06AE16D004C007F005C0BD
:1021E00008F006C009F0071E081E091E072A000E87
:1021F00008220922000E0724046E000E0820056E36
:10220000800E0920066E000E011A000E021A800EC2
:10221000031A000E041A000E051A800E061A045046
:10222000015C0550025806500358D8B002D0D8902F
:102230001200D8801200000E0C6E0AAE06D0096C97
:102240000A1ED8B00A2A010E0C6E08AE06D0076C22
:10225000081ED8B0082A010E0C1A000E0E6E000ED1
:102260000D6E09500A10D8B41CD0010E0B6E04D0AC
:10227000D89009360A360B2A0AAEFAD7D8900D360E
:102280000E360950075C0A500858D8A005D00950EE
:10229000075E0A50085A0D80D8900A3209320B2E78
:1022A000EDD70C50D8B404D00D6C0E1ED8B00E2A49
:1022B0000DC007F00EC008F01200000E096E000EEF
:1022C0000A6E000E0B6E000E0C6E05500610071005
:1022D0000810D8B42AD0010E0D6E06D0D89005365D
:1022E0000636073608360D2A08AEF8D7D8900936D4
:1022F0000A360B360C360550015C06500258075062
:10230000035808500458D8A009D00550015E065063
:10231000025A0750035A0850045A0980D8900832CC
:102320000732063205320D2EE1D709C001F00AC08E
:1023300002F00BC003F00CC004F01200000E066E99
:1023400002AE06D0016C021ED8B0022A010E066E43
:1023500004AE04D0036C041ED8B0042A0350041049
:10236000D8B418D0010E056E04D0D89003360436C8
:10237000052A04AEFAD70350015C04500258D8A0D5
:1023800004D00350015E0450025AD8900432033244
:10239000052EF1D70650D8B404D0016C021ED8B077
:1023A000022A01C001F002C002F01200F28EF28C8B
:1023B000D58ED58CD59AD596D550F80B0409D56E07
:1023C000F294C180C182C184C186000E926E000E5B
:1023D000936E070EC26EC290C08EC050F80B0609F5
:1023E000C06EC050C70B2809C06EC150F00B0D095C
:1023F000C16E9282C050F80B0609C06EC19AC19896
:10240000C08EC2909D9C9E9CC086C088C08AC2829D
:102410009E9A000E956E000E806E12005F6EB8ECF4
:1024200013F05F04D8A40ED0010E5D6E07D0000E2D
:10243000516E140E506EACEC12F05D2A57505D5C7C
:10244000D8A0F5D7020E5F18D8A41200010E5E6E58
:1024500007D0000E516E140E506EACEC12F05E2AD6
:102460005750586E596A280E5826000E59225E5051
:102470005A6E5B6A58505A5C5B50800A5C6E5950C9
:10248000800A5C58D8B01200E4D7838283CF52F020
:102490000F0E521650C053F051C054F0040E556E3A
:1024A000D89054325332552EFBD70F0E5316833823
:1024B0000F0B0F0B0F095314566E5638F00B5210BA
:1024C000836EA9EC13F083CF52F00F0E521650C05A
:1024D00053F00F0E531683380F0B0F0B0F095314C5
:1024E000546E5438F00B5210836EA9EC13F08392A3
:1024F00012000550061007100810D8B424D0010EA1
:10250000096E06D0D8900536063607360836092AF1
:1025100008AEF8D70550015C065002580750035822
:1025200008500458D8A008D00550015E0650025A41
:102530000750035A0850045AD8900832073206321E
:102540000532092EE7D701C001F002C002F003C036
:1025500003F004C004F01200839283CF52F00F0EF8
:10256000521650C053F051C054F0040E556ED8901E
:1025700054325332552EFBD70F0E531683380F0BA0
:102580000F0B0F095314566E5638F00B5210836E12
:10259000A9EC13F083CF52F00F0E521650C053F037
:1025A0000F0E531683380F0B0F0B0F095314546E75
:1025B0005438F00B5210836EA9EC13F012008E0EFB
:1025C000116E06D0D8900C320B320A320932112A21
:1025D000000E09140D6E000E0A140E6E000E0B1480
:1025E0000F6EFF0E0C14106E0D500E100F10101009
:1025F000D8A4E8D709C001F00AC002F00BC003F06C
:1026000011C004F0000E056E7CEC10F001C009F062
:1026100002C00AF003C00BF0120049504A104B10E0
:10262000D8B406D0000E491A000E4A1A800E4B1A72
:1026300046C03AF047C03BF048C03CF049C03DF0CE
:102640004AC03EF04BC03FF045EC0CF03AC046F0BB
:102650003BC047F03CC048F01200000E0C6E0AAEC2
:1026600006D0096C0A1ED8B00A2A010E0C6E09C0E9
:1026700001F00AC002F0036A8E0E046E0CC005F071
:102680007CEC10F001C009F002C00AF003C00BF0AE
:10269000120001C007F002C008F008D007C0D9FF3F
:1026A00008C0DAFF03C0DFFF074A082A0506D8A0E2
:1026B00006060528F3E10628D8B41200EFD70DD09E
:1026C00057C0D9FF58C0DAFFDF50596E5950506ECD
:1026D000516A45EC12F0574A582A57C0D9FF58C0E2
:1026E000DAFFDF50D8B41200EBD70F501102F3CF4E
:1026F00013F0F4CF14F00F501202F35014261050C0
:102700001102F350142613C00FF014C010F0120081
:10271000015002100310D8B406D0000E011A000EAA
:10272000021A800E031A01C001F002C002F003C0B9
:1027300003F01200036E000E026E3A0E036005D025
:102740002F0E036402D0010E026E02C001F00130B0
:1027500012008386000E476E020E466E16EC10F0D5
:102760008396000E476E020E466E16EC10F01200B5
:10277000000E516E020E506EACEC12F0000E476E61
:10278000040E466E16EC10F0120000017B6B000E7A
:08279000F86E0001CEEF09F024
:020000040020DA
:08000000FFFFFFFFFFFFFFFF00
:020000040030CA
:0E000000010E1F1EFF8381FF0FC00FE00F4097
:00000001FF
